{
  "contractName": "PaymentInformations",
  "abi": [
    {
      "anonymous": false,
      "inputs": [
        {
          "indexed": true,
          "internalType": "string",
          "name": "donorUsername",
          "type": "string"
        },
        {
          "indexed": true,
          "internalType": "string",
          "name": "projectId",
          "type": "string"
        },
        {
          "indexed": false,
          "internalType": "uint256",
          "name": "amount",
          "type": "uint256"
        },
        {
          "indexed": false,
          "internalType": "uint256",
          "name": "donatedAt",
          "type": "uint256"
        }
      ],
      "name": "AddedPayment",
      "type": "event"
    },
    {
      "inputs": [
        {
          "internalType": "uint256",
          "name": "",
          "type": "uint256"
        }
      ],
      "name": "payments",
      "outputs": [
        {
          "internalType": "string",
          "name": "donorUsername",
          "type": "string"
        },
        {
          "internalType": "string",
          "name": "projectId",
          "type": "string"
        },
        {
          "internalType": "uint256",
          "name": "amount",
          "type": "uint256"
        },
        {
          "internalType": "uint256",
          "name": "donatedAt",
          "type": "uint256"
        }
      ],
      "stateMutability": "view",
      "type": "function"
    }
  ],
  "bytecode": "0x608060405234801561001057600080fd5b5061039d806100206000396000f3fe608060405234801561001057600080fd5b506004361061002b5760003560e01c806387d8178914610030575b600080fd5b61004a600480360381019061004591906101de565b610063565b60405161005a94939291906102b3565b60405180910390f35b600160205280600052604060002060009150905080600001805461008690610335565b80601f01602080910402602001604051908101604052809291908181526020018280546100b290610335565b80156100ff5780601f106100d4576101008083540402835291602001916100ff565b820191906000526020600020905b8154815290600101906020018083116100e257829003601f168201915b50505050509080600101805461011490610335565b80601f016020809104026020016040519081016040528092919081815260200182805461014090610335565b801561018d5780601f106101625761010080835404028352916020019161018d565b820191906000526020600020905b81548152906001019060200180831161017057829003601f168201915b5050505050908060020154908060030154905084565b600080fd5b6000819050919050565b6101bb816101a8565b81146101c657600080fd5b50565b6000813590506101d8816101b2565b92915050565b6000602082840312156101f4576101f36101a3565b5b6000610202848285016101c9565b91505092915050565b600081519050919050565b600082825260208201905092915050565b60005b8381101561024557808201518184015260208101905061022a565b83811115610254576000848401525b50505050565b6000601f19601f8301169050919050565b60006102768261020b565b6102808185610216565b9350610290818560208601610227565b6102998161025a565b840191505092915050565b6102ad816101a8565b82525050565b600060808201905081810360008301526102cd818761026b565b905081810360208301526102e1818661026b565b90506102f060408301856102a4565b6102fd60608301846102a4565b95945050505050565b7f4e487b7100000000000000000000000000000000000000000000000000000000600052602260045260246000fd5b6000600282049050600182168061034d57607f821691505b6020821081141561036157610360610306565b5b5091905056fea2646970667358221220cfd67e747e5543ff6f9d7ae9aeeb5ad45258ec85c1f74f362632e5b2120ade7464736f6c63430008090033",
  "immutableReferences": {},
  "source": "// SPDX-License-Identifier: MIT\n\npragma solidity ^0.8.9;\n\ncontract PaymentInformations {\n\n    uint256 counter;\n    \n    struct PaymentInfo {\n        string donorUsername;\n        string projectId;\n        uint256 amount;\n        uint256 donatedAt;\n    }\n\n    event AddedPayment (\n        string indexed donorUsername,\n        string indexed projectId,\n        uint256 amount,\n        uint256 donatedAt\n    );\n\n    mapping(uint256 => PaymentInfo) public payments;\n\n    // function addPaymentInfo(string memory donorUsername, string memory projectId, uint256 amount, uint256 donatedAt) external {\n    //     payments[++counter] = PaymentInfo(donorUsername, projectId, amount, donatedAt);\n    //     emit AddedPayment(donorUsername, projectId, amount, donatedAt);\n    // }\n}\n",
  "sourcePath": "/home/jeremy/Desktop/fets_front_end/src/contracts/payment_management/PaymentInformations.sol",
  "compiler": {
    "name": "solc",
    "version": "0.8.9+commit.e5eed63a.Emscripten.clang"
  },
  "schemaVersion": "3.4.3",
  "updatedAt": "2022-04-25T06:43:35.289Z",
  "devdoc": {
    "kind": "dev",
    "methods": {},
    "version": 1
  },
  "userdoc": {
    "kind": "user",
    "methods": {},
    "version": 1
  }
}