{
  "contractName": "PaymentInformations",
  "abi": [
    {
      "anonymous": false,
      "inputs": [
        {
          "indexed": true,
          "internalType": "string",
          "name": "donorUsername",
          "type": "string"
        },
        {
          "indexed": true,
          "internalType": "string",
          "name": "projectId",
          "type": "string"
        },
        {
          "indexed": false,
          "internalType": "uint256",
          "name": "amount",
          "type": "uint256"
        },
        {
          "indexed": false,
          "internalType": "uint256",
          "name": "donatedAt",
          "type": "uint256"
        }
      ],
      "name": "AddedPayment",
      "type": "event"
    },
    {
      "anonymous": false,
      "inputs": [
        {
          "indexed": true,
          "internalType": "string",
          "name": "donorUsername",
          "type": "string"
        },
        {
          "indexed": true,
          "internalType": "string",
          "name": "projectId",
          "type": "string"
        },
        {
          "indexed": false,
          "internalType": "uint256",
          "name": "amount",
          "type": "uint256"
        },
        {
          "indexed": false,
          "internalType": "uint256",
          "name": "donatedAt",
          "type": "uint256"
        }
      ],
      "name": "RefundedPayment",
      "type": "event"
    },
    {
      "inputs": [
        {
          "internalType": "uint256",
          "name": "",
          "type": "uint256"
        }
      ],
      "name": "payments",
      "outputs": [
        {
          "internalType": "string",
          "name": "donorUsername",
          "type": "string"
        },
        {
          "internalType": "string",
          "name": "projectId",
          "type": "string"
        },
        {
          "internalType": "uint256",
          "name": "amount",
          "type": "uint256"
        },
        {
          "internalType": "uint256",
          "name": "donatedAt",
          "type": "uint256"
        }
      ],
      "stateMutability": "view",
      "type": "function",
      "constant": true
    },
    {
      "inputs": [
        {
          "internalType": "string",
          "name": "donorUsername",
          "type": "string"
        },
        {
          "internalType": "string",
          "name": "projectId",
          "type": "string"
        },
        {
          "internalType": "uint256",
          "name": "amount",
          "type": "uint256"
        },
        {
          "internalType": "uint256",
          "name": "donatedAt",
          "type": "uint256"
        }
      ],
      "name": "addPaymentInfo",
      "outputs": [],
      "stateMutability": "nonpayable",
      "type": "function"
    },
    {
      "inputs": [
        {
          "internalType": "uint256",
          "name": "id",
          "type": "uint256"
        }
      ],
      "name": "deletePaymentInfo",
      "outputs": [],
      "stateMutability": "nonpayable",
      "type": "function"
    },
    {
      "inputs": [
        {
          "internalType": "string",
          "name": "_username",
          "type": "string"
        }
      ],
      "name": "getPaymentInfoByUsername",
      "outputs": [
        {
          "components": [
            {
              "internalType": "string",
              "name": "donorUsername",
              "type": "string"
            },
            {
              "internalType": "string",
              "name": "projectId",
              "type": "string"
            },
            {
              "internalType": "uint256",
              "name": "amount",
              "type": "uint256"
            },
            {
              "internalType": "uint256",
              "name": "donatedAt",
              "type": "uint256"
            }
          ],
          "internalType": "struct PaymentInformations.PaymentInfo[]",
          "name": "",
          "type": "tuple[]"
        }
      ],
      "stateMutability": "view",
      "type": "function",
      "constant": true
    }
  ],
  "bytecode": "0x608060405234801561001057600080fd5b50610b83806100206000396000f3fe608060405234801561001057600080fd5b5060043610610068577c0100000000000000000000000000000000000000000000000000000000600035046303b2ac32811461006d5780637719ca021461008257806387d8178914610095578063b3f42ae2146100c1575b600080fd5b61008061007b366004610758565b6100e1565b005b610080610090366004610817565b61011b565b6100a86100a3366004610758565b610212565b6040516100b894939291906108e7565b60405180910390f35b6100d46100cf366004610920565b61034a565b6040516100b8919061095d565b6000818152600160205260408120906100fa8282610682565b610108600183016000610682565b5060006002820181905560039091015550565b60405180608001604052808581526020018481526020018381526020018281525060016000806000815461014e90610a0e565b91829055508152602080820192909252604001600020825180519192610179928492909101906106bf565b50602082810151805161019292600185019201906106bf565b506040828101516002830155606090920151600390910155516101b6908490610a29565b6040518091039020846040516101cc9190610a29565b6040805191829003822085835260208301859052917f2b90cfe3c4b3cc84ef43e0ec4f713d08fda4fc9c2990fd12dc7a502ee68c2b05910160405180910390a350505050565b60016020526000908152604090208054819061022d90610a45565b80601f016020809104026020016040519081016040528092919081815260200182805461025990610a45565b80156102a65780601f1061027b576101008083540402835291602001916102a6565b820191906000526020600020905b81548152906001019060200180831161028957829003601f168201915b5050505050908060010180546102bb90610a45565b80601f01602080910402602001604051908101604052809291908181526020018280546102e790610a45565b80156103345780601f1061030957610100808354040283529160200191610334565b820191906000526020600020905b81548152906001019060200180831161031757829003601f168201915b5050505050908060020154908060030154905084565b60606000610357836105e4565b905060008167ffffffffffffffff81111561037457610374610771565b6040519080825280602002602001820160405280156103d057816020015b6103bd6040518060800160405280606081526020016060815260200160008152602001600081525090565b8152602001906001900390816103925790505b509050600060015b6000546103e6906001610a7d565b8110156105da57856040516020016103fe9190610a29565b60408051601f198184030181528282528051602091820120600085815260018352929092209192610430929101610a95565b6040516020818303038152906040528051906020012014156105c8576000818152600160205260409081902081516080810190925280548290829061047490610a45565b80601f01602080910402602001604051908101604052809291908181526020018280546104a090610a45565b80156104ed5780601f106104c2576101008083540402835291602001916104ed565b820191906000526020600020905b8154815290600101906020018083116104d057829003601f168201915b5050505050815260200160018201805461050690610a45565b80601f016020809104026020016040519081016040528092919081815260200182805461053290610a45565b801561057f5780601f106105545761010080835404028352916020019161057f565b820191906000526020600020905b81548152906001019060200180831161056257829003601f168201915b50505050508152602001600282015481526020016003820154815250508383815181106105ae576105ae610b34565b602002602001018190525081806105c490610a0e565b9250505b806105d281610a0e565b9150506103d8565b5090949350505050565b6000805b6000546105f6906001610a7d565b81101561067c578260405160200161060e9190610a29565b60408051601f198184030181528282528051602091820120600085815260018352929092209192610640929101610a95565b60405160208183030381529060405280519060200120141561066a578161066681610a0e565b9250505b8061067481610a0e565b9150506105e8565b50919050565b50805461068e90610a45565b6000825580601f1061069e575050565b601f0160209004906000526020600020908101906106bc9190610743565b50565b8280546106cb90610a45565b90600052602060002090601f0160209004810192826106ed5760008555610733565b82601f1061070657805160ff1916838001178555610733565b82800160010185558215610733579182015b82811115610733578251825591602001919060010190610718565b5061073f929150610743565b5090565b5b8082111561073f5760008155600101610744565b60006020828403121561076a57600080fd5b5035919050565b60e060020a634e487b7102600052604160045260246000fd5b600082601f83011261079b57600080fd5b813567ffffffffffffffff808211156107b6576107b6610771565b604051601f8301601f19908116603f011681019082821181831017156107de576107de610771565b816040528381528660208588010111156107f757600080fd5b836020870160208301376000602085830101528094505050505092915050565b6000806000806080858703121561082d57600080fd5b843567ffffffffffffffff8082111561084557600080fd5b6108518883890161078a565b9550602087013591508082111561086757600080fd5b506108748782880161078a565b949794965050505060408301359260600135919050565b60005b838110156108a657818101518382015260200161088e565b838111156108b5576000848401525b50505050565b600081518084526108d381602086016020860161088b565b601f01601f19169290920160200192915050565b6080815260006108fa60808301876108bb565b828103602084015261090c81876108bb565b604084019590955250506060015292915050565b60006020828403121561093257600080fd5b813567ffffffffffffffff81111561094957600080fd5b6109558482850161078a565b949350505050565b60208082528251828201819052600091906040908185019080840286018301878501865b838110156109e757603f198984030185528151608081518186526109a7828701826108bb565b915050888201518582038a8701526109bf82826108bb565b838a0151878b0152606093840151939096019290925250509386019390860190600101610981565b509098975050505050505050565b60e060020a634e487b7102600052601160045260246000fd5b6000600019821415610a2257610a226109f5565b5060010190565b60008251610a3b81846020870161088b565b9190910192915050565b600281046001821680610a5957607f821691505b6020821081141561067c5760e060020a634e487b7102600052602260045260246000fd5b60008219821115610a9057610a906109f5565b500190565b8154600090819060028104600180831680610ab157607f831692505b6020808410821415610ad45760e060020a634e487b710286526022600452602486fd5b818015610ae85760018114610af957610b26565b60ff19861689528489019650610b26565b60008a81526020902060005b86811015610b1e5781548b820152908501908301610b05565b505084890196505b509498975050505050505050565b60e060020a634e487b7102600052603260045260246000fdfea26469706673582212207738afa236105e01d54d83446ab7ef98eafdb4f584995cf78a635e4b37d3d38f64736f6c63430008090033",
  "immutableReferences": {},
  "source": "// SPDX-License-Identifier: MIT\n\npragma solidity ^0.8;\npragma experimental ABIEncoderV2;\n\ncontract PaymentInformations {\n    uint256 count;\n\n    struct PaymentInfo {\n        string donorUsername;\n        string projectId;\n        uint256 amount;\n        uint256 donatedAt;\n    }\n\n    event AddedPayment(\n        string indexed donorUsername,\n        string indexed projectId,\n        uint256 amount,\n        uint256 donatedAt\n    );\n\n    event RefundedPayment(\n        string indexed donorUsername,\n        string indexed projectId,\n        uint256 amount,\n        uint256 donatedAt\n    );\n\n    mapping(uint256 => PaymentInfo) public payments;\n\n    //add only donor modifier\n    function addPaymentInfo(\n        string memory donorUsername,\n        string memory projectId,\n        uint256 amount,\n        uint256 donatedAt\n    ) external {\n        payments[++count] = PaymentInfo(\n            donorUsername,\n            projectId,\n            amount,\n            donatedAt\n        );\n        emit AddedPayment(donorUsername, projectId, amount, donatedAt);\n    }\n\n    function deletePaymentInfo(uint256 id) external {\n        delete payments[id];\n    }\n\n    function getPaymentInfoCountByUsername(string memory _username)\n        internal\n        view\n        returns (uint256 length)\n    {\n        for (uint256 index = 0; index < count + 1; index++) {\n            if (\n                keccak256(abi.encodePacked(payments[index].donorUsername)) ==\n                keccak256(abi.encodePacked(_username))\n            ) {\n                length++;\n            }\n        }\n    }\n\n    //add only donor modifier\n    function getPaymentInfoByUsername(string memory _username)\n        external\n        view\n        returns (PaymentInfo[] memory)\n    {\n        uint256 length = getPaymentInfoCountByUsername(_username);\n        PaymentInfo[] memory ft = new PaymentInfo[](length);\n        uint256 counter = 0;\n        for (uint256 index = 1; index < count + 1; index++) {\n            if (\n                keccak256(abi.encodePacked(payments[index].donorUsername)) ==\n                keccak256(abi.encodePacked(_username))\n            ) {\n                ft[counter] = payments[index];\n                counter++;\n            }\n        }\n        return ft;\n    }\n}\n",
  "sourcePath": "/home/jeremy/Desktop/fets_front_end/src/contracts/payment_management/PaymentInformations.sol",
  "compiler": {
    "name": "solc",
    "version": "0.8.9+commit.e5eed63a.Emscripten.clang"
  },
  "schemaVersion": "3.4.3",
  "updatedAt": "2022-06-17T13:40:07.292Z",
  "networkType": "ethereum",
  "devdoc": {
    "kind": "dev",
    "methods": {},
    "version": 1
  },
  "userdoc": {
    "kind": "user",
    "methods": {},
    "version": 1
  }
}