{
  "contractName": "PaymentInformations",
  "abi": [
    {
      "anonymous": false,
      "inputs": [
        {
          "indexed": true,
          "internalType": "string",
          "name": "donorUsername",
          "type": "string"
        },
        {
          "indexed": true,
          "internalType": "string",
          "name": "projectId",
          "type": "string"
        },
        {
          "indexed": false,
          "internalType": "uint256",
          "name": "amount",
          "type": "uint256"
        },
        {
          "indexed": false,
          "internalType": "uint256",
          "name": "donatedAt",
          "type": "uint256"
        }
      ],
      "name": "AddedPayment",
      "type": "event"
    },
    {
      "anonymous": false,
      "inputs": [
        {
          "indexed": true,
          "internalType": "string",
          "name": "donorUsername",
          "type": "string"
        },
        {
          "indexed": true,
          "internalType": "string",
          "name": "projectId",
          "type": "string"
        },
        {
          "indexed": false,
          "internalType": "uint256",
          "name": "amount",
          "type": "uint256"
        },
        {
          "indexed": false,
          "internalType": "uint256",
          "name": "donatedAt",
          "type": "uint256"
        }
      ],
      "name": "DeletedPaymentInfo",
      "type": "event"
    },
    {
      "inputs": [
        {
          "internalType": "uint256",
          "name": "",
          "type": "uint256"
        }
      ],
      "name": "payments",
      "outputs": [
        {
          "internalType": "string",
          "name": "donorUsername",
          "type": "string"
        },
        {
          "internalType": "string",
          "name": "projectId",
          "type": "string"
        },
        {
          "internalType": "uint256",
          "name": "amount",
          "type": "uint256"
        },
        {
          "internalType": "uint256",
          "name": "donatedAt",
          "type": "uint256"
        }
      ],
      "stateMutability": "view",
      "type": "function",
      "constant": true
    },
    {
      "inputs": [
        {
          "internalType": "string",
          "name": "donorUsername",
          "type": "string"
        },
        {
          "internalType": "string",
          "name": "projectId",
          "type": "string"
        },
        {
          "internalType": "uint256",
          "name": "amount",
          "type": "uint256"
        },
        {
          "internalType": "uint256",
          "name": "donatedAt",
          "type": "uint256"
        }
      ],
      "name": "addPaymentInfo",
      "outputs": [],
      "stateMutability": "nonpayable",
      "type": "function"
    },
    {
      "inputs": [
        {
          "internalType": "uint256",
          "name": "id",
          "type": "uint256"
        }
      ],
      "name": "deletePaymentInfo",
      "outputs": [],
      "stateMutability": "nonpayable",
      "type": "function"
    },
    {
      "inputs": [
        {
          "internalType": "string",
          "name": "_username",
          "type": "string"
        }
      ],
      "name": "getPaymentInfoByUsername",
      "outputs": [
        {
          "components": [
            {
              "internalType": "string",
              "name": "donorUsername",
              "type": "string"
            },
            {
              "internalType": "string",
              "name": "projectId",
              "type": "string"
            },
            {
              "internalType": "uint256",
              "name": "amount",
              "type": "uint256"
            },
            {
              "internalType": "uint256",
              "name": "donatedAt",
              "type": "uint256"
            }
          ],
          "internalType": "struct PaymentInformations.PaymentInfo[]",
          "name": "",
          "type": "tuple[]"
        }
      ],
      "stateMutability": "view",
      "type": "function",
      "constant": true
    }
  ],
  "bytecode": "0x608060405234801561001057600080fd5b50610e30806100206000396000f3fe608060405234801561001057600080fd5b506004361061004c5760003560e01c806303b2ac32146100515780637719ca021461006d57806387d8178914610089578063b3f42ae2146100bc575b600080fd5b61006b600480360381019061006691906106df565b6100ec565b005b61008760048036038101906100829190610852565b610135565b005b6100a3600480360381019061009e91906106df565b610238565b6040516100b39493929190610988565b60405180910390f35b6100d660048036038101906100d191906109db565b610378565b6040516100e39190610ba9565b60405180910390f35b600160008281526020019081526020016000206000808201600061011091906105b2565b60018201600061012091906105b2565b60028201600090556003820160009055505050565b60405180608001604052808581526020018481526020018381526020018281525060016000806000815461016890610bfa565b919050819055815260200190815260200160002060008201518160000190805190602001906101989291906105f2565b5060208201518160010190805190602001906101b59291906105f2565b506040820151816002015560608201518160030155905050826040516101db9190610c7f565b6040518091039020846040516101f19190610c7f565b60405180910390207f2b90cfe3c4b3cc84ef43e0ec4f713d08fda4fc9c2990fd12dc7a502ee68c2b05848460405161022a929190610c96565b60405180910390a350505050565b600160205280600052604060002060009150905080600001805461025b90610cee565b80601f016020809104026020016040519081016040528092919081815260200182805461028790610cee565b80156102d45780601f106102a9576101008083540402835291602001916102d4565b820191906000526020600020905b8154815290600101906020018083116102b757829003601f168201915b5050505050908060010180546102e990610cee565b80601f016020809104026020016040519081016040528092919081815260200182805461031590610cee565b80156103625780601f1061033757610100808354040283529160200191610362565b820191906000526020600020905b81548152906001019060200180831161034557829003601f168201915b5050505050908060020154908060030154905084565b6060806000805b6000548110156105a757600060016000838152602001908152602001600020600301541461059457846040516020016103b89190610c7f565b60405160208183030381529060405280519060200120600160008381526020019081526020016000206000016040516020016103f49190610db4565b604051602081830303815290604052805190602001201415610593576001600082815260200190815260200160002060405180608001604052908160008201805461043e90610cee565b80601f016020809104026020016040519081016040528092919081815260200182805461046a90610cee565b80156104b75780601f1061048c576101008083540402835291602001916104b7565b820191906000526020600020905b81548152906001019060200180831161049a57829003601f168201915b505050505081526020016001820180546104d090610cee565b80601f01602080910402602001604051908101604052809291908181526020018280546104fc90610cee565b80156105495780601f1061051e57610100808354040283529160200191610549565b820191906000526020600020905b81548152906001019060200180831161052c57829003601f168201915b505050505081526020016002820154815260200160038201548152505083838151811061057957610578610dcb565b5b6020026020010181905250818061058f90610bfa565b9250505b5b808061059f90610bfa565b91505061037f565b508192505050919050565b5080546105be90610cee565b6000825580601f106105d057506105ef565b601f0160209004906000526020600020908101906105ee9190610678565b5b50565b8280546105fe90610cee565b90600052602060002090601f0160209004810192826106205760008555610667565b82601f1061063957805160ff1916838001178555610667565b82800160010185558215610667579182015b8281111561066657825182559160200191906001019061064b565b5b5090506106749190610678565b5090565b5b80821115610691576000816000905550600101610679565b5090565b6000604051905090565b600080fd5b600080fd5b6000819050919050565b6106bc816106a9565b81146106c757600080fd5b50565b6000813590506106d9816106b3565b92915050565b6000602082840312156106f5576106f461069f565b5b6000610703848285016106ca565b91505092915050565b600080fd5b600080fd5b6000601f19601f8301169050919050565b7f4e487b7100000000000000000000000000000000000000000000000000000000600052604160045260246000fd5b61075f82610716565b810181811067ffffffffffffffff8211171561077e5761077d610727565b5b80604052505050565b6000610791610695565b905061079d8282610756565b919050565b600067ffffffffffffffff8211156107bd576107bc610727565b5b6107c682610716565b9050602081019050919050565b82818337600083830152505050565b60006107f56107f0846107a2565b610787565b90508281526020810184848401111561081157610810610711565b5b61081c8482856107d3565b509392505050565b600082601f8301126108395761083861070c565b5b81356108498482602086016107e2565b91505092915050565b6000806000806080858703121561086c5761086b61069f565b5b600085013567ffffffffffffffff81111561088a576108896106a4565b5b61089687828801610824565b945050602085013567ffffffffffffffff8111156108b7576108b66106a4565b5b6108c387828801610824565b93505060406108d4878288016106ca565b92505060606108e5878288016106ca565b91505092959194509250565b600081519050919050565b600082825260208201905092915050565b60005b8381101561092b578082015181840152602081019050610910565b8381111561093a576000848401525b50505050565b600061094b826108f1565b61095581856108fc565b935061096581856020860161090d565b61096e81610716565b840191505092915050565b610982816106a9565b82525050565b600060808201905081810360008301526109a28187610940565b905081810360208301526109b68186610940565b90506109c56040830185610979565b6109d26060830184610979565b95945050505050565b6000602082840312156109f1576109f061069f565b5b600082013567ffffffffffffffff811115610a0f57610a0e6106a4565b5b610a1b84828501610824565b91505092915050565b600081519050919050565b600082825260208201905092915050565b6000819050602082019050919050565b600082825260208201905092915050565b6000610a6c826108f1565b610a768185610a50565b9350610a8681856020860161090d565b610a8f81610716565b840191505092915050565b610aa3816106a9565b82525050565b60006080830160008301518482036000860152610ac68282610a61565b91505060208301518482036020860152610ae08282610a61565b9150506040830151610af56040860182610a9a565b506060830151610b086060860182610a9a565b508091505092915050565b6000610b1f8383610aa9565b905092915050565b6000602082019050919050565b6000610b3f82610a24565b610b498185610a2f565b935083602082028501610b5b85610a40565b8060005b85811015610b975784840389528151610b788582610b13565b9450610b8383610b27565b925060208a01995050600181019050610b5f565b50829750879550505050505092915050565b60006020820190508181036000830152610bc38184610b34565b905092915050565b7f4e487b7100000000000000000000000000000000000000000000000000000000600052601160045260246000fd5b6000610c05826106a9565b91507fffffffffffffffffffffffffffffffffffffffffffffffffffffffffffffffff821415610c3857610c37610bcb565b5b600182019050919050565b600081905092915050565b6000610c59826108f1565b610c638185610c43565b9350610c7381856020860161090d565b80840191505092915050565b6000610c8b8284610c4e565b915081905092915050565b6000604082019050610cab6000830185610979565b610cb86020830184610979565b9392505050565b7f4e487b7100000000000000000000000000000000000000000000000000000000600052602260045260246000fd5b60006002820490506001821680610d0657607f821691505b60208210811415610d1a57610d19610cbf565b5b50919050565b60008190508160005260206000209050919050565b60008154610d4281610cee565b610d4c8186610c43565b94506001821660008114610d675760018114610d7857610dab565b60ff19831686528186019350610dab565b610d8185610d20565b60005b83811015610da357815481890152600182019150602081019050610d84565b838801955050505b50505092915050565b6000610dc08284610d35565b915081905092915050565b7f4e487b7100000000000000000000000000000000000000000000000000000000600052603260045260246000fdfea26469706673582212204b9a14b3a63d7c718fe89b1f5588865031ba215c46a5b0dddaa095d1415bb2f164736f6c63430008090033",
  "immutableReferences": {},
  "source": "// SPDX-License-Identifier: MIT\n\npragma solidity ^0.8.9;\npragma experimental ABIEncoderV2;\n\ncontract PaymentInformations {\n\n    uint256 count;\n    \n    struct PaymentInfo {\n        string donorUsername;\n        string projectId;\n        uint256 amount;\n        uint256 donatedAt;\n    }\n\n    event AddedPayment (\n        string indexed donorUsername,\n        string indexed projectId,\n        uint256 amount,\n        uint256 donatedAt\n    );\n\n    event DeletedPaymentInfo (\n        string indexed donorUsername,\n        string indexed projectId,\n        uint256 amount,\n        uint256 donatedAt\n    );\n\n    mapping(uint256 => PaymentInfo) public payments;\n\n    //add only donor modifier\n    function addPaymentInfo(string memory donorUsername, string memory projectId, uint256 amount, uint256 donatedAt) external {\n        payments[++count] = PaymentInfo(donorUsername, projectId, amount, donatedAt);\n        emit AddedPayment(donorUsername, projectId, amount, donatedAt);\n    }\n\n    function deletePaymentInfo(uint256 id) external {\n        delete payments[id];\n    }\n\n        //add only donor modifier\n    function getPaymentInfoByUsername(string memory _username) external view returns(PaymentInfo[] memory) {\n        PaymentInfo[] memory paymentInfos;\n        uint256 counter = 0;\n        for (uint256 index = 0; index < count; index++) {\n            if(payments[index].donatedAt != 0) {\n                if(keccak256(abi.encodePacked(payments[index].donorUsername)) == keccak256(abi.encodePacked(_username))) {\n                    paymentInfos[counter] = payments[index];\n                    counter++;\n                }\n            }\n        }\n        return paymentInfos;\n    }\n}\n\n\n",
  "sourcePath": "/home/jeremy/Desktop/fets_front_end/src/contracts/payment_management/PaymentInformations.sol",
  "compiler": {
    "name": "solc",
    "version": "0.8.9+commit.e5eed63a.Emscripten.clang"
  },
  "schemaVersion": "3.4.3",
  "updatedAt": "2022-05-28T15:42:34.541Z",
  "networkType": "ethereum",
  "devdoc": {
    "kind": "dev",
    "methods": {},
    "version": 1
  },
  "userdoc": {
    "kind": "user",
    "methods": {},
    "version": 1
  }
}