{
  "contractName": "Project",
  "abi": [
    {
      "inputs": [],
      "stateMutability": "nonpayable",
      "type": "constructor"
    },
    {
      "anonymous": false,
      "inputs": [
        {
          "indexed": true,
          "internalType": "uint256",
          "name": "id",
          "type": "uint256"
        },
        {
          "indexed": true,
          "internalType": "string",
          "name": "name",
          "type": "string"
        },
        {
          "indexed": false,
          "internalType": "string",
          "name": "description",
          "type": "string"
        },
        {
          "indexed": false,
          "internalType": "string",
          "name": "location",
          "type": "string"
        },
        {
          "indexed": false,
          "internalType": "uint256",
          "name": "estimatedBudget",
          "type": "uint256"
        },
        {
          "indexed": false,
          "internalType": "uint256",
          "name": "estimatedDuration",
          "type": "uint256"
        },
        {
          "indexed": false,
          "internalType": "uint256",
          "name": "fundedMoney",
          "type": "uint256"
        },
        {
          "indexed": false,
          "internalType": "uint256",
          "name": "createdAt",
          "type": "uint256"
        },
        {
          "indexed": true,
          "internalType": "string",
          "name": "companyId",
          "type": "string"
        },
        {
          "indexed": false,
          "internalType": "string",
          "name": "accountNumber",
          "type": "string"
        },
        {
          "indexed": false,
          "internalType": "enum Project.ProjectStatus",
          "name": "status",
          "type": "uint8"
        }
      ],
      "name": "AddedProject",
      "type": "event"
    },
    {
      "anonymous": false,
      "inputs": [
        {
          "indexed": true,
          "internalType": "uint256",
          "name": "id",
          "type": "uint256"
        },
        {
          "indexed": true,
          "internalType": "string",
          "name": "name",
          "type": "string"
        },
        {
          "indexed": false,
          "internalType": "string",
          "name": "description",
          "type": "string"
        },
        {
          "indexed": false,
          "internalType": "string",
          "name": "location",
          "type": "string"
        },
        {
          "indexed": false,
          "internalType": "uint256",
          "name": "estimatedBudget",
          "type": "uint256"
        },
        {
          "indexed": false,
          "internalType": "uint256",
          "name": "estimatedDuration",
          "type": "uint256"
        },
        {
          "indexed": false,
          "internalType": "uint256",
          "name": "fundedMoney",
          "type": "uint256"
        },
        {
          "indexed": false,
          "internalType": "uint256",
          "name": "createdAt",
          "type": "uint256"
        },
        {
          "indexed": true,
          "internalType": "string",
          "name": "companyId",
          "type": "string"
        },
        {
          "indexed": false,
          "internalType": "string",
          "name": "accountNumber",
          "type": "string"
        },
        {
          "indexed": false,
          "internalType": "enum Project.ProjectStatus",
          "name": "status",
          "type": "uint8"
        }
      ],
      "name": "DeletedProject",
      "type": "event"
    },
    {
      "inputs": [
        {
          "internalType": "string",
          "name": "name",
          "type": "string"
        },
        {
          "internalType": "string",
          "name": "description",
          "type": "string"
        },
        {
          "internalType": "string",
          "name": "location",
          "type": "string"
        },
        {
          "internalType": "uint256",
          "name": "estimatedBudget",
          "type": "uint256"
        },
        {
          "internalType": "uint256",
          "name": "estimatedDuration",
          "type": "uint256"
        },
        {
          "internalType": "uint256",
          "name": "fundedMoney",
          "type": "uint256"
        },
        {
          "internalType": "uint256",
          "name": "createdAt",
          "type": "uint256"
        },
        {
          "internalType": "string",
          "name": "companyId",
          "type": "string"
        },
        {
          "internalType": "string",
          "name": "accountNumber",
          "type": "string"
        },
        {
          "internalType": "enum Project.ProjectStatus",
          "name": "status",
          "type": "uint8"
        }
      ],
      "name": "addProject",
      "outputs": [],
      "stateMutability": "nonpayable",
      "type": "function"
    },
    {
      "inputs": [
        {
          "internalType": "uint256",
          "name": "_id",
          "type": "uint256"
        }
      ],
      "name": "deleteProject",
      "outputs": [],
      "stateMutability": "nonpayable",
      "type": "function"
    },
    {
      "inputs": [
        {
          "internalType": "uint256",
          "name": "_id",
          "type": "uint256"
        }
      ],
      "name": "getProjectById",
      "outputs": [
        {
          "components": [
            {
              "internalType": "uint256",
              "name": "id",
              "type": "uint256"
            },
            {
              "internalType": "string",
              "name": "name",
              "type": "string"
            },
            {
              "internalType": "string",
              "name": "description",
              "type": "string"
            },
            {
              "internalType": "string",
              "name": "location",
              "type": "string"
            },
            {
              "internalType": "uint256",
              "name": "estimatedBudget",
              "type": "uint256"
            },
            {
              "internalType": "uint256",
              "name": "fundedMoney",
              "type": "uint256"
            },
            {
              "internalType": "uint256",
              "name": "estimatedDuration",
              "type": "uint256"
            },
            {
              "internalType": "uint256",
              "name": "createdAt",
              "type": "uint256"
            },
            {
              "internalType": "string",
              "name": "companyId",
              "type": "string"
            },
            {
              "internalType": "string",
              "name": "accountNumber",
              "type": "string"
            },
            {
              "internalType": "enum Project.ProjectStatus",
              "name": "status",
              "type": "uint8"
            }
          ],
          "internalType": "struct Project.ProjectInfo",
          "name": "",
          "type": "tuple"
        }
      ],
      "stateMutability": "view",
      "type": "function",
      "constant": true
    }
  ],
  "bytecode": "0x608060405234801561001057600080fd5b5060008081905550611000806100276000396000f3fe608060405234801561001057600080fd5b50600436106100415760003560e01c80634cd0cb281461004657806390807d4714610062578063bee5cdca1461007e575b600080fd5b610060600480360381019061005b9190610865565b6100ae565b005b61007c600480360381019061007791906109fd565b610153565b005b61009860048036038101906100939190610865565b610357565b6040516100a59190610d81565b60405180910390f35b600160008281526020019081526020016000206000808201600090556001820160006100da91906106cc565b6002820160006100ea91906106cc565b6003820160006100fa91906106cc565b600482016000905560058201600090556006820160009055600782016000905560088201600061012a91906106cc565b60098201600061013a91906106cc565b600a820160006101000a81549060ff0219169055505050565b60008081548092919061016590610dd2565b919050555060405180610160016040528060005481526020018b81526020018a81526020018981526020018881526020018781526020018681526020018581526020018481526020018381526020018260048111156101c7576101c6610bff565b5b815250600160008054815260200190815260200160002060008201518160000155602082015181600101908051906020019061020492919061070c565b50604082015181600201908051906020019061022192919061070c565b50606082015181600301908051906020019061023e92919061070c565b506080820151816004015560a0820151816005015560c0820151816006015560e0820151816007015561010082015181600801908051906020019061028492919061070c565b506101208201518160090190805190602001906102a292919061070c565b5061014082015181600a0160006101000a81548160ff021916908360048111156102cf576102ce610bff565b5b0217905550905050826040516102e59190610e57565b60405180910390208a6040516102fb9190610e57565b60405180910390206000547f0e9749c08d7a6ba465fd5dcc39278788a16455c3d467d09018c1695c5b39ca9a8c8c8c8c8c8c8b8b604051610343989796959493929190610ed6565b60405180910390a450505050505050505050565b61035f610792565b60016000838152602001908152602001600020604051806101600160405290816000820154815260200160018201805461039890610f98565b80601f01602080910402602001604051908101604052809291908181526020018280546103c490610f98565b80156104115780601f106103e657610100808354040283529160200191610411565b820191906000526020600020905b8154815290600101906020018083116103f457829003601f168201915b5050505050815260200160028201805461042a90610f98565b80601f016020809104026020016040519081016040528092919081815260200182805461045690610f98565b80156104a35780601f10610478576101008083540402835291602001916104a3565b820191906000526020600020905b81548152906001019060200180831161048657829003601f168201915b505050505081526020016003820180546104bc90610f98565b80601f01602080910402602001604051908101604052809291908181526020018280546104e890610f98565b80156105355780601f1061050a57610100808354040283529160200191610535565b820191906000526020600020905b81548152906001019060200180831161051857829003601f168201915b505050505081526020016004820154815260200160058201548152602001600682015481526020016007820154815260200160088201805461057690610f98565b80601f01602080910402602001604051908101604052809291908181526020018280546105a290610f98565b80156105ef5780601f106105c4576101008083540402835291602001916105ef565b820191906000526020600020905b8154815290600101906020018083116105d257829003601f168201915b5050505050815260200160098201805461060890610f98565b80601f016020809104026020016040519081016040528092919081815260200182805461063490610f98565b80156106815780601f1061065657610100808354040283529160200191610681565b820191906000526020600020905b81548152906001019060200180831161066457829003601f168201915b50505050508152602001600a820160009054906101000a900460ff1660048111156106af576106ae610bff565b5b60048111156106c1576106c0610bff565b5b815250509050919050565b5080546106d890610f98565b6000825580601f106106ea5750610709565b601f01602090049060005260206000209081019061070891906107fe565b5b50565b82805461071890610f98565b90600052602060002090601f01602090048101928261073a5760008555610781565b82601f1061075357805160ff1916838001178555610781565b82800160010185558215610781579182015b82811115610780578251825591602001919060010190610765565b5b50905061078e91906107fe565b5090565b60405180610160016040528060008152602001606081526020016060815260200160608152602001600081526020016000815260200160008152602001600081526020016060815260200160608152602001600060048111156107f8576107f7610bff565b5b81525090565b5b808211156108175760008160009055506001016107ff565b5090565b6000604051905090565b600080fd5b600080fd5b6000819050919050565b6108428161082f565b811461084d57600080fd5b50565b60008135905061085f81610839565b92915050565b60006020828403121561087b5761087a610825565b5b600061088984828501610850565b91505092915050565b600080fd5b600080fd5b6000601f19601f8301169050919050565b7f4e487b7100000000000000000000000000000000000000000000000000000000600052604160045260246000fd5b6108e58261089c565b810181811067ffffffffffffffff82111715610904576109036108ad565b5b80604052505050565b600061091761081b565b905061092382826108dc565b919050565b600067ffffffffffffffff821115610943576109426108ad565b5b61094c8261089c565b9050602081019050919050565b82818337600083830152505050565b600061097b61097684610928565b61090d565b90508281526020810184848401111561099757610996610897565b5b6109a2848285610959565b509392505050565b600082601f8301126109bf576109be610892565b5b81356109cf848260208601610968565b91505092915050565b600581106109e557600080fd5b50565b6000813590506109f7816109d8565b92915050565b6000806000806000806000806000806101408b8d031215610a2157610a20610825565b5b60008b013567ffffffffffffffff811115610a3f57610a3e61082a565b5b610a4b8d828e016109aa565b9a505060208b013567ffffffffffffffff811115610a6c57610a6b61082a565b5b610a788d828e016109aa565b99505060408b013567ffffffffffffffff811115610a9957610a9861082a565b5b610aa58d828e016109aa565b9850506060610ab68d828e01610850565b9750506080610ac78d828e01610850565b96505060a0610ad88d828e01610850565b95505060c0610ae98d828e01610850565b94505060e08b013567ffffffffffffffff811115610b0a57610b0961082a565b5b610b168d828e016109aa565b9350506101008b013567ffffffffffffffff811115610b3857610b3761082a565b5b610b448d828e016109aa565b925050610120610b568d828e016109e8565b9150509295989b9194979a5092959850565b610b718161082f565b82525050565b600081519050919050565b600082825260208201905092915050565b60005b83811015610bb1578082015181840152602081019050610b96565b83811115610bc0576000848401525b50505050565b6000610bd182610b77565b610bdb8185610b82565b9350610beb818560208601610b93565b610bf48161089c565b840191505092915050565b7f4e487b7100000000000000000000000000000000000000000000000000000000600052602160045260246000fd5b60058110610c3f57610c3e610bff565b5b50565b6000819050610c5082610c2e565b919050565b6000610c6082610c42565b9050919050565b610c7081610c55565b82525050565b600061016083016000830151610c8f6000860182610b68565b5060208301518482036020860152610ca78282610bc6565b91505060408301518482036040860152610cc18282610bc6565b91505060608301518482036060860152610cdb8282610bc6565b9150506080830151610cf06080860182610b68565b5060a0830151610d0360a0860182610b68565b5060c0830151610d1660c0860182610b68565b5060e0830151610d2960e0860182610b68565b50610100830151848203610100860152610d438282610bc6565b915050610120830151848203610120860152610d5f8282610bc6565b915050610140830151610d76610140860182610c67565b508091505092915050565b60006020820190508181036000830152610d9b8184610c76565b905092915050565b7f4e487b7100000000000000000000000000000000000000000000000000000000600052601160045260246000fd5b6000610ddd8261082f565b91507fffffffffffffffffffffffffffffffffffffffffffffffffffffffffffffffff821415610e1057610e0f610da3565b5b600182019050919050565b600081905092915050565b6000610e3182610b77565b610e3b8185610e1b565b9350610e4b818560208601610b93565b80840191505092915050565b6000610e638284610e26565b915081905092915050565b600082825260208201905092915050565b6000610e8a82610b77565b610e948185610e6e565b9350610ea4818560208601610b93565b610ead8161089c565b840191505092915050565b610ec18161082f565b82525050565b610ed081610c55565b82525050565b6000610100820190508181036000830152610ef1818b610e7f565b90508181036020830152610f05818a610e7f565b9050610f146040830189610eb8565b610f216060830188610eb8565b610f2e6080830187610eb8565b610f3b60a0830186610eb8565b81810360c0830152610f4d8185610e7f565b9050610f5c60e0830184610ec7565b9998505050505050505050565b7f4e487b7100000000000000000000000000000000000000000000000000000000600052602260045260246000fd5b60006002820490506001821680610fb057607f821691505b60208210811415610fc457610fc3610f69565b5b5091905056fea26469706673582212200a3b9210ee5a995291578660aa8ea74940833752aead65f6061456b111bea07b64736f6c63430008090033",
  "immutableReferences": {},
  "source": "// SPDX-License-Identifier: MIT\n\npragma solidity ^0.8;\n\ncontract Project {\n    uint256 private count;\n\n    constructor() {\n        count = 0;\n    }\n\n    enum ProjectStatus {\n        PENDING,\n        STARTED,\n        COMPLETED,\n        CANCELLED,\n        PAUSED\n    }\n\n    struct ProjectInfo {\n        uint256 id;\n        string name;\n        string description;\n        string location;\n        uint256 estimatedBudget;\n        uint256 fundedMoney;\n        uint256 estimatedDuration;\n        uint256 createdAt;\n        string companyId;\n        string accountNumber;\n        ProjectStatus status;\n    }\n\n    event AddedProject(\n        uint256 indexed id,\n        string indexed name,\n        string description,\n        string location,\n        uint256 estimatedBudget,\n        uint256 estimatedDuration,\n        uint256 fundedMoney,\n        uint256 createdAt,\n        string indexed companyId,\n        string accountNumber,\n        ProjectStatus status\n    );\n\n    event DeletedProject(\n        uint256 indexed id,\n        string indexed name,\n        string description,\n        string location,\n        uint256 estimatedBudget,\n        uint256 estimatedDuration,\n        uint256 fundedMoney,\n        uint256 createdAt,\n        string indexed companyId,\n        string accountNumber,\n        ProjectStatus status\n    );\n\n    mapping(uint256 => ProjectInfo) private projects;\n\n    // add onlyTechnicalAdmin modifier to it\n    function addProject(\n        string memory name,\n        string memory description,\n        string memory location,\n        uint256 estimatedBudget,\n        uint256 estimatedDuration,\n        uint256 fundedMoney,\n        uint256 createdAt,\n        string memory companyId,\n        string memory accountNumber,\n        ProjectStatus status\n    ) public {\n        count++;\n\n        projects[count] = ProjectInfo(\n            count,\n            name,\n            description,\n            location,\n            estimatedBudget,\n            estimatedDuration,\n            fundedMoney,\n            createdAt,\n            companyId,\n            accountNumber,\n            status\n        );\n        emit AddedProject(\n            count,\n            name,\n            description,\n            location,\n            estimatedBudget,\n            estimatedDuration,\n            fundedMoney,\n            createdAt,\n            companyId,\n            accountNumber,\n            status\n        );\n    }\n\n    function deleteProject(uint256 _id) public {\n        delete projects[_id];\n    }\n\n    //TODO - when a user asks for projects return subproject and tasks tied\n    function getProjectById(uint256 _id) public view returns (ProjectInfo memory){\n            return projects[_id];\n    }\n}\n",
  "sourcePath": "/home/jeremy/Desktop/fets_front_end/src/contracts/project_management/Project.sol",
  "compiler": {
    "name": "solc",
    "version": "0.8.9+commit.e5eed63a.Emscripten.clang"
  },
  "schemaVersion": "3.4.3",
  "updatedAt": "2022-05-28T06:12:08.669Z",
  "networkType": "ethereum",
  "devdoc": {
    "kind": "dev",
    "methods": {},
    "version": 1
  },
  "userdoc": {
    "kind": "user",
    "methods": {},
    "version": 1
  }
}