{
  "contractName": "ProjectUserMapping",
  "abi": [
    {
      "inputs": [
        {
          "internalType": "address",
          "name": "_projectAddress",
          "type": "address"
        },
        {
          "internalType": "address",
          "name": "_subProjectAddress",
          "type": "address"
        },
        {
          "internalType": "address",
          "name": "_taskAddress",
          "type": "address"
        }
      ],
      "stateMutability": "nonpayable",
      "type": "constructor"
    },
    {
      "anonymous": false,
      "inputs": [
        {
          "indexed": false,
          "internalType": "uint256",
          "name": "projectId",
          "type": "uint256"
        },
        {
          "indexed": false,
          "internalType": "string",
          "name": "financialOfficerUsername",
          "type": "string"
        },
        {
          "indexed": false,
          "internalType": "string",
          "name": "projectManagerUsernmae",
          "type": "string"
        },
        {
          "indexed": false,
          "internalType": "string",
          "name": "budgetAndProcurementManagerUsername",
          "type": "string"
        },
        {
          "indexed": false,
          "internalType": "string",
          "name": "externalAuditorUsername",
          "type": "string"
        }
      ],
      "name": "ProjectMapped",
      "type": "event"
    },
    {
      "inputs": [
        {
          "internalType": "uint256",
          "name": "projectId",
          "type": "uint256"
        },
        {
          "internalType": "string",
          "name": "financialOfficerUsername",
          "type": "string"
        },
        {
          "internalType": "string",
          "name": "projectManagerUsernmae",
          "type": "string"
        },
        {
          "internalType": "string",
          "name": "budgetAndProcurementManagerUsername",
          "type": "string"
        },
        {
          "internalType": "string",
          "name": "externalAuditorUsername",
          "type": "string"
        }
      ],
      "name": "addMapping",
      "outputs": [],
      "stateMutability": "nonpayable",
      "type": "function"
    },
    {
      "inputs": [
        {
          "internalType": "uint256",
          "name": "_id",
          "type": "uint256"
        }
      ],
      "name": "getProjectByIdFromMapping",
      "outputs": [
        {
          "components": [
            {
              "internalType": "uint256",
              "name": "id",
              "type": "uint256"
            },
            {
              "internalType": "string",
              "name": "name",
              "type": "string"
            },
            {
              "internalType": "string",
              "name": "description",
              "type": "string"
            },
            {
              "internalType": "string",
              "name": "location",
              "type": "string"
            },
            {
              "internalType": "uint256",
              "name": "estimatedBudget",
              "type": "uint256"
            },
            {
              "internalType": "uint256",
              "name": "fundedMoney",
              "type": "uint256"
            },
            {
              "internalType": "uint256",
              "name": "estimatedDuration",
              "type": "uint256"
            },
            {
              "internalType": "uint256",
              "name": "createdAt",
              "type": "uint256"
            },
            {
              "internalType": "string",
              "name": "companyId",
              "type": "string"
            },
            {
              "internalType": "string",
              "name": "accountNumber",
              "type": "string"
            },
            {
              "internalType": "enum Project.ProjectStatus",
              "name": "status",
              "type": "uint8"
            }
          ],
          "internalType": "struct Project.ProjectInfo",
          "name": "",
          "type": "tuple"
        }
      ],
      "stateMutability": "view",
      "type": "function",
      "constant": true
    },
    {
      "inputs": [
        {
          "internalType": "string",
          "name": "_username",
          "type": "string"
        }
      ],
      "name": "getProjectsListByUsername",
      "outputs": [
        {
          "components": [
            {
              "internalType": "uint256",
              "name": "id",
              "type": "uint256"
            },
            {
              "internalType": "string",
              "name": "name",
              "type": "string"
            },
            {
              "internalType": "string",
              "name": "description",
              "type": "string"
            },
            {
              "internalType": "string",
              "name": "location",
              "type": "string"
            },
            {
              "internalType": "uint256",
              "name": "estimatedBudget",
              "type": "uint256"
            },
            {
              "internalType": "uint256",
              "name": "fundedMoney",
              "type": "uint256"
            },
            {
              "internalType": "uint256",
              "name": "estimatedDuration",
              "type": "uint256"
            },
            {
              "internalType": "uint256",
              "name": "createdAt",
              "type": "uint256"
            },
            {
              "internalType": "string",
              "name": "companyId",
              "type": "string"
            },
            {
              "internalType": "string",
              "name": "accountNumber",
              "type": "string"
            },
            {
              "internalType": "enum Project.ProjectStatus",
              "name": "status",
              "type": "uint8"
            }
          ],
          "internalType": "struct Project.ProjectInfo[]",
          "name": "",
          "type": "tuple[]"
        }
      ],
      "stateMutability": "view",
      "type": "function",
      "constant": true
    },
    {
      "inputs": [
        {
          "internalType": "uint256",
          "name": "_projectId",
          "type": "uint256"
        }
      ],
      "name": "getSubProjectListByProjectId",
      "outputs": [
        {
          "components": [
            {
              "internalType": "uint256",
              "name": "id",
              "type": "uint256"
            },
            {
              "internalType": "string",
              "name": "name",
              "type": "string"
            },
            {
              "internalType": "string",
              "name": "description",
              "type": "string"
            },
            {
              "internalType": "uint256",
              "name": "projectId",
              "type": "uint256"
            },
            {
              "internalType": "uint256",
              "name": "estimatedDuration",
              "type": "uint256"
            },
            {
              "internalType": "uint256",
              "name": "createdAt",
              "type": "uint256"
            }
          ],
          "internalType": "struct SubProject.SubProjectInfo[]",
          "name": "",
          "type": "tuple[]"
        }
      ],
      "stateMutability": "view",
      "type": "function",
      "constant": true
    },
    {
      "inputs": [
        {
          "internalType": "uint256",
          "name": "_projectId",
          "type": "uint256"
        }
      ],
      "name": "getTaskListByProjectId",
      "outputs": [
        {
          "components": [
            {
              "internalType": "uint256",
              "name": "id",
              "type": "uint256"
            },
            {
              "internalType": "string",
              "name": "name",
              "type": "string"
            },
            {
              "internalType": "string",
              "name": "description",
              "type": "string"
            },
            {
              "internalType": "uint256",
              "name": "projectId",
              "type": "uint256"
            },
            {
              "internalType": "uint256",
              "name": "subProjectId",
              "type": "uint256"
            },
            {
              "internalType": "uint256",
              "name": "estimatedDuration",
              "type": "uint256"
            },
            {
              "internalType": "enum Task.TaskStatus",
              "name": "status",
              "type": "uint8"
            },
            {
              "internalType": "uint256",
              "name": "allocatedBudget",
              "type": "uint256"
            },
            {
              "internalType": "string",
              "name": "remark",
              "type": "string"
            }
          ],
          "internalType": "struct Task.TaskInfo[]",
          "name": "",
          "type": "tuple[]"
        }
      ],
      "stateMutability": "view",
      "type": "function",
      "constant": true
    },
    {
      "inputs": [
        {
          "internalType": "uint256",
          "name": "_projectId",
          "type": "uint256"
        }
      ],
      "name": "getTaskListBySubProject",
      "outputs": [
        {
          "components": [
            {
              "internalType": "uint256",
              "name": "id",
              "type": "uint256"
            },
            {
              "internalType": "string",
              "name": "name",
              "type": "string"
            },
            {
              "internalType": "string",
              "name": "description",
              "type": "string"
            },
            {
              "internalType": "uint256",
              "name": "projectId",
              "type": "uint256"
            },
            {
              "internalType": "uint256",
              "name": "subProjectId",
              "type": "uint256"
            },
            {
              "internalType": "uint256",
              "name": "estimatedDuration",
              "type": "uint256"
            },
            {
              "internalType": "enum Task.TaskStatus",
              "name": "status",
              "type": "uint8"
            },
            {
              "internalType": "uint256",
              "name": "allocatedBudget",
              "type": "uint256"
            },
            {
              "internalType": "string",
              "name": "remark",
              "type": "string"
            }
          ],
          "internalType": "struct Task.TaskInfo[]",
          "name": "",
          "type": "tuple[]"
        }
      ],
      "stateMutability": "view",
      "type": "function",
      "constant": true
    },
    {
      "inputs": [
        {
          "internalType": "uint256",
          "name": "_projectId",
          "type": "uint256"
        }
      ],
      "name": "getTaskStatusByProjectId",
      "outputs": [
        {
          "internalType": "uint256",
          "name": "approved",
          "type": "uint256"
        },
        {
          "internalType": "uint256",
          "name": "unapproved",
          "type": "uint256"
        }
      ],
      "stateMutability": "view",
      "type": "function",
      "constant": true
    }
  ],
  "bytecode": "0x60806040523480156200001157600080fd5b506040516200228638038062002286833981810160405281019062000037919062000174565b6000808190555082600160006101000a81548173ffffffffffffffffffffffffffffffffffffffff021916908373ffffffffffffffffffffffffffffffffffffffff16021790555081600260006101000a81548173ffffffffffffffffffffffffffffffffffffffff021916908373ffffffffffffffffffffffffffffffffffffffff16021790555080600360006101000a81548173ffffffffffffffffffffffffffffffffffffffff021916908373ffffffffffffffffffffffffffffffffffffffff160217905550505050620001d0565b600080fd5b600073ffffffffffffffffffffffffffffffffffffffff82169050919050565b60006200013c826200010f565b9050919050565b6200014e816200012f565b81146200015a57600080fd5b50565b6000815190506200016e8162000143565b92915050565b60008060006060848603121562000190576200018f6200010a565b5b6000620001a0868287016200015d565b9350506020620001b3868287016200015d565b9250506040620001c6868287016200015d565b9150509250925092565b6120a680620001e06000396000f3fe608060405234801561001057600080fd5b506004361061007d5760003560e01c8063a71205c11161005b578063a71205c114610112578063beccbab714610142578063c50c58cd1461015e578063deb1db101461018f5761007d565b806341db35ca146100825780636874c5f7146100b2578063a2bd1e9e146100e2575b600080fd5b61009c60048036038101906100979190610c1e565b6101bf565b6040516100a99190610eff565b60405180910390f35b6100cc60048036038101906100c79190610c1e565b610278565b6040516100d99190611074565b60405180910390f35b6100fc60048036038101906100f791906111cb565b610337565b60405161010991906113e1565b60405180910390f35b61012c60048036038101906101279190610c1e565b6105d1565b6040516101399190611555565b60405180910390f35b61015c60048036038101906101579190611577565b61068a565b005b61017860048036038101906101739190610c1e565b610766565b604051610186929190611671565b60405180910390f35b6101a960048036038101906101a49190610c1e565b61081c565b6040516101b69190610eff565b60405180910390f35b6060600360009054906101000a900473ffffffffffffffffffffffffffffffffffffffff1673ffffffffffffffffffffffffffffffffffffffff16635ea62f56836040518263ffffffff1660e01b815260040161021c919061169a565b60006040518083038186803b15801561023457600080fd5b505afa158015610248573d6000803e3d6000fd5b505050506040513d6000823e3d601f19601f820116820180604052508101906102719190611983565b9050919050565b610280610ac5565b600160009054906101000a900473ffffffffffffffffffffffffffffffffffffffff1673ffffffffffffffffffffffffffffffffffffffff1663bee5cdca836040518263ffffffff1660e01b81526004016102db919061169a565b60006040518083038186803b1580156102f357600080fd5b505afa158015610307573d6000803e3d6000fd5b505050506040513d6000823e3d601f19601f820116820180604052508101906103309190611b89565b9050919050565b60606000610344836108d5565b905060008167ffffffffffffffff811115610362576103616110a0565b5b60405190808252806020026020018201604052801561039b57816020015b610388610ac5565b8152602001906001900390816103805790505b509050600080600190505b60016000546103b59190611c01565b8110156105c557856040516020016103cd9190611c93565b60405160208183030381529060405280519060200120600460008381526020019081526020016000206001016040516020016104099190611d9f565b60405160208183030381529060405280519060200120148061048b5750856040516020016104379190611c93565b60405160208183030381529060405280519060200120600460008381526020019081526020016000206003016040516020016104739190611d9f565b60405160208183030381529060405280519060200120145b806104f65750856040516020016104a29190611c93565b60405160208183030381529060405280519060200120600460008381526020019081526020016000206002016040516020016104de9190611d9f565b60405160208183030381529060405280519060200120145b8061056157508560405160200161050d9190611c93565b60405160208183030381529060405280519060200120600460008381526020019081526020016000206004016040516020016105499190611d9f565b60405160208183030381529060405280519060200120145b156105b2576105856004600083815260200190815260200160002060000154610278565b83838151811061059857610597611db6565b5b602002602001018190525081806105ae90611de5565b9250505b80806105bd90611de5565b9150506103a6565b50819350505050919050565b6060600260009054906101000a900473ffffffffffffffffffffffffffffffffffffffff1673ffffffffffffffffffffffffffffffffffffffff1663778f8c4e836040518263ffffffff1660e01b815260040161062e919061169a565b60006040518083038186803b15801561064657600080fd5b505afa15801561065a573d6000803e3d6000fd5b505050506040513d6000823e3d601f19601f820116820180604052508101906106839190611fe7565b9050919050565b600160008082825461069c9190611c01565b925050819055506040518060a00160405280868152602001858152602001848152602001838152602001828152506004600080548152602001908152602001600020600082015181600001556020820151816001019080519060200190610704929190610b31565b506040820151816002019080519060200190610721929190610b31565b50606082015181600301908051906020019061073e929190610b31565b50608082015181600401908051906020019061075b929190610b31565b509050505050505050565b600080600360009054906101000a900473ffffffffffffffffffffffffffffffffffffffff1673ffffffffffffffffffffffffffffffffffffffff1663c50c58cd846040518263ffffffff1660e01b81526004016107c4919061169a565b604080518083038186803b1580156107db57600080fd5b505afa1580156107ef573d6000803e3d6000fd5b505050506040513d601f19601f820116820180604052508101906108139190612030565b91509150915091565b6060600360009054906101000a900473ffffffffffffffffffffffffffffffffffffffff1673ffffffffffffffffffffffffffffffffffffffff1663a83243da836040518263ffffffff1660e01b8152600401610879919061169a565b60006040518083038186803b15801561089157600080fd5b505afa1580156108a5573d6000803e3d6000fd5b505050506040513d6000823e3d601f19601f820116820180604052508101906108ce9190611983565b9050919050565b600080600090505b60016000546108ec9190611c01565b811015610abf57826040516020016109049190611c93565b60405160208183030381529060405280519060200120600460008381526020019081526020016000206001016040516020016109409190611d9f565b6040516020818303038152906040528051906020012014806109c257508260405160200161096e9190611c93565b60405160208183030381529060405280519060200120600460008381526020019081526020016000206003016040516020016109aa9190611d9f565b60405160208183030381529060405280519060200120145b80610a2d5750826040516020016109d99190611c93565b6040516020818303038152906040528051906020012060046000838152602001908152602001600020600201604051602001610a159190611d9f565b60405160208183030381529060405280519060200120145b80610a98575082604051602001610a449190611c93565b6040516020818303038152906040528051906020012060046000838152602001908152602001600020600401604051602001610a809190611d9f565b60405160208183030381529060405280519060200120145b15610aac578180610aa890611de5565b9250505b8080610ab790611de5565b9150506108dd565b50919050565b6040518061016001604052806000815260200160608152602001606081526020016060815260200160008152602001600081526020016000815260200160008152602001606081526020016060815260200160006004811115610b2b57610b2a610d1f565b5b81525090565b828054610b3d90611cd9565b90600052602060002090601f016020900481019282610b5f5760008555610ba6565b82601f10610b7857805160ff1916838001178555610ba6565b82800160010185558215610ba6579182015b82811115610ba5578251825591602001919060010190610b8a565b5b509050610bb39190610bb7565b5090565b5b80821115610bd0576000816000905550600101610bb8565b5090565b6000604051905090565b600080fd5b600080fd5b6000819050919050565b610bfb81610be8565b8114610c0657600080fd5b50565b600081359050610c1881610bf2565b92915050565b600060208284031215610c3457610c33610bde565b5b6000610c4284828501610c09565b91505092915050565b600081519050919050565b600082825260208201905092915050565b6000819050602082019050919050565b610c8081610be8565b82525050565b600081519050919050565b600082825260208201905092915050565b60005b83811015610cc0578082015181840152602081019050610ca5565b83811115610ccf576000848401525b50505050565b6000601f19601f8301169050919050565b6000610cf182610c86565b610cfb8185610c91565b9350610d0b818560208601610ca2565b610d1481610cd5565b840191505092915050565b7f4e487b7100000000000000000000000000000000000000000000000000000000600052602160045260246000fd5b60088110610d5f57610d5e610d1f565b5b50565b6000819050610d7082610d4e565b919050565b6000610d8082610d62565b9050919050565b610d9081610d75565b82525050565b600061012083016000830151610daf6000860182610c77565b5060208301518482036020860152610dc78282610ce6565b91505060408301518482036040860152610de18282610ce6565b9150506060830151610df66060860182610c77565b506080830151610e096080860182610c77565b5060a0830151610e1c60a0860182610c77565b5060c0830151610e2f60c0860182610d87565b5060e0830151610e4260e0860182610c77565b50610100830151848203610100860152610e5c8282610ce6565b9150508091505092915050565b6000610e758383610d96565b905092915050565b6000602082019050919050565b6000610e9582610c4b565b610e9f8185610c56565b935083602082028501610eb185610c67565b8060005b85811015610eed5784840389528151610ece8582610e69565b9450610ed983610e7d565b925060208a01995050600181019050610eb5565b50829750879550505050505092915050565b60006020820190508181036000830152610f198184610e8a565b905092915050565b60058110610f3257610f31610d1f565b5b50565b6000819050610f4382610f21565b919050565b6000610f5382610f35565b9050919050565b610f6381610f48565b82525050565b600061016083016000830151610f826000860182610c77565b5060208301518482036020860152610f9a8282610ce6565b91505060408301518482036040860152610fb48282610ce6565b91505060608301518482036060860152610fce8282610ce6565b9150506080830151610fe36080860182610c77565b5060a0830151610ff660a0860182610c77565b5060c083015161100960c0860182610c77565b5060e083015161101c60e0860182610c77565b506101008301518482036101008601526110368282610ce6565b9150506101208301518482036101208601526110528282610ce6565b915050610140830151611069610140860182610f5a565b508091505092915050565b6000602082019050818103600083015261108e8184610f69565b905092915050565b600080fd5b600080fd5b7f4e487b7100000000000000000000000000000000000000000000000000000000600052604160045260246000fd5b6110d882610cd5565b810181811067ffffffffffffffff821117156110f7576110f66110a0565b5b80604052505050565b600061110a610bd4565b905061111682826110cf565b919050565b600067ffffffffffffffff821115611136576111356110a0565b5b61113f82610cd5565b9050602081019050919050565b82818337600083830152505050565b600061116e6111698461111b565b611100565b90508281526020810184848401111561118a5761118961109b565b5b61119584828561114c565b509392505050565b600082601f8301126111b2576111b1611096565b5b81356111c284826020860161115b565b91505092915050565b6000602082840312156111e1576111e0610bde565b5b600082013567ffffffffffffffff8111156111ff576111fe610be3565b5b61120b8482850161119d565b91505092915050565b600081519050919050565b600082825260208201905092915050565b6000819050602082019050919050565b6000610160830160008301516112596000860182610c77565b50602083015184820360208601526112718282610ce6565b9150506040830151848203604086015261128b8282610ce6565b915050606083015184820360608601526112a58282610ce6565b91505060808301516112ba6080860182610c77565b5060a08301516112cd60a0860182610c77565b5060c08301516112e060c0860182610c77565b5060e08301516112f360e0860182610c77565b5061010083015184820361010086015261130d8282610ce6565b9150506101208301518482036101208601526113298282610ce6565b915050610140830151611340610140860182610f5a565b508091505092915050565b60006113578383611240565b905092915050565b6000602082019050919050565b600061137782611214565b611381818561121f565b93508360208202850161139385611230565b8060005b858110156113cf57848403895281516113b0858261134b565b94506113bb8361135f565b925060208a01995050600181019050611397565b50829750879550505050505092915050565b600060208201905081810360008301526113fb818461136c565b905092915050565b600081519050919050565b600082825260208201905092915050565b6000819050602082019050919050565b600060c0830160008301516114476000860182610c77565b506020830151848203602086015261145f8282610ce6565b915050604083015184820360408601526114798282610ce6565b915050606083015161148e6060860182610c77565b5060808301516114a16080860182610c77565b5060a08301516114b460a0860182610c77565b508091505092915050565b60006114cb838361142f565b905092915050565b6000602082019050919050565b60006114eb82611403565b6114f5818561140e565b9350836020820285016115078561141f565b8060005b85811015611543578484038952815161152485826114bf565b945061152f836114d3565b925060208a0199505060018101905061150b565b50829750879550505050505092915050565b6000602082019050818103600083015261156f81846114e0565b905092915050565b600080600080600060a0868803121561159357611592610bde565b5b60006115a188828901610c09565b955050602086013567ffffffffffffffff8111156115c2576115c1610be3565b5b6115ce8882890161119d565b945050604086013567ffffffffffffffff8111156115ef576115ee610be3565b5b6115fb8882890161119d565b935050606086013567ffffffffffffffff81111561161c5761161b610be3565b5b6116288882890161119d565b925050608086013567ffffffffffffffff81111561164957611648610be3565b5b6116558882890161119d565b9150509295509295909350565b61166b81610be8565b82525050565b60006040820190506116866000830185611662565b6116936020830184611662565b9392505050565b60006020820190506116af6000830184611662565b92915050565b600067ffffffffffffffff8211156116d0576116cf6110a0565b5b602082029050602081019050919050565b600080fd5b600080fd5b600080fd5b6000815190506116ff81610bf2565b92915050565b60006117186117138461111b565b611100565b9050828152602081018484840111156117345761173361109b565b5b61173f848285610ca2565b509392505050565b600082601f83011261175c5761175b611096565b5b815161176c848260208601611705565b91505092915050565b6008811061178257600080fd5b50565b60008151905061179481611775565b92915050565b600061012082840312156117b1576117b06116e6565b5b6117bc610120611100565b905060006117cc848285016116f0565b600083015250602082015167ffffffffffffffff8111156117f0576117ef6116eb565b5b6117fc84828501611747565b602083015250604082015167ffffffffffffffff8111156118205761181f6116eb565b5b61182c84828501611747565b6040830152506060611840848285016116f0565b6060830152506080611854848285016116f0565b60808301525060a0611868848285016116f0565b60a08301525060c061187c84828501611785565b60c08301525060e0611890848285016116f0565b60e08301525061010082015167ffffffffffffffff8111156118b5576118b46116eb565b5b6118c184828501611747565b6101008301525092915050565b60006118e16118dc846116b5565b611100565b90508083825260208201905060208402830185811115611904576119036116e1565b5b835b8181101561194b57805167ffffffffffffffff81111561192957611928611096565b5b808601611936898261179a565b85526020850194505050602081019050611906565b5050509392505050565b600082601f83011261196a57611969611096565b5b815161197a8482602086016118ce565b91505092915050565b60006020828403121561199957611998610bde565b5b600082015167ffffffffffffffff8111156119b7576119b6610be3565b5b6119c384828501611955565b91505092915050565b600581106119d957600080fd5b50565b6000815190506119eb816119cc565b92915050565b60006101608284031215611a0857611a076116e6565b5b611a13610160611100565b90506000611a23848285016116f0565b600083015250602082015167ffffffffffffffff811115611a4757611a466116eb565b5b611a5384828501611747565b602083015250604082015167ffffffffffffffff811115611a7757611a766116eb565b5b611a8384828501611747565b604083015250606082015167ffffffffffffffff811115611aa757611aa66116eb565b5b611ab384828501611747565b6060830152506080611ac7848285016116f0565b60808301525060a0611adb848285016116f0565b60a08301525060c0611aef848285016116f0565b60c08301525060e0611b03848285016116f0565b60e08301525061010082015167ffffffffffffffff811115611b2857611b276116eb565b5b611b3484828501611747565b6101008301525061012082015167ffffffffffffffff811115611b5a57611b596116eb565b5b611b6684828501611747565b61012083015250610140611b7c848285016119dc565b6101408301525092915050565b600060208284031215611b9f57611b9e610bde565b5b600082015167ffffffffffffffff811115611bbd57611bbc610be3565b5b611bc9848285016119f1565b91505092915050565b7f4e487b7100000000000000000000000000000000000000000000000000000000600052601160045260246000fd5b6000611c0c82610be8565b9150611c1783610be8565b9250827fffffffffffffffffffffffffffffffffffffffffffffffffffffffffffffffff03821115611c4c57611c4b611bd2565b5b828201905092915050565b600081905092915050565b6000611c6d82610c86565b611c778185611c57565b9350611c87818560208601610ca2565b80840191505092915050565b6000611c9f8284611c62565b915081905092915050565b7f4e487b7100000000000000000000000000000000000000000000000000000000600052602260045260246000fd5b60006002820490506001821680611cf157607f821691505b60208210811415611d0557611d04611caa565b5b50919050565b60008190508160005260206000209050919050565b60008154611d2d81611cd9565b611d378186611c57565b94506001821660008114611d525760018114611d6357611d96565b60ff19831686528186019350611d96565b611d6c85611d0b565b60005b83811015611d8e57815481890152600182019150602081019050611d6f565b838801955050505b50505092915050565b6000611dab8284611d20565b915081905092915050565b7f4e487b7100000000000000000000000000000000000000000000000000000000600052603260045260246000fd5b6000611df082610be8565b91507fffffffffffffffffffffffffffffffffffffffffffffffffffffffffffffffff821415611e2357611e22611bd2565b5b600182019050919050565b600067ffffffffffffffff821115611e4957611e486110a0565b5b602082029050602081019050919050565b600060c08284031215611e7057611e6f6116e6565b5b611e7a60c0611100565b90506000611e8a848285016116f0565b600083015250602082015167ffffffffffffffff811115611eae57611ead6116eb565b5b611eba84828501611747565b602083015250604082015167ffffffffffffffff811115611ede57611edd6116eb565b5b611eea84828501611747565b6040830152506060611efe848285016116f0565b6060830152506080611f12848285016116f0565b60808301525060a0611f26848285016116f0565b60a08301525092915050565b6000611f45611f4084611e2e565b611100565b90508083825260208201905060208402830185811115611f6857611f676116e1565b5b835b81811015611faf57805167ffffffffffffffff811115611f8d57611f8c611096565b5b808601611f9a8982611e5a565b85526020850194505050602081019050611f6a565b5050509392505050565b600082601f830112611fce57611fcd611096565b5b8151611fde848260208601611f32565b91505092915050565b600060208284031215611ffd57611ffc610bde565b5b600082015167ffffffffffffffff81111561201b5761201a610be3565b5b61202784828501611fb9565b91505092915050565b6000806040838503121561204757612046610bde565b5b6000612055858286016116f0565b9250506020612066858286016116f0565b915050925092905056fea2646970667358221220705431b3ca688807c9a77f679220f24f9c7125b67d89c5c97cca5f166c3ecb1964736f6c63430008090033",
  "immutableReferences": {},
  "source": "//SPDX-License-Identifier: MIT\n\npragma solidity ^0.8;\n// pragma experimental ABIEncoderV2;\nimport \"./Project.sol\";\nimport \"./SubProject.sol\";\nimport \"./Task.sol\";\n \n\ncontract ProjectUserMapping {\n        uint256 private count;\n        Project _projectAccessor;\n        SubProject _subprojectAccessor;\n        Task _taskAccessor;\n\n    constructor(address _projectAddress, address _subProjectAddress, address _taskAddress) {\n        count = 0;\n        _projectAccessor = Project(_projectAddress);\n        _subprojectAccessor = SubProject(_subProjectAddress);\n        _taskAccessor = Task(_taskAddress);\n    }\n    // constructor() {\n    //     count = 0;\n    // }\n    struct MappingInfo {\n        uint256 projectId;\n        string financialOfficerUsername;\n        string projectManagerUsernmae;\n        string budgetAndProcurementManagerUsername;\n        string externalAuditorUsername;\n    }\n\n    event ProjectMapped (\n        uint256 projectId,\n        string financialOfficerUsername,\n        string projectManagerUsernmae,\n        string budgetAndProcurementManagerUsername,\n        string externalAuditorUsername\n    );\n\n    mapping(uint256 => MappingInfo) private userProjectMappings;\n\n    /*\n    TODO only technical admin modifier\n    This functions used to add project and users mapping to the blocks.\n    */\n    function addMapping(uint256 projectId, string memory financialOfficerUsername, string memory projectManagerUsernmae, string memory budgetAndProcurementManagerUsername, string memory externalAuditorUsername) public {\n        count += 1;\n        userProjectMappings[count] = MappingInfo(\n            projectId, financialOfficerUsername, projectManagerUsernmae, budgetAndProcurementManagerUsername, externalAuditorUsername\n        );\n    }\n\n    /*\n    As we cannot create dynamic array which we can push to, we should use this function to return the length of projects\n    the user is being participated\n    */\n    function getProjectCount(string memory _username) internal view returns(uint256 length) {\n        for (uint256 index = 0; index < count + 1; index++) {\n            if(\n                    keccak256(abi.encodePacked(userProjectMappings[index].financialOfficerUsername)) == keccak256(abi.encodePacked(_username)) ||\n                    keccak256(abi.encodePacked(userProjectMappings[index].budgetAndProcurementManagerUsername)) == keccak256(abi.encodePacked(_username)) ||\n                    keccak256(abi.encodePacked(userProjectMappings[index].projectManagerUsernmae)) == keccak256(abi.encodePacked(_username)) ||\n                    keccak256(abi.encodePacked(userProjectMappings[index].externalAuditorUsername)) == keccak256(abi.encodePacked(_username))\n                ) {\n                    length++;\n                }\n        }\n    }\n\n    /*\n    This function returns project using project id\n    */\n    function getProjectByIdFromMapping(uint256 _id) public view returns (Project.ProjectInfo memory) {\n            return _projectAccessor.getProjectById(_id);\n    }\n    \n\n    /*\n    This function returns array of project ids so we can iterate over them and get projects\n    */\n    function getProjectsListByUsername(string memory _username) public view returns(Project.ProjectInfo[] memory) {\n        uint256 length = getProjectCount(_username);\n        Project.ProjectInfo[] memory projects = new Project.ProjectInfo[](length);\n        uint256 counter = 0;\n        for (uint256 index = 1; index < count + 1; index++) {\n            if(\n                    keccak256(abi.encodePacked(userProjectMappings[index].financialOfficerUsername)) == keccak256(abi.encodePacked(_username)) ||\n                    keccak256(abi.encodePacked(userProjectMappings[index].budgetAndProcurementManagerUsername)) == keccak256(abi.encodePacked(_username)) ||\n                    keccak256(abi.encodePacked(userProjectMappings[index].projectManagerUsernmae)) == keccak256(abi.encodePacked(_username)) ||\n                    keccak256(abi.encodePacked(userProjectMappings[index].externalAuditorUsername)) == keccak256(abi.encodePacked(_username))\n                ) {\n                    projects[counter] = getProjectByIdFromMapping(userProjectMappings[index].projectId);\n                    counter++;\n                    // projects.push(userProjectMappings[index].projectId);\n                }\n        }\n        return projects;\n    }\n\n    function getSubProjectListByProjectId(uint256 _projectId) public view returns(SubProject.SubProjectInfo[] memory) {\n        return _subprojectAccessor.getSubProjectsListByProjectId(_projectId);\n    }\n\n    function getTaskListByProjectId(uint256 _projectId) public view returns(Task.TaskInfo[] memory) {\n        return _taskAccessor.getTasksListFromProjectId(_projectId);\n    }\n\n    function getTaskListBySubProject(uint256 _projectId) public view returns(Task.TaskInfo[] memory) {\n        return _taskAccessor.getTasksListFromSubProjectId(_projectId);\n    }\n\n    function getTaskStatusByProjectId(uint256 _projectId) public view returns(uint256 approved, uint256 unapproved) {\n        return _taskAccessor.getTaskStatusByProjectId(_projectId);\n    }\n\n}\n",
  "sourcePath": "/home/jeremy/Desktop/fets_front_end/src/contracts/project_management/ProjectUserMapping.sol",
  "compiler": {
    "name": "solc",
    "version": "0.8.9+commit.e5eed63a.Emscripten.clang"
  },
  "schemaVersion": "3.4.3",
  "updatedAt": "2022-05-28T06:12:08.826Z",
  "networkType": "ethereum",
  "devdoc": {
    "kind": "dev",
    "methods": {},
    "version": 1
  },
  "userdoc": {
    "kind": "user",
    "methods": {},
    "version": 1
  }
}