{
  "contractName": "ProjectUserMapping",
  "abi": [
    {
      "inputs": [
        {
          "internalType": "address",
          "name": "_projectAddress",
          "type": "address"
        },
        {
          "internalType": "address",
          "name": "_subProjectAddress",
          "type": "address"
        },
        {
          "internalType": "address",
          "name": "_taskAddress",
          "type": "address"
        }
      ],
      "stateMutability": "nonpayable",
      "type": "constructor"
    },
    {
      "anonymous": false,
      "inputs": [
        {
          "indexed": false,
          "internalType": "uint256",
          "name": "projectId",
          "type": "uint256"
        },
        {
          "indexed": false,
          "internalType": "string",
          "name": "financialOfficerUsername",
          "type": "string"
        },
        {
          "indexed": false,
          "internalType": "string",
          "name": "projectManagerUsernmae",
          "type": "string"
        },
        {
          "indexed": false,
          "internalType": "string",
          "name": "budgetAndProcurementManagerUsername",
          "type": "string"
        },
        {
          "indexed": false,
          "internalType": "string",
          "name": "externalAuditorUsername",
          "type": "string"
        }
      ],
      "name": "ProjectMapped",
      "type": "event"
    },
    {
      "inputs": [
        {
          "internalType": "uint256",
          "name": "projectId",
          "type": "uint256"
        },
        {
          "internalType": "string",
          "name": "financialOfficerUsername",
          "type": "string"
        },
        {
          "internalType": "string",
          "name": "projectManagerUsernmae",
          "type": "string"
        },
        {
          "internalType": "string",
          "name": "budgetAndProcurementManagerUsername",
          "type": "string"
        },
        {
          "internalType": "string",
          "name": "externalAuditorUsername",
          "type": "string"
        }
      ],
      "name": "addMapping",
      "outputs": [],
      "stateMutability": "nonpayable",
      "type": "function"
    },
    {
      "inputs": [
        {
          "internalType": "uint256",
          "name": "_id",
          "type": "uint256"
        }
      ],
      "name": "getProjectByIdFromMapping",
      "outputs": [
        {
          "components": [
            {
              "internalType": "uint256",
              "name": "id",
              "type": "uint256"
            },
            {
              "internalType": "string",
              "name": "name",
              "type": "string"
            },
            {
              "internalType": "string",
              "name": "description",
              "type": "string"
            },
            {
              "internalType": "string",
              "name": "location",
              "type": "string"
            },
            {
              "internalType": "uint256",
              "name": "estimatedBudget",
              "type": "uint256"
            },
            {
              "internalType": "uint256",
              "name": "fundedMoney",
              "type": "uint256"
            },
            {
              "internalType": "uint256",
              "name": "estimatedDuration",
              "type": "uint256"
            },
            {
              "internalType": "uint256",
              "name": "createdAt",
              "type": "uint256"
            },
            {
              "internalType": "string",
              "name": "companyId",
              "type": "string"
            },
            {
              "internalType": "string",
              "name": "accountNumber",
              "type": "string"
            },
            {
              "internalType": "enum Project.ProjectStatus",
              "name": "status",
              "type": "uint8"
            }
          ],
          "internalType": "struct Project.ProjectInfo",
          "name": "",
          "type": "tuple"
        }
      ],
      "stateMutability": "view",
      "type": "function",
      "constant": true
    },
    {
      "inputs": [
        {
          "internalType": "string",
          "name": "_username",
          "type": "string"
        }
      ],
      "name": "getProjectsListByUsername",
      "outputs": [
        {
          "components": [
            {
              "internalType": "uint256",
              "name": "id",
              "type": "uint256"
            },
            {
              "internalType": "string",
              "name": "name",
              "type": "string"
            },
            {
              "internalType": "string",
              "name": "description",
              "type": "string"
            },
            {
              "internalType": "string",
              "name": "location",
              "type": "string"
            },
            {
              "internalType": "uint256",
              "name": "estimatedBudget",
              "type": "uint256"
            },
            {
              "internalType": "uint256",
              "name": "fundedMoney",
              "type": "uint256"
            },
            {
              "internalType": "uint256",
              "name": "estimatedDuration",
              "type": "uint256"
            },
            {
              "internalType": "uint256",
              "name": "createdAt",
              "type": "uint256"
            },
            {
              "internalType": "string",
              "name": "companyId",
              "type": "string"
            },
            {
              "internalType": "string",
              "name": "accountNumber",
              "type": "string"
            },
            {
              "internalType": "enum Project.ProjectStatus",
              "name": "status",
              "type": "uint8"
            }
          ],
          "internalType": "struct Project.ProjectInfo[]",
          "name": "",
          "type": "tuple[]"
        }
      ],
      "stateMutability": "view",
      "type": "function",
      "constant": true
    },
    {
      "inputs": [
        {
          "internalType": "uint256",
          "name": "_projectId",
          "type": "uint256"
        }
      ],
      "name": "getSubProjectListByProjectId",
      "outputs": [
        {
          "components": [
            {
              "internalType": "uint256",
              "name": "id",
              "type": "uint256"
            },
            {
              "internalType": "string",
              "name": "name",
              "type": "string"
            },
            {
              "internalType": "string",
              "name": "description",
              "type": "string"
            },
            {
              "internalType": "uint256",
              "name": "projectId",
              "type": "uint256"
            },
            {
              "internalType": "uint256",
              "name": "estimatedDuration",
              "type": "uint256"
            },
            {
              "internalType": "uint256",
              "name": "createdAt",
              "type": "uint256"
            }
          ],
          "internalType": "struct SubProject.SubProjectInfo[]",
          "name": "",
          "type": "tuple[]"
        }
      ],
      "stateMutability": "view",
      "type": "function",
      "constant": true
    },
    {
      "inputs": [
        {
          "internalType": "uint256",
          "name": "_id",
          "type": "uint256"
        }
      ],
      "name": "getMappingById",
      "outputs": [
        {
          "components": [
            {
              "internalType": "uint256",
              "name": "projectId",
              "type": "uint256"
            },
            {
              "internalType": "string",
              "name": "financialOfficerUsername",
              "type": "string"
            },
            {
              "internalType": "string",
              "name": "projectManagerUsernmae",
              "type": "string"
            },
            {
              "internalType": "string",
              "name": "budgetAndProcurementManagerUsername",
              "type": "string"
            },
            {
              "internalType": "string",
              "name": "externalAuditorUsername",
              "type": "string"
            }
          ],
          "internalType": "struct ProjectUserMapping.MappingInfo",
          "name": "",
          "type": "tuple"
        }
      ],
      "stateMutability": "view",
      "type": "function",
      "constant": true
    },
    {
      "inputs": [],
      "name": "getAllSubProjects",
      "outputs": [
        {
          "components": [
            {
              "internalType": "uint256",
              "name": "id",
              "type": "uint256"
            },
            {
              "internalType": "string",
              "name": "name",
              "type": "string"
            },
            {
              "internalType": "string",
              "name": "description",
              "type": "string"
            },
            {
              "internalType": "uint256",
              "name": "projectId",
              "type": "uint256"
            },
            {
              "internalType": "uint256",
              "name": "estimatedDuration",
              "type": "uint256"
            },
            {
              "internalType": "uint256",
              "name": "createdAt",
              "type": "uint256"
            }
          ],
          "internalType": "struct SubProject.SubProjectInfo[]",
          "name": "",
          "type": "tuple[]"
        }
      ],
      "stateMutability": "view",
      "type": "function",
      "constant": true
    },
    {
      "inputs": [
        {
          "internalType": "uint256",
          "name": "_projectId",
          "type": "uint256"
        }
      ],
      "name": "getTaskListByProjectId",
      "outputs": [
        {
          "components": [
            {
              "internalType": "uint256",
              "name": "id",
              "type": "uint256"
            },
            {
              "internalType": "string",
              "name": "name",
              "type": "string"
            },
            {
              "internalType": "string",
              "name": "description",
              "type": "string"
            },
            {
              "internalType": "uint256",
              "name": "projectId",
              "type": "uint256"
            },
            {
              "internalType": "uint256",
              "name": "subProjectId",
              "type": "uint256"
            },
            {
              "internalType": "uint256",
              "name": "estimatedDuration",
              "type": "uint256"
            },
            {
              "internalType": "enum Task.TaskStatus",
              "name": "status",
              "type": "uint8"
            },
            {
              "internalType": "uint256",
              "name": "allocatedBudget",
              "type": "uint256"
            },
            {
              "internalType": "string",
              "name": "remark",
              "type": "string"
            },
            {
              "internalType": "uint256",
              "name": "createdAt",
              "type": "uint256"
            }
          ],
          "internalType": "struct Task.TaskInfo[]",
          "name": "",
          "type": "tuple[]"
        }
      ],
      "stateMutability": "view",
      "type": "function",
      "constant": true
    },
    {
      "inputs": [
        {
          "internalType": "uint256",
          "name": "_projectId",
          "type": "uint256"
        }
      ],
      "name": "getTaskListBySubProject",
      "outputs": [
        {
          "components": [
            {
              "internalType": "uint256",
              "name": "id",
              "type": "uint256"
            },
            {
              "internalType": "string",
              "name": "name",
              "type": "string"
            },
            {
              "internalType": "string",
              "name": "description",
              "type": "string"
            },
            {
              "internalType": "uint256",
              "name": "projectId",
              "type": "uint256"
            },
            {
              "internalType": "uint256",
              "name": "subProjectId",
              "type": "uint256"
            },
            {
              "internalType": "uint256",
              "name": "estimatedDuration",
              "type": "uint256"
            },
            {
              "internalType": "enum Task.TaskStatus",
              "name": "status",
              "type": "uint8"
            },
            {
              "internalType": "uint256",
              "name": "allocatedBudget",
              "type": "uint256"
            },
            {
              "internalType": "string",
              "name": "remark",
              "type": "string"
            },
            {
              "internalType": "uint256",
              "name": "createdAt",
              "type": "uint256"
            }
          ],
          "internalType": "struct Task.TaskInfo[]",
          "name": "",
          "type": "tuple[]"
        }
      ],
      "stateMutability": "view",
      "type": "function",
      "constant": true
    },
    {
      "inputs": [
        {
          "internalType": "uint256",
          "name": "_projectId",
          "type": "uint256"
        }
      ],
      "name": "getTaskStatusByProjectId",
      "outputs": [
        {
          "internalType": "uint256",
          "name": "approved",
          "type": "uint256"
        },
        {
          "internalType": "uint256",
          "name": "unapproved",
          "type": "uint256"
        }
      ],
      "stateMutability": "view",
      "type": "function",
      "constant": true
    },
    {
      "inputs": [
        {
          "internalType": "uint256",
          "name": "_subProjectId",
          "type": "uint256"
        }
      ],
      "name": "getTaskStatusBySubProjectId",
      "outputs": [
        {
          "internalType": "uint256",
          "name": "approved",
          "type": "uint256"
        },
        {
          "internalType": "uint256",
          "name": "unapproved",
          "type": "uint256"
        }
      ],
      "stateMutability": "view",
      "type": "function",
      "constant": true
    }
  ],
  "bytecode": "0x60806040523480156200001157600080fd5b5060405162001baf38038062001baf833981016040819052620000349162000098565b6000805560018054600160a060020a03948516600160a060020a031991821617909155600280549385169382169390931790925560038054919093169116179055620000e2565b8051600160a060020a03811681146200009357600080fd5b919050565b600080600060608486031215620000ae57600080fd5b620000b9846200007b565b9250620000c9602085016200007b565b9150620000d9604085016200007b565b90509250925092565b611abd80620000f26000396000f3fe608060405234801561001057600080fd5b50600436106100bb576000357c010000000000000000000000000000000000000000000000000000000090048063a2bd1e9e11610083578063a2bd1e9e14610166578063a71205c114610186578063beccbab714610199578063c50c58cd146101ae578063deb1db10146101c157600080fd5b806341db35ca146100c05780635e0f94d3146100e95780636874c5f7146101115780636ee8694b1461013157806393a35ef314610151575b600080fd5b6100d36100ce366004610e47565b6101d4565b6040516100e09190610ee9565b60405180910390f35b6100fc6100f7366004610e47565b610275565b604080519283526020830191909152016100e0565b61012461011f366004610e47565b610318565b6040516100e091906110b8565b61014461013f366004610e47565b6103b9565b6040516100e091906110d2565b610159610662565b6040516100e0919061115a565b610179610174366004611331565b610701565b6040516100e0919061136e565b610159610194366004610e47565b610976565b6101ac6101a73660046113cf565b610a10565b005b6100fc6101bc366004610e47565b610ad6565b6100d36101cf366004610e47565b610b25565b6003546040517f5ea62f5600000000000000000000000000000000000000000000000000000000815260048101839052606091600160a060020a031690635ea62f56906024015b60006040518083038186803b15801561023357600080fd5b505afa158015610247573d6000803e3d6000fd5b505050506040513d6000823e601f3d908101601f1916820160405261026f9190810190611503565b92915050565b6003546040517f5e0f94d3000000000000000000000000000000000000000000000000000000008152600481018390526000918291600160a060020a0390911690635e0f94d3906024015b604080518083038186803b1580156102d757600080fd5b505afa1580156102eb573d6000803e3d6000fd5b505050506040513d601f19601f8201168201806040525081019061030f9190611685565b91509150915091565b610320610d44565b6001546040517fbee5cdca00000000000000000000000000000000000000000000000000000000815260048101849052600160a060020a039091169063bee5cdca9060240160006040518083038186803b15801561037d57600080fd5b505afa158015610391573d6000803e3d6000fd5b505050506040513d6000823e601f3d908101601f1916820160405261026f91908101906116b8565b6103eb6040518060a0016040528060008152602001606081526020016060815260200160608152602001606081525090565b600460008381526020019081526020016000206040518060a00160405290816000820154815260200160018201805461042390611802565b80601f016020809104026020016040519081016040528092919081815260200182805461044f90611802565b801561049c5780601f106104715761010080835404028352916020019161049c565b820191906000526020600020905b81548152906001019060200180831161047f57829003601f168201915b505050505081526020016002820180546104b590611802565b80601f01602080910402602001604051908101604052809291908181526020018280546104e190611802565b801561052e5780601f106105035761010080835404028352916020019161052e565b820191906000526020600020905b81548152906001019060200180831161051157829003601f168201915b5050505050815260200160038201805461054790611802565b80601f016020809104026020016040519081016040528092919081815260200182805461057390611802565b80156105c05780601f10610595576101008083540402835291602001916105c0565b820191906000526020600020905b8154815290600101906020018083116105a357829003601f168201915b505050505081526020016004820180546105d990611802565b80601f016020809104026020016040519081016040528092919081815260200182805461060590611802565b80156106525780601f1061062757610100808354040283529160200191610652565b820191906000526020600020905b81548152906001019060200180831161063557829003601f168201915b5050505050815250509050919050565b600254604080517f93a35ef30000000000000000000000000000000000000000000000000000000081529051606092600160a060020a0316916393a35ef3916004808301926000929190829003018186803b1580156106c057600080fd5b505afa1580156106d4573d6000803e3d6000fd5b505050506040513d6000823e601f3d908101601f191682016040526106fc919081019061183a565b905090565b6060600061070e83610b70565b905060008167ffffffffffffffff81111561072b5761072b6111f8565b60405190808252806020026020018201604052801561076457816020015b610751610d44565b8152602001906001900390816107495790505b509050600060015b60005461077a906001611980565b81101561096c57856040516020016107929190611998565b60408051601f1981840301815282825280516020918201206000858152600483529290922091926107c79260010191016119b4565b6040516020818303038152906040528051906020012014806108425750856040516020016107f59190611998565b60408051601f19818403018152828252805160209182012060008581526004835292909220919261082a9260030191016119b4565b60405160208183030381529060405280519060200120145b806108a65750856040516020016108599190611998565b60408051601f19818403018152828252805160209182012060008581526004835292909220919261088e9260020191016119b4565b60405160208183030381529060405280519060200120145b806109115750856040516020016108bd9190611998565b60405160208183030381529060405280519060200120600460008381526020019081526020016000206004016040516020016108f991906119b4565b60405160208183030381529060405280519060200120145b1561095a5760008181526004602052604090205461092e90610318565b83838151811061094057610940611a53565b6020026020010181905250818061095690611a6c565b9250505b8061096481611a6c565b91505061076c565b5090949350505050565b6002546040517f778f8c4e00000000000000000000000000000000000000000000000000000000815260048101839052606091600160a060020a03169063778f8c4e9060240160006040518083038186803b1580156109d457600080fd5b505afa1580156109e8573d6000803e3d6000fd5b505050506040513d6000823e601f3d908101601f1916820160405261026f919081019061183a565b6001600080828254610a229190611980565b90915550506040805160a08101825286815260208082018781528284018790526060830186905260808301859052600089815260048352939093208251815592518051929392610a789260018501920190610dae565b5060408201518051610a94916002840191602090910190610dae565b5060608201518051610ab0916003840191602090910190610dae565b5060808201518051610acc916004840191602090910190610dae565b5050505050505050565b6003546040517fc50c58cd000000000000000000000000000000000000000000000000000000008152600481018390526000918291600160a060020a039091169063c50c58cd906024016102c0565b6003546040517fa83243da00000000000000000000000000000000000000000000000000000000815260048101839052606091600160a060020a03169063a83243da9060240161021b565b6000805b600054610b82906001611980565b811015610d3e5782604051602001610b9a9190611998565b60408051601f198184030181528282528051602091820120600085815260048352929092209192610bcf9260010191016119b4565b604051602081830303815290604052805190602001201480610c4a575082604051602001610bfd9190611998565b60408051601f198184030181528282528051602091820120600085815260048352929092209192610c329260030191016119b4565b60405160208183030381529060405280519060200120145b80610cae575082604051602001610c619190611998565b60408051601f198184030181528282528051602091820120600085815260048352929092209192610c969260020191016119b4565b60405160208183030381529060405280519060200120145b80610d19575082604051602001610cc59190611998565b6040516020818303038152906040528051906020012060046000838152602001908152602001600020600401604051602001610d0191906119b4565b60405160208183030381529060405280519060200120145b15610d2c5781610d2881611a6c565b9250505b80610d3681611a6c565b915050610b74565b50919050565b6040518061016001604052806000815260200160608152602001606081526020016060815260200160008152602001600081526020016000815260200160008152602001606081526020016060815260200160006004811115610da957610da9610ebc565b905290565b828054610dba90611802565b90600052602060002090601f016020900481019282610ddc5760008555610e22565b82601f10610df557805160ff1916838001178555610e22565b82800160010185558215610e22579182015b82811115610e22578251825591602001919060010190610e07565b50610e2e929150610e32565b5090565b5b80821115610e2e5760008155600101610e33565b600060208284031215610e5957600080fd5b5035919050565b60005b83811015610e7b578181015183820152602001610e63565b83811115610e8a576000848401525b50505050565b60008151808452610ea8816020860160208601610e60565b601f01601f19169290920160200192915050565b60e060020a634e487b7102600052602160045260246000fd5b60088110610ee557610ee5610ebc565b9052565b60208082528251828201819052600091906040908185019080840286018301878501865b83811015610fd057603f1989840301855281516101408151855288820151818a870152610f3c82870182610e90565b9150508782015185820389870152610f548282610e90565b606084810151908801526080808501519088015260a0808501519088015260c0808501519193509150610f8982880182610ed5565b505060e082810151908601526101008083015186830382880152610fad8382610e90565b610120948501519790940196909652505094870194925090860190600101610f0d565b509098975050505050505050565b60058110610ee557610ee5610ebc565b600061016082518452602083015181602086015261100e82860182610e90565b915050604083015184820360408601526110288282610e90565b915050606083015184820360608601526110428282610e90565b9150506080830151608085015260a083015160a085015260c083015160c085015260e083015160e085015261010080840151858303828701526110858382610e90565b9250505061012080840151858303828701526110a18382610e90565b925050506101408084015161096c82870182610fde565b6020815260006110cb6020830184610fee565b9392505050565b60208152815160208201526000602083015160a060408401526110f860c0840182610e90565b90506040840151601f19808584030160608601526111168383610e90565b925060608601519150808584030160808601526111338383610e90565b925060808601519150808584030160a0860152506111518282610e90565b95945050505050565b60208082528251828201819052600091906040908185019080840286018301878501865b83811015610fd057603f19898403018552815160c08151855288820151818a8701526111ac82870182610e90565b91505087820151858203898701526111c48282610e90565b606084810151908801526080808501519088015260a09384015193909601929092525050938601939086019060010161117e565b60e060020a634e487b7102600052604160045260246000fd5b604051610140810167ffffffffffffffff81118282101715611235576112356111f8565b60405290565b604051610160810167ffffffffffffffff81118282101715611235576112356111f8565b60405160c0810167ffffffffffffffff81118282101715611235576112356111f8565b604051601f8201601f1916810167ffffffffffffffff811182821017156112ab576112ab6111f8565b604052919050565b600067ffffffffffffffff8211156112cd576112cd6111f8565b50601f01601f191660200190565b600082601f8301126112ec57600080fd5b81356112ff6112fa826112b3565b611282565b81815284602083860101111561131457600080fd5b816020850160208301376000918101602001919091529392505050565b60006020828403121561134357600080fd5b813567ffffffffffffffff81111561135a57600080fd5b611366848285016112db565b949350505050565b600060208083018184528085518083526040860191506040848202870101925083870160005b828110156113c257603f198886030184526113b0858351610fee565b94509285019290850190600101611394565b5092979650505050505050565b600080600080600060a086880312156113e757600080fd5b85359450602086013567ffffffffffffffff8082111561140657600080fd5b61141289838a016112db565b9550604088013591508082111561142857600080fd5b61143489838a016112db565b9450606088013591508082111561144a57600080fd5b61145689838a016112db565b9350608088013591508082111561146c57600080fd5b50611479888289016112db565b9150509295509295909350565b600067ffffffffffffffff8211156114a0576114a06111f8565b5060209081020190565b600082601f8301126114bb57600080fd5b81516114c96112fa826112b3565b8181528460208386010111156114de57600080fd5b611366826020830160208701610e60565b8051600881106114fe57600080fd5b919050565b6000602080838503121561151657600080fd5b825167ffffffffffffffff8082111561152e57600080fd5b818501915085601f83011261154257600080fd5b81516115506112fa82611486565b8181529084028301840190848101908883111561156c57600080fd5b8585015b838110156116785780518581111561158757600080fd5b8601610140818c03601f1901121561159e57600080fd5b6115a6611211565b8882015181526040820151878111156115be57600080fd5b6115cc8d8b838601016114aa565b8a830152506060820151878111156115e357600080fd5b6115f18d8b838601016114aa565b6040830152506080820151606082015260a0820151608082015260c082015160a082015261162160e083016114ef565b60c08201526101008083015160e0830152610120808401518981111561164657600080fd5b6116548f8d838801016114aa565b92840192909252610140939093015192820192909252845250918601918601611570565b5098975050505050505050565b6000806040838503121561169857600080fd5b505080516020909101519092909150565b8051600581106114fe57600080fd5b6000602082840312156116ca57600080fd5b815167ffffffffffffffff808211156116e257600080fd5b9083019061016082860312156116f757600080fd5b6116ff61123b565b8251815260208301518281111561171557600080fd5b611721878286016114aa565b60208301525060408301518281111561173957600080fd5b611745878286016114aa565b60408301525060608301518281111561175d57600080fd5b611769878286016114aa565b6060830152506080830151608082015260a083015160a082015260c083015160c082015260e083015160e082015261010080840151838111156117ab57600080fd5b6117b7888287016114aa565b82840152505061012080840151838111156117d157600080fd5b6117dd888287016114aa565b82840152505061014091506117f38284016116a9565b91810191909152949350505050565b60028104600182168061181657607f821691505b60208210811415610d3e5760e060020a634e487b7102600052602260045260246000fd5b6000602080838503121561184d57600080fd5b825167ffffffffffffffff8082111561186557600080fd5b818501915085601f83011261187957600080fd5b81516118876112fa82611486565b818152908402830184019084810190888311156118a357600080fd5b8585015b83811015611678578051858111156118be57600080fd5b860160c0818c03601f190112156118d55760008081fd5b6118dd61125f565b888201518152604080830151888111156118f75760008081fd5b6119058e8c838701016114aa565b8b840152506060808401518981111561191e5760008081fd5b61192c8f8d838801016114aa565b83850152506080915081840151818401525060a0808401518284015260c08401518184015250508085525050868301925086810190506118a7565b60e060020a634e487b7102600052601160045260246000fd5b6000821982111561199357611993611967565b500190565b600082516119aa818460208701610e60565b9190910192915050565b81546000908190600281046001808316806119d057607f831692505b60208084108214156119f35760e060020a634e487b710286526022600452602486fd5b818015611a075760018114611a1857611a45565b60ff19861689528489019650611a45565b60008a81526020902060005b86811015611a3d5781548b820152908501908301611a24565b505084890196505b509498975050505050505050565b60e060020a634e487b7102600052603260045260246000fd5b6000600019821415611a8057611a80611967565b506001019056fea2646970667358221220172fe33541b7d1c9030f051d77265ae467ed4eb885166c4459fb38d53936456a64736f6c63430008090033",
  "immutableReferences": {},
  "source": "//SPDX-License-Identifier: MIT\n\npragma solidity ^0.8;\n// pragma experimental ABIEncoderV2;\nimport \"./Project.sol\";\nimport \"./SubProject.sol\";\nimport \"./Task.sol\";\n\ncontract ProjectUserMapping {\n    uint256 private count;\n    Project _projectAccessor;\n    SubProject _subprojectAccessor;\n    Task _taskAccessor;\n\n    constructor(\n        address _projectAddress,\n        address _subProjectAddress,\n        address _taskAddress\n    ) {\n        count = 0;\n        _projectAccessor = Project(_projectAddress);\n        _subprojectAccessor = SubProject(_subProjectAddress);\n        _taskAccessor = Task(_taskAddress);\n    }\n\n    // constructor() {\n    //     count = 0;\n    // }\n    struct MappingInfo {\n        uint256 projectId;\n        string financialOfficerUsername;\n        string projectManagerUsernmae;\n        string budgetAndProcurementManagerUsername;\n        string externalAuditorUsername;\n    }\n\n    event ProjectMapped(\n        uint256 projectId,\n        string financialOfficerUsername,\n        string projectManagerUsernmae,\n        string budgetAndProcurementManagerUsername,\n        string externalAuditorUsername\n    );\n\n    mapping(uint256 => MappingInfo) private userProjectMappings;\n\n    /*\n    TODO only technical admin modifier\n    This functions used to add project and users mapping to the blocks.\n    */\n    function addMapping(\n        uint256 projectId,\n        string memory financialOfficerUsername,\n        string memory projectManagerUsernmae,\n        string memory budgetAndProcurementManagerUsername,\n        string memory externalAuditorUsername\n    ) public {\n        count += 1;\n        userProjectMappings[projectId] = MappingInfo(\n            projectId,\n            financialOfficerUsername,\n            projectManagerUsernmae,\n            budgetAndProcurementManagerUsername,\n            externalAuditorUsername\n        );\n    }\n\n    /*\n    As we cannot create dynamic array which we can push to, we should use this function to return the length of projects\n    the user is being participated\n    */\n    function getProjectCount(string memory _username)\n        internal\n        view\n        returns (uint256 length)\n    {\n        for (uint256 index = 0; index < count + 1; index++) {\n            if (\n                keccak256(\n                    abi.encodePacked(\n                        userProjectMappings[index].financialOfficerUsername\n                    )\n                ) ==\n                keccak256(abi.encodePacked(_username)) ||\n                keccak256(\n                    abi.encodePacked(\n                        userProjectMappings[index]\n                            .budgetAndProcurementManagerUsername\n                    )\n                ) ==\n                keccak256(abi.encodePacked(_username)) ||\n                keccak256(\n                    abi.encodePacked(\n                        userProjectMappings[index].projectManagerUsernmae\n                    )\n                ) ==\n                keccak256(abi.encodePacked(_username)) ||\n                keccak256(\n                    abi.encodePacked(\n                        userProjectMappings[index].externalAuditorUsername\n                    )\n                ) ==\n                keccak256(abi.encodePacked(_username))\n            ) {\n                length++;\n            }\n        }\n    }\n\n    /*\n    This function returns project using project id\n    */\n    function getProjectByIdFromMapping(uint256 _id)\n        public\n        view\n        returns (Project.ProjectInfo memory)\n    {\n        return _projectAccessor.getProjectById(_id);\n    }\n\n    /*\n    This function returns array of project ids so we can iterate over them and get projects\n    */\n    function getProjectsListByUsername(string memory _username)\n        public\n        view\n        returns (Project.ProjectInfo[] memory)\n    {\n        uint256 length = getProjectCount(_username);\n        Project.ProjectInfo[] memory projects = new Project.ProjectInfo[](\n            length\n        );\n        uint256 counter = 0;\n        for (uint256 index = 1; index < count + 1; index++) {\n            if (\n                keccak256(\n                    abi.encodePacked(\n                        userProjectMappings[index].financialOfficerUsername\n                    )\n                ) ==\n                keccak256(abi.encodePacked(_username)) ||\n                keccak256(\n                    abi.encodePacked(\n                        userProjectMappings[index]\n                            .budgetAndProcurementManagerUsername\n                    )\n                ) ==\n                keccak256(abi.encodePacked(_username)) ||\n                keccak256(\n                    abi.encodePacked(\n                        userProjectMappings[index].projectManagerUsernmae\n                    )\n                ) ==\n                keccak256(abi.encodePacked(_username)) ||\n                keccak256(\n                    abi.encodePacked(\n                        userProjectMappings[index].externalAuditorUsername\n                    )\n                ) ==\n                keccak256(abi.encodePacked(_username))\n            ) {\n                projects[counter] = getProjectByIdFromMapping(\n                    userProjectMappings[index].projectId\n                );\n                counter++;\n                // projects.push(userProjectMappings[index].projectId);\n            }\n        }\n        return projects;\n    }\n\n    function getSubProjectListByProjectId(uint256 _projectId)\n        public\n        view\n        returns (SubProject.SubProjectInfo[] memory)\n    {\n        return _subprojectAccessor.getSubProjectsListByProjectId(_projectId);\n    }\n\n    function getMappingById(uint256 _id)\n        public\n        view\n        returns (MappingInfo memory)\n    {\n        return userProjectMappings[_id];\n    }\n\n    /*\n    TODO - add only technical admin flag\n    */\n    function getAllSubProjects()\n        public\n        view\n        returns (SubProject.SubProjectInfo[] memory)\n    {\n        return _subprojectAccessor.getAllSubProjects();\n    }\n\n    function getTaskListByProjectId(uint256 _projectId)\n        public\n        view\n        returns (Task.TaskInfo[] memory)\n    {\n        return _taskAccessor.getTasksListFromProjectId(_projectId);\n    }\n\n    function getTaskListBySubProject(uint256 _projectId)\n        public\n        view\n        returns (Task.TaskInfo[] memory)\n    {\n        return _taskAccessor.getTasksListFromSubProjectId(_projectId);\n    }\n\n    function getTaskStatusByProjectId(uint256 _projectId)\n        public\n        view\n        returns (uint256 approved, uint256 unapproved)\n    {\n        return _taskAccessor.getTaskStatusByProjectId(_projectId);\n    }\n\n    function getTaskStatusBySubProjectId(uint256 _subProjectId)\n        public\n        view\n        returns (uint256 approved, uint256 unapproved)\n    {\n        return _taskAccessor.getTaskStatusBySubProjectId(_subProjectId);\n    }\n}\n",
  "sourcePath": "/home/jeremy/Desktop/fets_front_end/src/contracts/project_management/ProjectUserMapping.sol",
  "compiler": {
    "name": "solc",
    "version": "0.8.9+commit.e5eed63a.Emscripten.clang"
  },
  "schemaVersion": "3.4.3",
  "updatedAt": "2022-06-17T13:40:06.379Z",
  "networkType": "ethereum",
  "devdoc": {
    "kind": "dev",
    "methods": {},
    "version": 1
  },
  "userdoc": {
    "kind": "user",
    "methods": {},
    "version": 1
  }
}