{
  "contractName": "Project",
  "abi": [
    {
      "anonymous": false,
      "inputs": [
        {
          "indexed": false,
          "internalType": "uint256",
          "name": "id",
          "type": "uint256"
        },
        {
          "indexed": true,
          "internalType": "string",
          "name": "name",
          "type": "string"
        },
        {
          "indexed": false,
          "internalType": "string",
          "name": "description",
          "type": "string"
        },
        {
          "indexed": true,
          "internalType": "string",
          "name": "location",
          "type": "string"
        },
        {
          "indexed": false,
          "internalType": "uint256",
          "name": "estimatedBudget",
          "type": "uint256"
        },
        {
          "indexed": false,
          "internalType": "uint256",
          "name": "estimatedDuration",
          "type": "uint256"
        },
        {
          "indexed": false,
          "internalType": "uint256",
          "name": "fundedMoney",
          "type": "uint256"
        },
        {
          "indexed": false,
          "internalType": "uint256",
          "name": "createdAt",
          "type": "uint256"
        },
        {
          "indexed": true,
          "internalType": "string",
          "name": "companyId",
          "type": "string"
        },
        {
          "indexed": false,
          "internalType": "string",
          "name": "accountNumber",
          "type": "string"
        },
        {
          "indexed": false,
          "internalType": "string",
          "name": "status",
          "type": "string"
        }
      ],
      "name": "AddedProject",
      "type": "event"
    },
    {
      "anonymous": false,
      "inputs": [
        {
          "indexed": true,
          "internalType": "uint256",
          "name": "id",
          "type": "uint256"
        },
        {
          "indexed": false,
          "internalType": "string",
          "name": "name",
          "type": "string"
        },
        {
          "indexed": false,
          "internalType": "string",
          "name": "description",
          "type": "string"
        },
        {
          "indexed": false,
          "internalType": "string",
          "name": "location",
          "type": "string"
        },
        {
          "indexed": false,
          "internalType": "uint256",
          "name": "estimatedBudget",
          "type": "uint256"
        },
        {
          "indexed": false,
          "internalType": "uint256",
          "name": "estimatedDuration",
          "type": "uint256"
        },
        {
          "indexed": false,
          "internalType": "uint256",
          "name": "fundedMoney",
          "type": "uint256"
        },
        {
          "indexed": false,
          "internalType": "uint256",
          "name": "createdAt",
          "type": "uint256"
        },
        {
          "indexed": true,
          "internalType": "string",
          "name": "companyId",
          "type": "string"
        },
        {
          "indexed": false,
          "internalType": "string",
          "name": "accountNumber",
          "type": "string"
        },
        {
          "indexed": false,
          "internalType": "string",
          "name": "status",
          "type": "string"
        }
      ],
      "name": "DeletedProject",
      "type": "event"
    },
    {
      "inputs": [],
      "name": "count",
      "outputs": [
        {
          "internalType": "uint256",
          "name": "",
          "type": "uint256"
        }
      ],
      "stateMutability": "view",
      "type": "function"
    },
    {
      "inputs": [
        {
          "internalType": "uint256",
          "name": "",
          "type": "uint256"
        }
      ],
      "name": "projects",
      "outputs": [
        {
          "internalType": "uint256",
          "name": "id",
          "type": "uint256"
        },
        {
          "internalType": "string",
          "name": "name",
          "type": "string"
        },
        {
          "internalType": "string",
          "name": "description",
          "type": "string"
        },
        {
          "internalType": "string",
          "name": "location",
          "type": "string"
        },
        {
          "internalType": "uint256",
          "name": "estimatedBudget",
          "type": "uint256"
        },
        {
          "internalType": "uint256",
          "name": "fundedMoney",
          "type": "uint256"
        },
        {
          "internalType": "uint256",
          "name": "estimatedDuration",
          "type": "uint256"
        },
        {
          "internalType": "uint256",
          "name": "createdAt",
          "type": "uint256"
        },
        {
          "internalType": "string",
          "name": "companyId",
          "type": "string"
        },
        {
          "internalType": "string",
          "name": "accountNumber",
          "type": "string"
        },
        {
          "internalType": "enum Project.ProjectStatus",
          "name": "status",
          "type": "uint8"
        }
      ],
      "stateMutability": "view",
      "type": "function"
    },
    {
      "inputs": [
        {
          "internalType": "string",
          "name": "name",
          "type": "string"
        },
        {
          "internalType": "string",
          "name": "description",
          "type": "string"
        },
        {
          "internalType": "string",
          "name": "location",
          "type": "string"
        },
        {
          "internalType": "string",
          "name": "estimatedBudget",
          "type": "string"
        },
        {
          "internalType": "uint256",
          "name": "estimatedDuration",
          "type": "uint256"
        },
        {
          "internalType": "uint256",
          "name": "fundedMoney",
          "type": "uint256"
        },
        {
          "internalType": "uint256",
          "name": "createdAt",
          "type": "uint256"
        },
        {
          "internalType": "string",
          "name": "companyId",
          "type": "string"
        },
        {
          "internalType": "string",
          "name": "accountNumber",
          "type": "string"
        },
        {
          "internalType": "string",
          "name": "status",
          "type": "string"
        }
      ],
      "name": "addProject",
      "outputs": [],
      "stateMutability": "nonpayable",
      "type": "function"
    },
    {
      "inputs": [
        {
          "internalType": "uint256",
          "name": "_id",
          "type": "uint256"
        }
      ],
      "name": "deleteProject",
      "outputs": [],
      "stateMutability": "nonpayable",
      "type": "function"
    }
  ],
  "bytecode": "0x608060405234801561001057600080fd5b50610af2806100206000396000f3fe608060405234801561001057600080fd5b506004361061004c5760003560e01c806306661abd14610051578063107046bd1461006f5780634cd0cb28146100a957806376e22fcc146100c5575b600080fd5b6100596100e1565b604051610066919061051d565b60405180910390f35b61008960048036038101906100849190610578565b6100e7565b6040516100a09b9a999897969594939291906106b5565b60405180910390f35b6100c360048036038101906100be9190610578565b6103f6565b005b6100df60048036038101906100da91906108b8565b61049b565b005b60005481565b600160205280600052604060002060009150905080600001549080600101805461011090610a8a565b80601f016020809104026020016040519081016040528092919081815260200182805461013c90610a8a565b80156101895780601f1061015e57610100808354040283529160200191610189565b820191906000526020600020905b81548152906001019060200180831161016c57829003601f168201915b50505050509080600201805461019e90610a8a565b80601f01602080910402602001604051908101604052809291908181526020018280546101ca90610a8a565b80156102175780601f106101ec57610100808354040283529160200191610217565b820191906000526020600020905b8154815290600101906020018083116101fa57829003601f168201915b50505050509080600301805461022c90610a8a565b80601f016020809104026020016040519081016040528092919081815260200182805461025890610a8a565b80156102a55780601f1061027a576101008083540402835291602001916102a5565b820191906000526020600020905b81548152906001019060200180831161028857829003601f168201915b5050505050908060040154908060050154908060060154908060070154908060080180546102d290610a8a565b80601f01602080910402602001604051908101604052809291908181526020018280546102fe90610a8a565b801561034b5780601f106103205761010080835404028352916020019161034b565b820191906000526020600020905b81548152906001019060200180831161032e57829003601f168201915b50505050509080600901805461036090610a8a565b80601f016020809104026020016040519081016040528092919081815260200182805461038c90610a8a565b80156103d95780601f106103ae576101008083540402835291602001916103d9565b820191906000526020600020905b8154815290600101906020018083116103bc57829003601f168201915b50505050509080600a0160009054906101000a900460ff1690508b565b6001600082815260200190815260200160002060008082016000905560018201600061042291906104a7565b60028201600061043291906104a7565b60038201600061044291906104a7565b600482016000905560058201600090556006820160009055600782016000905560088201600061047291906104a7565b60098201600061048291906104a7565b600a820160006101000a81549060ff0219169055505050565b50505050505050505050565b5080546104b390610a8a565b6000825580601f106104c557506104e4565b601f0160209004906000526020600020908101906104e391906104e7565b5b50565b5b808211156105005760008160009055506001016104e8565b5090565b6000819050919050565b61051781610504565b82525050565b6000602082019050610532600083018461050e565b92915050565b6000604051905090565b600080fd5b600080fd5b61055581610504565b811461056057600080fd5b50565b6000813590506105728161054c565b92915050565b60006020828403121561058e5761058d610542565b5b600061059c84828501610563565b91505092915050565b600081519050919050565b600082825260208201905092915050565b60005b838110156105df5780820151818401526020810190506105c4565b838111156105ee576000848401525b50505050565b6000601f19601f8301169050919050565b6000610610826105a5565b61061a81856105b0565b935061062a8185602086016105c1565b610633816105f4565b840191505092915050565b7f4e487b7100000000000000000000000000000000000000000000000000000000600052602160045260246000fd5b6005811061067e5761067d61063e565b5b50565b600081905061068f8261066d565b919050565b600061069f82610681565b9050919050565b6106af81610694565b82525050565b6000610160820190506106cb600083018e61050e565b81810360208301526106dd818d610605565b905081810360408301526106f1818c610605565b90508181036060830152610705818b610605565b9050610714608083018a61050e565b61072160a083018961050e565b61072e60c083018861050e565b61073b60e083018761050e565b81810361010083015261074e8186610605565b90508181036101208301526107638185610605565b90506107736101408301846106a6565b9c9b505050505050505050505050565b600080fd5b600080fd5b7f4e487b7100000000000000000000000000000000000000000000000000000000600052604160045260246000fd5b6107c5826105f4565b810181811067ffffffffffffffff821117156107e4576107e361078d565b5b80604052505050565b60006107f7610538565b905061080382826107bc565b919050565b600067ffffffffffffffff8211156108235761082261078d565b5b61082c826105f4565b9050602081019050919050565b82818337600083830152505050565b600061085b61085684610808565b6107ed565b90508281526020810184848401111561087757610876610788565b5b610882848285610839565b509392505050565b600082601f83011261089f5761089e610783565b5b81356108af848260208601610848565b91505092915050565b6000806000806000806000806000806101408b8d0312156108dc576108db610542565b5b60008b013567ffffffffffffffff8111156108fa576108f9610547565b5b6109068d828e0161088a565b9a505060208b013567ffffffffffffffff81111561092757610926610547565b5b6109338d828e0161088a565b99505060408b013567ffffffffffffffff81111561095457610953610547565b5b6109608d828e0161088a565b98505060608b013567ffffffffffffffff81111561098157610980610547565b5b61098d8d828e0161088a565b975050608061099e8d828e01610563565b96505060a06109af8d828e01610563565b95505060c06109c08d828e01610563565b94505060e08b013567ffffffffffffffff8111156109e1576109e0610547565b5b6109ed8d828e0161088a565b9350506101008b013567ffffffffffffffff811115610a0f57610a0e610547565b5b610a1b8d828e0161088a565b9250506101208b013567ffffffffffffffff811115610a3d57610a3c610547565b5b610a498d828e0161088a565b9150509295989b9194979a5092959850565b7f4e487b7100000000000000000000000000000000000000000000000000000000600052602260045260246000fd5b60006002820490506001821680610aa257607f821691505b60208210811415610ab657610ab5610a5b565b5b5091905056fea2646970667358221220d9b2c1b8f22e019d9505f3cdb5f4013f69d4fc47e28d0a8d1050be20a4997ada64736f6c63430008090033",
  "immutableReferences": {},
  "source": "// SPDX-License-Identifier: MIT\n\npragma solidity ^0.8.9;\n\ncontract Project {\n    uint256 public count;\n\n    enum ProjectStatus {\n        PENDING,\n        STARTED,\n        COMPLETED,\n        CANCELLED,\n        PAUSED\n    }\n\n    struct ProjectInfo {\n        uint256 id;\n        string name;\n        string description;\n        string location;\n        uint256 estimatedBudget;\n        uint256 fundedMoney;\n        uint256 estimatedDuration;\n        uint256 createdAt;\n        string companyId;\n        string accountNumber;\n        ProjectStatus status;\n        // string financialOfficerUsername;\n        // string projectManagerUsernmae;\n        // string budgetAndProcurementManagerUsername;\n        // string externalAuditorUsername;\n    }\n\n    event AddedProject(\n        uint256 id,\n        string indexed name,\n        string description,\n        string indexed location,\n        uint256 estimatedBudget,\n        uint256 estimatedDuration,\n        uint256 fundedMoney,\n        uint256 createdAt,\n        string indexed companyId,\n        string accountNumber,\n        string status\n    );\n\n    event DeletedProject(\n        uint256 indexed id,\n        string name,\n        string description,\n        string location,\n        uint256 estimatedBudget,\n        uint256 estimatedDuration,\n        uint256 fundedMoney,\n        uint256 createdAt,\n        string indexed companyId,\n        string accountNumber,\n        string status\n    );\n\n    mapping(uint256 => ProjectInfo) public projects;\n\n    // add onlyTechnicalAdmin modifier to it\n    function addProject(\n            string memory name,\n            string memory description,\n            string memory location,\n            string memory estimatedBudget,\n            uint256 estimatedDuration,\n            uint256 fundedMoney,\n            uint256 createdAt,\n            string memory companyId,\n            string memory accountNumber,\n            string memory status\n    ) external {\n        // projects[++count] = project;\n\n        // emit AddedProject(\n        //     project.id,\n        //     project.name,\n        //     project.description,\n        //     project.location,\n        //     project.estimatedBudget,\n        //     project.estimatedDuration,\n        //     project.fundedMoney,\n        //     project.createdAt,\n        //     project.companyId,\n        //     project.accountNumber,\n        //     project.status,\n        // );\n    }\n\n    function deleteProject(uint256 _id) external {\n        delete projects[_id];\n        //TODO emit deleted project event after arranging the project struct\n    }\n}\n",
  "sourcePath": "/home/jeremy/Desktop/fets_front_end/src/contracts/project_management/Project.sol",
  "compiler": {
    "name": "solc",
    "version": "0.8.9+commit.e5eed63a.Emscripten.clang"
  },
  "schemaVersion": "3.4.3",
  "updatedAt": "2022-04-25T06:43:35.291Z",
  "devdoc": {
    "kind": "dev",
    "methods": {},
    "version": 1
  },
  "userdoc": {
    "kind": "user",
    "methods": {},
    "version": 1
  }
}