{
  "contractName": "Project",
  "abi": [
    {
      "inputs": [],
      "stateMutability": "nonpayable",
      "type": "constructor"
    },
    {
      "anonymous": false,
      "inputs": [
        {
          "indexed": true,
          "internalType": "uint256",
          "name": "id",
          "type": "uint256"
        },
        {
          "indexed": true,
          "internalType": "string",
          "name": "name",
          "type": "string"
        },
        {
          "indexed": false,
          "internalType": "string",
          "name": "description",
          "type": "string"
        },
        {
          "indexed": false,
          "internalType": "string",
          "name": "location",
          "type": "string"
        },
        {
          "indexed": false,
          "internalType": "uint256",
          "name": "estimatedBudget",
          "type": "uint256"
        },
        {
          "indexed": false,
          "internalType": "uint256",
          "name": "estimatedDuration",
          "type": "uint256"
        },
        {
          "indexed": false,
          "internalType": "uint256",
          "name": "fundedMoney",
          "type": "uint256"
        },
        {
          "indexed": false,
          "internalType": "uint256",
          "name": "createdAt",
          "type": "uint256"
        },
        {
          "indexed": true,
          "internalType": "string",
          "name": "companyId",
          "type": "string"
        },
        {
          "indexed": false,
          "internalType": "string",
          "name": "accountNumber",
          "type": "string"
        },
        {
          "indexed": false,
          "internalType": "enum Project.ProjectStatus",
          "name": "status",
          "type": "uint8"
        }
      ],
      "name": "AddedProject",
      "type": "event"
    },
    {
      "anonymous": false,
      "inputs": [
        {
          "indexed": true,
          "internalType": "uint256",
          "name": "id",
          "type": "uint256"
        },
        {
          "indexed": true,
          "internalType": "string",
          "name": "name",
          "type": "string"
        },
        {
          "indexed": false,
          "internalType": "string",
          "name": "description",
          "type": "string"
        },
        {
          "indexed": false,
          "internalType": "string",
          "name": "location",
          "type": "string"
        },
        {
          "indexed": false,
          "internalType": "uint256",
          "name": "estimatedBudget",
          "type": "uint256"
        },
        {
          "indexed": false,
          "internalType": "uint256",
          "name": "estimatedDuration",
          "type": "uint256"
        },
        {
          "indexed": false,
          "internalType": "uint256",
          "name": "fundedMoney",
          "type": "uint256"
        },
        {
          "indexed": false,
          "internalType": "uint256",
          "name": "createdAt",
          "type": "uint256"
        },
        {
          "indexed": true,
          "internalType": "string",
          "name": "companyId",
          "type": "string"
        },
        {
          "indexed": false,
          "internalType": "string",
          "name": "accountNumber",
          "type": "string"
        },
        {
          "indexed": false,
          "internalType": "enum Project.ProjectStatus",
          "name": "status",
          "type": "uint8"
        }
      ],
      "name": "DeletedProject",
      "type": "event"
    },
    {
      "inputs": [
        {
          "internalType": "string",
          "name": "name",
          "type": "string"
        },
        {
          "internalType": "string",
          "name": "description",
          "type": "string"
        },
        {
          "internalType": "string",
          "name": "location",
          "type": "string"
        },
        {
          "internalType": "uint256",
          "name": "estimatedBudget",
          "type": "uint256"
        },
        {
          "internalType": "uint256",
          "name": "estimatedDuration",
          "type": "uint256"
        },
        {
          "internalType": "string",
          "name": "companyId",
          "type": "string"
        },
        {
          "internalType": "string",
          "name": "accountNumber",
          "type": "string"
        }
      ],
      "name": "addProject",
      "outputs": [],
      "stateMutability": "nonpayable",
      "type": "function"
    },
    {
      "inputs": [
        {
          "internalType": "uint256",
          "name": "_id",
          "type": "uint256"
        }
      ],
      "name": "deleteProject",
      "outputs": [],
      "stateMutability": "nonpayable",
      "type": "function"
    },
    {
      "inputs": [
        {
          "internalType": "uint256",
          "name": "_id",
          "type": "uint256"
        }
      ],
      "name": "getProjectById",
      "outputs": [
        {
          "components": [
            {
              "internalType": "uint256",
              "name": "id",
              "type": "uint256"
            },
            {
              "internalType": "string",
              "name": "name",
              "type": "string"
            },
            {
              "internalType": "string",
              "name": "description",
              "type": "string"
            },
            {
              "internalType": "string",
              "name": "location",
              "type": "string"
            },
            {
              "internalType": "uint256",
              "name": "estimatedBudget",
              "type": "uint256"
            },
            {
              "internalType": "uint256",
              "name": "fundedMoney",
              "type": "uint256"
            },
            {
              "internalType": "uint256",
              "name": "estimatedDuration",
              "type": "uint256"
            },
            {
              "internalType": "uint256",
              "name": "createdAt",
              "type": "uint256"
            },
            {
              "internalType": "string",
              "name": "companyId",
              "type": "string"
            },
            {
              "internalType": "string",
              "name": "accountNumber",
              "type": "string"
            },
            {
              "internalType": "enum Project.ProjectStatus",
              "name": "status",
              "type": "uint8"
            }
          ],
          "internalType": "struct Project.ProjectInfo",
          "name": "",
          "type": "tuple"
        }
      ],
      "stateMutability": "view",
      "type": "function",
      "constant": true
    },
    {
      "inputs": [],
      "name": "getAllProjects",
      "outputs": [
        {
          "components": [
            {
              "internalType": "uint256",
              "name": "id",
              "type": "uint256"
            },
            {
              "internalType": "string",
              "name": "name",
              "type": "string"
            },
            {
              "internalType": "string",
              "name": "description",
              "type": "string"
            },
            {
              "internalType": "string",
              "name": "location",
              "type": "string"
            },
            {
              "internalType": "uint256",
              "name": "estimatedBudget",
              "type": "uint256"
            },
            {
              "internalType": "uint256",
              "name": "fundedMoney",
              "type": "uint256"
            },
            {
              "internalType": "uint256",
              "name": "estimatedDuration",
              "type": "uint256"
            },
            {
              "internalType": "uint256",
              "name": "createdAt",
              "type": "uint256"
            },
            {
              "internalType": "string",
              "name": "companyId",
              "type": "string"
            },
            {
              "internalType": "string",
              "name": "accountNumber",
              "type": "string"
            },
            {
              "internalType": "enum Project.ProjectStatus",
              "name": "status",
              "type": "uint8"
            }
          ],
          "internalType": "struct Project.ProjectInfo[]",
          "name": "",
          "type": "tuple[]"
        }
      ],
      "stateMutability": "view",
      "type": "function",
      "constant": true
    }
  ],
  "bytecode": "0x608060405234801561001057600080fd5b5060008055611163806100246000396000f3fe608060405234801561001057600080fd5b5060043610610068577c010000000000000000000000000000000000000000000000000000000060003504634cd0cb28811461006d5780637fdd45dc1461008257806380d0382914610095578063bee5cdca146100b3575b600080fd5b61008061007b366004610c51565b6100d3565b005b610080610090366004610d10565b61015d565b61009d61034e565b6040516100aa9190610f63565b60405180910390f35b6100c66100c1366004610c51565b6107ad565b6040516100aa9190610fc4565b6000818152600160208190526040822082815591906100f490830182610b11565b610102600283016000610b11565b610110600383016000610b11565b60048201600090556005820160009055600682016000905560078201600090556008820160006101409190610b11565b61014e600983016000610b11565b50600a01805460ff1916905550565b60008054908061016c83610ff7565b9190505550604051806101600160405280600054815260200188815260200187815260200186815260200185815260200160008152602001848152602001426103e86101b89190611012565b81526020810184905260408101839052606001600090526000805481526001602081815260409092208351815583830151805191936101fc93850192910190610b4e565b5060408201518051610218916002840191602090910190610b4e565b5060608201518051610234916003840191602090910190610b4e565b506080820151600482015560a0820151600582015560c0820151600682015560e082015160078201556101008201518051610279916008840191602090910190610b4e565b506101208201518051610296916009840191602090910190610b4e565b50610140820151600a8201805460ff191660018360048111156102bb576102bb610e51565b0217905550506040516102d091508390611031565b6040518091039020876040516102e69190611031565b60405180910390206000547f0e9749c08d7a6ba465fd5dcc39278788a16455c3d467d09018c1695c5b39ca9a898989896000426103e86103269190611012565b8a600060405161033d98979695949392919061104d565b60405180910390a450505050505050565b60606000805b6000546103629060016110be565b81101561039d576000818152600160205260409020541561038b578161038781610ff7565b9250505b8061039581610ff7565b915050610354565b5060008167ffffffffffffffff8111156103b9576103b9610c6a565b6040519080825280602002602001820160405280156103f257816020015b6103df610bd2565b8152602001906001900390816103d75790505b509050600060015b6000546104089060016110be565b8110156107a4576000818152600160208181526040928390208351610160810190945280548452918201805491840191610441906110d6565b80601f016020809104026020016040519081016040528092919081815260200182805461046d906110d6565b80156104ba5780601f1061048f576101008083540402835291602001916104ba565b820191906000526020600020905b81548152906001019060200180831161049d57829003601f168201915b505050505081526020016002820180546104d3906110d6565b80601f01602080910402602001604051908101604052809291908181526020018280546104ff906110d6565b801561054c5780601f106105215761010080835404028352916020019161054c565b820191906000526020600020905b81548152906001019060200180831161052f57829003601f168201915b50505050508152602001600382018054610565906110d6565b80601f0160208091040260200160405190810160405280929190818152602001828054610591906110d6565b80156105de5780601f106105b3576101008083540402835291602001916105de565b820191906000526020600020905b8154815290600101906020018083116105c157829003601f168201915b505050505081526020016004820154815260200160058201548152602001600682015481526020016007820154815260200160088201805461061f906110d6565b80601f016020809104026020016040519081016040528092919081815260200182805461064b906110d6565b80156106985780601f1061066d57610100808354040283529160200191610698565b820191906000526020600020905b81548152906001019060200180831161067b57829003601f168201915b505050505081526020016009820180546106b1906110d6565b80601f01602080910402602001604051908101604052809291908181526020018280546106dd906110d6565b801561072a5780601f106106ff5761010080835404028352916020019161072a565b820191906000526020600020905b81548152906001019060200180831161070d57829003601f168201915b5050509183525050600a82015460209091019060ff16600481111561075157610751610e51565b600481111561076257610762610e51565b8152505083838151811061077857610778611114565b6020026020010181905250818061078e90610ff7565b925050808061079c90610ff7565b9150506103fa565b50909392505050565b6107b5610bd2565b60008281526001602081815260409283902083516101608101909452805484529182018054918401916107e7906110d6565b80601f0160208091040260200160405190810160405280929190818152602001828054610813906110d6565b80156108605780601f1061083557610100808354040283529160200191610860565b820191906000526020600020905b81548152906001019060200180831161084357829003601f168201915b50505050508152602001600282018054610879906110d6565b80601f01602080910402602001604051908101604052809291908181526020018280546108a5906110d6565b80156108f25780601f106108c7576101008083540402835291602001916108f2565b820191906000526020600020905b8154815290600101906020018083116108d557829003601f168201915b5050505050815260200160038201805461090b906110d6565b80601f0160208091040260200160405190810160405280929190818152602001828054610937906110d6565b80156109845780601f1061095957610100808354040283529160200191610984565b820191906000526020600020905b81548152906001019060200180831161096757829003601f168201915b50505050508152602001600482015481526020016005820154815260200160068201548152602001600782015481526020016008820180546109c5906110d6565b80601f01602080910402602001604051908101604052809291908181526020018280546109f1906110d6565b8015610a3e5780601f10610a1357610100808354040283529160200191610a3e565b820191906000526020600020905b815481529060010190602001808311610a2157829003601f168201915b50505050508152602001600982018054610a57906110d6565b80601f0160208091040260200160405190810160405280929190818152602001828054610a83906110d6565b8015610ad05780601f10610aa557610100808354040283529160200191610ad0565b820191906000526020600020905b815481529060010190602001808311610ab357829003601f168201915b5050509183525050600a82015460209091019060ff166004811115610af757610af7610e51565b6004811115610b0857610b08610e51565b90525092915050565b508054610b1d906110d6565b6000825580601f10610b2d575050565b601f016020900490600052602060002090810190610b4b9190610c3c565b50565b828054610b5a906110d6565b90600052602060002090601f016020900481019282610b7c5760008555610bc2565b82601f10610b9557805160ff1916838001178555610bc2565b82800160010185558215610bc2579182015b82811115610bc2578251825591602001919060010190610ba7565b50610bce929150610c3c565b5090565b6040518061016001604052806000815260200160608152602001606081526020016060815260200160008152602001600081526020016000815260200160008152602001606081526020016060815260200160006004811115610c3757610c37610e51565b905290565b5b80821115610bce5760008155600101610c3d565b600060208284031215610c6357600080fd5b5035919050565b60e060020a634e487b7102600052604160045260246000fd5b600082601f830112610c9457600080fd5b813567ffffffffffffffff80821115610caf57610caf610c6a565b604051601f8301601f19908116603f01168101908282118183101715610cd757610cd7610c6a565b81604052838152866020858801011115610cf057600080fd5b836020870160208301376000602085830101528094505050505092915050565b600080600080600080600060e0888a031215610d2b57600080fd5b873567ffffffffffffffff80821115610d4357600080fd5b610d4f8b838c01610c83565b985060208a0135915080821115610d6557600080fd5b610d718b838c01610c83565b975060408a0135915080821115610d8757600080fd5b610d938b838c01610c83565b965060608a0135955060808a0135945060a08a0135915080821115610db757600080fd5b610dc38b838c01610c83565b935060c08a0135915080821115610dd957600080fd5b50610de68a828b01610c83565b91505092959891949750929550565b60005b83811015610e10578181015183820152602001610df8565b83811115610e1f576000848401525b50505050565b60008151808452610e3d816020860160208601610df5565b601f01601f19169290920160200192915050565b60e060020a634e487b7102600052602160045260246000fd5b60058110610e8b5760e060020a634e487b7102600052602160045260246000fd5b9052565b6000610160825184526020830151816020860152610eaf82860182610e25565b91505060408301518482036040860152610ec98282610e25565b91505060608301518482036060860152610ee38282610e25565b9150506080830151608085015260a083015160a085015260c083015160c085015260e083015160e08501526101008084015185830382870152610f268382610e25565b925050506101208084015185830382870152610f428382610e25565b9250505061014080840151610f5982870182610e6a565b5090949350505050565b600060208083018184528085518083526040860191506040848202870101925083870160005b82811015610fb757603f19888603018452610fa5858351610e8f565b94509285019290850190600101610f89565b5092979650505050505050565b602081526000610fd76020830184610e8f565b9392505050565b60e060020a634e487b7102600052601160045260246000fd5b600060001982141561100b5761100b610fde565b5060010190565b600081600019048311821515161561102c5761102c610fde565b500290565b60008251611043818460208701610df5565b9190910192915050565b60006101008083526110618184018c610e25565b90508281036020840152611075818b610e25565b90508860408401528760608401528660808401528560a084015282810360c08401526110a18186610e25565b9150506110b160e0830184610e6a565b9998505050505050505050565b600082198211156110d1576110d1610fde565b500190565b6002810460018216806110ea57607f821691505b6020821081141561110e5760e060020a634e487b7102600052602260045260246000fd5b50919050565b60e060020a634e487b7102600052603260045260246000fdfea26469706673582212204128e7968140a49cbac3a497ee83ed322d04db264eadec26212e783855a3498d64736f6c63430008090033",
  "immutableReferences": {},
  "source": "// SPDX-License-Identifier: MIT\n\npragma solidity ^0.8;\n\ncontract Project {\n    uint256 private count;\n\n    constructor() {\n        count = 0;\n    }\n\n    enum ProjectStatus {\n        PENDING,\n        STARTED,\n        COMPLETED,\n        CANCELLED,\n        PAUSED\n    }\n\n    struct ProjectInfo {\n        uint256 id;\n        string name;\n        string description;\n        string location;\n        uint256 estimatedBudget;\n        uint256 fundedMoney;\n        uint256 estimatedDuration;\n        uint256 createdAt;\n        string companyId;\n        string accountNumber;\n        ProjectStatus status;\n    }\n\n    event AddedProject(\n        uint256 indexed id,\n        string indexed name,\n        string description,\n        string location,\n        uint256 estimatedBudget,\n        uint256 estimatedDuration,\n        uint256 fundedMoney,\n        uint256 createdAt,\n        string indexed companyId,\n        string accountNumber,\n        ProjectStatus status\n    );\n\n    event DeletedProject(\n        uint256 indexed id,\n        string indexed name,\n        string description,\n        string location,\n        uint256 estimatedBudget,\n        uint256 estimatedDuration,\n        uint256 fundedMoney,\n        uint256 createdAt,\n        string indexed companyId,\n        string accountNumber,\n        ProjectStatus status\n    );\n\n    mapping(uint256 => ProjectInfo) private projects;\n\n    // add onlyTechnicalAdmin modifier to it\n    function addProject(\n        string memory name,\n        string memory description,\n        string memory location,\n        uint256 estimatedBudget,\n        uint256 estimatedDuration,\n        string memory companyId,\n        string memory accountNumber\n    ) public {\n        count++;\n\n        projects[count] = ProjectInfo(\n            count,\n            name,\n            description,\n            location,\n            estimatedBudget,\n            0,\n            estimatedDuration,\n            block.timestamp * 1000,\n            companyId,\n            accountNumber,\n            ProjectStatus.PENDING\n        );\n        emit AddedProject(\n            count,\n            name,\n            description,\n            location,\n            estimatedBudget,\n            estimatedDuration,\n            0,\n            block.timestamp * 1000,\n            companyId,\n            accountNumber,\n            ProjectStatus.PENDING\n        );\n    }\n\n    function deleteProject(uint256 _id) public {\n        delete projects[_id];\n    }\n\n    //TODO - when a user asks for projects return subproject and tasks tied\n    function getProjectById(uint256 _id) public view returns (ProjectInfo memory){\n            return projects[_id];\n    }\n\n         /*\n    This function returns array of subprojects so we can iterate over them\n    */\n    function getAllProjects() public view returns(ProjectInfo[] memory) {\n        uint256 length;\n        for (uint256 index = 0; index < count + 1; index++) {\n            if(projects[index].id != 0) {\n                    length++;\n            }\n        }\n        ProjectInfo[] memory sp = new ProjectInfo[](length);\n        uint256 counter = 0;\n        for (uint256 index = 1; index < count + 1; index++) {\n            sp[counter] = projects[index];\n            counter++;\n        }\n        return sp;\n    }\n}\n",
  "sourcePath": "/home/jeremy/Desktop/fets_front_end/src/contracts/project_management/Project.sol",
  "compiler": {
    "name": "solc",
    "version": "0.8.9+commit.e5eed63a.Emscripten.clang"
  },
  "schemaVersion": "3.4.3",
  "updatedAt": "2022-06-18T13:32:07.845Z",
  "networkType": "ethereum",
  "devdoc": {
    "kind": "dev",
    "methods": {},
    "version": 1
  },
  "userdoc": {
    "kind": "user",
    "methods": {},
    "version": 1
  }
}