{
  "contractName": "SubProject",
  "abi": [
    {
      "anonymous": false,
      "inputs": [
        {
          "indexed": true,
          "internalType": "uint256",
          "name": "id",
          "type": "uint256"
        },
        {
          "indexed": true,
          "internalType": "string",
          "name": "name",
          "type": "string"
        },
        {
          "indexed": false,
          "internalType": "string",
          "name": "description",
          "type": "string"
        },
        {
          "indexed": true,
          "internalType": "uint256",
          "name": "projectId",
          "type": "uint256"
        },
        {
          "indexed": false,
          "internalType": "uint256",
          "name": "estimatedDuration",
          "type": "uint256"
        },
        {
          "indexed": false,
          "internalType": "uint256",
          "name": "createdAt",
          "type": "uint256"
        }
      ],
      "name": "AddedSubProject",
      "type": "event"
    },
    {
      "inputs": [
        {
          "internalType": "uint256",
          "name": "",
          "type": "uint256"
        }
      ],
      "name": "subprojects",
      "outputs": [
        {
          "internalType": "uint256",
          "name": "id",
          "type": "uint256"
        },
        {
          "internalType": "string",
          "name": "name",
          "type": "string"
        },
        {
          "internalType": "string",
          "name": "description",
          "type": "string"
        },
        {
          "internalType": "uint256",
          "name": "projectId",
          "type": "uint256"
        },
        {
          "internalType": "uint256",
          "name": "estimatedDuration",
          "type": "uint256"
        },
        {
          "internalType": "uint256",
          "name": "createdAt",
          "type": "uint256"
        }
      ],
      "stateMutability": "view",
      "type": "function"
    },
    {
      "inputs": [
        {
          "internalType": "string",
          "name": "name",
          "type": "string"
        },
        {
          "internalType": "string",
          "name": "description",
          "type": "string"
        },
        {
          "internalType": "uint256",
          "name": "projectId",
          "type": "uint256"
        },
        {
          "internalType": "uint256",
          "name": "estimatedDuration",
          "type": "uint256"
        },
        {
          "internalType": "uint256",
          "name": "createdAt",
          "type": "uint256"
        }
      ],
      "name": "addSubProject",
      "outputs": [],
      "stateMutability": "nonpayable",
      "type": "function"
    },
    {
      "inputs": [
        {
          "internalType": "uint256",
          "name": "id",
          "type": "uint256"
        }
      ],
      "name": "deleteProject",
      "outputs": [],
      "stateMutability": "nonpayable",
      "type": "function"
    }
  ],
  "bytecode": "0x608060405234801561001057600080fd5b50610967806100206000396000f3fe608060405234801561001057600080fd5b50600436106100415760003560e01c80634cd0cb2814610046578063b712775614610062578063fe190a4c14610097575b600080fd5b610060600480360381019061005b919061049b565b6100b3565b005b61007c6004803603810190610077919061049b565b61010c565b60405161008e96959493929190610570565b60405180910390f35b6100b160048036038101906100ac9190610714565b610258565b005b600160008281526020019081526020016000206000808201600090556001820160006100df919061036e565b6002820160006100ef919061036e565b600382016000905560048201600090556005820160009055505050565b6001602052806000526040600020600091509050806000015490806001018054610135906107f6565b80601f0160208091040260200160405190810160405280929190818152602001828054610161906107f6565b80156101ae5780601f10610183576101008083540402835291602001916101ae565b820191906000526020600020905b81548152906001019060200180831161019157829003601f168201915b5050505050908060020180546101c3906107f6565b80601f01602080910402602001604051908101604052809291908181526020018280546101ef906107f6565b801561023c5780601f106102115761010080835404028352916020019161023c565b820191906000526020600020905b81548152906001019060200180831161021f57829003601f168201915b5050505050908060030154908060040154908060050154905086565b6040518060c0016040528060005481526020018681526020018581526020018481526020018381526020018281525060016000806000815461029990610857565b91905081905581526020019081526020016000206000820151816000015560208201518160010190805190602001906102d39291906103ae565b5060408201518160020190805190602001906102f09291906103ae565b50606082015181600301556080820151816004015560a08201518160050155905050828560405161032191906108dc565b60405180910390206000547fb1770192ceee17ca2974851e649e31663213f8e0c5e06b406558815a292912db87868660405161035f939291906108f3565b60405180910390a45050505050565b50805461037a906107f6565b6000825580601f1061038c57506103ab565b601f0160209004906000526020600020908101906103aa9190610434565b5b50565b8280546103ba906107f6565b90600052602060002090601f0160209004810192826103dc5760008555610423565b82601f106103f557805160ff1916838001178555610423565b82800160010185558215610423579182015b82811115610422578251825591602001919060010190610407565b5b5090506104309190610434565b5090565b5b8082111561044d576000816000905550600101610435565b5090565b6000604051905090565b600080fd5b600080fd5b6000819050919050565b61047881610465565b811461048357600080fd5b50565b6000813590506104958161046f565b92915050565b6000602082840312156104b1576104b061045b565b5b60006104bf84828501610486565b91505092915050565b6104d181610465565b82525050565b600081519050919050565b600082825260208201905092915050565b60005b838110156105115780820151818401526020810190506104f6565b83811115610520576000848401525b50505050565b6000601f19601f8301169050919050565b6000610542826104d7565b61054c81856104e2565b935061055c8185602086016104f3565b61056581610526565b840191505092915050565b600060c08201905061058560008301896104c8565b81810360208301526105978188610537565b905081810360408301526105ab8187610537565b90506105ba60608301866104c8565b6105c760808301856104c8565b6105d460a08301846104c8565b979650505050505050565b600080fd5b600080fd5b7f4e487b7100000000000000000000000000000000000000000000000000000000600052604160045260246000fd5b61062182610526565b810181811067ffffffffffffffff821117156106405761063f6105e9565b5b80604052505050565b6000610653610451565b905061065f8282610618565b919050565b600067ffffffffffffffff82111561067f5761067e6105e9565b5b61068882610526565b9050602081019050919050565b82818337600083830152505050565b60006106b76106b284610664565b610649565b9050828152602081018484840111156106d3576106d26105e4565b5b6106de848285610695565b509392505050565b600082601f8301126106fb576106fa6105df565b5b813561070b8482602086016106a4565b91505092915050565b600080600080600060a086880312156107305761072f61045b565b5b600086013567ffffffffffffffff81111561074e5761074d610460565b5b61075a888289016106e6565b955050602086013567ffffffffffffffff81111561077b5761077a610460565b5b610787888289016106e6565b945050604061079888828901610486565b93505060606107a988828901610486565b92505060806107ba88828901610486565b9150509295509295909350565b7f4e487b7100000000000000000000000000000000000000000000000000000000600052602260045260246000fd5b6000600282049050600182168061080e57607f821691505b60208210811415610822576108216107c7565b5b50919050565b7f4e487b7100000000000000000000000000000000000000000000000000000000600052601160045260246000fd5b600061086282610465565b91507fffffffffffffffffffffffffffffffffffffffffffffffffffffffffffffffff82141561089557610894610828565b5b600182019050919050565b600081905092915050565b60006108b6826104d7565b6108c081856108a0565b93506108d08185602086016104f3565b80840191505092915050565b60006108e882846108ab565b915081905092915050565b6000606082019050818103600083015261090d8186610537565b905061091c60208301856104c8565b61092960408301846104c8565b94935050505056fea264697066735822122042f36fc24497a8fda89a5f9df5738cb4ce165e6b0204dc8ced1aaa43960ea43664736f6c63430008090033",
  "immutableReferences": {},
  "source": "// SPDX-License-Identifier: MIT\n\npragma solidity ^0.8.9;\n\ncontract SubProject {\n    uint256 count;\n\n    struct SubProjectInfo {\n        uint256 id;\n        string name;\n        string description;\n        uint256 projectId;\n        uint256 estimatedDuration;\n        uint256 createdAt;\n    }\n\n    mapping(uint256 => SubProjectInfo) public subprojects;\n\n    event AddedSubProject(\n        uint256 indexed id,\n        string indexed name,\n        string description,\n        uint256 indexed projectId,\n        uint256 estimatedDuration,\n        uint256 createdAt\n    );\n\n    function addSubProject(\n        string memory name,\n        string memory description,\n        uint256 projectId,\n        uint256 estimatedDuration,\n        uint256 createdAt\n    ) external {\n        subprojects[++count] = SubProjectInfo(\n            count,\n            name,\n            description,\n            projectId,\n            estimatedDuration,\n            createdAt\n        );\n        emit AddedSubProject(\n            count,\n            name,\n            description,\n            projectId,\n            estimatedDuration,\n            createdAt\n        );\n    }\n\n    function deleteProject(uint256 id) external {\n        delete subprojects[id];\n    }\n}\n",
  "sourcePath": "/home/jeremy/Desktop/fets_front_end/src/contracts/project_management/SubProject.sol",
  "compiler": {
    "name": "solc",
    "version": "0.8.9+commit.e5eed63a.Emscripten.clang"
  },
  "schemaVersion": "3.4.3",
  "updatedAt": "2022-04-25T06:43:35.295Z",
  "devdoc": {
    "kind": "dev",
    "methods": {},
    "version": 1
  },
  "userdoc": {
    "kind": "user",
    "methods": {},
    "version": 1
  }
}