{
  "contractName": "SubProject",
  "abi": [
    {
      "anonymous": false,
      "inputs": [
        {
          "indexed": true,
          "internalType": "uint256",
          "name": "id",
          "type": "uint256"
        },
        {
          "indexed": true,
          "internalType": "string",
          "name": "name",
          "type": "string"
        },
        {
          "indexed": false,
          "internalType": "string",
          "name": "description",
          "type": "string"
        },
        {
          "indexed": true,
          "internalType": "uint256",
          "name": "projectId",
          "type": "uint256"
        },
        {
          "indexed": false,
          "internalType": "uint256",
          "name": "estimatedDuration",
          "type": "uint256"
        },
        {
          "indexed": false,
          "internalType": "uint256",
          "name": "createdAt",
          "type": "uint256"
        }
      ],
      "name": "AddedSubProject",
      "type": "event"
    },
    {
      "inputs": [
        {
          "internalType": "string",
          "name": "name",
          "type": "string"
        },
        {
          "internalType": "string",
          "name": "description",
          "type": "string"
        },
        {
          "internalType": "uint256",
          "name": "projectId",
          "type": "uint256"
        },
        {
          "internalType": "uint256",
          "name": "estimatedDuration",
          "type": "uint256"
        }
      ],
      "name": "addSubProject",
      "outputs": [],
      "stateMutability": "nonpayable",
      "type": "function"
    },
    {
      "inputs": [
        {
          "internalType": "uint256",
          "name": "_id",
          "type": "uint256"
        }
      ],
      "name": "getSubProjectById",
      "outputs": [
        {
          "internalType": "uint256",
          "name": "id",
          "type": "uint256"
        },
        {
          "internalType": "string",
          "name": "name",
          "type": "string"
        },
        {
          "internalType": "string",
          "name": "description",
          "type": "string"
        },
        {
          "internalType": "uint256",
          "name": "projectId",
          "type": "uint256"
        },
        {
          "internalType": "uint256",
          "name": "estimatedDuration",
          "type": "uint256"
        },
        {
          "internalType": "uint256",
          "name": "createdAt",
          "type": "uint256"
        }
      ],
      "stateMutability": "view",
      "type": "function",
      "constant": true
    },
    {
      "inputs": [
        {
          "internalType": "uint256",
          "name": "id",
          "type": "uint256"
        }
      ],
      "name": "deleteSubProject",
      "outputs": [],
      "stateMutability": "nonpayable",
      "type": "function"
    },
    {
      "inputs": [
        {
          "internalType": "uint256",
          "name": "_id",
          "type": "uint256"
        }
      ],
      "name": "getSubProjectsListByProjectId",
      "outputs": [
        {
          "components": [
            {
              "internalType": "uint256",
              "name": "id",
              "type": "uint256"
            },
            {
              "internalType": "string",
              "name": "name",
              "type": "string"
            },
            {
              "internalType": "string",
              "name": "description",
              "type": "string"
            },
            {
              "internalType": "uint256",
              "name": "projectId",
              "type": "uint256"
            },
            {
              "internalType": "uint256",
              "name": "estimatedDuration",
              "type": "uint256"
            },
            {
              "internalType": "uint256",
              "name": "createdAt",
              "type": "uint256"
            }
          ],
          "internalType": "struct SubProject.SubProjectInfo[]",
          "name": "",
          "type": "tuple[]"
        }
      ],
      "stateMutability": "view",
      "type": "function",
      "constant": true
    },
    {
      "inputs": [],
      "name": "getAllSubProjects",
      "outputs": [
        {
          "components": [
            {
              "internalType": "uint256",
              "name": "id",
              "type": "uint256"
            },
            {
              "internalType": "string",
              "name": "name",
              "type": "string"
            },
            {
              "internalType": "string",
              "name": "description",
              "type": "string"
            },
            {
              "internalType": "uint256",
              "name": "projectId",
              "type": "uint256"
            },
            {
              "internalType": "uint256",
              "name": "estimatedDuration",
              "type": "uint256"
            },
            {
              "internalType": "uint256",
              "name": "createdAt",
              "type": "uint256"
            }
          ],
          "internalType": "struct SubProject.SubProjectInfo[]",
          "name": "",
          "type": "tuple[]"
        }
      ],
      "stateMutability": "view",
      "type": "function",
      "constant": true
    }
  ],
  "bytecode": "0x608060405234801561001057600080fd5b50610e01806100206000396000f3fe608060405234801561001057600080fd5b5060043610610073577c010000000000000000000000000000000000000000000000000000000060003504632fccd5d38114610078578063778f8c4e146100a657806393a35ef3146100c6578063f8e41e0e146100ce578063fa07a009146100e3575b600080fd5b61008b610086366004610a49565b6100f6565b60405161009d96959493929190610abe565b60405180910390f35b6100b96100b4366004610a49565b61029d565b60405161009d9190610b08565b6100b9610512565b6100e16100dc366004610a49565b6107b1565b005b6100e16100f1366004610c5a565b6107fa565b6000606080600080600080600160008981526020019081526020016000206040518060c00160405290816000820154815260200160018201805461013990610cce565b80601f016020809104026020016040519081016040528092919081815260200182805461016590610cce565b80156101b25780601f10610187576101008083540402835291602001916101b2565b820191906000526020600020905b81548152906001019060200180831161019557829003601f168201915b505050505081526020016002820180546101cb90610cce565b80601f01602080910402602001604051908101604052809291908181526020018280546101f790610cce565b80156102445780601f1061021957610100808354040283529160200191610244565b820191906000526020600020905b81548152906001019060200180831161022757829003601f168201915b5050505050815260200160038201548152602001600482015481526020016005820154815250509050879650806020015195508060400151945080606001519350806080015192508060a0015191505091939550919395565b606060006102aa8361091b565b905060008167ffffffffffffffff8111156102c7576102c7610bb4565b60405190808252806020026020018201604052801561033157816020015b61031e6040518060c001604052806000815260200160608152602001606081526020016000815260200160008152602001600081525090565b8152602001906001900390816102e55790505b509050600060015b600054610347906001610d1f565b811015610508576000818152600160205260409020600301548614156104f657600081815260016020818152604092839020835160c081019094528054845291820180549184019161039890610cce565b80601f01602080910402602001604051908101604052809291908181526020018280546103c490610cce565b80156104115780601f106103e657610100808354040283529160200191610411565b820191906000526020600020905b8154815290600101906020018083116103f457829003601f168201915b5050505050815260200160028201805461042a90610cce565b80601f016020809104026020016040519081016040528092919081815260200182805461045690610cce565b80156104a35780601f10610478576101008083540402835291602001916104a3565b820191906000526020600020905b81548152906001019060200180831161048657829003601f168201915b5050505050815260200160038201548152602001600482015481526020016005820154815250508383815181106104dc576104dc610d37565b602002602001018190525081806104f290610d50565b9250505b8061050081610d50565b915050610339565b5090949350505050565b60606000805b600054610526906001610d1f565b8110156105645760008181526001602052604090206003015415610552578161054e81610d50565b9250505b8061055c81610d50565b915050610518565b5060008167ffffffffffffffff81111561058057610580610bb4565b6040519080825280602002602001820160405280156105ea57816020015b6105d76040518060c001604052806000815260200160608152602001606081526020016000815260200160008152602001600081525090565b81526020019060019003908161059e5790505b509050600060015b600054610600906001610d1f565b8110156107a857600081815260016020818152604092839020835160c081019094528054845291820180549184019161063890610cce565b80601f016020809104026020016040519081016040528092919081815260200182805461066490610cce565b80156106b15780601f10610686576101008083540402835291602001916106b1565b820191906000526020600020905b81548152906001019060200180831161069457829003601f168201915b505050505081526020016002820180546106ca90610cce565b80601f01602080910402602001604051908101604052809291908181526020018280546106f690610cce565b80156107435780601f1061071857610100808354040283529160200191610743565b820191906000526020600020905b81548152906001019060200180831161072657829003601f168201915b50505050508152602001600382015481526020016004820154815260200160058201548152505083838151811061077c5761077c610d37565b6020026020010181905250818061079290610d50565b92505080806107a090610d50565b9150506105f2565b50909392505050565b6000818152600160208190526040822082815591906107d290830182610973565b6107e0600283016000610973565b506000600382018190556004820181905560059091015550565b60008054908061080983610d50565b91905055506040518060c001604052806000548152602001858152602001848152602001838152602001828152602001426103e86108479190610d6b565b9052600080548152600160208181526040909220835181558383015180519193610876938501929101906109b0565b50604082015180516108929160028401916020909101906109b0565b50606082015181600301556080820151816004015560a0820151816005015590505081846040516108c39190610d8a565b6040519081900390206000547fb1770192ceee17ca2974851e649e31663213f8e0c5e06b406558815a292912db86856108fe426103e8610d6b565b60405161090d93929190610da6565b60405180910390a450505050565b6000805b60005461092d906001610d1f565b81101561096d5760008181526001602052604090206003015483141561095b578161095781610d50565b9250505b8061096581610d50565b91505061091f565b50919050565b50805461097f90610cce565b6000825580601f1061098f575050565b601f0160209004906000526020600020908101906109ad9190610a34565b50565b8280546109bc90610cce565b90600052602060002090601f0160209004810192826109de5760008555610a24565b82601f106109f757805160ff1916838001178555610a24565b82800160010185558215610a24579182015b82811115610a24578251825591602001919060010190610a09565b50610a30929150610a34565b5090565b5b80821115610a305760008155600101610a35565b600060208284031215610a5b57600080fd5b5035919050565b60005b83811015610a7d578181015183820152602001610a65565b83811115610a8c576000848401525b50505050565b60008151808452610aaa816020860160208601610a62565b601f01601f19169290920160200192915050565b86815260c060208201526000610ad760c0830188610a92565b8281036040840152610ae98188610a92565b60608401969096525050608081019290925260a0909101529392505050565b60208082528251828201819052600091906040908185019080840286018301878501865b83811015610ba657603f19898403018552815160c08151855288820151818a870152610b5a82870182610a92565b9150508782015185820389870152610b728282610a92565b606084810151908801526080808501519088015260a093840151939096019290925250509386019390860190600101610b2c565b509098975050505050505050565b60e060020a634e487b7102600052604160045260246000fd5b600082601f830112610bde57600080fd5b813567ffffffffffffffff80821115610bf957610bf9610bb4565b604051601f8301601f19908116603f01168101908282118183101715610c2157610c21610bb4565b81604052838152866020858801011115610c3a57600080fd5b836020870160208301376000602085830101528094505050505092915050565b60008060008060808587031215610c7057600080fd5b843567ffffffffffffffff80821115610c8857600080fd5b610c9488838901610bcd565b95506020870135915080821115610caa57600080fd5b50610cb787828801610bcd565b949794965050505060408301359260600135919050565b600281046001821680610ce257607f821691505b6020821081141561096d5760e060020a634e487b7102600052602260045260246000fd5b60e060020a634e487b7102600052601160045260246000fd5b60008219821115610d3257610d32610d06565b500190565b60e060020a634e487b7102600052603260045260246000fd5b6000600019821415610d6457610d64610d06565b5060010190565b6000816000190483118215151615610d8557610d85610d06565b500290565b60008251610d9c818460208701610a62565b9190910192915050565b606081526000610db96060830186610a92565b6020830194909452506040015291905056fea2646970667358221220731b4c3e3dc4add770191e00e08f2d6354670774a04cbb52831fd28476e0c82f64736f6c63430008090033",
  "immutableReferences": {},
  "source": "// SPDX-License-Identifier: MIT\n\npragma solidity ^0.8;\n\nimport './Project.sol';\n\ncontract SubProject {\n    uint256 private count;\n\n    struct SubProjectInfo {\n        uint256 id;\n        string name;\n        string description;\n        uint256 projectId;\n        uint256 estimatedDuration;\n        uint256 createdAt;\n    }\n\n    mapping(uint256 => SubProjectInfo) private subprojects;\n\n    event AddedSubProject(\n        uint256 indexed id,\n        string indexed name,\n        string description,\n        uint256 indexed projectId,\n        uint256 estimatedDuration,\n        uint256 createdAt\n    );\n\n    function addSubProject(\n        string memory name,\n        string memory description,\n        uint256 projectId,\n        uint256 estimatedDuration\n    ) public {\n        count++;\n        \n        subprojects[count] = SubProjectInfo(\n            count,\n            name,\n            description,\n            projectId,\n            estimatedDuration,\n            block.timestamp * 1000\n        );\n        \n        emit AddedSubProject(\n            count,\n            name,\n            description,\n            projectId,\n            estimatedDuration,\n            block.timestamp * 1000\n        );\n    }\n\n    function getSubProjectById(uint256 _id) public view returns(uint256 id,\n        string memory name,\n        string memory description,\n        uint256 projectId,\n        uint256 estimatedDuration,\n        uint256 createdAt) {\n            SubProjectInfo memory subproject = subprojects[_id];\n            id = _id;\n            name = subproject.name;\n            description = subproject.description;\n            projectId = subproject.projectId;\n            estimatedDuration = subproject.estimatedDuration;\n            createdAt = subproject.createdAt;\n        }\n        \n    /*\n    This functions deletes sub projects that have been saved in the ledger\n    Needs only  project manager or technical admin authorization\n    */\n    function deleteSubProject(uint256 id) public {\n        delete subprojects[id];\n    }\n\n    /*\n    As we cannot create dynamic array which we can push to, we should use this function to return the \n    length of subprojects with a given project id.    \n    */\n    function getSubProjectCount(uint256 _id) internal view returns(uint256 length) {\n        for (uint256 index = 0; index < count + 1; index++) {\n            if(subprojects[index].projectId == _id) {\n                    length++;\n                }\n        }\n    }\n    \n\n    /*\n    This function returns array of subprojects that belong to one project so we can iterate over them\n    */\n    function getSubProjectsListByProjectId(uint256 _id) public view returns(SubProjectInfo[] memory) {\n        uint256 length = getSubProjectCount(_id);\n        SubProjectInfo[] memory sp = new SubProjectInfo[](length);\n        uint256 counter = 0;\n        for (uint256 index = 1; index < count + 1; index++) {\n            if(subprojects[index].projectId == _id) {\n                    sp[counter] = subprojects[index];\n                    counter++;\n                }\n        }\n        return sp;\n    }\n\n     /*\n    This function returns array of subprojects so we can iterate over them\n    */\n    function getAllSubProjects() public view returns(SubProjectInfo[] memory) {\n        uint256 length;\n        for (uint256 index = 0; index < count + 1; index++) {\n            if(subprojects[index].projectId != 0) {\n                    length++;\n                }\n        }\n        SubProjectInfo[] memory sp = new SubProjectInfo[](length);\n        uint256 counter = 0;\n        for (uint256 index = 1; index < count + 1; index++) {\n            sp[counter] = subprojects[index];\n            counter++;\n        }\n        return sp;\n    }\n}\n",
  "sourcePath": "/home/jeremy/Desktop/fets_front_end/src/contracts/project_management/SubProject.sol",
  "compiler": {
    "name": "solc",
    "version": "0.8.9+commit.e5eed63a.Emscripten.clang"
  },
  "schemaVersion": "3.4.3",
  "updatedAt": "2022-06-18T13:32:07.856Z",
  "networkType": "ethereum",
  "devdoc": {
    "kind": "dev",
    "methods": {},
    "version": 1
  },
  "userdoc": {
    "kind": "user",
    "methods": {},
    "version": 1
  }
}