{
  "contractName": "SubProject",
  "abi": [
    {
      "anonymous": false,
      "inputs": [
        {
          "indexed": true,
          "internalType": "uint256",
          "name": "id",
          "type": "uint256"
        },
        {
          "indexed": true,
          "internalType": "string",
          "name": "name",
          "type": "string"
        },
        {
          "indexed": false,
          "internalType": "string",
          "name": "description",
          "type": "string"
        },
        {
          "indexed": true,
          "internalType": "uint256",
          "name": "projectId",
          "type": "uint256"
        },
        {
          "indexed": false,
          "internalType": "uint256",
          "name": "estimatedDuration",
          "type": "uint256"
        },
        {
          "indexed": false,
          "internalType": "uint256",
          "name": "createdAt",
          "type": "uint256"
        }
      ],
      "name": "AddedSubProject",
      "type": "event"
    },
    {
      "inputs": [
        {
          "internalType": "string",
          "name": "name",
          "type": "string"
        },
        {
          "internalType": "string",
          "name": "description",
          "type": "string"
        },
        {
          "internalType": "uint256",
          "name": "projectId",
          "type": "uint256"
        },
        {
          "internalType": "uint256",
          "name": "estimatedDuration",
          "type": "uint256"
        },
        {
          "internalType": "uint256",
          "name": "createdAt",
          "type": "uint256"
        }
      ],
      "name": "addSubProject",
      "outputs": [],
      "stateMutability": "nonpayable",
      "type": "function"
    },
    {
      "inputs": [
        {
          "internalType": "uint256",
          "name": "_id",
          "type": "uint256"
        }
      ],
      "name": "getSubProjectById",
      "outputs": [
        {
          "internalType": "uint256",
          "name": "id",
          "type": "uint256"
        },
        {
          "internalType": "string",
          "name": "name",
          "type": "string"
        },
        {
          "internalType": "string",
          "name": "description",
          "type": "string"
        },
        {
          "internalType": "uint256",
          "name": "projectId",
          "type": "uint256"
        },
        {
          "internalType": "uint256",
          "name": "estimatedDuration",
          "type": "uint256"
        },
        {
          "internalType": "uint256",
          "name": "createdAt",
          "type": "uint256"
        }
      ],
      "stateMutability": "view",
      "type": "function",
      "constant": true
    },
    {
      "inputs": [
        {
          "internalType": "uint256",
          "name": "id",
          "type": "uint256"
        }
      ],
      "name": "deleteSubProject",
      "outputs": [],
      "stateMutability": "nonpayable",
      "type": "function"
    },
    {
      "inputs": [
        {
          "internalType": "uint256",
          "name": "_id",
          "type": "uint256"
        }
      ],
      "name": "getSubProjectsListByProjectId",
      "outputs": [
        {
          "components": [
            {
              "internalType": "uint256",
              "name": "id",
              "type": "uint256"
            },
            {
              "internalType": "string",
              "name": "name",
              "type": "string"
            },
            {
              "internalType": "string",
              "name": "description",
              "type": "string"
            },
            {
              "internalType": "uint256",
              "name": "projectId",
              "type": "uint256"
            },
            {
              "internalType": "uint256",
              "name": "estimatedDuration",
              "type": "uint256"
            },
            {
              "internalType": "uint256",
              "name": "createdAt",
              "type": "uint256"
            }
          ],
          "internalType": "struct SubProject.SubProjectInfo[]",
          "name": "",
          "type": "tuple[]"
        }
      ],
      "stateMutability": "view",
      "type": "function",
      "constant": true
    }
  ],
  "bytecode": "0x608060405234801561001057600080fd5b50610f47806100206000396000f3fe608060405234801561001057600080fd5b506004361061004c5760003560e01c80632fccd5d314610051578063778f8c4e14610086578063f8e41e0e146100b6578063fe190a4c146100d2575b600080fd5b61006b60048036038101906100669190610829565b6100ee565b60405161007d969594939291906108fe565b60405180910390f35b6100a0600480360381019061009b9190610829565b610295565b6040516100ad9190610b18565b60405180910390f35b6100d060048036038101906100cb9190610829565b6104ee565b005b6100ec60048036038101906100e79190610c6f565b610547565b005b6000606080600080600080600160008981526020019081526020016000206040518060c00160405290816000820154815260200160018201805461013190610d51565b80601f016020809104026020016040519081016040528092919081815260200182805461015d90610d51565b80156101aa5780601f1061017f576101008083540402835291602001916101aa565b820191906000526020600020905b81548152906001019060200180831161018d57829003601f168201915b505050505081526020016002820180546101c390610d51565b80601f01602080910402602001604051908101604052809291908181526020018280546101ef90610d51565b801561023c5780601f106102115761010080835404028352916020019161023c565b820191906000526020600020905b81548152906001019060200180831161021f57829003601f168201915b5050505050815260200160038201548152602001600482015481526020016005820154815250509050879650806020015195508060400151945080606001519350806080015192508060a0015191505091939550919395565b606060006102a283610662565b905060008167ffffffffffffffff8111156102c0576102bf610b44565b5b6040519080825280602002602001820160405280156102f957816020015b6102e66106c6565b8152602001906001900390816102de5790505b509050600080600190505b60016000546103139190610db2565b8110156104e25785600160008381526020019081526020016000206003015414156104cf57600160008281526020019081526020016000206040518060c00160405290816000820154815260200160018201805461037090610d51565b80601f016020809104026020016040519081016040528092919081815260200182805461039c90610d51565b80156103e95780601f106103be576101008083540402835291602001916103e9565b820191906000526020600020905b8154815290600101906020018083116103cc57829003601f168201915b5050505050815260200160028201805461040290610d51565b80601f016020809104026020016040519081016040528092919081815260200182805461042e90610d51565b801561047b5780601f106104505761010080835404028352916020019161047b565b820191906000526020600020905b81548152906001019060200180831161045e57829003601f168201915b5050505050815260200160038201548152602001600482015481526020016005820154815250508383815181106104b5576104b4610e08565b5b602002602001018190525081806104cb90610e37565b9250505b80806104da90610e37565b915050610304565b50819350505050919050565b6001600082815260200190815260200160002060008082016000905560018201600061051a91906106fc565b60028201600061052a91906106fc565b600382016000905560048201600090556005820160009055505050565b60008081548092919061055990610e37565b91905055506040518060c0016040528060005481526020018681526020018581526020018481526020018381526020018281525060016000805481526020019081526020016000206000820151816000015560208201518160010190805190602001906105c792919061073c565b5060408201518160020190805190602001906105e492919061073c565b50606082015181600301556080820151816004015560a0820151816005015590505082856040516106159190610ebc565b60405180910390206000547fb1770192ceee17ca2974851e649e31663213f8e0c5e06b406558815a292912db87868660405161065393929190610ed3565b60405180910390a45050505050565b600080600090505b60016000546106799190610db2565b8110156106c05782600160008381526020019081526020016000206003015414156106ad5781806106a990610e37565b9250505b80806106b890610e37565b91505061066a565b50919050565b6040518060c001604052806000815260200160608152602001606081526020016000815260200160008152602001600081525090565b50805461070890610d51565b6000825580601f1061071a5750610739565b601f01602090049060005260206000209081019061073891906107c2565b5b50565b82805461074890610d51565b90600052602060002090601f01602090048101928261076a57600085556107b1565b82601f1061078357805160ff19168380011785556107b1565b828001600101855582156107b1579182015b828111156107b0578251825591602001919060010190610795565b5b5090506107be91906107c2565b5090565b5b808211156107db5760008160009055506001016107c3565b5090565b6000604051905090565b600080fd5b600080fd5b6000819050919050565b610806816107f3565b811461081157600080fd5b50565b600081359050610823816107fd565b92915050565b60006020828403121561083f5761083e6107e9565b5b600061084d84828501610814565b91505092915050565b61085f816107f3565b82525050565b600081519050919050565b600082825260208201905092915050565b60005b8381101561089f578082015181840152602081019050610884565b838111156108ae576000848401525b50505050565b6000601f19601f8301169050919050565b60006108d082610865565b6108da8185610870565b93506108ea818560208601610881565b6108f3816108b4565b840191505092915050565b600060c0820190506109136000830189610856565b818103602083015261092581886108c5565b9050818103604083015261093981876108c5565b90506109486060830186610856565b6109556080830185610856565b61096260a0830184610856565b979650505050505050565b600081519050919050565b600082825260208201905092915050565b6000819050602082019050919050565b6109a2816107f3565b82525050565b600082825260208201905092915050565b60006109c482610865565b6109ce81856109a8565b93506109de818560208601610881565b6109e7816108b4565b840191505092915050565b600060c083016000830151610a0a6000860182610999565b5060208301518482036020860152610a2282826109b9565b91505060408301518482036040860152610a3c82826109b9565b9150506060830151610a516060860182610999565b506080830151610a646080860182610999565b5060a0830151610a7760a0860182610999565b508091505092915050565b6000610a8e83836109f2565b905092915050565b6000602082019050919050565b6000610aae8261096d565b610ab88185610978565b935083602082028501610aca85610989565b8060005b85811015610b065784840389528151610ae78582610a82565b9450610af283610a96565b925060208a01995050600181019050610ace565b50829750879550505050505092915050565b60006020820190508181036000830152610b328184610aa3565b905092915050565b600080fd5b600080fd5b7f4e487b7100000000000000000000000000000000000000000000000000000000600052604160045260246000fd5b610b7c826108b4565b810181811067ffffffffffffffff82111715610b9b57610b9a610b44565b5b80604052505050565b6000610bae6107df565b9050610bba8282610b73565b919050565b600067ffffffffffffffff821115610bda57610bd9610b44565b5b610be3826108b4565b9050602081019050919050565b82818337600083830152505050565b6000610c12610c0d84610bbf565b610ba4565b905082815260208101848484011115610c2e57610c2d610b3f565b5b610c39848285610bf0565b509392505050565b600082601f830112610c5657610c55610b3a565b5b8135610c66848260208601610bff565b91505092915050565b600080600080600060a08688031215610c8b57610c8a6107e9565b5b600086013567ffffffffffffffff811115610ca957610ca86107ee565b5b610cb588828901610c41565b955050602086013567ffffffffffffffff811115610cd657610cd56107ee565b5b610ce288828901610c41565b9450506040610cf388828901610814565b9350506060610d0488828901610814565b9250506080610d1588828901610814565b9150509295509295909350565b7f4e487b7100000000000000000000000000000000000000000000000000000000600052602260045260246000fd5b60006002820490506001821680610d6957607f821691505b60208210811415610d7d57610d7c610d22565b5b50919050565b7f4e487b7100000000000000000000000000000000000000000000000000000000600052601160045260246000fd5b6000610dbd826107f3565b9150610dc8836107f3565b9250827fffffffffffffffffffffffffffffffffffffffffffffffffffffffffffffffff03821115610dfd57610dfc610d83565b5b828201905092915050565b7f4e487b7100000000000000000000000000000000000000000000000000000000600052603260045260246000fd5b6000610e42826107f3565b91507fffffffffffffffffffffffffffffffffffffffffffffffffffffffffffffffff821415610e7557610e74610d83565b5b600182019050919050565b600081905092915050565b6000610e9682610865565b610ea08185610e80565b9350610eb0818560208601610881565b80840191505092915050565b6000610ec88284610e8b565b915081905092915050565b60006060820190508181036000830152610eed81866108c5565b9050610efc6020830185610856565b610f096040830184610856565b94935050505056fea264697066735822122092a038d950183034c8106e066a9ef536b0fbec009ab69e928c45dd1373d12cba64736f6c63430008090033",
  "immutableReferences": {},
  "source": "// SPDX-License-Identifier: MIT\n\npragma solidity ^0.8;\n\nimport './Project.sol';\n\ncontract SubProject {\n    uint256 private count;\n\n    struct SubProjectInfo {\n        uint256 id;\n        string name;\n        string description;\n        uint256 projectId;\n        uint256 estimatedDuration;\n        uint256 createdAt;\n    }\n\n    mapping(uint256 => SubProjectInfo) private subprojects;\n\n    event AddedSubProject(\n        uint256 indexed id,\n        string indexed name,\n        string description,\n        uint256 indexed projectId,\n        uint256 estimatedDuration,\n        uint256 createdAt\n    );\n\n    function addSubProject(\n        string memory name,\n        string memory description,\n        uint256 projectId,\n        uint256 estimatedDuration,\n        uint256 createdAt\n    ) public {\n        count++;\n        \n        subprojects[count] = SubProjectInfo(\n            count,\n            name,\n            description,\n            projectId,\n            estimatedDuration,\n            createdAt\n        );\n        \n        emit AddedSubProject(\n            count,\n            name,\n            description,\n            projectId,\n            estimatedDuration,\n            createdAt\n        );\n    }\n\n    function getSubProjectById(uint256 _id) public view returns(uint256 id,\n        string memory name,\n        string memory description,\n        uint256 projectId,\n        uint256 estimatedDuration,\n        uint256 createdAt) {\n            SubProjectInfo memory subproject = subprojects[_id];\n            id = _id;\n            name = subproject.name;\n            description = subproject.description;\n            projectId = subproject.projectId;\n            estimatedDuration = subproject.estimatedDuration;\n            createdAt = subproject.createdAt;\n        }\n        \n    /*\n    This functions deletes sub projects that have been saved in the ledger\n    Needs only  project manager or technical admin authorization\n    */\n    function deleteSubProject(uint256 id) public {\n        delete subprojects[id];\n    }\n\n    /*\n    As we cannot create dynamic array which we can push to, we should use this function to return the \n    length of subprojects with a given project id.    \n    */\n    function getSubProjectCount(uint256 _id) internal view returns(uint256 length) {\n        for (uint256 index = 0; index < count + 1; index++) {\n            if(subprojects[index].projectId == _id) {\n                    length++;\n                }\n        }\n    }\n    \n\n    /*\n    This function returns array of project ids so we can iterate over them and get projects\n    */\n    function getSubProjectsListByProjectId(uint256 _id) public view returns(SubProjectInfo[] memory) {\n        uint256 length = getSubProjectCount(_id);\n        SubProjectInfo[] memory sp = new SubProjectInfo[](length);\n        uint256 counter = 0;\n        for (uint256 index = 1; index < count + 1; index++) {\n            if(subprojects[index].projectId == _id) {\n                    sp[counter] = subprojects[index];\n                    counter++;\n                }\n        }\n        return sp;\n    }\n}\n",
  "sourcePath": "/home/jeremy/Desktop/fets_front_end/src/contracts/project_management/SubProject.sol",
  "compiler": {
    "name": "solc",
    "version": "0.8.9+commit.e5eed63a.Emscripten.clang"
  },
  "schemaVersion": "3.4.3",
  "updatedAt": "2022-05-28T06:12:08.708Z",
  "networkType": "ethereum",
  "devdoc": {
    "kind": "dev",
    "methods": {},
    "version": 1
  },
  "userdoc": {
    "kind": "user",
    "methods": {},
    "version": 1
  }
}