{
  "contractName": "Task",
  "abi": [
    {
      "anonymous": false,
      "inputs": [
        {
          "indexed": true,
          "internalType": "uint256",
          "name": "id",
          "type": "uint256"
        },
        {
          "indexed": true,
          "internalType": "string",
          "name": "name",
          "type": "string"
        },
        {
          "indexed": false,
          "internalType": "string",
          "name": "description",
          "type": "string"
        },
        {
          "indexed": true,
          "internalType": "uint256",
          "name": "projectId",
          "type": "uint256"
        },
        {
          "indexed": false,
          "internalType": "uint256",
          "name": "subProjectId",
          "type": "uint256"
        },
        {
          "indexed": false,
          "internalType": "uint256",
          "name": "estimatedDuration",
          "type": "uint256"
        },
        {
          "indexed": false,
          "internalType": "enum Task.TaskStatus",
          "name": "status",
          "type": "uint8"
        },
        {
          "indexed": false,
          "internalType": "uint256",
          "name": "allocatedBudget",
          "type": "uint256"
        },
        {
          "indexed": false,
          "internalType": "uint256",
          "name": "createdAt",
          "type": "uint256"
        }
      ],
      "name": "AddedTask",
      "type": "event"
    },
    {
      "anonymous": false,
      "inputs": [
        {
          "indexed": true,
          "internalType": "uint256",
          "name": "taskid",
          "type": "uint256"
        },
        {
          "indexed": false,
          "internalType": "enum Task.TaskStatus",
          "name": "from",
          "type": "uint8"
        },
        {
          "indexed": false,
          "internalType": "enum Task.TaskStatus",
          "name": "to",
          "type": "uint8"
        },
        {
          "indexed": true,
          "internalType": "uint256",
          "name": "date",
          "type": "uint256"
        },
        {
          "indexed": true,
          "internalType": "address",
          "name": "changedBy",
          "type": "address"
        }
      ],
      "name": "ChangedTaskStatus",
      "type": "event"
    },
    {
      "inputs": [
        {
          "internalType": "string",
          "name": "name",
          "type": "string"
        },
        {
          "internalType": "string",
          "name": "description",
          "type": "string"
        },
        {
          "internalType": "uint256",
          "name": "projectId",
          "type": "uint256"
        },
        {
          "internalType": "uint256",
          "name": "subProjectId",
          "type": "uint256"
        },
        {
          "internalType": "uint256",
          "name": "estimatedDuration",
          "type": "uint256"
        },
        {
          "internalType": "uint256",
          "name": "allocatedBudget",
          "type": "uint256"
        }
      ],
      "name": "addTask",
      "outputs": [],
      "stateMutability": "nonpayable",
      "type": "function"
    },
    {
      "inputs": [
        {
          "internalType": "uint256",
          "name": "taskid",
          "type": "uint256"
        },
        {
          "internalType": "uint256",
          "name": "allocatedBudget",
          "type": "uint256"
        },
        {
          "internalType": "string",
          "name": "remark",
          "type": "string"
        }
      ],
      "name": "financialManagerSubmitBudgetAllocation",
      "outputs": [],
      "stateMutability": "nonpayable",
      "type": "function"
    },
    {
      "inputs": [
        {
          "internalType": "uint256",
          "name": "_taskId",
          "type": "uint256"
        },
        {
          "internalType": "string",
          "name": "remark",
          "type": "string"
        }
      ],
      "name": "budgetAndProcurementManagerApproveTaskCompletion",
      "outputs": [],
      "stateMutability": "nonpayable",
      "type": "function"
    },
    {
      "inputs": [
        {
          "internalType": "uint256",
          "name": "_taskId",
          "type": "uint256"
        },
        {
          "internalType": "string",
          "name": "remark",
          "type": "string"
        }
      ],
      "name": "projectManagerApproveTaskCompletion",
      "outputs": [],
      "stateMutability": "nonpayable",
      "type": "function"
    },
    {
      "inputs": [
        {
          "internalType": "uint256",
          "name": "_taskId",
          "type": "uint256"
        },
        {
          "internalType": "string",
          "name": "remark",
          "type": "string"
        }
      ],
      "name": "externalAuditorApproveTaskCompletion",
      "outputs": [],
      "stateMutability": "nonpayable",
      "type": "function"
    },
    {
      "inputs": [
        {
          "internalType": "uint256",
          "name": "_taskId",
          "type": "uint256"
        },
        {
          "internalType": "string",
          "name": "remark",
          "type": "string"
        }
      ],
      "name": "budgetAndProcurementManagerDeclineTaskApproval",
      "outputs": [],
      "stateMutability": "nonpayable",
      "type": "function"
    },
    {
      "inputs": [
        {
          "internalType": "uint256",
          "name": "_taskId",
          "type": "uint256"
        },
        {
          "internalType": "string",
          "name": "remark",
          "type": "string"
        }
      ],
      "name": "projectManagerDeclineTaskApproval",
      "outputs": [],
      "stateMutability": "nonpayable",
      "type": "function"
    },
    {
      "inputs": [
        {
          "internalType": "uint256",
          "name": "_taskId",
          "type": "uint256"
        },
        {
          "internalType": "string",
          "name": "remark",
          "type": "string"
        }
      ],
      "name": "externalAuditorDeclinedTaskAllocation",
      "outputs": [],
      "stateMutability": "nonpayable",
      "type": "function"
    },
    {
      "inputs": [
        {
          "internalType": "uint256",
          "name": "_taskId",
          "type": "uint256"
        }
      ],
      "name": "deleteTask",
      "outputs": [],
      "stateMutability": "nonpayable",
      "type": "function"
    },
    {
      "inputs": [
        {
          "internalType": "uint256",
          "name": "_taskId",
          "type": "uint256"
        }
      ],
      "name": "getTaskById",
      "outputs": [
        {
          "components": [
            {
              "internalType": "uint256",
              "name": "id",
              "type": "uint256"
            },
            {
              "internalType": "string",
              "name": "name",
              "type": "string"
            },
            {
              "internalType": "string",
              "name": "description",
              "type": "string"
            },
            {
              "internalType": "uint256",
              "name": "projectId",
              "type": "uint256"
            },
            {
              "internalType": "uint256",
              "name": "subProjectId",
              "type": "uint256"
            },
            {
              "internalType": "uint256",
              "name": "estimatedDuration",
              "type": "uint256"
            },
            {
              "internalType": "enum Task.TaskStatus",
              "name": "status",
              "type": "uint8"
            },
            {
              "internalType": "uint256",
              "name": "allocatedBudget",
              "type": "uint256"
            },
            {
              "internalType": "string",
              "name": "remark",
              "type": "string"
            },
            {
              "internalType": "uint256",
              "name": "createdAt",
              "type": "uint256"
            }
          ],
          "internalType": "struct Task.TaskInfo",
          "name": "",
          "type": "tuple"
        }
      ],
      "stateMutability": "view",
      "type": "function",
      "constant": true
    },
    {
      "inputs": [
        {
          "internalType": "uint256",
          "name": "_projectId",
          "type": "uint256"
        }
      ],
      "name": "getTasksListFromProjectId",
      "outputs": [
        {
          "components": [
            {
              "internalType": "uint256",
              "name": "id",
              "type": "uint256"
            },
            {
              "internalType": "string",
              "name": "name",
              "type": "string"
            },
            {
              "internalType": "string",
              "name": "description",
              "type": "string"
            },
            {
              "internalType": "uint256",
              "name": "projectId",
              "type": "uint256"
            },
            {
              "internalType": "uint256",
              "name": "subProjectId",
              "type": "uint256"
            },
            {
              "internalType": "uint256",
              "name": "estimatedDuration",
              "type": "uint256"
            },
            {
              "internalType": "enum Task.TaskStatus",
              "name": "status",
              "type": "uint8"
            },
            {
              "internalType": "uint256",
              "name": "allocatedBudget",
              "type": "uint256"
            },
            {
              "internalType": "string",
              "name": "remark",
              "type": "string"
            },
            {
              "internalType": "uint256",
              "name": "createdAt",
              "type": "uint256"
            }
          ],
          "internalType": "struct Task.TaskInfo[]",
          "name": "",
          "type": "tuple[]"
        }
      ],
      "stateMutability": "view",
      "type": "function",
      "constant": true
    },
    {
      "inputs": [
        {
          "internalType": "uint256",
          "name": "_subProjectId",
          "type": "uint256"
        }
      ],
      "name": "getTasksListFromSubProjectId",
      "outputs": [
        {
          "components": [
            {
              "internalType": "uint256",
              "name": "id",
              "type": "uint256"
            },
            {
              "internalType": "string",
              "name": "name",
              "type": "string"
            },
            {
              "internalType": "string",
              "name": "description",
              "type": "string"
            },
            {
              "internalType": "uint256",
              "name": "projectId",
              "type": "uint256"
            },
            {
              "internalType": "uint256",
              "name": "subProjectId",
              "type": "uint256"
            },
            {
              "internalType": "uint256",
              "name": "estimatedDuration",
              "type": "uint256"
            },
            {
              "internalType": "enum Task.TaskStatus",
              "name": "status",
              "type": "uint8"
            },
            {
              "internalType": "uint256",
              "name": "allocatedBudget",
              "type": "uint256"
            },
            {
              "internalType": "string",
              "name": "remark",
              "type": "string"
            },
            {
              "internalType": "uint256",
              "name": "createdAt",
              "type": "uint256"
            }
          ],
          "internalType": "struct Task.TaskInfo[]",
          "name": "",
          "type": "tuple[]"
        }
      ],
      "stateMutability": "view",
      "type": "function",
      "constant": true
    },
    {
      "inputs": [
        {
          "internalType": "uint256",
          "name": "_projectId",
          "type": "uint256"
        }
      ],
      "name": "getTaskStatusByProjectId",
      "outputs": [
        {
          "internalType": "uint256",
          "name": "approved",
          "type": "uint256"
        },
        {
          "internalType": "uint256",
          "name": "unapproved",
          "type": "uint256"
        }
      ],
      "stateMutability": "view",
      "type": "function",
      "constant": true
    },
    {
      "inputs": [
        {
          "internalType": "uint256",
          "name": "_subProjectId",
          "type": "uint256"
        }
      ],
      "name": "getTaskStatusBySubProjectId",
      "outputs": [
        {
          "internalType": "uint256",
          "name": "approved",
          "type": "uint256"
        },
        {
          "internalType": "uint256",
          "name": "unapproved",
          "type": "uint256"
        }
      ],
      "stateMutability": "view",
      "type": "function",
      "constant": true
    },
    {
      "inputs": [],
      "name": "getAllTasks",
      "outputs": [
        {
          "components": [
            {
              "internalType": "uint256",
              "name": "id",
              "type": "uint256"
            },
            {
              "internalType": "string",
              "name": "name",
              "type": "string"
            },
            {
              "internalType": "string",
              "name": "description",
              "type": "string"
            },
            {
              "internalType": "uint256",
              "name": "projectId",
              "type": "uint256"
            },
            {
              "internalType": "uint256",
              "name": "subProjectId",
              "type": "uint256"
            },
            {
              "internalType": "uint256",
              "name": "estimatedDuration",
              "type": "uint256"
            },
            {
              "internalType": "enum Task.TaskStatus",
              "name": "status",
              "type": "uint8"
            },
            {
              "internalType": "uint256",
              "name": "allocatedBudget",
              "type": "uint256"
            },
            {
              "internalType": "string",
              "name": "remark",
              "type": "string"
            },
            {
              "internalType": "uint256",
              "name": "createdAt",
              "type": "uint256"
            }
          ],
          "internalType": "struct Task.TaskInfo[]",
          "name": "",
          "type": "tuple[]"
        }
      ],
      "stateMutability": "view",
      "type": "function",
      "constant": true
    }
  ],
  "bytecode": "0x608060405234801561001057600080fd5b50611b42806100206000396000f3fe608060405234801561001057600080fd5b5060043610610112576000357c0100000000000000000000000000000000000000000000000000000000900480638e6afd33116100b4578063adb0b21e11610083578063adb0b21e14610213578063c50c58cd14610226578063ebafb8a014610239578063fbaffb481461024c57600080fd5b80638e6afd33146101ba578063976217cd146101cd578063a3c72db6146101ed578063a83243da1461020057600080fd5b8063560f3192116100f0578063560f3192146101525780635e0f94d3146101655780635ea62f5614610192578063779900b4146101b257600080fd5b8063157b5ce2146101175780631dcc36921461012c578063505a4c551461013f575b600080fd5b61012a6101253660046116e2565b61025f565b005b61012a61013a366004611729565b6102ca565b61012a61014d366004611779565b610341565b61012a610160366004611800565b6104e5565b610178610173366004611800565b610559565b604080519283526020830191909152015b60405180910390f35b6101a56101a0366004611800565b610603565b604051610189919061195b565b6101a5610921565b61012a6101c83660046116e2565b610c69565b6101e06101db366004611800565b610ccb565b60405161018991906119bc565b61012a6101fb3660046116e2565b610f17565b6101a561020e366004611800565b610f7a565b61012a6102213660046116e2565b61128e565b610178610234366004611800565b6112f0565b61012a6102473660046116e2565b611394565b61012a61025a3660046116e2565b6113f6565b600082815260016020908152604090912060068101805460ff19169055825161029092600890920191840190611502565b5033600160a060020a03164283600080516020611aed833981519152600160006040516102be9291906119d6565b60405180910390a45050565b60008381526001602081815260409092206007810185905560068101805460ff1916909217909155825161030692600890920191840190611502565b5033600160a060020a03164284600080516020611aed833981519152600060016040516103349291906119d6565b60405180910390a4505050565b60008054908061035083611a0a565b919050555060405180610140016040528060005481526020018781526020018681526020018581526020018481526020018381526020016000600781111561039a5761039a611875565b8152600060208083018290526040805180830182528381528185015242606090940193909352815482526001808252929091208351815583820151805191936103e99390850192910190611502565b5060408201518051610405916002840191602090910190611502565b50606082015160038201556080820151600482015560a0820151600582015560c082015160068201805460ff1916600183600781111561044757610447611875565b021790555060e082015160078201556101008201518051610472916008840191602090910190611502565b50610120820151816009015590505083866040516104909190611a25565b60405180910390206000547f1928f5b53d4abb4811152d21f62bcbd48d2966ec602e936aeacc3436274c04c5888787600088426040516104d596959493929190611a41565b60405180910390a4505050505050565b60008181526001602081905260408220828155919061050690830182611586565b610514600283016000611586565b600060038301819055600483018190556005830181905560068301805460ff191690556007830181905561054c906008840190611586565b6009820160009055505050565b60008060015b60005481116105fd57600360008281526001602052604090206006015460ff16600781111561059057610590611875565b1480156105ad575060008181526001602052604090206004015484145b156105c4576105bd600184611a83565b92506105eb565b6000818152600160205260409020600301548414156105eb576105e8600183611a83565b91505b806105f581611a0a565b91505061055f565b50915091565b6060600061061083611458565b905060008167ffffffffffffffff81111561062d5761062d61163c565b60405190808252806020026020018201604052801561066657816020015b6106536115c3565b81526020019060019003908161064b5790505b509050600060015b60005461067c906001611a83565b811015610917576000818152600160205260409020600401548614156109055760008181526001602081815260409283902083516101408101909452805484529182018054918401916106ce90611a9b565b80601f01602080910402602001604051908101604052809291908181526020018280546106fa90611a9b565b80156107475780601f1061071c57610100808354040283529160200191610747565b820191906000526020600020905b81548152906001019060200180831161072a57829003601f168201915b5050505050815260200160028201805461076090611a9b565b80601f016020809104026020016040519081016040528092919081815260200182805461078c90611a9b565b80156107d95780601f106107ae576101008083540402835291602001916107d9565b820191906000526020600020905b8154815290600101906020018083116107bc57829003601f168201915b5050509183525050600382015460208201526004820154604082015260058201546060820152600682015460809091019060ff16600781111561081e5761081e611875565b600781111561082f5761082f611875565b81526020016007820154815260200160088201805461084d90611a9b565b80601f016020809104026020016040519081016040528092919081815260200182805461087990611a9b565b80156108c65780601f1061089b576101008083540402835291602001916108c6565b820191906000526020600020905b8154815290600101906020018083116108a957829003601f168201915b505050505081526020016009820154815250508383815181106108eb576108eb611ad3565b6020026020010181905250818061090190611a0a565b9250505b8061090f81611a0a565b91505061066e565b5090949350505050565b60606000805b600054610935906001611a83565b8110156109735760008181526001602052604090206003015415610961578161095d81611a0a565b9250505b8061096b81611a0a565b915050610927565b5060008167ffffffffffffffff81111561098f5761098f61163c565b6040519080825280602002602001820160405280156109c857816020015b6109b56115c3565b8152602001906001900390816109ad5790505b509050600060015b6000546109de906001611a83565b811015610c60576000818152600160208181526040928390208351610140810190945280548452918201805491840191610a1790611a9b565b80601f0160208091040260200160405190810160405280929190818152602001828054610a4390611a9b565b8015610a905780601f10610a6557610100808354040283529160200191610a90565b820191906000526020600020905b815481529060010190602001808311610a7357829003601f168201915b50505050508152602001600282018054610aa990611a9b565b80601f0160208091040260200160405190810160405280929190818152602001828054610ad590611a9b565b8015610b225780601f10610af757610100808354040283529160200191610b22565b820191906000526020600020905b815481529060010190602001808311610b0557829003601f168201915b5050509183525050600382015460208201526004820154604082015260058201546060820152600682015460809091019060ff166007811115610b6757610b67611875565b6007811115610b7857610b78611875565b815260200160078201548152602001600882018054610b9690611a9b565b80601f0160208091040260200160405190810160405280929190818152602001828054610bc290611a9b565b8015610c0f5780601f10610be457610100808354040283529160200191610c0f565b820191906000526020600020905b815481529060010190602001808311610bf257829003601f168201915b50505050508152602001600982015481525050838381518110610c3457610c34611ad3565b60200260200101819052508180610c4a90611a0a565b9250508080610c5890611a0a565b9150506109d0565b50909392505050565b600082815260016020908152604090912060068101805460ff191660041790558251610c9d92600890920191840190611502565b5033600160a060020a03164283600080516020611aed833981519152600360046040516102be9291906119d6565b610cd36115c3565b6000828152600160208181526040928390208351610140810190945280548452918201805491840191610d0590611a9b565b80601f0160208091040260200160405190810160405280929190818152602001828054610d3190611a9b565b8015610d7e5780601f10610d5357610100808354040283529160200191610d7e565b820191906000526020600020905b815481529060010190602001808311610d6157829003601f168201915b50505050508152602001600282018054610d9790611a9b565b80601f0160208091040260200160405190810160405280929190818152602001828054610dc390611a9b565b8015610e105780601f10610de557610100808354040283529160200191610e10565b820191906000526020600020905b815481529060010190602001808311610df357829003601f168201915b5050509183525050600382015460208201526004820154604082015260058201546060820152600682015460809091019060ff166007811115610e5557610e55611875565b6007811115610e6657610e66611875565b815260200160078201548152602001600882018054610e8490611a9b565b80601f0160208091040260200160405190810160405280929190818152602001828054610eb090611a9b565b8015610efd5780601f10610ed257610100808354040283529160200191610efd565b820191906000526020600020905b815481529060010190602001808311610ee057829003601f168201915b505050505081526020016009820154815250509050919050565b600082815260016020818152604090922060068101805460ff19169092179091558251610f4c92600890920191840190611502565b5033600160a060020a03164283600080516020611aed833981519152600260016040516102be9291906119d6565b60606000610f87836114b0565b905060008167ffffffffffffffff811115610fa457610fa461163c565b604051908082528060200260200182016040528015610fdd57816020015b610fca6115c3565b815260200190600190039081610fc25790505b509050600060015b600054610ff3906001611a83565b8110156109175760008181526001602052604090206003015486141561127c57600081815260016020818152604092839020835161014081019094528054845291820180549184019161104590611a9b565b80601f016020809104026020016040519081016040528092919081815260200182805461107190611a9b565b80156110be5780601f10611093576101008083540402835291602001916110be565b820191906000526020600020905b8154815290600101906020018083116110a157829003601f168201915b505050505081526020016002820180546110d790611a9b565b80601f016020809104026020016040519081016040528092919081815260200182805461110390611a9b565b80156111505780601f1061112557610100808354040283529160200191611150565b820191906000526020600020905b81548152906001019060200180831161113357829003601f168201915b5050509183525050600382015460208201526004820154604082015260058201546060820152600682015460809091019060ff16600781111561119557611195611875565b60078111156111a6576111a6611875565b8152602001600782015481526020016008820180546111c490611a9b565b80601f01602080910402602001604051908101604052809291908181526020018280546111f090611a9b565b801561123d5780601f106112125761010080835404028352916020019161123d565b820191906000526020600020905b81548152906001019060200180831161122057829003601f168201915b5050505050815260200160098201548152505083838151811061126257611262611ad3565b6020026020010181905250818061127890611a0a565b9250505b8061128681611a0a565b915050610fe5565b600082815260016020908152604090912060068101805460ff1916600317905582516112c292600890920191840190611502565b5033600160a060020a03164283600080516020611aed833981519152600260036040516102be9291906119d6565b60008060015b60005481116105fd57600360008281526001602052604090206006015460ff16600781111561132757611327611875565b148015611344575060008181526001602052604090206003015484145b1561135b57611354600184611a83565b9250611382565b6000818152600160205260409020600301548414156113825761137f600183611a83565b91505b8061138c81611a0a565b9150506112f6565b600082815260016020908152604090912060068101805460ff1916600217905582516113c892600890920191840190611502565b5033600160a060020a03164283600080516020611aed833981519152600360026040516102be9291906119d6565b600082815260016020908152604090912060068101805460ff19166002179055825161142a92600890920191840190611502565b5033600160a060020a03164283600080516020611aed833981519152600160026040516102be9291906119d6565b6000805b60005461146a906001611a83565b8110156114aa57600081815260016020526040902060040154831415611498578161149481611a0a565b9250505b806114a281611a0a565b91505061145c565b50919050565b6000805b6000546114c2906001611a83565b8110156114aa576000818152600160205260409020600301548314156114f057816114ec81611a0a565b9250505b806114fa81611a0a565b9150506114b4565b82805461150e90611a9b565b90600052602060002090601f0160209004810192826115305760008555611576565b82601f1061154957805160ff1916838001178555611576565b82800160010185558215611576579182015b8281111561157657825182559160200191906001019061155b565b50611582929150611627565b5090565b50805461159290611a9b565b6000825580601f106115a2575050565b601f0160209004906000526020600020908101906115c09190611627565b50565b6040518061014001604052806000815260200160608152602001606081526020016000815260200160008152602001600081526020016000600781111561160c5761160c611875565b81526020016000815260200160608152602001600081525090565b5b808211156115825760008155600101611628565b60e060020a634e487b7102600052604160045260246000fd5b600082601f83011261166657600080fd5b813567ffffffffffffffff808211156116815761168161163c565b604051601f8301601f19908116603f011681019082821181831017156116a9576116a961163c565b816040528381528660208588010111156116c257600080fd5b836020870160208301376000602085830101528094505050505092915050565b600080604083850312156116f557600080fd5b82359150602083013567ffffffffffffffff81111561171357600080fd5b61171f85828601611655565b9150509250929050565b60008060006060848603121561173e57600080fd5b8335925060208401359150604084013567ffffffffffffffff81111561176357600080fd5b61176f86828701611655565b9150509250925092565b60008060008060008060c0878903121561179257600080fd5b863567ffffffffffffffff808211156117aa57600080fd5b6117b68a838b01611655565b975060208901359150808211156117cc57600080fd5b506117d989828a01611655565b96999698505050506040850135946060810135946080820135945060a09091013592509050565b60006020828403121561181257600080fd5b5035919050565b60005b8381101561183457818101518382015260200161181c565b83811115611843576000848401525b50505050565b60008151808452611861816020860160208601611819565b601f01601f19169290920160200192915050565b60e060020a634e487b7102600052602160045260246000fd5b600881106118af5760e060020a634e487b7102600052602160045260246000fd5b9052565b60006101408251845260208301518160208601526118d382860182611849565b915050604083015184820360408601526118ed8282611849565b915050606083015160608501526080830151608085015260a083015160a085015260c083015161192060c086018261188e565b5060e083015160e085015261010080840151858303828701526119438382611849565b61012095860151969095019590955250919392505050565b600060208083018184528085518083526040860191506040848202870101925083870160005b828110156119af57603f1988860301845261199d8583516118b3565b94509285019290850190600101611981565b5092979650505050505050565b6020815260006119cf60208301846118b3565b9392505050565b604081016119e4828561188e565b6119cf602083018461188e565b60e060020a634e487b7102600052601160045260246000fd5b6000600019821415611a1e57611a1e6119f1565b5060010190565b60008251611a37818460208701611819565b9190910192915050565b60c081526000611a5460c0830189611849565b9050866020830152856040830152611a6f606083018661188e565b608082019390935260a00152949350505050565b60008219821115611a9657611a966119f1565b500190565b600281046001821680611aaf57607f821691505b602082108114156114aa5760e060020a634e487b7102600052602260045260246000fd5b60e060020a634e487b7102600052603260045260246000fdfe718ffcc44cbc7c365f00e42da684ca04cc3ce99316a50ec734d7ba9ad324184ca2646970667358221220b7f2fe24e392afb3b20531dac125b24d5e02e617dfc77edb3c9f252c6197b18864736f6c63430008090033",
  "immutableReferences": {},
  "source": "// SPDX-License-Identifier: MIT\n\npragma solidity ^0.8;\n\ncontract Task {\n    uint256 private count;\n\n    enum TaskStatus {\n        CREATED,\n        ALLOCATED_BY_FINANCIAL_MANAGER,\n\n        APPROVED_BY_BUDGET_AND_PROCUREMENT_MANAGER,\n        APPROVED_BY_PROJECT_MANAGER,\n        APPROVED_BY_EXTERNAL_AUDITOR,\n\n        REJECTED_BY_BUDGET_AND_PROCUREMENT_MANAGER,\n        REJECTED_BY_PROJECT_MANAGER,\n        REJECTED_BY_EXTERNAL_AUDITOR\n    }\n\n    struct TaskInfo {\n        uint256 id;\n        string name;\n        string description;\n        uint256 projectId;\n        uint256 subProjectId;\n        uint256 estimatedDuration;\n        TaskStatus status;\n        uint256 allocatedBudget;\n        string remark;\n        uint256 createdAt;\n    }\n\n    mapping(uint256 => TaskInfo) private tasks;\n\n    event AddedTask(\n        uint256 indexed id,\n        string indexed name,\n        string description,\n        uint256 indexed projectId,\n        uint256 subProjectId,\n        uint256 estimatedDuration,\n        TaskStatus status,\n        uint256 allocatedBudget,\n        uint256 createdAt\n    );\n\n    event ChangedTaskStatus(\n        uint256 indexed taskid,\n        TaskStatus from,\n        TaskStatus to,\n        uint256 indexed date,\n        address indexed changedBy\n    );\n\n    modifier statusIs(TaskInfo memory status, uint256 id) {\n        require(tasks[id].status == TaskStatus.CREATED);\n        _;\n    }\n\n    /*\n    Function to add new task to the BC providing all useful info.\n    */\n    function addTask(\n        string memory name,\n        string memory description,\n        uint256 projectId,\n        uint256 subProjectId,\n        uint256 estimatedDuration,\n        uint256 allocatedBudget\n    ) public {\n        count++;\n        tasks[count] = TaskInfo(\n            count,\n            name,\n            description,\n            projectId,\n            subProjectId,\n            estimatedDuration,\n            TaskStatus.CREATED,\n            0,\n            '',\n            block.timestamp\n        );\n        \n        emit AddedTask(\n            count,\n            name,\n            description,\n            projectId,\n            subProjectId,\n            estimatedDuration,\n            TaskStatus.CREATED,\n            allocatedBudget,\n            block.timestamp\n        );\n    }\n\n    //TODO add modifier to check whether the sender is financial manager of a specific project\n    //TODO add modifier to check wheather the money is valid or not\n    function financialManagerSubmitBudgetAllocation(\n        uint256 taskid,\n        uint256 allocatedBudget,\n        string memory remark\n    ) public {\n        tasks[taskid].allocatedBudget = allocatedBudget;\n        tasks[taskid].status = TaskStatus.ALLOCATED_BY_FINANCIAL_MANAGER;\n        tasks[taskid].remark = remark;\n        emit ChangedTaskStatus(taskid ,TaskStatus.CREATED, TaskStatus.ALLOCATED_BY_FINANCIAL_MANAGER, block.timestamp, msg.sender);\n    }\n\n    function budgetAndProcurementManagerApproveTaskCompletion(uint256 _taskId, string memory remark)\n        public\n    {\n        tasks[_taskId].status = TaskStatus.APPROVED_BY_BUDGET_AND_PROCUREMENT_MANAGER;\n        tasks[_taskId].remark = remark;\n        emit ChangedTaskStatus(_taskId ,TaskStatus.ALLOCATED_BY_FINANCIAL_MANAGER, TaskStatus.APPROVED_BY_BUDGET_AND_PROCUREMENT_MANAGER, block.timestamp, msg.sender);\n    }\n\n    function projectManagerApproveTaskCompletion(uint256 _taskId, string memory remark) public {\n        tasks[_taskId].status = TaskStatus.APPROVED_BY_PROJECT_MANAGER;\n        tasks[_taskId].remark = remark;\n        emit ChangedTaskStatus(_taskId ,TaskStatus.APPROVED_BY_BUDGET_AND_PROCUREMENT_MANAGER, TaskStatus.APPROVED_BY_PROJECT_MANAGER, block.timestamp, msg.sender);\n    }\n\n    function externalAuditorApproveTaskCompletion(uint256 _taskId, string memory remark) public {\n        tasks[_taskId].status = TaskStatus.APPROVED_BY_EXTERNAL_AUDITOR;\n        tasks[_taskId].remark = remark;\n        emit ChangedTaskStatus(_taskId ,TaskStatus.APPROVED_BY_PROJECT_MANAGER, TaskStatus.APPROVED_BY_EXTERNAL_AUDITOR, block.timestamp, msg.sender);\n    }\n\n    function budgetAndProcurementManagerDeclineTaskApproval(uint256 _taskId, string memory remark)\n        public\n    {\n        tasks[_taskId].status = TaskStatus.CREATED;\n        tasks[_taskId].remark = remark;\n        emit ChangedTaskStatus(_taskId ,TaskStatus.ALLOCATED_BY_FINANCIAL_MANAGER, TaskStatus.CREATED, block.timestamp, msg.sender);\n    }\n\n    function projectManagerDeclineTaskApproval(uint256 _taskId, string memory remark) public {\n        tasks[_taskId].status = TaskStatus.ALLOCATED_BY_FINANCIAL_MANAGER;\n        tasks[_taskId].remark = remark;\n        emit ChangedTaskStatus(_taskId ,TaskStatus.APPROVED_BY_BUDGET_AND_PROCUREMENT_MANAGER, TaskStatus.ALLOCATED_BY_FINANCIAL_MANAGER, block.timestamp, msg.sender);\n    }\n\n    function externalAuditorDeclinedTaskAllocation(uint256 _taskId, string memory remark) public {\n        tasks[_taskId].status = TaskStatus.APPROVED_BY_BUDGET_AND_PROCUREMENT_MANAGER;\n        tasks[_taskId].remark = remark;\n        emit ChangedTaskStatus(_taskId ,TaskStatus.APPROVED_BY_PROJECT_MANAGER, TaskStatus.APPROVED_BY_BUDGET_AND_PROCUREMENT_MANAGER, block.timestamp, msg.sender);\n    }\n\n    function deleteTask(uint256 _taskId) public {\n        delete tasks[_taskId];\n    }\n\n    function getTaskById(uint256 _taskId) public view returns(TaskInfo memory) {\n        return tasks[_taskId];\n    }\n\n    /*\n    As we cannot create dynamic array which we can push to, we should use this function to return the \n    length of tasks with a given project id.    \n    */\n    function getTasksCountByProjectId(uint256 _projectId) internal view returns(uint256 length) {\n        for (uint256 index = 0; index < count + 1; index++) {\n            if(tasks[index].projectId == _projectId) {\n                    length++;\n                }\n        }\n    }\n\n    /*\n    As we cannot create dynamic array which we can push to, we should use this function to return the \n    length of tasks with a given project id.    \n    */\n    function getTasksCountBySubProjectId(uint256 _subProjectId) internal view returns(uint256 length) {\n        for (uint256 index = 0; index < count + 1; index++) {\n            if(tasks[index].subProjectId == _subProjectId) {\n                    length++;\n                }\n        }\n    }\n    \n\n    /*\n    This function returns array of tasks that belong to one project\n    */\n    function getTasksListFromProjectId(uint256 _projectId) public view returns(TaskInfo[] memory) {\n        uint256 length = getTasksCountByProjectId(_projectId);\n        TaskInfo[] memory ft = new TaskInfo[](length);\n        uint256 counter = 0;\n        for (uint256 index = 1; index < count + 1; index++) {\n            if(tasks[index].projectId == _projectId) {\n                    ft[counter] = tasks[index];\n                    counter++;\n                }\n        }\n        return ft;\n    }\n\n    /*\n    This function returns array of tasks that belongs to one subproject\n    */\n    function getTasksListFromSubProjectId(uint256 _subProjectId) public view returns(TaskInfo[] memory) {\n        uint256 length = getTasksCountBySubProjectId(_subProjectId);\n        TaskInfo[] memory ft = new TaskInfo[](length);\n        uint256 counter = 0;\n        for (uint256 index = 1; index < count + 1; index++) {\n            if(tasks[index].subProjectId == _subProjectId) {\n                    ft[counter] = tasks[index];\n                    counter++;\n                }\n        }\n        return ft;\n    }\n\n    /*\n    Function to return status of completed and in progress tasks by project id\n    */\n    function getTaskStatusByProjectId(uint256 _projectId) public view returns(uint256 approved, uint256 unapproved) {\n        for (uint256 i = 1; i <= count; i++) {\n            if(tasks[i].status == TaskStatus.APPROVED_BY_PROJECT_MANAGER && tasks[i].projectId == _projectId) {\n                approved += 1;\n            }\n            else if(tasks[i].projectId == _projectId){\n                unapproved += 1;\n            }\n        }\n        return (approved, unapproved);\n    }\n\n    /*\n    Function to return status of completed and in progress tasks by sub-project id\n    */\n    function getTaskStatusBySubProjectId(uint256 _subProjectId) public view returns(uint256 approved, uint256 unapproved) {\n        for (uint256 i = 1; i <= count; i++) {\n            if(tasks[i].status == TaskStatus.APPROVED_BY_PROJECT_MANAGER && tasks[i].subProjectId == _subProjectId) {\n                approved += 1;\n            }\n            else if(tasks[i].projectId == _subProjectId){\n                unapproved += 1;\n            }\n        }\n        return (approved, unapproved);\n    }\n\n         /*\n    This function returns array of tasks so we can iterate over them\n    */\n    function getAllTasks() public view returns(TaskInfo[] memory) {\n        uint256 length;\n        for (uint256 index = 0; index < count + 1; index++) {\n            if(tasks[index].projectId != 0) {\n                    length++;\n                }\n        }\n        TaskInfo[] memory sp = new TaskInfo[](length);\n        uint256 counter = 0;\n        for (uint256 index = 1; index < count + 1; index++) {\n            sp[counter] = tasks[index];\n            counter++;\n        }\n        return sp;\n    }\n}\n",
  "sourcePath": "/home/jeremy/Desktop/fets_front_end/src/contracts/project_management/Task.sol",
  "compiler": {
    "name": "solc",
    "version": "0.8.9+commit.e5eed63a.Emscripten.clang"
  },
  "schemaVersion": "3.4.3",
  "updatedAt": "2022-06-17T13:40:06.334Z",
  "networkType": "ethereum",
  "devdoc": {
    "kind": "dev",
    "methods": {},
    "version": 1
  },
  "userdoc": {
    "kind": "user",
    "methods": {},
    "version": 1
  }
}