{
  "contractName": "Task",
  "abi": [
    {
      "anonymous": false,
      "inputs": [
        {
          "indexed": true,
          "internalType": "uint256",
          "name": "id",
          "type": "uint256"
        },
        {
          "indexed": true,
          "internalType": "string",
          "name": "name",
          "type": "string"
        },
        {
          "indexed": false,
          "internalType": "string",
          "name": "description",
          "type": "string"
        },
        {
          "indexed": true,
          "internalType": "uint256",
          "name": "projectId",
          "type": "uint256"
        },
        {
          "indexed": false,
          "internalType": "uint256",
          "name": "subProjectId",
          "type": "uint256"
        },
        {
          "indexed": false,
          "internalType": "uint256",
          "name": "estimatedDuration",
          "type": "uint256"
        },
        {
          "indexed": false,
          "internalType": "enum Task.TaskStatus",
          "name": "status",
          "type": "uint8"
        },
        {
          "indexed": false,
          "internalType": "uint256",
          "name": "allocatedBudget",
          "type": "uint256"
        },
        {
          "indexed": false,
          "internalType": "uint256",
          "name": "createdAt",
          "type": "uint256"
        }
      ],
      "name": "AddedTask",
      "type": "event"
    },
    {
      "anonymous": false,
      "inputs": [
        {
          "indexed": true,
          "internalType": "uint256",
          "name": "taskid",
          "type": "uint256"
        },
        {
          "indexed": false,
          "internalType": "enum Task.TaskStatus",
          "name": "from",
          "type": "uint8"
        },
        {
          "indexed": false,
          "internalType": "enum Task.TaskStatus",
          "name": "to",
          "type": "uint8"
        },
        {
          "indexed": true,
          "internalType": "uint256",
          "name": "date",
          "type": "uint256"
        },
        {
          "indexed": true,
          "internalType": "address",
          "name": "changedBy",
          "type": "address"
        }
      ],
      "name": "ChangedTaskStatus",
      "type": "event"
    },
    {
      "inputs": [
        {
          "internalType": "string",
          "name": "name",
          "type": "string"
        },
        {
          "internalType": "string",
          "name": "description",
          "type": "string"
        },
        {
          "internalType": "uint256",
          "name": "projectId",
          "type": "uint256"
        },
        {
          "internalType": "uint256",
          "name": "subProjectId",
          "type": "uint256"
        },
        {
          "internalType": "uint256",
          "name": "estimatedDuration",
          "type": "uint256"
        },
        {
          "internalType": "uint256",
          "name": "allocatedBudget",
          "type": "uint256"
        }
      ],
      "name": "addTask",
      "outputs": [],
      "stateMutability": "nonpayable",
      "type": "function"
    },
    {
      "inputs": [
        {
          "internalType": "uint256",
          "name": "taskid",
          "type": "uint256"
        },
        {
          "internalType": "uint256",
          "name": "allocatedBudget",
          "type": "uint256"
        },
        {
          "internalType": "string",
          "name": "remark",
          "type": "string"
        }
      ],
      "name": "financialManagerSubmitBudgetAllocation",
      "outputs": [],
      "stateMutability": "nonpayable",
      "type": "function"
    },
    {
      "inputs": [
        {
          "internalType": "uint256",
          "name": "_taskId",
          "type": "uint256"
        },
        {
          "internalType": "string",
          "name": "remark",
          "type": "string"
        }
      ],
      "name": "budgetAndProcurementManagerApproveTaskCompletion",
      "outputs": [],
      "stateMutability": "nonpayable",
      "type": "function"
    },
    {
      "inputs": [
        {
          "internalType": "uint256",
          "name": "_taskId",
          "type": "uint256"
        },
        {
          "internalType": "string",
          "name": "remark",
          "type": "string"
        }
      ],
      "name": "projectManagerApproveTaskCompletion",
      "outputs": [],
      "stateMutability": "nonpayable",
      "type": "function"
    },
    {
      "inputs": [
        {
          "internalType": "uint256",
          "name": "_taskId",
          "type": "uint256"
        },
        {
          "internalType": "string",
          "name": "remark",
          "type": "string"
        }
      ],
      "name": "externalAuditorApproveTaskCompletion",
      "outputs": [],
      "stateMutability": "nonpayable",
      "type": "function"
    },
    {
      "inputs": [
        {
          "internalType": "uint256",
          "name": "_taskId",
          "type": "uint256"
        },
        {
          "internalType": "string",
          "name": "remark",
          "type": "string"
        }
      ],
      "name": "budgetAndProcurementManagerDeclineTaskApproval",
      "outputs": [],
      "stateMutability": "nonpayable",
      "type": "function"
    },
    {
      "inputs": [
        {
          "internalType": "uint256",
          "name": "_taskId",
          "type": "uint256"
        },
        {
          "internalType": "string",
          "name": "remark",
          "type": "string"
        }
      ],
      "name": "projectManagerDeclineTaskApproval",
      "outputs": [],
      "stateMutability": "nonpayable",
      "type": "function"
    },
    {
      "inputs": [
        {
          "internalType": "uint256",
          "name": "_taskId",
          "type": "uint256"
        },
        {
          "internalType": "string",
          "name": "remark",
          "type": "string"
        }
      ],
      "name": "externalAuditorDeclinedTaskAllocation",
      "outputs": [],
      "stateMutability": "nonpayable",
      "type": "function"
    },
    {
      "inputs": [
        {
          "internalType": "uint256",
          "name": "_taskId",
          "type": "uint256"
        }
      ],
      "name": "deleteTask",
      "outputs": [],
      "stateMutability": "nonpayable",
      "type": "function"
    },
    {
      "inputs": [
        {
          "internalType": "uint256",
          "name": "_taskId",
          "type": "uint256"
        }
      ],
      "name": "getTaskById",
      "outputs": [
        {
          "components": [
            {
              "internalType": "uint256",
              "name": "id",
              "type": "uint256"
            },
            {
              "internalType": "string",
              "name": "name",
              "type": "string"
            },
            {
              "internalType": "string",
              "name": "description",
              "type": "string"
            },
            {
              "internalType": "uint256",
              "name": "projectId",
              "type": "uint256"
            },
            {
              "internalType": "uint256",
              "name": "subProjectId",
              "type": "uint256"
            },
            {
              "internalType": "uint256",
              "name": "estimatedDuration",
              "type": "uint256"
            },
            {
              "internalType": "enum Task.TaskStatus",
              "name": "status",
              "type": "uint8"
            },
            {
              "internalType": "uint256",
              "name": "allocatedBudget",
              "type": "uint256"
            },
            {
              "internalType": "string",
              "name": "remark",
              "type": "string"
            },
            {
              "internalType": "uint256",
              "name": "createdAt",
              "type": "uint256"
            }
          ],
          "internalType": "struct Task.TaskInfo",
          "name": "",
          "type": "tuple"
        }
      ],
      "stateMutability": "view",
      "type": "function",
      "constant": true
    },
    {
      "inputs": [
        {
          "internalType": "uint256",
          "name": "_projectId",
          "type": "uint256"
        }
      ],
      "name": "getTasksListFromProjectId",
      "outputs": [
        {
          "components": [
            {
              "internalType": "uint256",
              "name": "id",
              "type": "uint256"
            },
            {
              "internalType": "string",
              "name": "name",
              "type": "string"
            },
            {
              "internalType": "string",
              "name": "description",
              "type": "string"
            },
            {
              "internalType": "uint256",
              "name": "projectId",
              "type": "uint256"
            },
            {
              "internalType": "uint256",
              "name": "subProjectId",
              "type": "uint256"
            },
            {
              "internalType": "uint256",
              "name": "estimatedDuration",
              "type": "uint256"
            },
            {
              "internalType": "enum Task.TaskStatus",
              "name": "status",
              "type": "uint8"
            },
            {
              "internalType": "uint256",
              "name": "allocatedBudget",
              "type": "uint256"
            },
            {
              "internalType": "string",
              "name": "remark",
              "type": "string"
            },
            {
              "internalType": "uint256",
              "name": "createdAt",
              "type": "uint256"
            }
          ],
          "internalType": "struct Task.TaskInfo[]",
          "name": "",
          "type": "tuple[]"
        }
      ],
      "stateMutability": "view",
      "type": "function",
      "constant": true
    },
    {
      "inputs": [
        {
          "internalType": "uint256",
          "name": "_subProjectId",
          "type": "uint256"
        }
      ],
      "name": "getTasksListFromSubProjectId",
      "outputs": [
        {
          "components": [
            {
              "internalType": "uint256",
              "name": "id",
              "type": "uint256"
            },
            {
              "internalType": "string",
              "name": "name",
              "type": "string"
            },
            {
              "internalType": "string",
              "name": "description",
              "type": "string"
            },
            {
              "internalType": "uint256",
              "name": "projectId",
              "type": "uint256"
            },
            {
              "internalType": "uint256",
              "name": "subProjectId",
              "type": "uint256"
            },
            {
              "internalType": "uint256",
              "name": "estimatedDuration",
              "type": "uint256"
            },
            {
              "internalType": "enum Task.TaskStatus",
              "name": "status",
              "type": "uint8"
            },
            {
              "internalType": "uint256",
              "name": "allocatedBudget",
              "type": "uint256"
            },
            {
              "internalType": "string",
              "name": "remark",
              "type": "string"
            },
            {
              "internalType": "uint256",
              "name": "createdAt",
              "type": "uint256"
            }
          ],
          "internalType": "struct Task.TaskInfo[]",
          "name": "",
          "type": "tuple[]"
        }
      ],
      "stateMutability": "view",
      "type": "function",
      "constant": true
    },
    {
      "inputs": [
        {
          "internalType": "uint256",
          "name": "_projectId",
          "type": "uint256"
        }
      ],
      "name": "getTaskStatusByProjectId",
      "outputs": [
        {
          "internalType": "uint256",
          "name": "approved",
          "type": "uint256"
        },
        {
          "internalType": "uint256",
          "name": "unapproved",
          "type": "uint256"
        }
      ],
      "stateMutability": "view",
      "type": "function",
      "constant": true
    },
    {
      "inputs": [
        {
          "internalType": "uint256",
          "name": "_subProjectId",
          "type": "uint256"
        }
      ],
      "name": "getTaskStatusBySubProjectId",
      "outputs": [
        {
          "internalType": "uint256",
          "name": "approved",
          "type": "uint256"
        },
        {
          "internalType": "uint256",
          "name": "unapproved",
          "type": "uint256"
        }
      ],
      "stateMutability": "view",
      "type": "function",
      "constant": true
    },
    {
      "inputs": [],
      "name": "getAllTasks",
      "outputs": [
        {
          "components": [
            {
              "internalType": "uint256",
              "name": "id",
              "type": "uint256"
            },
            {
              "internalType": "string",
              "name": "name",
              "type": "string"
            },
            {
              "internalType": "string",
              "name": "description",
              "type": "string"
            },
            {
              "internalType": "uint256",
              "name": "projectId",
              "type": "uint256"
            },
            {
              "internalType": "uint256",
              "name": "subProjectId",
              "type": "uint256"
            },
            {
              "internalType": "uint256",
              "name": "estimatedDuration",
              "type": "uint256"
            },
            {
              "internalType": "enum Task.TaskStatus",
              "name": "status",
              "type": "uint8"
            },
            {
              "internalType": "uint256",
              "name": "allocatedBudget",
              "type": "uint256"
            },
            {
              "internalType": "string",
              "name": "remark",
              "type": "string"
            },
            {
              "internalType": "uint256",
              "name": "createdAt",
              "type": "uint256"
            }
          ],
          "internalType": "struct Task.TaskInfo[]",
          "name": "",
          "type": "tuple[]"
        }
      ],
      "stateMutability": "view",
      "type": "function",
      "constant": true
    }
  ],
  "bytecode": "0x608060405234801561001057600080fd5b50611b7d806100206000396000f3fe608060405234801561001057600080fd5b5060043610610112576000357c0100000000000000000000000000000000000000000000000000000000900480638e6afd33116100b4578063adb0b21e11610083578063adb0b21e14610213578063c50c58cd14610226578063ebafb8a014610239578063fbaffb481461024c57600080fd5b80638e6afd33146101ba578063976217cd146101cd578063a3c72db6146101ed578063a83243da1461020057600080fd5b8063560f3192116100f0578063560f3192146101525780635e0f94d3146101655780635ea62f5614610192578063779900b4146101b257600080fd5b8063157b5ce2146101175780631dcc36921461012c578063505a4c551461013f575b600080fd5b61012a6101253660046116fe565b61025f565b005b61012a61013a366004611745565b6102ca565b61012a61014d366004611795565b610341565b61012a61016036600461181c565b610501565b61017861017336600461181c565b610575565b604080519283526020830191909152015b60405180910390f35b6101a56101a036600461181c565b61061f565b6040516101899190611977565b6101a561093d565b61012a6101c83660046116fe565b610c85565b6101e06101db36600461181c565b610ce7565b60405161018991906119d8565b61012a6101fb3660046116fe565b610f33565b6101a561020e36600461181c565b610f96565b61012a6102213660046116fe565b6112aa565b61017861023436600461181c565b61130c565b61012a6102473660046116fe565b6113b0565b61012a61025a3660046116fe565b611412565b600082815260016020908152604090912060068101805460ff1916905582516102909260089092019184019061151e565b5033600160a060020a03164283600080516020611b28833981519152600160006040516102be9291906119f2565b60405180910390a45050565b60008381526001602081815260409092206007810185905560068101805460ff191690921790915582516103069260089092019184019061151e565b5033600160a060020a03164284600080516020611b28833981519152600060016040516103349291906119f2565b60405180910390a4505050565b60008054908061035083611a26565b919050555060405180610140016040528060005481526020018781526020018681526020018581526020018481526020018381526020016000600781111561039a5761039a611891565b815260200160008152602001604051806020016040528060008152508152602001426103e86103c99190611a41565b90526000805481526001602081815260409092208351815583830151805191936103f89385019291019061151e565b506040820151805161041491600284019160209091019061151e565b50606082015160038201556080820151600482015560a0820151600582015560c082015160068201805460ff1916600183600781111561045657610456611891565b021790555060e08201516007820155610100820151805161048191600884019160209091019061151e565b506101208201518160090155905050838660405161049f9190611a60565b60405180910390206000547f1928f5b53d4abb4811152d21f62bcbd48d2966ec602e936aeacc3436274c04c5888787600088426103e86104df9190611a41565b6040516104f196959493929190611a7c565b60405180910390a4505050505050565b600081815260016020819052604082208281559190610522908301826115a2565b6105306002830160006115a2565b600060038301819055600483018190556005830181905560068301805460ff19169055600783018190556105689060088401906115a2565b6009820160009055505050565b60008060015b600054811161061957600360008281526001602052604090206006015460ff1660078111156105ac576105ac611891565b1480156105c9575060008181526001602052604090206004015484145b156105e0576105d9600184611abe565b9250610607565b60008181526001602052604090206003015484141561060757610604600183611abe565b91505b8061061181611a26565b91505061057b565b50915091565b6060600061062c83611474565b905060008167ffffffffffffffff81111561064957610649611658565b60405190808252806020026020018201604052801561068257816020015b61066f6115df565b8152602001906001900390816106675790505b509050600060015b600054610698906001611abe565b811015610933576000818152600160205260409020600401548614156109215760008181526001602081815260409283902083516101408101909452805484529182018054918401916106ea90611ad6565b80601f016020809104026020016040519081016040528092919081815260200182805461071690611ad6565b80156107635780601f1061073857610100808354040283529160200191610763565b820191906000526020600020905b81548152906001019060200180831161074657829003601f168201915b5050505050815260200160028201805461077c90611ad6565b80601f01602080910402602001604051908101604052809291908181526020018280546107a890611ad6565b80156107f55780601f106107ca576101008083540402835291602001916107f5565b820191906000526020600020905b8154815290600101906020018083116107d857829003601f168201915b5050509183525050600382015460208201526004820154604082015260058201546060820152600682015460809091019060ff16600781111561083a5761083a611891565b600781111561084b5761084b611891565b81526020016007820154815260200160088201805461086990611ad6565b80601f016020809104026020016040519081016040528092919081815260200182805461089590611ad6565b80156108e25780601f106108b7576101008083540402835291602001916108e2565b820191906000526020600020905b8154815290600101906020018083116108c557829003601f168201915b5050505050815260200160098201548152505083838151811061090757610907611b0e565b6020026020010181905250818061091d90611a26565b9250505b8061092b81611a26565b91505061068a565b5090949350505050565b60606000805b600054610951906001611abe565b81101561098f576000818152600160205260409020600301541561097d578161097981611a26565b9250505b8061098781611a26565b915050610943565b5060008167ffffffffffffffff8111156109ab576109ab611658565b6040519080825280602002602001820160405280156109e457816020015b6109d16115df565b8152602001906001900390816109c95790505b509050600060015b6000546109fa906001611abe565b811015610c7c576000818152600160208181526040928390208351610140810190945280548452918201805491840191610a3390611ad6565b80601f0160208091040260200160405190810160405280929190818152602001828054610a5f90611ad6565b8015610aac5780601f10610a8157610100808354040283529160200191610aac565b820191906000526020600020905b815481529060010190602001808311610a8f57829003601f168201915b50505050508152602001600282018054610ac590611ad6565b80601f0160208091040260200160405190810160405280929190818152602001828054610af190611ad6565b8015610b3e5780601f10610b1357610100808354040283529160200191610b3e565b820191906000526020600020905b815481529060010190602001808311610b2157829003601f168201915b5050509183525050600382015460208201526004820154604082015260058201546060820152600682015460809091019060ff166007811115610b8357610b83611891565b6007811115610b9457610b94611891565b815260200160078201548152602001600882018054610bb290611ad6565b80601f0160208091040260200160405190810160405280929190818152602001828054610bde90611ad6565b8015610c2b5780601f10610c0057610100808354040283529160200191610c2b565b820191906000526020600020905b815481529060010190602001808311610c0e57829003601f168201915b50505050508152602001600982015481525050838381518110610c5057610c50611b0e565b60200260200101819052508180610c6690611a26565b9250508080610c7490611a26565b9150506109ec565b50909392505050565b600082815260016020908152604090912060068101805460ff191660041790558251610cb99260089092019184019061151e565b5033600160a060020a03164283600080516020611b28833981519152600360046040516102be9291906119f2565b610cef6115df565b6000828152600160208181526040928390208351610140810190945280548452918201805491840191610d2190611ad6565b80601f0160208091040260200160405190810160405280929190818152602001828054610d4d90611ad6565b8015610d9a5780601f10610d6f57610100808354040283529160200191610d9a565b820191906000526020600020905b815481529060010190602001808311610d7d57829003601f168201915b50505050508152602001600282018054610db390611ad6565b80601f0160208091040260200160405190810160405280929190818152602001828054610ddf90611ad6565b8015610e2c5780601f10610e0157610100808354040283529160200191610e2c565b820191906000526020600020905b815481529060010190602001808311610e0f57829003601f168201915b5050509183525050600382015460208201526004820154604082015260058201546060820152600682015460809091019060ff166007811115610e7157610e71611891565b6007811115610e8257610e82611891565b815260200160078201548152602001600882018054610ea090611ad6565b80601f0160208091040260200160405190810160405280929190818152602001828054610ecc90611ad6565b8015610f195780601f10610eee57610100808354040283529160200191610f19565b820191906000526020600020905b815481529060010190602001808311610efc57829003601f168201915b505050505081526020016009820154815250509050919050565b600082815260016020818152604090922060068101805460ff19169092179091558251610f689260089092019184019061151e565b5033600160a060020a03164283600080516020611b28833981519152600260016040516102be9291906119f2565b60606000610fa3836114cc565b905060008167ffffffffffffffff811115610fc057610fc0611658565b604051908082528060200260200182016040528015610ff957816020015b610fe66115df565b815260200190600190039081610fde5790505b509050600060015b60005461100f906001611abe565b8110156109335760008181526001602052604090206003015486141561129857600081815260016020818152604092839020835161014081019094528054845291820180549184019161106190611ad6565b80601f016020809104026020016040519081016040528092919081815260200182805461108d90611ad6565b80156110da5780601f106110af576101008083540402835291602001916110da565b820191906000526020600020905b8154815290600101906020018083116110bd57829003601f168201915b505050505081526020016002820180546110f390611ad6565b80601f016020809104026020016040519081016040528092919081815260200182805461111f90611ad6565b801561116c5780601f106111415761010080835404028352916020019161116c565b820191906000526020600020905b81548152906001019060200180831161114f57829003601f168201915b5050509183525050600382015460208201526004820154604082015260058201546060820152600682015460809091019060ff1660078111156111b1576111b1611891565b60078111156111c2576111c2611891565b8152602001600782015481526020016008820180546111e090611ad6565b80601f016020809104026020016040519081016040528092919081815260200182805461120c90611ad6565b80156112595780601f1061122e57610100808354040283529160200191611259565b820191906000526020600020905b81548152906001019060200180831161123c57829003601f168201915b5050505050815260200160098201548152505083838151811061127e5761127e611b0e565b6020026020010181905250818061129490611a26565b9250505b806112a281611a26565b915050611001565b600082815260016020908152604090912060068101805460ff1916600317905582516112de9260089092019184019061151e565b5033600160a060020a03164283600080516020611b28833981519152600260036040516102be9291906119f2565b60008060015b600054811161061957600360008281526001602052604090206006015460ff16600781111561134357611343611891565b148015611360575060008181526001602052604090206003015484145b1561137757611370600184611abe565b925061139e565b60008181526001602052604090206003015484141561139e5761139b600183611abe565b91505b806113a881611a26565b915050611312565b600082815260016020908152604090912060068101805460ff1916600217905582516113e49260089092019184019061151e565b5033600160a060020a03164283600080516020611b28833981519152600360026040516102be9291906119f2565b600082815260016020908152604090912060068101805460ff1916600217905582516114469260089092019184019061151e565b5033600160a060020a03164283600080516020611b28833981519152600160026040516102be9291906119f2565b6000805b600054611486906001611abe565b8110156114c6576000818152600160205260409020600401548314156114b457816114b081611a26565b9250505b806114be81611a26565b915050611478565b50919050565b6000805b6000546114de906001611abe565b8110156114c65760008181526001602052604090206003015483141561150c578161150881611a26565b9250505b8061151681611a26565b9150506114d0565b82805461152a90611ad6565b90600052602060002090601f01602090048101928261154c5760008555611592565b82601f1061156557805160ff1916838001178555611592565b82800160010185558215611592579182015b82811115611592578251825591602001919060010190611577565b5061159e929150611643565b5090565b5080546115ae90611ad6565b6000825580601f106115be575050565b601f0160209004906000526020600020908101906115dc9190611643565b50565b6040518061014001604052806000815260200160608152602001606081526020016000815260200160008152602001600081526020016000600781111561162857611628611891565b81526020016000815260200160608152602001600081525090565b5b8082111561159e5760008155600101611644565b60e060020a634e487b7102600052604160045260246000fd5b600082601f83011261168257600080fd5b813567ffffffffffffffff8082111561169d5761169d611658565b604051601f8301601f19908116603f011681019082821181831017156116c5576116c5611658565b816040528381528660208588010111156116de57600080fd5b836020870160208301376000602085830101528094505050505092915050565b6000806040838503121561171157600080fd5b82359150602083013567ffffffffffffffff81111561172f57600080fd5b61173b85828601611671565b9150509250929050565b60008060006060848603121561175a57600080fd5b8335925060208401359150604084013567ffffffffffffffff81111561177f57600080fd5b61178b86828701611671565b9150509250925092565b60008060008060008060c087890312156117ae57600080fd5b863567ffffffffffffffff808211156117c657600080fd5b6117d28a838b01611671565b975060208901359150808211156117e857600080fd5b506117f589828a01611671565b96999698505050506040850135946060810135946080820135945060a09091013592509050565b60006020828403121561182e57600080fd5b5035919050565b60005b83811015611850578181015183820152602001611838565b8381111561185f576000848401525b50505050565b6000815180845261187d816020860160208601611835565b601f01601f19169290920160200192915050565b60e060020a634e487b7102600052602160045260246000fd5b600881106118cb5760e060020a634e487b7102600052602160045260246000fd5b9052565b60006101408251845260208301518160208601526118ef82860182611865565b915050604083015184820360408601526119098282611865565b915050606083015160608501526080830151608085015260a083015160a085015260c083015161193c60c08601826118aa565b5060e083015160e0850152610100808401518583038287015261195f8382611865565b61012095860151969095019590955250919392505050565b600060208083018184528085518083526040860191506040848202870101925083870160005b828110156119cb57603f198886030184526119b98583516118cf565b9450928501929085019060010161199d565b5092979650505050505050565b6020815260006119eb60208301846118cf565b9392505050565b60408101611a0082856118aa565b6119eb60208301846118aa565b60e060020a634e487b7102600052601160045260246000fd5b6000600019821415611a3a57611a3a611a0d565b5060010190565b6000816000190483118215151615611a5b57611a5b611a0d565b500290565b60008251611a72818460208701611835565b9190910192915050565b60c081526000611a8f60c0830189611865565b9050866020830152856040830152611aaa60608301866118aa565b608082019390935260a00152949350505050565b60008219821115611ad157611ad1611a0d565b500190565b600281046001821680611aea57607f821691505b602082108114156114c65760e060020a634e487b7102600052602260045260246000fd5b60e060020a634e487b7102600052603260045260246000fdfe718ffcc44cbc7c365f00e42da684ca04cc3ce99316a50ec734d7ba9ad324184ca264697066735822122042b75a73a82a6d7fa020873c787ff587f0630d682793a3b916fb0e3f8fff2c8664736f6c63430008090033",
  "immutableReferences": {},
  "source": "// SPDX-License-Identifier: MIT\n\npragma solidity ^0.8;\n\ncontract Task {\n    uint256 private count;\n\n    enum TaskStatus {\n        CREATED,\n        ALLOCATED_BY_FINANCIAL_MANAGER,\n\n        APPROVED_BY_BUDGET_AND_PROCUREMENT_MANAGER,\n        APPROVED_BY_PROJECT_MANAGER,\n        APPROVED_BY_EXTERNAL_AUDITOR,\n\n        REJECTED_BY_BUDGET_AND_PROCUREMENT_MANAGER,\n        REJECTED_BY_PROJECT_MANAGER,\n        REJECTED_BY_EXTERNAL_AUDITOR\n    }\n\n    struct TaskInfo {\n        uint256 id;\n        string name;\n        string description;\n        uint256 projectId;\n        uint256 subProjectId;\n        uint256 estimatedDuration;\n        TaskStatus status;\n        uint256 allocatedBudget;\n        string remark;\n        uint256 createdAt;\n    }\n\n    mapping(uint256 => TaskInfo) private tasks;\n\n    event AddedTask(\n        uint256 indexed id,\n        string indexed name,\n        string description,\n        uint256 indexed projectId,\n        uint256 subProjectId,\n        uint256 estimatedDuration,\n        TaskStatus status,\n        uint256 allocatedBudget,\n        uint256 createdAt\n    );\n\n    event ChangedTaskStatus(\n        uint256 indexed taskid,\n        TaskStatus from,\n        TaskStatus to,\n        uint256 indexed date,\n        address indexed changedBy\n    );\n\n    modifier statusIs(TaskInfo memory status, uint256 id) {\n        require(tasks[id].status == TaskStatus.CREATED);\n        _;\n    }\n\n    /*\n    Function to add new task to the BC providing all useful info.\n    */\n    function addTask(\n        string memory name,\n        string memory description,\n        uint256 projectId,\n        uint256 subProjectId,\n        uint256 estimatedDuration,\n        uint256 allocatedBudget\n    ) public {\n        count++;\n        tasks[count] = TaskInfo(\n            count,\n            name,\n            description,\n            projectId,\n            subProjectId,\n            estimatedDuration,\n            TaskStatus.CREATED,\n            0,\n            '',\n            block.timestamp * 1000\n        );\n        \n        emit AddedTask(\n            count,\n            name,\n            description,\n            projectId,\n            subProjectId,\n            estimatedDuration,\n            TaskStatus.CREATED,\n            allocatedBudget,\n            block.timestamp * 1000\n        );\n    }\n\n    //TODO add modifier to check whether the sender is financial manager of a specific project\n    //TODO add modifier to check wheather the money is valid or not\n    function financialManagerSubmitBudgetAllocation(\n        uint256 taskid,\n        uint256 allocatedBudget,\n        string memory remark\n    ) public {\n        tasks[taskid].allocatedBudget = allocatedBudget;\n        tasks[taskid].status = TaskStatus.ALLOCATED_BY_FINANCIAL_MANAGER;\n        tasks[taskid].remark = remark;\n        emit ChangedTaskStatus(taskid ,TaskStatus.CREATED, TaskStatus.ALLOCATED_BY_FINANCIAL_MANAGER, block.timestamp, msg.sender);\n    }\n\n    function budgetAndProcurementManagerApproveTaskCompletion(uint256 _taskId, string memory remark)\n        public\n    {\n        tasks[_taskId].status = TaskStatus.APPROVED_BY_BUDGET_AND_PROCUREMENT_MANAGER;\n        tasks[_taskId].remark = remark;\n        emit ChangedTaskStatus(_taskId ,TaskStatus.ALLOCATED_BY_FINANCIAL_MANAGER, TaskStatus.APPROVED_BY_BUDGET_AND_PROCUREMENT_MANAGER, block.timestamp, msg.sender);\n    }\n\n    function projectManagerApproveTaskCompletion(uint256 _taskId, string memory remark) public {\n        tasks[_taskId].status = TaskStatus.APPROVED_BY_PROJECT_MANAGER;\n        tasks[_taskId].remark = remark;\n        emit ChangedTaskStatus(_taskId ,TaskStatus.APPROVED_BY_BUDGET_AND_PROCUREMENT_MANAGER, TaskStatus.APPROVED_BY_PROJECT_MANAGER, block.timestamp, msg.sender);\n    }\n\n    function externalAuditorApproveTaskCompletion(uint256 _taskId, string memory remark) public {\n        tasks[_taskId].status = TaskStatus.APPROVED_BY_EXTERNAL_AUDITOR;\n        tasks[_taskId].remark = remark;\n        emit ChangedTaskStatus(_taskId ,TaskStatus.APPROVED_BY_PROJECT_MANAGER, TaskStatus.APPROVED_BY_EXTERNAL_AUDITOR, block.timestamp, msg.sender);\n    }\n\n    function budgetAndProcurementManagerDeclineTaskApproval(uint256 _taskId, string memory remark)\n        public\n    {\n        tasks[_taskId].status = TaskStatus.CREATED;\n        tasks[_taskId].remark = remark;\n        emit ChangedTaskStatus(_taskId ,TaskStatus.ALLOCATED_BY_FINANCIAL_MANAGER, TaskStatus.CREATED, block.timestamp, msg.sender);\n    }\n\n    function projectManagerDeclineTaskApproval(uint256 _taskId, string memory remark) public {\n        tasks[_taskId].status = TaskStatus.ALLOCATED_BY_FINANCIAL_MANAGER;\n        tasks[_taskId].remark = remark;\n        emit ChangedTaskStatus(_taskId ,TaskStatus.APPROVED_BY_BUDGET_AND_PROCUREMENT_MANAGER, TaskStatus.ALLOCATED_BY_FINANCIAL_MANAGER, block.timestamp, msg.sender);\n        }\n\n    function externalAuditorDeclinedTaskAllocation(uint256 _taskId, string memory remark) public {\n        tasks[_taskId].status = TaskStatus.APPROVED_BY_BUDGET_AND_PROCUREMENT_MANAGER;\n        tasks[_taskId].remark = remark;\n        emit ChangedTaskStatus(_taskId ,TaskStatus.APPROVED_BY_PROJECT_MANAGER, TaskStatus.APPROVED_BY_BUDGET_AND_PROCUREMENT_MANAGER, block.timestamp, msg.sender);\n    }\n\n    function deleteTask(uint256 _taskId) public {\n        delete tasks[_taskId];\n    }\n\n    function getTaskById(uint256 _taskId) public view returns(TaskInfo memory) {\n        return tasks[_taskId];\n    }\n\n    /*\n    As we cannot create dynamic array which we can push to, we should use this function to return the \n    length of tasks with a given project id.    \n    */\n    function getTasksCountByProjectId(uint256 _projectId) internal view returns(uint256 length) {\n        for (uint256 index = 0; index < count + 1; index++) {\n            if(tasks[index].projectId == _projectId) {\n                    length++;\n                }\n        }\n    }\n\n    /*\n    As we cannot create dynamic array which we can push to, we should use this function to return the \n    length of tasks with a given project id.    \n    */\n    function getTasksCountBySubProjectId(uint256 _subProjectId) internal view returns(uint256 length) {\n        for (uint256 index = 0; index < count + 1; index++) {\n            if(tasks[index].subProjectId == _subProjectId) {\n                    length++;\n                }\n        }\n    }\n    \n\n    /*\n    This function returns array of tasks that belong to one project\n    */\n    function getTasksListFromProjectId(uint256 _projectId) public view returns(TaskInfo[] memory) {\n        uint256 length = getTasksCountByProjectId(_projectId);\n        TaskInfo[] memory ft = new TaskInfo[](length);\n        uint256 counter = 0;\n        for (uint256 index = 1; index < count + 1; index++) {\n            if(tasks[index].projectId == _projectId) {\n                    ft[counter] = tasks[index];\n                    counter++;\n                }\n        }\n        return ft;\n    }\n\n    /*\n    This function returns array of tasks that belongs to one subproject\n    */\n    function getTasksListFromSubProjectId(uint256 _subProjectId) public view returns(TaskInfo[] memory) {\n        uint256 length = getTasksCountBySubProjectId(_subProjectId);\n        TaskInfo[] memory ft = new TaskInfo[](length);\n        uint256 counter = 0;\n        for (uint256 index = 1; index < count + 1; index++) {\n            if(tasks[index].subProjectId == _subProjectId) {\n                    ft[counter] = tasks[index];\n                    counter++;\n                }\n        }\n        return ft;\n    }\n\n    /*\n    Function to return status of completed and in progress tasks by project id\n    */\n    function getTaskStatusByProjectId(uint256 _projectId) public view returns(uint256 approved, uint256 unapproved) {\n        for (uint256 i = 1; i <= count; i++) {\n            if(tasks[i].status == TaskStatus.APPROVED_BY_PROJECT_MANAGER && tasks[i].projectId == _projectId) {\n                approved += 1;\n            }\n            else if(tasks[i].projectId == _projectId){\n                unapproved += 1;\n            }\n        }\n        return (approved, unapproved);\n    }\n\n    /*\n    Function to return status of completed and in progress tasks by sub-project id\n    */\n    function getTaskStatusBySubProjectId(uint256 _subProjectId) public view returns(uint256 approved, uint256 unapproved) {\n        for (uint256 i = 1; i <= count; i++) {\n            if(tasks[i].status == TaskStatus.APPROVED_BY_PROJECT_MANAGER && tasks[i].subProjectId == _subProjectId) {\n                approved += 1;\n            }\n            else if(tasks[i].projectId == _subProjectId){\n                unapproved += 1;\n            }\n        }\n        return (approved, unapproved);\n    }\n\n         /*\n    This function returns array of tasks so we can iterate over them\n    */\n    function getAllTasks() public view returns(TaskInfo[] memory) {\n        uint256 length;\n        for (uint256 index = 0; index < count + 1; index++) {\n            if(tasks[index].projectId != 0) {\n                    length++;\n                }\n        }\n        TaskInfo[] memory sp = new TaskInfo[](length);\n        uint256 counter = 0;\n        for (uint256 index = 1; index < count + 1; index++) {\n            sp[counter] = tasks[index];\n            counter++;\n        }\n        return sp;\n    }\n}\n",
  "sourcePath": "/home/jeremy/Desktop/fets_front_end/src/contracts/project_management/Task.sol",
  "compiler": {
    "name": "solc",
    "version": "0.8.9+commit.e5eed63a.Emscripten.clang"
  },
  "schemaVersion": "3.4.3",
  "updatedAt": "2022-06-18T13:32:07.872Z",
  "networkType": "ethereum",
  "devdoc": {
    "kind": "dev",
    "methods": {},
    "version": 1
  },
  "userdoc": {
    "kind": "user",
    "methods": {},
    "version": 1
  }
}