{
  "contractName": "Task",
  "abi": [
    {
      "anonymous": false,
      "inputs": [
        {
          "indexed": true,
          "internalType": "uint256",
          "name": "id",
          "type": "uint256"
        },
        {
          "indexed": true,
          "internalType": "string",
          "name": "name",
          "type": "string"
        },
        {
          "indexed": false,
          "internalType": "string",
          "name": "description",
          "type": "string"
        },
        {
          "indexed": true,
          "internalType": "uint256",
          "name": "projectId",
          "type": "uint256"
        },
        {
          "indexed": false,
          "internalType": "uint256",
          "name": "subProjectId",
          "type": "uint256"
        },
        {
          "indexed": false,
          "internalType": "uint256",
          "name": "estimatedDuration",
          "type": "uint256"
        },
        {
          "indexed": false,
          "internalType": "enum Task.TaskStatus",
          "name": "status",
          "type": "uint8"
        },
        {
          "indexed": false,
          "internalType": "uint256",
          "name": "allocatedBudget",
          "type": "uint256"
        },
        {
          "indexed": false,
          "internalType": "uint256",
          "name": "createdAt",
          "type": "uint256"
        }
      ],
      "name": "AddedTask",
      "type": "event"
    },
    {
      "anonymous": false,
      "inputs": [
        {
          "indexed": true,
          "internalType": "uint256",
          "name": "taskid",
          "type": "uint256"
        },
        {
          "indexed": false,
          "internalType": "enum Task.TaskStatus",
          "name": "from",
          "type": "uint8"
        },
        {
          "indexed": false,
          "internalType": "enum Task.TaskStatus",
          "name": "to",
          "type": "uint8"
        },
        {
          "indexed": true,
          "internalType": "uint256",
          "name": "date",
          "type": "uint256"
        },
        {
          "indexed": true,
          "internalType": "address",
          "name": "changedBy",
          "type": "address"
        }
      ],
      "name": "ChangeedTaskStatus",
      "type": "event"
    },
    {
      "inputs": [
        {
          "internalType": "string",
          "name": "name",
          "type": "string"
        },
        {
          "internalType": "string",
          "name": "description",
          "type": "string"
        },
        {
          "internalType": "uint256",
          "name": "projectId",
          "type": "uint256"
        },
        {
          "internalType": "uint256",
          "name": "subProjectId",
          "type": "uint256"
        },
        {
          "internalType": "uint256",
          "name": "estimatedDuration",
          "type": "uint256"
        },
        {
          "internalType": "uint256",
          "name": "allocatedBudget",
          "type": "uint256"
        }
      ],
      "name": "addTask",
      "outputs": [],
      "stateMutability": "nonpayable",
      "type": "function"
    },
    {
      "inputs": [
        {
          "internalType": "uint256",
          "name": "taskid",
          "type": "uint256"
        },
        {
          "internalType": "uint256",
          "name": "allocatedBudget",
          "type": "uint256"
        }
      ],
      "name": "financialManagerSubmitBudgetAllocation",
      "outputs": [],
      "stateMutability": "nonpayable",
      "type": "function"
    },
    {
      "inputs": [
        {
          "internalType": "uint256",
          "name": "_taskId",
          "type": "uint256"
        }
      ],
      "name": "budgetAndProcurementManagerApproveTaskCompletion",
      "outputs": [],
      "stateMutability": "nonpayable",
      "type": "function"
    },
    {
      "inputs": [
        {
          "internalType": "uint256",
          "name": "_taskId",
          "type": "uint256"
        }
      ],
      "name": "projectManagerApproveTaskCompletion",
      "outputs": [],
      "stateMutability": "nonpayable",
      "type": "function"
    },
    {
      "inputs": [
        {
          "internalType": "uint256",
          "name": "_taskId",
          "type": "uint256"
        }
      ],
      "name": "externalAuditorApproveTaskCompletion",
      "outputs": [],
      "stateMutability": "nonpayable",
      "type": "function"
    },
    {
      "inputs": [
        {
          "internalType": "uint256",
          "name": "_taskId",
          "type": "uint256"
        }
      ],
      "name": "deleteTask",
      "outputs": [],
      "stateMutability": "nonpayable",
      "type": "function"
    },
    {
      "inputs": [
        {
          "internalType": "uint256",
          "name": "_taskId",
          "type": "uint256"
        }
      ],
      "name": "getTaskById",
      "outputs": [
        {
          "components": [
            {
              "internalType": "uint256",
              "name": "id",
              "type": "uint256"
            },
            {
              "internalType": "string",
              "name": "name",
              "type": "string"
            },
            {
              "internalType": "string",
              "name": "description",
              "type": "string"
            },
            {
              "internalType": "uint256",
              "name": "projectId",
              "type": "uint256"
            },
            {
              "internalType": "uint256",
              "name": "subProjectId",
              "type": "uint256"
            },
            {
              "internalType": "uint256",
              "name": "estimatedDuration",
              "type": "uint256"
            },
            {
              "internalType": "enum Task.TaskStatus",
              "name": "status",
              "type": "uint8"
            },
            {
              "internalType": "uint256",
              "name": "allocatedBudget",
              "type": "uint256"
            },
            {
              "internalType": "string",
              "name": "remark",
              "type": "string"
            },
            {
              "internalType": "uint256",
              "name": "createdAt",
              "type": "uint256"
            }
          ],
          "internalType": "struct Task.TaskInfo",
          "name": "",
          "type": "tuple"
        }
      ],
      "stateMutability": "view",
      "type": "function",
      "constant": true
    },
    {
      "inputs": [
        {
          "internalType": "uint256",
          "name": "_projectId",
          "type": "uint256"
        }
      ],
      "name": "getTasksListFromProjectId",
      "outputs": [
        {
          "components": [
            {
              "internalType": "uint256",
              "name": "id",
              "type": "uint256"
            },
            {
              "internalType": "string",
              "name": "name",
              "type": "string"
            },
            {
              "internalType": "string",
              "name": "description",
              "type": "string"
            },
            {
              "internalType": "uint256",
              "name": "projectId",
              "type": "uint256"
            },
            {
              "internalType": "uint256",
              "name": "subProjectId",
              "type": "uint256"
            },
            {
              "internalType": "uint256",
              "name": "estimatedDuration",
              "type": "uint256"
            },
            {
              "internalType": "enum Task.TaskStatus",
              "name": "status",
              "type": "uint8"
            },
            {
              "internalType": "uint256",
              "name": "allocatedBudget",
              "type": "uint256"
            },
            {
              "internalType": "string",
              "name": "remark",
              "type": "string"
            },
            {
              "internalType": "uint256",
              "name": "createdAt",
              "type": "uint256"
            }
          ],
          "internalType": "struct Task.TaskInfo[]",
          "name": "",
          "type": "tuple[]"
        }
      ],
      "stateMutability": "view",
      "type": "function",
      "constant": true
    },
    {
      "inputs": [
        {
          "internalType": "uint256",
          "name": "_subProjectId",
          "type": "uint256"
        }
      ],
      "name": "getTasksListFromSubProjectId",
      "outputs": [
        {
          "components": [
            {
              "internalType": "uint256",
              "name": "id",
              "type": "uint256"
            },
            {
              "internalType": "string",
              "name": "name",
              "type": "string"
            },
            {
              "internalType": "string",
              "name": "description",
              "type": "string"
            },
            {
              "internalType": "uint256",
              "name": "projectId",
              "type": "uint256"
            },
            {
              "internalType": "uint256",
              "name": "subProjectId",
              "type": "uint256"
            },
            {
              "internalType": "uint256",
              "name": "estimatedDuration",
              "type": "uint256"
            },
            {
              "internalType": "enum Task.TaskStatus",
              "name": "status",
              "type": "uint8"
            },
            {
              "internalType": "uint256",
              "name": "allocatedBudget",
              "type": "uint256"
            },
            {
              "internalType": "string",
              "name": "remark",
              "type": "string"
            },
            {
              "internalType": "uint256",
              "name": "createdAt",
              "type": "uint256"
            }
          ],
          "internalType": "struct Task.TaskInfo[]",
          "name": "",
          "type": "tuple[]"
        }
      ],
      "stateMutability": "view",
      "type": "function",
      "constant": true
    },
    {
      "inputs": [
        {
          "internalType": "uint256",
          "name": "_projectId",
          "type": "uint256"
        }
      ],
      "name": "getTaskStatusByProjectId",
      "outputs": [
        {
          "internalType": "uint256",
          "name": "approved",
          "type": "uint256"
        },
        {
          "internalType": "uint256",
          "name": "unapproved",
          "type": "uint256"
        }
      ],
      "stateMutability": "view",
      "type": "function",
      "constant": true
    },
    {
      "inputs": [
        {
          "internalType": "uint256",
          "name": "_subProjectId",
          "type": "uint256"
        }
      ],
      "name": "getTaskStatusBySubProjectId",
      "outputs": [
        {
          "internalType": "uint256",
          "name": "approved",
          "type": "uint256"
        },
        {
          "internalType": "uint256",
          "name": "unapproved",
          "type": "uint256"
        }
      ],
      "stateMutability": "view",
      "type": "function",
      "constant": true
    }
  ],
  "bytecode": "0x608060405234801561001057600080fd5b50611d5a806100206000396000f3fe608060405234801561001057600080fd5b50600436106100a95760003560e01c80638c1d4efa116100715780638c1d4efa14610163578063976217cd1461017f578063a83243da146101af578063c50c58cd146101df578063c6086e8414610210578063f521bfde1461022c576100a9565b80633f699b71146100ae578063505a4c55146100ca578063560f3192146100e65780635e0f94d3146101025780635ea62f5614610133575b600080fd5b6100c860048036038101906100c391906113f5565b610248565b005b6100e460048036038101906100df9190611568565b6102de565b005b61010060048036038101906100fb91906113f5565b6104a0565b005b61011c600480360381019061011791906113f5565b61052d565b60405161012a92919061163c565b60405180910390f35b61014d600480360381019061014891906113f5565b61060d565b60405161015a919061191d565b60405180910390f35b61017d600480360381019061017891906113f5565b610948565b005b610199600480360381019061019491906113f5565b6109de565b6040516101a69190611a27565b60405180910390f35b6101c960048036038101906101c491906113f5565b610c39565b6040516101d6919061191d565b60405180910390f35b6101f960048036038101906101f491906113f5565b610f74565b60405161020792919061163c565b60405180910390f35b61022a600480360381019061022591906113f5565b611054565b005b61024660048036038101906102419190611a49565b6110ea565b005b60046001600083815260200190815260200160002060060160006101000a81548160ff0219169083600781111561028257610281611728565b5b02179055503373ffffffffffffffffffffffffffffffffffffffff1642827f42ca22b58274c0d3dce198b7a71dea299d40e7d46bcd2e854c1578e93b4e249a600360046040516102d3929190611a98565b60405180910390a450565b6000808154809291906102f090611af0565b919050555060405180610140016040528060005481526020018781526020018681526020018581526020018481526020018381526020016000600781111561033b5761033a611728565b5b81526020016000815260200160405180602001604052806000815250815260200142815250600160008054815260200190815260200160002060008201518160000155602082015181600101908051906020019061039a929190611263565b5060408201518160020190805190602001906103b7929190611263565b50606082015181600301556080820151816004015560a0820151816005015560c08201518160060160006101000a81548160ff0219169083600781111561040157610400611728565b5b021790555060e0820151816007015561010082015181600801908051906020019061042d929190611263565b506101208201518160090155905050838660405161044b9190611b75565b60405180910390206000547f1928f5b53d4abb4811152d21f62bcbd48d2966ec602e936aeacc3436274c04c58887876000884260405161049096959493929190611bd6565b60405180910390a4505050505050565b600160008281526020019081526020016000206000808201600090556001820160006104cc91906112e9565b6002820160006104dc91906112e9565b6003820160009055600482016000905560058201600090556006820160006101000a81549060ff0219169055600782016000905560088201600061052091906112e9565b6009820160009055505050565b6000806000600190505b6000548111610607576003600781111561055457610553611728565b5b6001600083815260200190815260200160002060060160009054906101000a900460ff16600781111561058a57610589611728565b5b1480156105ac5750836001600083815260200190815260200160002060040154145b156105c5576001836105be9190611c3e565b92506105f4565b83600160008381526020019081526020016000206003015414156105f3576001826105f09190611c3e565b91505b5b80806105ff90611af0565b915050610537565b50915091565b6060600061061a8361119b565b905060008167ffffffffffffffff8111156106385761063761143d565b5b60405190808252806020026020018201604052801561067157816020015b61065e611329565b8152602001906001900390816106565790505b509050600080600190505b600160005461068b9190611c3e565b81101561093c578560016000838152602001908152602001600020600401541415610929576001600082815260200190815260200160002060405180610140016040529081600082015481526020016001820180546106e990611cc3565b80601f016020809104026020016040519081016040528092919081815260200182805461071590611cc3565b80156107625780601f1061073757610100808354040283529160200191610762565b820191906000526020600020905b81548152906001019060200180831161074557829003601f168201915b5050505050815260200160028201805461077b90611cc3565b80601f01602080910402602001604051908101604052809291908181526020018280546107a790611cc3565b80156107f45780601f106107c9576101008083540402835291602001916107f4565b820191906000526020600020905b8154815290600101906020018083116107d757829003601f168201915b505050505081526020016003820154815260200160048201548152602001600582015481526020016006820160009054906101000a900460ff1660078111156108405761083f611728565b5b600781111561085257610851611728565b5b81526020016007820154815260200160088201805461087090611cc3565b80601f016020809104026020016040519081016040528092919081815260200182805461089c90611cc3565b80156108e95780601f106108be576101008083540402835291602001916108e9565b820191906000526020600020905b8154815290600101906020018083116108cc57829003601f168201915b5050505050815260200160098201548152505083838151811061090f5761090e611cf5565b5b6020026020010181905250818061092590611af0565b9250505b808061093490611af0565b91505061067c565b50819350505050919050565b60026001600083815260200190815260200160002060060160006101000a81548160ff0219169083600781111561098257610981611728565b5b02179055503373ffffffffffffffffffffffffffffffffffffffff1642827f42ca22b58274c0d3dce198b7a71dea299d40e7d46bcd2e854c1578e93b4e249a600160026040516109d3929190611a98565b60405180910390a450565b6109e6611329565b600160008381526020019081526020016000206040518061014001604052908160008201548152602001600182018054610a1f90611cc3565b80601f0160208091040260200160405190810160405280929190818152602001828054610a4b90611cc3565b8015610a985780601f10610a6d57610100808354040283529160200191610a98565b820191906000526020600020905b815481529060010190602001808311610a7b57829003601f168201915b50505050508152602001600282018054610ab190611cc3565b80601f0160208091040260200160405190810160405280929190818152602001828054610add90611cc3565b8015610b2a5780601f10610aff57610100808354040283529160200191610b2a565b820191906000526020600020905b815481529060010190602001808311610b0d57829003601f168201915b505050505081526020016003820154815260200160048201548152602001600582015481526020016006820160009054906101000a900460ff166007811115610b7657610b75611728565b5b6007811115610b8857610b87611728565b5b815260200160078201548152602001600882018054610ba690611cc3565b80601f0160208091040260200160405190810160405280929190818152602001828054610bd290611cc3565b8015610c1f5780601f10610bf457610100808354040283529160200191610c1f565b820191906000526020600020905b815481529060010190602001808311610c0257829003601f168201915b505050505081526020016009820154815250509050919050565b60606000610c46836111ff565b905060008167ffffffffffffffff811115610c6457610c6361143d565b5b604051908082528060200260200182016040528015610c9d57816020015b610c8a611329565b815260200190600190039081610c825790505b509050600080600190505b6001600054610cb79190611c3e565b811015610f68578560016000838152602001908152602001600020600301541415610f5557600160008281526020019081526020016000206040518061014001604052908160008201548152602001600182018054610d1590611cc3565b80601f0160208091040260200160405190810160405280929190818152602001828054610d4190611cc3565b8015610d8e5780601f10610d6357610100808354040283529160200191610d8e565b820191906000526020600020905b815481529060010190602001808311610d7157829003601f168201915b50505050508152602001600282018054610da790611cc3565b80601f0160208091040260200160405190810160405280929190818152602001828054610dd390611cc3565b8015610e205780601f10610df557610100808354040283529160200191610e20565b820191906000526020600020905b815481529060010190602001808311610e0357829003601f168201915b505050505081526020016003820154815260200160048201548152602001600582015481526020016006820160009054906101000a900460ff166007811115610e6c57610e6b611728565b5b6007811115610e7e57610e7d611728565b5b815260200160078201548152602001600882018054610e9c90611cc3565b80601f0160208091040260200160405190810160405280929190818152602001828054610ec890611cc3565b8015610f155780601f10610eea57610100808354040283529160200191610f15565b820191906000526020600020905b815481529060010190602001808311610ef857829003601f168201915b50505050508152602001600982015481525050838381518110610f3b57610f3a611cf5565b5b60200260200101819052508180610f5190611af0565b9250505b8080610f6090611af0565b915050610ca8565b50819350505050919050565b6000806000600190505b600054811161104e5760036007811115610f9b57610f9a611728565b5b6001600083815260200190815260200160002060060160009054906101000a900460ff166007811115610fd157610fd0611728565b5b148015610ff35750836001600083815260200190815260200160002060030154145b1561100c576001836110059190611c3e565b925061103b565b836001600083815260200190815260200160002060030154141561103a576001826110379190611c3e565b91505b5b808061104690611af0565b915050610f7e565b50915091565b60036001600083815260200190815260200160002060060160006101000a81548160ff0219169083600781111561108e5761108d611728565b5b02179055503373ffffffffffffffffffffffffffffffffffffffff1642827f42ca22b58274c0d3dce198b7a71dea299d40e7d46bcd2e854c1578e93b4e249a600260036040516110df929190611a98565b60405180910390a450565b806001600084815260200190815260200160002060070181905550600180600084815260200190815260200160002060060160006101000a81548160ff0219169083600781111561113e5761113d611728565b5b02179055503373ffffffffffffffffffffffffffffffffffffffff1642837f42ca22b58274c0d3dce198b7a71dea299d40e7d46bcd2e854c1578e93b4e249a6000600160405161118f929190611a98565b60405180910390a45050565b600080600090505b60016000546111b29190611c3e565b8110156111f95782600160008381526020019081526020016000206004015414156111e65781806111e290611af0565b9250505b80806111f190611af0565b9150506111a3565b50919050565b600080600090505b60016000546112169190611c3e565b81101561125d57826001600083815260200190815260200160002060030154141561124a57818061124690611af0565b9250505b808061125590611af0565b915050611207565b50919050565b82805461126f90611cc3565b90600052602060002090601f01602090048101928261129157600085556112d8565b82601f106112aa57805160ff19168380011785556112d8565b828001600101855582156112d8579182015b828111156112d75782518255916020019190600101906112bc565b5b5090506112e5919061138e565b5090565b5080546112f590611cc3565b6000825580601f106113075750611326565b601f016020900490600052602060002090810190611325919061138e565b5b50565b6040518061014001604052806000815260200160608152602001606081526020016000815260200160008152602001600081526020016000600781111561137357611372611728565b5b81526020016000815260200160608152602001600081525090565b5b808211156113a757600081600090555060010161138f565b5090565b6000604051905090565b600080fd5b600080fd5b6000819050919050565b6113d2816113bf565b81146113dd57600080fd5b50565b6000813590506113ef816113c9565b92915050565b60006020828403121561140b5761140a6113b5565b5b6000611419848285016113e0565b91505092915050565b600080fd5b600080fd5b6000601f19601f8301169050919050565b7f4e487b7100000000000000000000000000000000000000000000000000000000600052604160045260246000fd5b6114758261142c565b810181811067ffffffffffffffff821117156114945761149361143d565b5b80604052505050565b60006114a76113ab565b90506114b3828261146c565b919050565b600067ffffffffffffffff8211156114d3576114d261143d565b5b6114dc8261142c565b9050602081019050919050565b82818337600083830152505050565b600061150b611506846114b8565b61149d565b90508281526020810184848401111561152757611526611427565b5b6115328482856114e9565b509392505050565b600082601f83011261154f5761154e611422565b5b813561155f8482602086016114f8565b91505092915050565b60008060008060008060c08789031215611585576115846113b5565b5b600087013567ffffffffffffffff8111156115a3576115a26113ba565b5b6115af89828a0161153a565b965050602087013567ffffffffffffffff8111156115d0576115cf6113ba565b5b6115dc89828a0161153a565b95505060406115ed89828a016113e0565b94505060606115fe89828a016113e0565b935050608061160f89828a016113e0565b92505060a061162089828a016113e0565b9150509295509295509295565b611636816113bf565b82525050565b6000604082019050611651600083018561162d565b61165e602083018461162d565b9392505050565b600081519050919050565b600082825260208201905092915050565b6000819050602082019050919050565b61169a816113bf565b82525050565b600081519050919050565b600082825260208201905092915050565b60005b838110156116da5780820151818401526020810190506116bf565b838111156116e9576000848401525b50505050565b60006116fa826116a0565b61170481856116ab565b93506117148185602086016116bc565b61171d8161142c565b840191505092915050565b7f4e487b7100000000000000000000000000000000000000000000000000000000600052602160045260246000fd5b6008811061176857611767611728565b5b50565b600081905061177982611757565b919050565b60006117898261176b565b9050919050565b6117998161177e565b82525050565b6000610140830160008301516117b86000860182611691565b50602083015184820360208601526117d082826116ef565b915050604083015184820360408601526117ea82826116ef565b91505060608301516117ff6060860182611691565b5060808301516118126080860182611691565b5060a083015161182560a0860182611691565b5060c083015161183860c0860182611790565b5060e083015161184b60e0860182611691565b5061010083015184820361010086015261186582826116ef565b91505061012083015161187c610120860182611691565b508091505092915050565b6000611893838361179f565b905092915050565b6000602082019050919050565b60006118b382611665565b6118bd8185611670565b9350836020820285016118cf85611681565b8060005b8581101561190b57848403895281516118ec8582611887565b94506118f78361189b565b925060208a019950506001810190506118d3565b50829750879550505050505092915050565b6000602082019050818103600083015261193781846118a8565b905092915050565b6000610140830160008301516119586000860182611691565b506020830151848203602086015261197082826116ef565b9150506040830151848203604086015261198a82826116ef565b915050606083015161199f6060860182611691565b5060808301516119b26080860182611691565b5060a08301516119c560a0860182611691565b5060c08301516119d860c0860182611790565b5060e08301516119eb60e0860182611691565b50610100830151848203610100860152611a0582826116ef565b915050610120830151611a1c610120860182611691565b508091505092915050565b60006020820190508181036000830152611a41818461193f565b905092915050565b60008060408385031215611a6057611a5f6113b5565b5b6000611a6e858286016113e0565b9250506020611a7f858286016113e0565b9150509250929050565b611a928161177e565b82525050565b6000604082019050611aad6000830185611a89565b611aba6020830184611a89565b9392505050565b7f4e487b7100000000000000000000000000000000000000000000000000000000600052601160045260246000fd5b6000611afb826113bf565b91507fffffffffffffffffffffffffffffffffffffffffffffffffffffffffffffffff821415611b2e57611b2d611ac1565b5b600182019050919050565b600081905092915050565b6000611b4f826116a0565b611b598185611b39565b9350611b698185602086016116bc565b80840191505092915050565b6000611b818284611b44565b915081905092915050565b600082825260208201905092915050565b6000611ba8826116a0565b611bb28185611b8c565b9350611bc28185602086016116bc565b611bcb8161142c565b840191505092915050565b600060c0820190508181036000830152611bf08189611b9d565b9050611bff602083018861162d565b611c0c604083018761162d565b611c196060830186611a89565b611c26608083018561162d565b611c3360a083018461162d565b979650505050505050565b6000611c49826113bf565b9150611c54836113bf565b9250827fffffffffffffffffffffffffffffffffffffffffffffffffffffffffffffffff03821115611c8957611c88611ac1565b5b828201905092915050565b7f4e487b7100000000000000000000000000000000000000000000000000000000600052602260045260246000fd5b60006002820490506001821680611cdb57607f821691505b60208210811415611cef57611cee611c94565b5b50919050565b7f4e487b7100000000000000000000000000000000000000000000000000000000600052603260045260246000fdfea264697066735822122009e81831559ab2c15f792d89c1c081c613d0b5a61d2498991c25b33cd1de567964736f6c63430008090033",
  "immutableReferences": {},
  "source": "// SPDX-License-Identifier: MIT\n\npragma solidity ^0.8;\n\ncontract Task {\n    uint256 private count;\n\n    enum TaskStatus {\n        CREATED,\n        ALLOCATED_BY_FINANCIAL_MANAGER,\n\n        APPROVED_BY_BUDGET_AND_PROCUREMENT_MANAGER,\n        APPROVED_BY_PROJECT_MANAGER,\n        APPROVED_BY_EXTERNAL_AUDITOR,\n\n        REJECTED_BY_BUDGET_AND_PROCUREMENT_MANAGER,\n        REJECTED_BY_PROJECT_MANAGER,\n        REJECTED_BY_EXTERNAL_AUDITOR\n    }\n\n    struct TaskInfo {\n        uint256 id;\n        string name;\n        string description;\n        uint256 projectId;\n        uint256 subProjectId;\n        uint256 estimatedDuration;\n        TaskStatus status;\n        uint256 allocatedBudget;\n        string remark;\n        uint256 createdAt;\n    }\n\n    mapping(uint256 => TaskInfo) private tasks;\n\n    event AddedTask(\n        uint256 indexed id,\n        string indexed name,\n        string description,\n        uint256 indexed projectId,\n        uint256 subProjectId,\n        uint256 estimatedDuration,\n        TaskStatus status,\n        uint256 allocatedBudget,\n        uint256 createdAt\n    );\n\n    event ChangeedTaskStatus(\n        uint256 indexed taskid,\n        TaskStatus from,\n        TaskStatus to,\n        uint256 indexed date,\n        address indexed changedBy\n    );\n\n    modifier statusIs(TaskInfo memory status, uint256 id) {\n        require(tasks[id].status == TaskStatus.CREATED);\n        _;\n    }\n\n    /*\n    Function to add new task to the BC providing all useful info.\n    */\n    function addTask(\n        string memory name,\n        string memory description,\n        uint256 projectId,\n        uint256 subProjectId,\n        uint256 estimatedDuration,\n        uint256 allocatedBudget\n    ) public {\n        count++;\n        tasks[count] = TaskInfo(\n            count,\n            name,\n            description,\n            projectId,\n            subProjectId,\n            estimatedDuration,\n            TaskStatus.CREATED,\n            0,\n            '',\n            block.timestamp\n        );\n        \n        emit AddedTask(\n            count,\n            name,\n            description,\n            projectId,\n            subProjectId,\n            estimatedDuration,\n            TaskStatus.CREATED,\n            allocatedBudget,\n            block.timestamp\n        );\n    }\n\n    //TODO add modifier to check whether the sender is financial manager of a specific project\n    //TODO add modifier to check wheather the money is valid or not\n    function financialManagerSubmitBudgetAllocation(\n        uint256 taskid,\n        uint256 allocatedBudget\n    ) public {\n        tasks[taskid].allocatedBudget = allocatedBudget;\n        tasks[taskid].status = TaskStatus.ALLOCATED_BY_FINANCIAL_MANAGER;\n        emit ChangeedTaskStatus(taskid ,TaskStatus.CREATED, TaskStatus.ALLOCATED_BY_FINANCIAL_MANAGER, block.timestamp, msg.sender);\n    }\n\n    function budgetAndProcurementManagerApproveTaskCompletion(uint256 _taskId)\n        public\n    {\n        tasks[_taskId].status = TaskStatus.APPROVED_BY_BUDGET_AND_PROCUREMENT_MANAGER;\n        emit ChangeedTaskStatus(_taskId ,TaskStatus.ALLOCATED_BY_FINANCIAL_MANAGER, TaskStatus.APPROVED_BY_BUDGET_AND_PROCUREMENT_MANAGER, block.timestamp, msg.sender);\n    }\n\n    function projectManagerApproveTaskCompletion(uint256 _taskId) public {\n        tasks[_taskId].status = TaskStatus.APPROVED_BY_PROJECT_MANAGER;\n        emit ChangeedTaskStatus(_taskId ,TaskStatus.APPROVED_BY_BUDGET_AND_PROCUREMENT_MANAGER, TaskStatus.APPROVED_BY_PROJECT_MANAGER, block.timestamp, msg.sender);\n    }\n\n    function externalAuditorApproveTaskCompletion(uint256 _taskId) public {\n         tasks[_taskId].status = TaskStatus.APPROVED_BY_EXTERNAL_AUDITOR;\n        emit ChangeedTaskStatus(_taskId ,TaskStatus.APPROVED_BY_PROJECT_MANAGER, TaskStatus.APPROVED_BY_EXTERNAL_AUDITOR, block.timestamp, msg.sender);\n    }\n\n    function deleteTask(uint256 _taskId) public {\n        delete tasks[_taskId];\n    }\n\n    function getTaskById(uint256 _taskId) public view returns(TaskInfo memory) {\n        return tasks[_taskId];\n    }\n\n    /*\n    As we cannot create dynamic array which we can push to, we should use this function to return the \n    length of tasks with a given project id.    \n    */\n    function getTasksCountByProjectId(uint256 _projectId) internal view returns(uint256 length) {\n        for (uint256 index = 0; index < count + 1; index++) {\n            if(tasks[index].projectId == _projectId) {\n                    length++;\n                }\n        }\n    }\n\n    /*\n    As we cannot create dynamic array which we can push to, we should use this function to return the \n    length of tasks with a given project id.    \n    */\n    function getTasksCountBySubProjectId(uint256 _subProjectId) internal view returns(uint256 length) {\n        for (uint256 index = 0; index < count + 1; index++) {\n            if(tasks[index].subProjectId == _subProjectId) {\n                    length++;\n                }\n        }\n    }\n    \n\n    /*\n    This function returns array of tasks that belong to one project\n    */\n    function getTasksListFromProjectId(uint256 _projectId) public view returns(TaskInfo[] memory) {\n        uint256 length = getTasksCountByProjectId(_projectId);\n        TaskInfo[] memory ft = new TaskInfo[](length);\n        uint256 counter = 0;\n        for (uint256 index = 1; index < count + 1; index++) {\n            if(tasks[index].projectId == _projectId) {\n                    ft[counter] = tasks[index];\n                    counter++;\n                }\n        }\n        return ft;\n    }\n\n    /*\n    This function returns array of tasks that belongs to one subproject\n    */\n    function getTasksListFromSubProjectId(uint256 _subProjectId) public view returns(TaskInfo[] memory) {\n        uint256 length = getTasksCountBySubProjectId(_subProjectId);\n        TaskInfo[] memory ft = new TaskInfo[](length);\n        uint256 counter = 0;\n        for (uint256 index = 1; index < count + 1; index++) {\n            if(tasks[index].subProjectId == _subProjectId) {\n                    ft[counter] = tasks[index];\n                    counter++;\n                }\n        }\n        return ft;\n    }\n\n    /*\n    Function to return status of completed and in progress tasks by project id\n    */\n    function getTaskStatusByProjectId(uint256 _projectId) public view returns(uint256 approved, uint256 unapproved) {\n        for (uint256 i = 1; i <= count; i++) {\n            if(tasks[i].status == TaskStatus.APPROVED_BY_PROJECT_MANAGER && tasks[i].projectId == _projectId) {\n                approved += 1;\n            }\n            else if(tasks[i].projectId == _projectId){\n                unapproved += 1;\n            }\n        }\n        return (approved, unapproved);\n    }\n\n    /*\n    Function to return status of completed and in progress tasks by sub-project id\n    */\n    function getTaskStatusBySubProjectId(uint256 _subProjectId) public view returns(uint256 approved, uint256 unapproved) {\n        for (uint256 i = 1; i <= count; i++) {\n            if(tasks[i].status == TaskStatus.APPROVED_BY_PROJECT_MANAGER && tasks[i].subProjectId == _subProjectId) {\n                approved += 1;\n            }\n            else if(tasks[i].projectId == _subProjectId){\n                unapproved += 1;\n            }\n        }\n        return (approved, unapproved);\n    }\n}\n",
  "sourcePath": "/home/jeremy/Desktop/fets_front_end/src/contracts/project_management/Task.sol",
  "compiler": {
    "name": "solc",
    "version": "0.8.9+commit.e5eed63a.Emscripten.clang"
  },
  "schemaVersion": "3.4.3",
  "updatedAt": "2022-05-28T15:42:33.440Z",
  "networkType": "ethereum",
  "devdoc": {
    "kind": "dev",
    "methods": {},
    "version": 1
  },
  "userdoc": {
    "kind": "user",
    "methods": {},
    "version": 1
  }
}