{
  "contractName": "Task",
  "abi": [
    {
      "anonymous": false,
      "inputs": [
        {
          "indexed": true,
          "internalType": "uint256",
          "name": "id",
          "type": "uint256"
        },
        {
          "indexed": true,
          "internalType": "string",
          "name": "name",
          "type": "string"
        },
        {
          "indexed": false,
          "internalType": "string",
          "name": "description",
          "type": "string"
        },
        {
          "indexed": true,
          "internalType": "uint256",
          "name": "projectId",
          "type": "uint256"
        },
        {
          "indexed": false,
          "internalType": "uint256",
          "name": "subProjectId",
          "type": "uint256"
        },
        {
          "indexed": false,
          "internalType": "uint256",
          "name": "estimatedDuration",
          "type": "uint256"
        },
        {
          "indexed": false,
          "internalType": "string",
          "name": "status",
          "type": "string"
        },
        {
          "indexed": false,
          "internalType": "uint256",
          "name": "allocatedBudget",
          "type": "uint256"
        }
      ],
      "name": "AddedTask",
      "type": "event"
    },
    {
      "anonymous": false,
      "inputs": [
        {
          "indexed": true,
          "internalType": "uint256",
          "name": "taskid",
          "type": "uint256"
        },
        {
          "indexed": false,
          "internalType": "enum Task.TaskStatus",
          "name": "from",
          "type": "uint8"
        },
        {
          "indexed": false,
          "internalType": "enum Task.TaskStatus",
          "name": "to",
          "type": "uint8"
        },
        {
          "indexed": true,
          "internalType": "uint256",
          "name": "date",
          "type": "uint256"
        },
        {
          "indexed": true,
          "internalType": "address",
          "name": "changedBy",
          "type": "address"
        }
      ],
      "name": "ChangeedTaskStatus",
      "type": "event"
    },
    {
      "inputs": [
        {
          "internalType": "string",
          "name": "name",
          "type": "string"
        },
        {
          "internalType": "string",
          "name": "description",
          "type": "string"
        },
        {
          "internalType": "uint256",
          "name": "projectId",
          "type": "uint256"
        },
        {
          "internalType": "uint256",
          "name": "subProjectId",
          "type": "uint256"
        },
        {
          "internalType": "uint256",
          "name": "estimatedDuration",
          "type": "uint256"
        },
        {
          "internalType": "string",
          "name": "status",
          "type": "string"
        },
        {
          "internalType": "uint256",
          "name": "allocatedBudget",
          "type": "uint256"
        }
      ],
      "name": "addTask",
      "outputs": [],
      "stateMutability": "nonpayable",
      "type": "function"
    },
    {
      "inputs": [
        {
          "internalType": "uint256",
          "name": "taskid",
          "type": "uint256"
        },
        {
          "internalType": "uint256",
          "name": "allocatedBudget",
          "type": "uint256"
        }
      ],
      "name": "financialManagerSubmitBudgetAllocation",
      "outputs": [],
      "stateMutability": "nonpayable",
      "type": "function"
    },
    {
      "inputs": [
        {
          "internalType": "uint256",
          "name": "_taskId",
          "type": "uint256"
        }
      ],
      "name": "budgetAndProcurementManagerApproveTaskCompletion",
      "outputs": [],
      "stateMutability": "nonpayable",
      "type": "function"
    },
    {
      "inputs": [
        {
          "internalType": "uint256",
          "name": "_taskId",
          "type": "uint256"
        }
      ],
      "name": "projectManagerApproveTaskCompletion",
      "outputs": [],
      "stateMutability": "nonpayable",
      "type": "function"
    },
    {
      "inputs": [
        {
          "internalType": "uint256",
          "name": "_taskId",
          "type": "uint256"
        }
      ],
      "name": "externalAuditorApproveTaskCompletion",
      "outputs": [],
      "stateMutability": "nonpayable",
      "type": "function"
    },
    {
      "inputs": [
        {
          "internalType": "uint256",
          "name": "_taskId",
          "type": "uint256"
        }
      ],
      "name": "deleteTask",
      "outputs": [],
      "stateMutability": "nonpayable",
      "type": "function"
    },
    {
      "inputs": [
        {
          "internalType": "uint256",
          "name": "_taskId",
          "type": "uint256"
        }
      ],
      "name": "getTaskById",
      "outputs": [
        {
          "components": [
            {
              "internalType": "uint256",
              "name": "id",
              "type": "uint256"
            },
            {
              "internalType": "string",
              "name": "name",
              "type": "string"
            },
            {
              "internalType": "string",
              "name": "description",
              "type": "string"
            },
            {
              "internalType": "uint256",
              "name": "projectId",
              "type": "uint256"
            },
            {
              "internalType": "uint256",
              "name": "subProjectId",
              "type": "uint256"
            },
            {
              "internalType": "uint256",
              "name": "estimatedDuration",
              "type": "uint256"
            },
            {
              "internalType": "enum Task.TaskStatus",
              "name": "status",
              "type": "uint8"
            },
            {
              "internalType": "uint256",
              "name": "allocatedBudget",
              "type": "uint256"
            },
            {
              "internalType": "string",
              "name": "remark",
              "type": "string"
            }
          ],
          "internalType": "struct Task.TaskInfo",
          "name": "",
          "type": "tuple"
        }
      ],
      "stateMutability": "view",
      "type": "function",
      "constant": true
    },
    {
      "inputs": [
        {
          "internalType": "uint256",
          "name": "_projectId",
          "type": "uint256"
        }
      ],
      "name": "getTasksListFromProjectId",
      "outputs": [
        {
          "components": [
            {
              "internalType": "uint256",
              "name": "id",
              "type": "uint256"
            },
            {
              "internalType": "string",
              "name": "name",
              "type": "string"
            },
            {
              "internalType": "string",
              "name": "description",
              "type": "string"
            },
            {
              "internalType": "uint256",
              "name": "projectId",
              "type": "uint256"
            },
            {
              "internalType": "uint256",
              "name": "subProjectId",
              "type": "uint256"
            },
            {
              "internalType": "uint256",
              "name": "estimatedDuration",
              "type": "uint256"
            },
            {
              "internalType": "enum Task.TaskStatus",
              "name": "status",
              "type": "uint8"
            },
            {
              "internalType": "uint256",
              "name": "allocatedBudget",
              "type": "uint256"
            },
            {
              "internalType": "string",
              "name": "remark",
              "type": "string"
            }
          ],
          "internalType": "struct Task.TaskInfo[]",
          "name": "",
          "type": "tuple[]"
        }
      ],
      "stateMutability": "view",
      "type": "function",
      "constant": true
    },
    {
      "inputs": [
        {
          "internalType": "uint256",
          "name": "_subProjectId",
          "type": "uint256"
        }
      ],
      "name": "getTasksListFromSubProjectId",
      "outputs": [
        {
          "components": [
            {
              "internalType": "uint256",
              "name": "id",
              "type": "uint256"
            },
            {
              "internalType": "string",
              "name": "name",
              "type": "string"
            },
            {
              "internalType": "string",
              "name": "description",
              "type": "string"
            },
            {
              "internalType": "uint256",
              "name": "projectId",
              "type": "uint256"
            },
            {
              "internalType": "uint256",
              "name": "subProjectId",
              "type": "uint256"
            },
            {
              "internalType": "uint256",
              "name": "estimatedDuration",
              "type": "uint256"
            },
            {
              "internalType": "enum Task.TaskStatus",
              "name": "status",
              "type": "uint8"
            },
            {
              "internalType": "uint256",
              "name": "allocatedBudget",
              "type": "uint256"
            },
            {
              "internalType": "string",
              "name": "remark",
              "type": "string"
            }
          ],
          "internalType": "struct Task.TaskInfo[]",
          "name": "",
          "type": "tuple[]"
        }
      ],
      "stateMutability": "view",
      "type": "function",
      "constant": true
    },
    {
      "inputs": [
        {
          "internalType": "uint256",
          "name": "_projectId",
          "type": "uint256"
        }
      ],
      "name": "getTaskStatusByProjectId",
      "outputs": [
        {
          "internalType": "uint256",
          "name": "approved",
          "type": "uint256"
        },
        {
          "internalType": "uint256",
          "name": "unapproved",
          "type": "uint256"
        }
      ],
      "stateMutability": "view",
      "type": "function",
      "constant": true
    }
  ],
  "bytecode": "0x608060405234801561001057600080fd5b50611bfe806100206000396000f3fe608060405234801561001057600080fd5b506004361061009e5760003560e01c8063976217cd11610066578063976217cd14610143578063a83243da14610173578063c50c58cd146101a3578063c6086e84146101d4578063f521bfde146101f05761009e565b80633f699b71146100a3578063533d0bf7146100bf578063560f3192146100db5780635ea62f56146100f75780638c1d4efa14610127575b600080fd5b6100bd60048036038101906100b89190611299565b61020c565b005b6100d960048036038101906100d4919061140c565b6102a2565b005b6100f560048036038101906100f09190611299565b610451565b005b610111600480360381019061010c9190611299565b6104d6565b60405161011e91906117a5565b60405180910390f35b610141600480360381019061013c9190611299565b610807565b005b61015d60048036038101906101589190611299565b61089d565b60405161016a919061189a565b60405180910390f35b61018d60048036038101906101889190611299565b610aee565b60405161019a91906117a5565b60405180910390f35b6101bd60048036038101906101b89190611299565b610e1f565b6040516101cb9291906118cb565b60405180910390f35b6101ee60048036038101906101e99190611299565b610eff565b005b61020a600480360381019061020591906118f4565b610f95565b005b60046001600083815260200190815260200160002060060160006101000a81548160ff02191690836007811115610246576102456115c5565b5b02179055503373ffffffffffffffffffffffffffffffffffffffff1642827f42ca22b58274c0d3dce198b7a71dea299d40e7d46bcd2e854c1578e93b4e249a60036004604051610297929190611943565b60405180910390a450565b6000808154809291906102b49061199b565b91905055506040518061012001604052806000548152602001888152602001878152602001868152602001858152602001848152602001600060078111156102ff576102fe6115c5565b5b81526020016000815260200160405180602001604052806000815250815250600160008054815260200190815260200160002060008201518160000155602082015181600101908051906020019061035892919061110e565b50604082015181600201908051906020019061037592919061110e565b50606082015181600301556080820151816004015560a0820151816005015560c08201518160060160006101000a81548160ff021916908360078111156103bf576103be6115c5565b5b021790555060e082015181600701556101008201518160080190805190602001906103eb92919061110e565b5090505084876040516103fe9190611a20565b60405180910390206000547f92b7a93e34714897aaca03146a929a0bf64bbcbb2c4271b85a87c0b4a464edd58988888888604051610440959493929190611a81565b60405180910390a450505050505050565b6001600082815260200190815260200160002060008082016000905560018201600061047d9190611194565b60028201600061048d9190611194565b6003820160009055600482016000905560058201600090556006820160006101000a81549060ff021916905560078201600090556008820160006104d19190611194565b505050565b606060006104e383611046565b905060008167ffffffffffffffff811115610501576105006112e1565b5b60405190808252806020026020018201604052801561053a57816020015b6105276111d4565b81526020019060019003908161051f5790505b509050600080600190505b60016000546105549190611ae2565b8110156107fb5785600160008381526020019081526020016000206004015414156107e8576001600082815260200190815260200160002060405180610120016040529081600082015481526020016001820180546105b290611b67565b80601f01602080910402602001604051908101604052809291908181526020018280546105de90611b67565b801561062b5780601f106106005761010080835404028352916020019161062b565b820191906000526020600020905b81548152906001019060200180831161060e57829003601f168201915b5050505050815260200160028201805461064490611b67565b80601f016020809104026020016040519081016040528092919081815260200182805461067090611b67565b80156106bd5780601f10610692576101008083540402835291602001916106bd565b820191906000526020600020905b8154815290600101906020018083116106a057829003601f168201915b505050505081526020016003820154815260200160048201548152602001600582015481526020016006820160009054906101000a900460ff166007811115610709576107086115c5565b5b600781111561071b5761071a6115c5565b5b81526020016007820154815260200160088201805461073990611b67565b80601f016020809104026020016040519081016040528092919081815260200182805461076590611b67565b80156107b25780601f10610787576101008083540402835291602001916107b2565b820191906000526020600020905b81548152906001019060200180831161079557829003601f168201915b5050505050815250508383815181106107ce576107cd611b99565b5b602002602001018190525081806107e49061199b565b9250505b80806107f39061199b565b915050610545565b50819350505050919050565b60026001600083815260200190815260200160002060060160006101000a81548160ff02191690836007811115610841576108406115c5565b5b02179055503373ffffffffffffffffffffffffffffffffffffffff1642827f42ca22b58274c0d3dce198b7a71dea299d40e7d46bcd2e854c1578e93b4e249a60016002604051610892929190611943565b60405180910390a450565b6108a56111d4565b6001600083815260200190815260200160002060405180610120016040529081600082015481526020016001820180546108de90611b67565b80601f016020809104026020016040519081016040528092919081815260200182805461090a90611b67565b80156109575780601f1061092c57610100808354040283529160200191610957565b820191906000526020600020905b81548152906001019060200180831161093a57829003601f168201915b5050505050815260200160028201805461097090611b67565b80601f016020809104026020016040519081016040528092919081815260200182805461099c90611b67565b80156109e95780601f106109be576101008083540402835291602001916109e9565b820191906000526020600020905b8154815290600101906020018083116109cc57829003601f168201915b505050505081526020016003820154815260200160048201548152602001600582015481526020016006820160009054906101000a900460ff166007811115610a3557610a346115c5565b5b6007811115610a4757610a466115c5565b5b815260200160078201548152602001600882018054610a6590611b67565b80601f0160208091040260200160405190810160405280929190818152602001828054610a9190611b67565b8015610ade5780601f10610ab357610100808354040283529160200191610ade565b820191906000526020600020905b815481529060010190602001808311610ac157829003601f168201915b5050505050815250509050919050565b60606000610afb836110aa565b905060008167ffffffffffffffff811115610b1957610b186112e1565b5b604051908082528060200260200182016040528015610b5257816020015b610b3f6111d4565b815260200190600190039081610b375790505b509050600080600190505b6001600054610b6c9190611ae2565b811015610e13578560016000838152602001908152602001600020600301541415610e0057600160008281526020019081526020016000206040518061012001604052908160008201548152602001600182018054610bca90611b67565b80601f0160208091040260200160405190810160405280929190818152602001828054610bf690611b67565b8015610c435780601f10610c1857610100808354040283529160200191610c43565b820191906000526020600020905b815481529060010190602001808311610c2657829003601f168201915b50505050508152602001600282018054610c5c90611b67565b80601f0160208091040260200160405190810160405280929190818152602001828054610c8890611b67565b8015610cd55780601f10610caa57610100808354040283529160200191610cd5565b820191906000526020600020905b815481529060010190602001808311610cb857829003601f168201915b505050505081526020016003820154815260200160048201548152602001600582015481526020016006820160009054906101000a900460ff166007811115610d2157610d206115c5565b5b6007811115610d3357610d326115c5565b5b815260200160078201548152602001600882018054610d5190611b67565b80601f0160208091040260200160405190810160405280929190818152602001828054610d7d90611b67565b8015610dca5780601f10610d9f57610100808354040283529160200191610dca565b820191906000526020600020905b815481529060010190602001808311610dad57829003601f168201915b505050505081525050838381518110610de657610de5611b99565b5b60200260200101819052508180610dfc9061199b565b9250505b8080610e0b9061199b565b915050610b5d565b50819350505050919050565b6000806000600190505b6000548111610ef95760036007811115610e4657610e456115c5565b5b6001600083815260200190815260200160002060060160009054906101000a900460ff166007811115610e7c57610e7b6115c5565b5b148015610e9e5750836001600083815260200190815260200160002060030154145b15610eb757600183610eb09190611ae2565b9250610ee6565b8360016000838152602001908152602001600020600301541415610ee557600182610ee29190611ae2565b91505b5b8080610ef19061199b565b915050610e29565b50915091565b60036001600083815260200190815260200160002060060160006101000a81548160ff02191690836007811115610f3957610f386115c5565b5b02179055503373ffffffffffffffffffffffffffffffffffffffff1642827f42ca22b58274c0d3dce198b7a71dea299d40e7d46bcd2e854c1578e93b4e249a60026003604051610f8a929190611943565b60405180910390a450565b806001600084815260200190815260200160002060070181905550600180600084815260200190815260200160002060060160006101000a81548160ff02191690836007811115610fe957610fe86115c5565b5b02179055503373ffffffffffffffffffffffffffffffffffffffff1642837f42ca22b58274c0d3dce198b7a71dea299d40e7d46bcd2e854c1578e93b4e249a6000600160405161103a929190611943565b60405180910390a45050565b600080600090505b600160005461105d9190611ae2565b8110156110a457826001600083815260200190815260200160002060040154141561109157818061108d9061199b565b9250505b808061109c9061199b565b91505061104e565b50919050565b600080600090505b60016000546110c19190611ae2565b8110156111085782600160008381526020019081526020016000206003015414156110f55781806110f19061199b565b9250505b80806111009061199b565b9150506110b2565b50919050565b82805461111a90611b67565b90600052602060002090601f01602090048101928261113c5760008555611183565b82601f1061115557805160ff1916838001178555611183565b82800160010185558215611183579182015b82811115611182578251825591602001919060010190611167565b5b5090506111909190611232565b5090565b5080546111a090611b67565b6000825580601f106111b257506111d1565b601f0160209004906000526020600020908101906111d09190611232565b5b50565b6040518061012001604052806000815260200160608152602001606081526020016000815260200160008152602001600081526020016000600781111561121e5761121d6115c5565b5b815260200160008152602001606081525090565b5b8082111561124b576000816000905550600101611233565b5090565b6000604051905090565b600080fd5b600080fd5b6000819050919050565b61127681611263565b811461128157600080fd5b50565b6000813590506112938161126d565b92915050565b6000602082840312156112af576112ae611259565b5b60006112bd84828501611284565b91505092915050565b600080fd5b600080fd5b6000601f19601f8301169050919050565b7f4e487b7100000000000000000000000000000000000000000000000000000000600052604160045260246000fd5b611319826112d0565b810181811067ffffffffffffffff82111715611338576113376112e1565b5b80604052505050565b600061134b61124f565b90506113578282611310565b919050565b600067ffffffffffffffff821115611377576113766112e1565b5b611380826112d0565b9050602081019050919050565b82818337600083830152505050565b60006113af6113aa8461135c565b611341565b9050828152602081018484840111156113cb576113ca6112cb565b5b6113d684828561138d565b509392505050565b600082601f8301126113f3576113f26112c6565b5b813561140384826020860161139c565b91505092915050565b600080600080600080600060e0888a03121561142b5761142a611259565b5b600088013567ffffffffffffffff8111156114495761144861125e565b5b6114558a828b016113de565b975050602088013567ffffffffffffffff8111156114765761147561125e565b5b6114828a828b016113de565b96505060406114938a828b01611284565b95505060606114a48a828b01611284565b94505060806114b58a828b01611284565b93505060a088013567ffffffffffffffff8111156114d6576114d561125e565b5b6114e28a828b016113de565b92505060c06114f38a828b01611284565b91505092959891949750929550565b600081519050919050565b600082825260208201905092915050565b6000819050602082019050919050565b61153781611263565b82525050565b600081519050919050565b600082825260208201905092915050565b60005b8381101561157757808201518184015260208101905061155c565b83811115611586576000848401525b50505050565b60006115978261153d565b6115a18185611548565b93506115b1818560208601611559565b6115ba816112d0565b840191505092915050565b7f4e487b7100000000000000000000000000000000000000000000000000000000600052602160045260246000fd5b60088110611605576116046115c5565b5b50565b6000819050611616826115f4565b919050565b600061162682611608565b9050919050565b6116368161161b565b82525050565b600061012083016000830151611655600086018261152e565b506020830151848203602086015261166d828261158c565b91505060408301518482036040860152611687828261158c565b915050606083015161169c606086018261152e565b5060808301516116af608086018261152e565b5060a08301516116c260a086018261152e565b5060c08301516116d560c086018261162d565b5060e08301516116e860e086018261152e565b50610100830151848203610100860152611702828261158c565b9150508091505092915050565b600061171b838361163c565b905092915050565b6000602082019050919050565b600061173b82611502565b611745818561150d565b9350836020820285016117578561151e565b8060005b858110156117935784840389528151611774858261170f565b945061177f83611723565b925060208a0199505060018101905061175b565b50829750879550505050505092915050565b600060208201905081810360008301526117bf8184611730565b905092915050565b6000610120830160008301516117e0600086018261152e565b50602083015184820360208601526117f8828261158c565b91505060408301518482036040860152611812828261158c565b9150506060830151611827606086018261152e565b50608083015161183a608086018261152e565b5060a083015161184d60a086018261152e565b5060c083015161186060c086018261162d565b5060e083015161187360e086018261152e565b5061010083015184820361010086015261188d828261158c565b9150508091505092915050565b600060208201905081810360008301526118b481846117c7565b905092915050565b6118c581611263565b82525050565b60006040820190506118e060008301856118bc565b6118ed60208301846118bc565b9392505050565b6000806040838503121561190b5761190a611259565b5b600061191985828601611284565b925050602061192a85828601611284565b9150509250929050565b61193d8161161b565b82525050565b60006040820190506119586000830185611934565b6119656020830184611934565b9392505050565b7f4e487b7100000000000000000000000000000000000000000000000000000000600052601160045260246000fd5b60006119a682611263565b91507fffffffffffffffffffffffffffffffffffffffffffffffffffffffffffffffff8214156119d9576119d861196c565b5b600182019050919050565b600081905092915050565b60006119fa8261153d565b611a0481856119e4565b9350611a14818560208601611559565b80840191505092915050565b6000611a2c82846119ef565b915081905092915050565b600082825260208201905092915050565b6000611a538261153d565b611a5d8185611a37565b9350611a6d818560208601611559565b611a76816112d0565b840191505092915050565b600060a0820190508181036000830152611a9b8188611a48565b9050611aaa60208301876118bc565b611ab760408301866118bc565b8181036060830152611ac98185611a48565b9050611ad860808301846118bc565b9695505050505050565b6000611aed82611263565b9150611af883611263565b9250827fffffffffffffffffffffffffffffffffffffffffffffffffffffffffffffffff03821115611b2d57611b2c61196c565b5b828201905092915050565b7f4e487b7100000000000000000000000000000000000000000000000000000000600052602260045260246000fd5b60006002820490506001821680611b7f57607f821691505b60208210811415611b9357611b92611b38565b5b50919050565b7f4e487b7100000000000000000000000000000000000000000000000000000000600052603260045260246000fdfea2646970667358221220a28c9df00759f7ea4e0e5f96b8b2b97824fe0acec2ff6a0245469c7476cd33d564736f6c63430008090033",
  "immutableReferences": {},
  "source": "// SPDX-License-Identifier: MIT\n\npragma solidity ^0.8;\n\ncontract Task {\n    uint256 private count;\n\n    enum TaskStatus {\n        CREATED,\n        ALLOCATED_BY_FINANCIAL_MANAGER,\n\n        APPROVED_BY_BUDGET_AND_PROCUREMENT_MANAGER,\n        APPROVED_BY_PROJECT_MANAGER,\n        APPROVED_BY_EXTERNAL_AUDITOR,\n\n        REJECTED_BY_BUDGET_AND_PROCUREMENT_MANAGER,\n        REJECTED_BY_PROJECT_MANAGER,\n        REJECTED_BY_EXTERNAL_AUDITOR\n    }\n\n    struct TaskInfo {\n        uint256 id;\n        string name;\n        string description;\n        uint256 projectId;\n        uint256 subProjectId;\n        uint256 estimatedDuration;\n        TaskStatus status;\n        uint256 allocatedBudget;\n        string remark;\n    }\n\n    mapping(uint256 => TaskInfo) private tasks;\n\n    event AddedTask(\n        uint256 indexed id,\n        string indexed name,\n        string description,\n        uint256 indexed projectId,\n        uint256 subProjectId,\n        uint256 estimatedDuration,\n        string status,\n        uint256 allocatedBudget\n    );\n\n    event ChangeedTaskStatus(\n        uint256 indexed taskid,\n        TaskStatus from,\n        TaskStatus to,\n        uint256 indexed date,\n        address indexed changedBy\n    );\n\n    modifier statusIs(TaskInfo memory status, uint256 id) {\n        require(tasks[id].status == TaskStatus.CREATED);\n        _;\n    }\n\n    /*\n    Function to add new task to the BC providing all useful info.\n    */\n    function addTask(\n        string memory name,\n        string memory description,\n        uint256 projectId,\n        uint256 subProjectId,\n        uint256 estimatedDuration,\n        string memory status,\n        uint256 allocatedBudget\n    ) public {\n        count++;\n        tasks[count] = TaskInfo(\n            count,\n            name,\n            description,\n            projectId,\n            subProjectId,\n            estimatedDuration,\n            TaskStatus.CREATED,\n            0,\n            ''\n        );\n        \n        emit AddedTask(\n            count,\n            name,\n            description,\n            projectId,\n            subProjectId,\n            estimatedDuration,\n            status,\n            allocatedBudget\n        );\n    }\n\n    //TODO add modifier to check whether the sender is financial manager of a specific project\n    //TODO add modifier to check wheather the money is valid or not\n    function financialManagerSubmitBudgetAllocation(\n        uint256 taskid,\n        uint256 allocatedBudget\n    ) public {\n        tasks[taskid].allocatedBudget = allocatedBudget;\n        tasks[taskid].status = TaskStatus.ALLOCATED_BY_FINANCIAL_MANAGER;\n        emit ChangeedTaskStatus(taskid ,TaskStatus.CREATED, TaskStatus.ALLOCATED_BY_FINANCIAL_MANAGER, block.timestamp, msg.sender);\n    }\n\n    function budgetAndProcurementManagerApproveTaskCompletion(uint256 _taskId)\n        public\n    {\n        tasks[_taskId].status = TaskStatus.APPROVED_BY_BUDGET_AND_PROCUREMENT_MANAGER;\n        emit ChangeedTaskStatus(_taskId ,TaskStatus.ALLOCATED_BY_FINANCIAL_MANAGER, TaskStatus.APPROVED_BY_BUDGET_AND_PROCUREMENT_MANAGER, block.timestamp, msg.sender);\n    }\n\n    function projectManagerApproveTaskCompletion(uint256 _taskId) public {\n        tasks[_taskId].status = TaskStatus.APPROVED_BY_PROJECT_MANAGER;\n        emit ChangeedTaskStatus(_taskId ,TaskStatus.APPROVED_BY_BUDGET_AND_PROCUREMENT_MANAGER, TaskStatus.APPROVED_BY_PROJECT_MANAGER, block.timestamp, msg.sender);\n    }\n\n    function externalAuditorApproveTaskCompletion(uint256 _taskId) public {\n         tasks[_taskId].status = TaskStatus.APPROVED_BY_EXTERNAL_AUDITOR;\n        emit ChangeedTaskStatus(_taskId ,TaskStatus.APPROVED_BY_PROJECT_MANAGER, TaskStatus.APPROVED_BY_EXTERNAL_AUDITOR, block.timestamp, msg.sender);\n    }\n\n    function deleteTask(uint256 _taskId) public {\n        delete tasks[_taskId];\n    }\n\n    function getTaskById(uint256 _taskId) public view returns(TaskInfo memory) {\n        return tasks[_taskId];\n    }\n\n    /*\n    As we cannot create dynamic array which we can push to, we should use this function to return the \n    length of tasks with a given project id.    \n    */\n    function getTasksCountByProjectId(uint256 _projectId) internal view returns(uint256 length) {\n        for (uint256 index = 0; index < count + 1; index++) {\n            if(tasks[index].projectId == _projectId) {\n                    length++;\n                }\n        }\n    }\n\n    /*\n    As we cannot create dynamic array which we can push to, we should use this function to return the \n    length of tasks with a given project id.    \n    */\n    function getTasksCountBySubProjectId(uint256 _subProjectId) internal view returns(uint256 length) {\n        for (uint256 index = 0; index < count + 1; index++) {\n            if(tasks[index].subProjectId == _subProjectId) {\n                    length++;\n                }\n        }\n    }\n    \n\n    /*\n    This function returns array of tasks that belong to one project\n    */\n    function getTasksListFromProjectId(uint256 _projectId) public view returns(TaskInfo[] memory) {\n        uint256 length = getTasksCountByProjectId(_projectId);\n        TaskInfo[] memory ft = new TaskInfo[](length);\n        uint256 counter = 0;\n        for (uint256 index = 1; index < count + 1; index++) {\n            if(tasks[index].projectId == _projectId) {\n                    ft[counter] = tasks[index];\n                    counter++;\n                }\n        }\n        return ft;\n    }\n\n    /*\n    This function returns array of tasks that belongs to one subproject\n    */\n    function getTasksListFromSubProjectId(uint256 _subProjectId) public view returns(TaskInfo[] memory) {\n        uint256 length = getTasksCountBySubProjectId(_subProjectId);\n        TaskInfo[] memory ft = new TaskInfo[](length);\n        uint256 counter = 0;\n        for (uint256 index = 1; index < count + 1; index++) {\n            if(tasks[index].subProjectId == _subProjectId) {\n                    ft[counter] = tasks[index];\n                    counter++;\n                }\n        }\n        return ft;\n    }\n\n    //TODO - getApproved and unapproved tasks\n    function getTaskStatusByProjectId(uint256 _projectId) public view returns(uint256 approved, uint256 unapproved) {\n        for (uint256 i = 1; i <= count; i++) {\n            if(tasks[i].status == TaskStatus.APPROVED_BY_PROJECT_MANAGER && tasks[i].projectId == _projectId) {\n                approved += 1;\n            }\n            else if(tasks[i].projectId == _projectId){\n                unapproved += 1;\n            }\n        }\n        return (approved, unapproved);\n    }\n}\n",
  "sourcePath": "/home/jeremy/Desktop/fets_front_end/src/contracts/project_management/Task.sol",
  "compiler": {
    "name": "solc",
    "version": "0.8.9+commit.e5eed63a.Emscripten.clang"
  },
  "schemaVersion": "3.4.3",
  "updatedAt": "2022-05-28T06:12:08.769Z",
  "networkType": "ethereum",
  "devdoc": {
    "kind": "dev",
    "methods": {},
    "version": 1
  },
  "userdoc": {
    "kind": "user",
    "methods": {},
    "version": 1
  }
}