{
  "contractName": "Task",
  "abi": [
    {
      "anonymous": false,
      "inputs": [
        {
          "indexed": true,
          "internalType": "uint256",
          "name": "id",
          "type": "uint256"
        },
        {
          "indexed": true,
          "internalType": "string",
          "name": "name",
          "type": "string"
        },
        {
          "indexed": false,
          "internalType": "string",
          "name": "description",
          "type": "string"
        },
        {
          "indexed": true,
          "internalType": "uint256",
          "name": "projectId",
          "type": "uint256"
        },
        {
          "indexed": false,
          "internalType": "uint256",
          "name": "subProjectId",
          "type": "uint256"
        },
        {
          "indexed": false,
          "internalType": "uint256",
          "name": "estimatedDuration",
          "type": "uint256"
        },
        {
          "indexed": false,
          "internalType": "string",
          "name": "status",
          "type": "string"
        },
        {
          "indexed": false,
          "internalType": "uint256",
          "name": "allocatedBudget",
          "type": "uint256"
        }
      ],
      "name": "AddedTask",
      "type": "event"
    },
    {
      "anonymous": false,
      "inputs": [
        {
          "indexed": true,
          "internalType": "uint256",
          "name": "taskid",
          "type": "uint256"
        },
        {
          "indexed": false,
          "internalType": "enum Task.TaskStatus",
          "name": "from",
          "type": "uint8"
        },
        {
          "indexed": false,
          "internalType": "enum Task.TaskStatus",
          "name": "to",
          "type": "uint8"
        },
        {
          "indexed": true,
          "internalType": "uint256",
          "name": "date",
          "type": "uint256"
        },
        {
          "indexed": true,
          "internalType": "address",
          "name": "changedBy",
          "type": "address"
        }
      ],
      "name": "ChangeedTaskStatus",
      "type": "event"
    },
    {
      "inputs": [
        {
          "internalType": "uint256",
          "name": "",
          "type": "uint256"
        }
      ],
      "name": "tasks",
      "outputs": [
        {
          "internalType": "uint256",
          "name": "id",
          "type": "uint256"
        },
        {
          "internalType": "string",
          "name": "name",
          "type": "string"
        },
        {
          "internalType": "string",
          "name": "description",
          "type": "string"
        },
        {
          "internalType": "uint256",
          "name": "projectId",
          "type": "uint256"
        },
        {
          "internalType": "uint256",
          "name": "subProjectId",
          "type": "uint256"
        },
        {
          "internalType": "uint256",
          "name": "estimatedDuration",
          "type": "uint256"
        },
        {
          "internalType": "enum Task.TaskStatus",
          "name": "status",
          "type": "uint8"
        },
        {
          "internalType": "uint256",
          "name": "allocatedBudget",
          "type": "uint256"
        },
        {
          "internalType": "string",
          "name": "remark",
          "type": "string"
        }
      ],
      "stateMutability": "view",
      "type": "function"
    },
    {
      "inputs": [
        {
          "internalType": "string",
          "name": "name",
          "type": "string"
        },
        {
          "internalType": "string",
          "name": "description",
          "type": "string"
        },
        {
          "internalType": "uint256",
          "name": "projectId",
          "type": "uint256"
        },
        {
          "internalType": "uint256",
          "name": "subProjectId",
          "type": "uint256"
        },
        {
          "internalType": "uint256",
          "name": "estimatedDuration",
          "type": "uint256"
        },
        {
          "internalType": "string",
          "name": "status",
          "type": "string"
        },
        {
          "internalType": "uint256",
          "name": "allocatedBudget",
          "type": "uint256"
        }
      ],
      "name": "addTask",
      "outputs": [],
      "stateMutability": "nonpayable",
      "type": "function"
    },
    {
      "inputs": [
        {
          "internalType": "uint256",
          "name": "taskid",
          "type": "uint256"
        },
        {
          "internalType": "uint256",
          "name": "allocatedBudget",
          "type": "uint256"
        }
      ],
      "name": "financialManagerSubmitBudgetAllocation",
      "outputs": [],
      "stateMutability": "nonpayable",
      "type": "function"
    },
    {
      "inputs": [
        {
          "internalType": "uint256",
          "name": "taskid",
          "type": "uint256"
        }
      ],
      "name": "budgetAndProcurementManagerApproveTaskCompletion",
      "outputs": [],
      "stateMutability": "nonpayable",
      "type": "function"
    },
    {
      "inputs": [
        {
          "internalType": "uint256",
          "name": "taskid",
          "type": "uint256"
        }
      ],
      "name": "projectManagerApproveTaskCompletion",
      "outputs": [],
      "stateMutability": "nonpayable",
      "type": "function"
    },
    {
      "inputs": [
        {
          "internalType": "uint256",
          "name": "taskid",
          "type": "uint256"
        }
      ],
      "name": "externalAuditorApproveTaskCompletion",
      "outputs": [],
      "stateMutability": "nonpayable",
      "type": "function"
    },
    {
      "inputs": [
        {
          "internalType": "uint256",
          "name": "id",
          "type": "uint256"
        }
      ],
      "name": "deleteTask",
      "outputs": [],
      "stateMutability": "nonpayable",
      "type": "function"
    }
  ],
  "bytecode": "0x608060405234801561001057600080fd5b50610e43806100206000396000f3fe608060405234801561001057600080fd5b506004361061007d5760003560e01c80638c1d4efa1161005b5780638c1d4efa146100d65780638d977672146100f2578063c6086e841461012a578063f521bfde146101465761007d565b80633f699b7114610082578063533d0bf71461009e578063560f3192146100ba575b600080fd5b61009c600480360381019061009791906107fe565b610162565b005b6100b860048036038101906100b39190610971565b610165565b005b6100d460048036038101906100cf91906107fe565b61030f565b005b6100f060048036038101906100eb91906107fe565b610394565b005b61010c600480360381019061010791906107fe565b61042a565b60405161012199989796959493929190610b75565b60405180910390f35b610144600480360381019061013f91906107fe565b61061d565b005b610160600480360381019061015b9190610c17565b610620565b005b50565b6040518061012001604052806000548152602001888152602001878152602001868152602001858152602001848152602001600060078111156101ab576101aa610afe565b5b815260200160008152602001604051806020016040528060008152508152506001600080600081546101dc90610c86565b91905081905581526020019081526020016000206000820151816000015560208201518160010190805190602001906102169291906106d1565b5060408201518160020190805190602001906102339291906106d1565b50606082015181600301556080820151816004015560a0820151816005015560c08201518160060160006101000a81548160ff0219169083600781111561027d5761027c610afe565b5b021790555060e082015181600701556101008201518160080190805190602001906102a99291906106d1565b5090505084876040516102bc9190610d0b565b60405180910390206000547f92b7a93e34714897aaca03146a929a0bf64bbcbb2c4271b85a87c0b4a464edd589888888886040516102fe959493929190610d22565b60405180910390a450505050505050565b6001600082815260200190815260200160002060008082016000905560018201600061033b9190610757565b60028201600061034b9190610757565b6003820160009055600482016000905560058201600090556006820160006101000a81549060ff0219169055600782016000905560088201600061038f9190610757565b505050565b60026001600083815260200190815260200160002060060160006101000a81548160ff021916908360078111156103ce576103cd610afe565b5b02179055503373ffffffffffffffffffffffffffffffffffffffff1642827f42ca22b58274c0d3dce198b7a71dea299d40e7d46bcd2e854c1578e93b4e249a6000600160405161041f929190610d83565b60405180910390a450565b600160205280600052604060002060009150905080600001549080600101805461045390610ddb565b80601f016020809104026020016040519081016040528092919081815260200182805461047f90610ddb565b80156104cc5780601f106104a1576101008083540402835291602001916104cc565b820191906000526020600020905b8154815290600101906020018083116104af57829003601f168201915b5050505050908060020180546104e190610ddb565b80601f016020809104026020016040519081016040528092919081815260200182805461050d90610ddb565b801561055a5780601f1061052f5761010080835404028352916020019161055a565b820191906000526020600020905b81548152906001019060200180831161053d57829003601f168201915b5050505050908060030154908060040154908060050154908060060160009054906101000a900460ff169080600701549080600801805461059a90610ddb565b80601f01602080910402602001604051908101604052809291908181526020018280546105c690610ddb565b80156106135780601f106105e857610100808354040283529160200191610613565b820191906000526020600020905b8154815290600101906020018083116105f657829003601f168201915b5050505050905089565b50565b806001600084815260200190815260200160002060070181905550600180600084815260200190815260200160002060060160006101000a81548160ff0219169083600781111561067457610673610afe565b5b02179055503373ffffffffffffffffffffffffffffffffffffffff1642837f42ca22b58274c0d3dce198b7a71dea299d40e7d46bcd2e854c1578e93b4e249a600060016040516106c5929190610d83565b60405180910390a45050565b8280546106dd90610ddb565b90600052602060002090601f0160209004810192826106ff5760008555610746565b82601f1061071857805160ff1916838001178555610746565b82800160010185558215610746579182015b8281111561074557825182559160200191906001019061072a565b5b5090506107539190610797565b5090565b50805461076390610ddb565b6000825580601f106107755750610794565b601f0160209004906000526020600020908101906107939190610797565b5b50565b5b808211156107b0576000816000905550600101610798565b5090565b6000604051905090565b600080fd5b600080fd5b6000819050919050565b6107db816107c8565b81146107e657600080fd5b50565b6000813590506107f8816107d2565b92915050565b600060208284031215610814576108136107be565b5b6000610822848285016107e9565b91505092915050565b600080fd5b600080fd5b6000601f19601f8301169050919050565b7f4e487b7100000000000000000000000000000000000000000000000000000000600052604160045260246000fd5b61087e82610835565b810181811067ffffffffffffffff8211171561089d5761089c610846565b5b80604052505050565b60006108b06107b4565b90506108bc8282610875565b919050565b600067ffffffffffffffff8211156108dc576108db610846565b5b6108e582610835565b9050602081019050919050565b82818337600083830152505050565b600061091461090f846108c1565b6108a6565b9050828152602081018484840111156109305761092f610830565b5b61093b8482856108f2565b509392505050565b600082601f8301126109585761095761082b565b5b8135610968848260208601610901565b91505092915050565b600080600080600080600060e0888a0312156109905761098f6107be565b5b600088013567ffffffffffffffff8111156109ae576109ad6107c3565b5b6109ba8a828b01610943565b975050602088013567ffffffffffffffff8111156109db576109da6107c3565b5b6109e78a828b01610943565b96505060406109f88a828b016107e9565b9550506060610a098a828b016107e9565b9450506080610a1a8a828b016107e9565b93505060a088013567ffffffffffffffff811115610a3b57610a3a6107c3565b5b610a478a828b01610943565b92505060c0610a588a828b016107e9565b91505092959891949750929550565b610a70816107c8565b82525050565b600081519050919050565b600082825260208201905092915050565b60005b83811015610ab0578082015181840152602081019050610a95565b83811115610abf576000848401525b50505050565b6000610ad082610a76565b610ada8185610a81565b9350610aea818560208601610a92565b610af381610835565b840191505092915050565b7f4e487b7100000000000000000000000000000000000000000000000000000000600052602160045260246000fd5b60088110610b3e57610b3d610afe565b5b50565b6000819050610b4f82610b2d565b919050565b6000610b5f82610b41565b9050919050565b610b6f81610b54565b82525050565b600061012082019050610b8b600083018c610a67565b8181036020830152610b9d818b610ac5565b90508181036040830152610bb1818a610ac5565b9050610bc06060830189610a67565b610bcd6080830188610a67565b610bda60a0830187610a67565b610be760c0830186610b66565b610bf460e0830185610a67565b818103610100830152610c078184610ac5565b90509a9950505050505050505050565b60008060408385031215610c2e57610c2d6107be565b5b6000610c3c858286016107e9565b9250506020610c4d858286016107e9565b9150509250929050565b7f4e487b7100000000000000000000000000000000000000000000000000000000600052601160045260246000fd5b6000610c91826107c8565b91507fffffffffffffffffffffffffffffffffffffffffffffffffffffffffffffffff821415610cc457610cc3610c57565b5b600182019050919050565b600081905092915050565b6000610ce582610a76565b610cef8185610ccf565b9350610cff818560208601610a92565b80840191505092915050565b6000610d178284610cda565b915081905092915050565b600060a0820190508181036000830152610d3c8188610ac5565b9050610d4b6020830187610a67565b610d586040830186610a67565b8181036060830152610d6a8185610ac5565b9050610d796080830184610a67565b9695505050505050565b6000604082019050610d986000830185610b66565b610da56020830184610b66565b9392505050565b7f4e487b7100000000000000000000000000000000000000000000000000000000600052602260045260246000fd5b60006002820490506001821680610df357607f821691505b60208210811415610e0757610e06610dac565b5b5091905056fea26469706673582212205e1ea61764879820d64b9432bbb09306099507d26a3dd7e54737801924ceadef64736f6c63430008090033",
  "immutableReferences": {},
  "source": "// SPDX-License-Identifier: MIT\n\npragma solidity ^0.8.9;\n\ncontract Task {\n    uint256 count;\n\n    enum TaskStatus {\n        CREATED,\n        ALLOCATED_BY_FINANCIAL_MANAGER,\n\n        APPROVED_BY_BUDGET_AND_PROCUREMENT_MANAGER,\n        APPROVED_BY_PROJECT_MANAGER,\n        APPROVED_BY_EXTERNAL_AUDITOR,\n\n        REJECTED_BY_BUDGET_AND_PROCUREMENT_MANAGER,\n        REJECTED_BY_PROJECT_MANAGER,\n        REJECTED_BY_EXTERNAL_AUDITOR\n    }\n\n    struct TaskInfo {\n        uint256 id;\n        string name;\n        string description;\n        uint256 projectId;\n        uint256 subProjectId;\n        uint256 estimatedDuration;\n        TaskStatus status;\n        uint256 allocatedBudget;\n        string remark;\n    }\n\n    mapping(uint256 => TaskInfo) public tasks;\n\n    event AddedTask(\n        uint256 indexed id,\n        string indexed name,\n        string description,\n        uint256 indexed projectId,\n        uint256 subProjectId,\n        uint256 estimatedDuration,\n        string status,\n        uint256 allocatedBudget\n    );\n\n    event ChangeedTaskStatus(\n        uint256 indexed taskid,\n        TaskStatus from,\n        TaskStatus to,\n        uint256 indexed date,\n        address indexed changedBy\n    );\n\n    modifier statusIs(TaskInfo memory status, uint256 id) {\n        require(tasks[id].status == TaskStatus.CREATED);\n        _;\n    }\n\n    function addTask(\n        string memory name,\n        string memory description,\n        uint256 projectId,\n        uint256 subProjectId,\n        uint256 estimatedDuration,\n        string memory status,\n        uint256 allocatedBudget\n    ) external {\n        tasks[++count] = TaskInfo(\n            count,\n            name,\n            description,\n            projectId,\n            subProjectId,\n            estimatedDuration,\n            TaskStatus.CREATED,\n            0,\n            ''\n        );\n        emit AddedTask(\n            count,\n            name,\n            description,\n            projectId,\n            subProjectId,\n            estimatedDuration,\n            status,\n            allocatedBudget\n        );\n    }\n\n    //TODO add modifier to check whether the sender is financial manager of a specific project\n    //TODO add modifier to check wheather the money is valid or not\n    function financialManagerSubmitBudgetAllocation(\n        uint256 taskid,\n        uint256 allocatedBudget\n    ) external {\n        tasks[taskid].allocatedBudget = allocatedBudget;\n        tasks[taskid].status = TaskStatus.ALLOCATED_BY_FINANCIAL_MANAGER;\n        emit ChangeedTaskStatus(taskid ,TaskStatus.CREATED, TaskStatus.ALLOCATED_BY_FINANCIAL_MANAGER, block.timestamp, msg.sender);\n    }\n\n    function budgetAndProcurementManagerApproveTaskCompletion(uint256 taskid)\n        external\n    {\n        tasks[taskid].status = TaskStatus.APPROVED_BY_BUDGET_AND_PROCUREMENT_MANAGER;\n        emit ChangeedTaskStatus(taskid ,TaskStatus.CREATED, TaskStatus.ALLOCATED_BY_FINANCIAL_MANAGER, block.timestamp, msg.sender);\n    }\n\n    function projectManagerApproveTaskCompletion(uint256 taskid) external {}\n\n    function externalAuditorApproveTaskCompletion(uint256 taskid) external {}\n\n    function deleteTask(uint256 id) external {\n        delete tasks[id];\n    }\n}\n",
  "sourcePath": "/home/jeremy/Desktop/fets_front_end/src/contracts/project_management/Task.sol",
  "compiler": {
    "name": "solc",
    "version": "0.8.9+commit.e5eed63a.Emscripten.clang"
  },
  "schemaVersion": "3.4.3",
  "updatedAt": "2022-04-25T06:43:35.311Z",
  "devdoc": {
    "kind": "dev",
    "methods": {},
    "version": 1
  },
  "userdoc": {
    "kind": "user",
    "methods": {},
    "version": 1
  }
}