{
	"project_management/Project.sol": {
		"Project": {
			"abi": [
				{
					"inputs": [],
					"stateMutability": "nonpayable",
					"type": "constructor"
				},
				{
					"anonymous": false,
					"inputs": [
						{
							"indexed": true,
							"internalType": "uint256",
							"name": "id",
							"type": "uint256"
						},
						{
							"indexed": true,
							"internalType": "string",
							"name": "name",
							"type": "string"
						},
						{
							"indexed": false,
							"internalType": "string",
							"name": "description",
							"type": "string"
						},
						{
							"indexed": false,
							"internalType": "string",
							"name": "location",
							"type": "string"
						},
						{
							"indexed": false,
							"internalType": "uint256",
							"name": "estimatedBudget",
							"type": "uint256"
						},
						{
							"indexed": false,
							"internalType": "uint256",
							"name": "estimatedDuration",
							"type": "uint256"
						},
						{
							"indexed": false,
							"internalType": "uint256",
							"name": "fundedMoney",
							"type": "uint256"
						},
						{
							"indexed": false,
							"internalType": "uint256",
							"name": "createdAt",
							"type": "uint256"
						},
						{
							"indexed": true,
							"internalType": "string",
							"name": "companyId",
							"type": "string"
						},
						{
							"indexed": false,
							"internalType": "string",
							"name": "accountNumber",
							"type": "string"
						},
						{
							"indexed": false,
							"internalType": "enum Project.ProjectStatus",
							"name": "status",
							"type": "uint8"
						}
					],
					"name": "AddedProject",
					"type": "event"
				},
				{
					"anonymous": false,
					"inputs": [
						{
							"indexed": true,
							"internalType": "uint256",
							"name": "id",
							"type": "uint256"
						},
						{
							"indexed": true,
							"internalType": "string",
							"name": "name",
							"type": "string"
						},
						{
							"indexed": false,
							"internalType": "string",
							"name": "description",
							"type": "string"
						},
						{
							"indexed": false,
							"internalType": "string",
							"name": "location",
							"type": "string"
						},
						{
							"indexed": false,
							"internalType": "uint256",
							"name": "estimatedBudget",
							"type": "uint256"
						},
						{
							"indexed": false,
							"internalType": "uint256",
							"name": "estimatedDuration",
							"type": "uint256"
						},
						{
							"indexed": false,
							"internalType": "uint256",
							"name": "fundedMoney",
							"type": "uint256"
						},
						{
							"indexed": false,
							"internalType": "uint256",
							"name": "createdAt",
							"type": "uint256"
						},
						{
							"indexed": true,
							"internalType": "string",
							"name": "companyId",
							"type": "string"
						},
						{
							"indexed": false,
							"internalType": "string",
							"name": "accountNumber",
							"type": "string"
						},
						{
							"indexed": false,
							"internalType": "enum Project.ProjectStatus",
							"name": "status",
							"type": "uint8"
						}
					],
					"name": "DeletedProject",
					"type": "event"
				},
				{
					"inputs": [
						{
							"internalType": "uint256",
							"name": "_projectId",
							"type": "uint256"
						},
						{
							"internalType": "uint256",
							"name": "_amount",
							"type": "uint256"
						},
						{
							"internalType": "string",
							"name": "_donorUsername",
							"type": "string"
						}
					],
					"name": "addPaymentInfo",
					"outputs": [],
					"stateMutability": "nonpayable",
					"type": "function"
				},
				{
					"inputs": [
						{
							"internalType": "string",
							"name": "name",
							"type": "string"
						},
						{
							"internalType": "string",
							"name": "description",
							"type": "string"
						},
						{
							"internalType": "string",
							"name": "location",
							"type": "string"
						},
						{
							"internalType": "uint256",
							"name": "estimatedBudget",
							"type": "uint256"
						},
						{
							"internalType": "uint256",
							"name": "estimatedDuration",
							"type": "uint256"
						},
						{
							"internalType": "string",
							"name": "companyId",
							"type": "string"
						},
						{
							"internalType": "string",
							"name": "accountNumber",
							"type": "string"
						}
					],
					"name": "addProject",
					"outputs": [],
					"stateMutability": "nonpayable",
					"type": "function"
				},
				{
					"inputs": [
						{
							"internalType": "uint256",
							"name": "_id",
							"type": "uint256"
						}
					],
					"name": "deleteProject",
					"outputs": [],
					"stateMutability": "nonpayable",
					"type": "function"
				},
				{
					"inputs": [],
					"name": "getAllProjects",
					"outputs": [
						{
							"components": [
								{
									"internalType": "uint256",
									"name": "id",
									"type": "uint256"
								},
								{
									"internalType": "string",
									"name": "name",
									"type": "string"
								},
								{
									"internalType": "string",
									"name": "description",
									"type": "string"
								},
								{
									"internalType": "string",
									"name": "location",
									"type": "string"
								},
								{
									"internalType": "uint256",
									"name": "estimatedBudget",
									"type": "uint256"
								},
								{
									"internalType": "uint256",
									"name": "fundedMoney",
									"type": "uint256"
								},
								{
									"internalType": "uint256",
									"name": "estimatedDuration",
									"type": "uint256"
								},
								{
									"internalType": "uint256",
									"name": "createdAt",
									"type": "uint256"
								},
								{
									"internalType": "string",
									"name": "companyId",
									"type": "string"
								},
								{
									"internalType": "string",
									"name": "accountNumber",
									"type": "string"
								},
								{
									"internalType": "enum Project.ProjectStatus",
									"name": "status",
									"type": "uint8"
								},
								{
									"internalType": "string[]",
									"name": "donors",
									"type": "string[]"
								}
							],
							"internalType": "struct Project.ProjectInfo[]",
							"name": "",
							"type": "tuple[]"
						}
					],
					"stateMutability": "view",
					"type": "function"
				},
				{
					"inputs": [
						{
							"internalType": "string",
							"name": "_username",
							"type": "string"
						}
					],
					"name": "getDonatedProjectsByUsername",
					"outputs": [
						{
							"components": [
								{
									"internalType": "uint256",
									"name": "id",
									"type": "uint256"
								},
								{
									"internalType": "string",
									"name": "name",
									"type": "string"
								},
								{
									"internalType": "string",
									"name": "description",
									"type": "string"
								},
								{
									"internalType": "string",
									"name": "location",
									"type": "string"
								},
								{
									"internalType": "uint256",
									"name": "estimatedBudget",
									"type": "uint256"
								},
								{
									"internalType": "uint256",
									"name": "fundedMoney",
									"type": "uint256"
								},
								{
									"internalType": "uint256",
									"name": "estimatedDuration",
									"type": "uint256"
								},
								{
									"internalType": "uint256",
									"name": "createdAt",
									"type": "uint256"
								},
								{
									"internalType": "string",
									"name": "companyId",
									"type": "string"
								},
								{
									"internalType": "string",
									"name": "accountNumber",
									"type": "string"
								},
								{
									"internalType": "enum Project.ProjectStatus",
									"name": "status",
									"type": "uint8"
								},
								{
									"internalType": "string[]",
									"name": "donors",
									"type": "string[]"
								}
							],
							"internalType": "struct Project.ProjectInfo[]",
							"name": "",
							"type": "tuple[]"
						}
					],
					"stateMutability": "view",
					"type": "function"
				},
				{
					"inputs": [
						{
							"internalType": "string",
							"name": "_donorUsername",
							"type": "string"
						}
					],
					"name": "getPatientByDonorName",
					"outputs": [],
					"stateMutability": "nonpayable",
					"type": "function"
				},
				{
					"inputs": [
						{
							"internalType": "uint256",
							"name": "_id",
							"type": "uint256"
						}
					],
					"name": "getProjectById",
					"outputs": [
						{
							"components": [
								{
									"internalType": "uint256",
									"name": "id",
									"type": "uint256"
								},
								{
									"internalType": "string",
									"name": "name",
									"type": "string"
								},
								{
									"internalType": "string",
									"name": "description",
									"type": "string"
								},
								{
									"internalType": "string",
									"name": "location",
									"type": "string"
								},
								{
									"internalType": "uint256",
									"name": "estimatedBudget",
									"type": "uint256"
								},
								{
									"internalType": "uint256",
									"name": "fundedMoney",
									"type": "uint256"
								},
								{
									"internalType": "uint256",
									"name": "estimatedDuration",
									"type": "uint256"
								},
								{
									"internalType": "uint256",
									"name": "createdAt",
									"type": "uint256"
								},
								{
									"internalType": "string",
									"name": "companyId",
									"type": "string"
								},
								{
									"internalType": "string",
									"name": "accountNumber",
									"type": "string"
								},
								{
									"internalType": "enum Project.ProjectStatus",
									"name": "status",
									"type": "uint8"
								},
								{
									"internalType": "string[]",
									"name": "donors",
									"type": "string[]"
								}
							],
							"internalType": "struct Project.ProjectInfo",
							"name": "",
							"type": "tuple"
						}
					],
					"stateMutability": "view",
					"type": "function"
				},
				{
					"inputs": [
						{
							"internalType": "uint256",
							"name": "_projectId",
							"type": "uint256"
						},
						{
							"internalType": "uint256",
							"name": "_amount",
							"type": "uint256"
						}
					],
					"name": "refundMoney",
					"outputs": [],
					"stateMutability": "nonpayable",
					"type": "function"
				}
			],
			"devdoc": {
				"kind": "dev",
				"methods": {},
				"version": 1
			},
			"evm": {
				"assembly": "    /* \"project_management/Project.sol\":56:4591  contract Project {... */\n  mstore(0x40, 0x80)\n    /* \"project_management/Project.sol\":170:210  constructor() {... */\n  callvalue\n  dup1\n  iszero\n  tag_1\n  jumpi\n  0x00\n  dup1\n  revert\ntag_1:\n  pop\n    /* \"project_management/Project.sol\":202:203  0 */\n  0x00\n    /* \"project_management/Project.sol\":194:199  count */\n  dup1\n    /* \"project_management/Project.sol\":194:203  count = 0 */\n  dup2\n  swap1\n  sstore\n  pop\n    /* \"project_management/Project.sol\":56:4591  contract Project {... */\n  dataSize(sub_0)\n  dup1\n  dataOffset(sub_0)\n  0x00\n  codecopy\n  0x00\n  return\nstop\n\nsub_0: assembly {\n        /* \"project_management/Project.sol\":56:4591  contract Project {... */\n      mstore(0x40, 0x80)\n      callvalue\n      dup1\n      iszero\n      tag_1\n      jumpi\n      0x00\n      dup1\n      revert\n    tag_1:\n      pop\n      jumpi(tag_2, lt(calldatasize, 0x04))\n      shr(0xe0, calldataload(0x00))\n      dup1\n      0x7fdd45dc\n      gt\n      tag_11\n      jumpi\n      dup1\n      0x7fdd45dc\n      eq\n      tag_7\n      jumpi\n      dup1\n      0x80d03829\n      eq\n      tag_8\n      jumpi\n      dup1\n      0xbee5cdca\n      eq\n      tag_9\n      jumpi\n      dup1\n      0xe6279b4f\n      eq\n      tag_10\n      jumpi\n      jump(tag_2)\n    tag_11:\n      dup1\n      0x20e8be43\n      eq\n      tag_3\n      jumpi\n      dup1\n      0x4cd0cb28\n      eq\n      tag_4\n      jumpi\n      dup1\n      0x54138541\n      eq\n      tag_5\n      jumpi\n      dup1\n      0x6fe1ac91\n      eq\n      tag_6\n      jumpi\n    tag_2:\n      0x00\n      dup1\n      revert\n        /* \"project_management/Project.sol\":1471:1963  function getDonatedProjectsByUsername(string memory _username)... */\n    tag_3:\n      tag_12\n      0x04\n      dup1\n      calldatasize\n      sub\n      dup2\n      add\n      swap1\n      tag_13\n      swap2\n      swap1\n      tag_14\n      jump\t// in\n    tag_13:\n      tag_15\n      jump\t// in\n    tag_12:\n      mload(0x40)\n      tag_16\n      swap2\n      swap1\n      tag_17\n      jump\t// in\n    tag_16:\n      mload(0x40)\n      dup1\n      swap2\n      sub\n      swap1\n      return\n        /* \"project_management/Project.sol\":3687:3767  function deleteProject(uint256 _id) public {... */\n    tag_4:\n      tag_18\n      0x04\n      dup1\n      calldatasize\n      sub\n      dup2\n      add\n      swap1\n      tag_19\n      swap2\n      swap1\n      tag_20\n      jump\t// in\n    tag_19:\n      tag_21\n      jump\t// in\n    tag_18:\n      stop\n        /* \"project_management/Project.sol\":3092:3401  function addPaymentInfo(... */\n    tag_5:\n      tag_22\n      0x04\n      dup1\n      calldatasize\n      sub\n      dup2\n      add\n      swap1\n      tag_23\n      swap2\n      swap1\n      tag_24\n      jump\t// in\n    tag_23:\n      tag_25\n      jump\t// in\n    tag_22:\n      stop\n        /* \"project_management/Project.sol\":3016:3086  function getPatientByDonorName(string memory _donorUsername) public {} */\n    tag_6:\n      tag_26\n      0x04\n      dup1\n      calldatasize\n      sub\n      dup2\n      add\n      swap1\n      tag_27\n      swap2\n      swap1\n      tag_14\n      jump\t// in\n    tag_27:\n      tag_28\n      jump\t// in\n    tag_26:\n      stop\n        /* \"project_management/Project.sol\":2014:3010  function addProject(... */\n    tag_7:\n      tag_29\n      0x04\n      dup1\n      calldatasize\n      sub\n      dup2\n      add\n      swap1\n      tag_30\n      swap2\n      swap1\n      tag_31\n      jump\t// in\n    tag_30:\n      tag_32\n      jump\t// in\n    tag_29:\n      stop\n        /* \"project_management/Project.sol\":4087:4589  function getAllProjects() public view returns (ProjectInfo[] memory) {... */\n    tag_8:\n      tag_33\n      tag_34\n      jump\t// in\n    tag_33:\n      mload(0x40)\n      tag_35\n      swap2\n      swap1\n      tag_17\n      jump\t// in\n    tag_35:\n      mload(0x40)\n      dup1\n      swap2\n      sub\n      swap1\n      return\n        /* \"project_management/Project.sol\":3849:3992  function getProjectById(uint256 _id)... */\n    tag_9:\n      tag_36\n      0x04\n      dup1\n      calldatasize\n      sub\n      dup2\n      add\n      swap1\n      tag_37\n      swap2\n      swap1\n      tag_20\n      jump\t// in\n    tag_37:\n      tag_38\n      jump\t// in\n    tag_36:\n      mload(0x40)\n      tag_39\n      swap2\n      swap1\n      tag_40\n      jump\t// in\n    tag_39:\n      mload(0x40)\n      dup1\n      swap2\n      sub\n      swap1\n      return\n        /* \"project_management/Project.sol\":3407:3681  function refundMoney(... */\n    tag_10:\n      tag_41\n      0x04\n      dup1\n      calldatasize\n      sub\n      dup2\n      add\n      swap1\n      tag_42\n      swap2\n      swap1\n      tag_43\n      jump\t// in\n    tag_42:\n      tag_44\n      jump\t// in\n    tag_41:\n      stop\n        /* \"project_management/Project.sol\":1471:1963  function getDonatedProjectsByUsername(string memory _username)... */\n    tag_15:\n        /* \"project_management/Project.sol\":1579:1599  ProjectInfo[] memory */\n      0x60\n        /* \"project_management/Project.sol\":1615:1629  uint256 length */\n      0x00\n        /* \"project_management/Project.sol\":1632:1652  donorProjectMappings */\n      0x01\n        /* \"project_management/Project.sol\":1653:1662  _username */\n      dup4\n        /* \"project_management/Project.sol\":1632:1663  donorProjectMappings[_username] */\n      mload(0x40)\n      tag_46\n      swap2\n      swap1\n      tag_47\n      jump\t// in\n    tag_46:\n      swap1\n      dup2\n      mstore\n      0x20\n      add\n      mload(0x40)\n      dup1\n      swap2\n      sub\n      swap1\n      keccak256\n        /* \"project_management/Project.sol\":1632:1670  donorProjectMappings[_username].length */\n      dup1\n      sload\n      swap1\n      pop\n        /* \"project_management/Project.sol\":1615:1670  uint256 length = donorProjectMappings[_username].length */\n      swap1\n      pop\n        /* \"project_management/Project.sol\":1680:1712  ProjectInfo[] memory projectInfo */\n      0x00\n        /* \"project_management/Project.sol\":1733:1738  count */\n      dup1\n      sload\n        /* \"project_management/Project.sol\":1715:1739  new ProjectInfo[](count) */\n      0xffffffffffffffff\n      dup2\n      gt\n      iszero\n      tag_48\n      jumpi\n      tag_49\n      tag_50\n      jump\t// in\n    tag_49:\n    tag_48:\n      mload(0x40)\n      swap1\n      dup1\n      dup3\n      mstore\n      dup1\n      0x20\n      mul\n      0x20\n      add\n      dup3\n      add\n      0x40\n      mstore\n      dup1\n      iszero\n      tag_51\n      jumpi\n      dup2\n      0x20\n      add\n    tag_52:\n      tag_53\n      tag_54\n      jump\t// in\n    tag_53:\n      dup2\n      mstore\n      0x20\n      add\n      swap1\n      0x01\n      swap1\n      sub\n      swap1\n      dup2\n      tag_52\n      jumpi\n      swap1\n      pop\n    tag_51:\n      pop\n        /* \"project_management/Project.sol\":1680:1739  ProjectInfo[] memory projectInfo = new ProjectInfo[](count) */\n      swap1\n      pop\n        /* \"project_management/Project.sol\":1750:1759  uint256 c */\n      0x00\n        /* \"project_management/Project.sol\":1778:1791  uint256 index */\n      dup1\n        /* \"project_management/Project.sol\":1773:1929  for (uint256 index = 0; index < length; index++) {... */\n    tag_55:\n        /* \"project_management/Project.sol\":1805:1811  length */\n      dup4\n        /* \"project_management/Project.sol\":1797:1802  index */\n      dup2\n        /* \"project_management/Project.sol\":1797:1811  index < length */\n      lt\n        /* \"project_management/Project.sol\":1773:1929  for (uint256 index = 0; index < length; index++) {... */\n      iszero\n      tag_56\n      jumpi\n        /* \"project_management/Project.sol\":1853:1861  projects */\n      0x02\n        /* \"project_management/Project.sol\":1853:1901  projects[donorProjectMappings[_username][index]] */\n      0x00\n        /* \"project_management/Project.sol\":1862:1882  donorProjectMappings */\n      0x01\n        /* \"project_management/Project.sol\":1883:1892  _username */\n      dup9\n        /* \"project_management/Project.sol\":1862:1893  donorProjectMappings[_username] */\n      mload(0x40)\n      tag_58\n      swap2\n      swap1\n      tag_47\n      jump\t// in\n    tag_58:\n      swap1\n      dup2\n      mstore\n      0x20\n      add\n      mload(0x40)\n      dup1\n      swap2\n      sub\n      swap1\n      keccak256\n        /* \"project_management/Project.sol\":1894:1899  index */\n      dup4\n        /* \"project_management/Project.sol\":1862:1900  donorProjectMappings[_username][index] */\n      dup2\n      sload\n      dup2\n      lt\n      tag_59\n      jumpi\n      tag_60\n      tag_61\n      jump\t// in\n    tag_60:\n    tag_59:\n      swap1\n      0x00\n      mstore\n      keccak256(0x00, 0x20)\n      add\n      sload\n        /* \"project_management/Project.sol\":1853:1901  projects[donorProjectMappings[_username][index]] */\n      dup2\n      mstore\n      0x20\n      add\n      swap1\n      dup2\n      mstore\n      0x20\n      add\n      0x00\n      keccak256\n        /* \"project_management/Project.sol\":1836:1901  projectInfo[c] = projects[donorProjectMappings[_username][index]] */\n      mload(0x40)\n      dup1\n      0x0180\n      add\n      0x40\n      mstore\n      swap1\n      dup2\n      0x00\n      dup3\n      add\n      sload\n      dup2\n      mstore\n      0x20\n      add\n      0x01\n      dup3\n      add\n      dup1\n      sload\n      tag_63\n      swap1\n      tag_64\n      jump\t// in\n    tag_63:\n      dup1\n      0x1f\n      add\n      0x20\n      dup1\n      swap2\n      div\n      mul\n      0x20\n      add\n      mload(0x40)\n      swap1\n      dup2\n      add\n      0x40\n      mstore\n      dup1\n      swap3\n      swap2\n      swap1\n      dup2\n      dup2\n      mstore\n      0x20\n      add\n      dup3\n      dup1\n      sload\n      tag_65\n      swap1\n      tag_64\n      jump\t// in\n    tag_65:\n      dup1\n      iszero\n      tag_66\n      jumpi\n      dup1\n      0x1f\n      lt\n      tag_67\n      jumpi\n      0x0100\n      dup1\n      dup4\n      sload\n      div\n      mul\n      dup4\n      mstore\n      swap2\n      0x20\n      add\n      swap2\n      jump(tag_66)\n    tag_67:\n      dup3\n      add\n      swap2\n      swap1\n      0x00\n      mstore\n      keccak256(0x00, 0x20)\n      swap1\n    tag_68:\n      dup2\n      sload\n      dup2\n      mstore\n      swap1\n      0x01\n      add\n      swap1\n      0x20\n      add\n      dup1\n      dup4\n      gt\n      tag_68\n      jumpi\n      dup3\n      swap1\n      sub\n      0x1f\n      and\n      dup3\n      add\n      swap2\n    tag_66:\n      pop\n      pop\n      pop\n      pop\n      pop\n      dup2\n      mstore\n      0x20\n      add\n      0x02\n      dup3\n      add\n      dup1\n      sload\n      tag_69\n      swap1\n      tag_64\n      jump\t// in\n    tag_69:\n      dup1\n      0x1f\n      add\n      0x20\n      dup1\n      swap2\n      div\n      mul\n      0x20\n      add\n      mload(0x40)\n      swap1\n      dup2\n      add\n      0x40\n      mstore\n      dup1\n      swap3\n      swap2\n      swap1\n      dup2\n      dup2\n      mstore\n      0x20\n      add\n      dup3\n      dup1\n      sload\n      tag_70\n      swap1\n      tag_64\n      jump\t// in\n    tag_70:\n      dup1\n      iszero\n      tag_71\n      jumpi\n      dup1\n      0x1f\n      lt\n      tag_72\n      jumpi\n      0x0100\n      dup1\n      dup4\n      sload\n      div\n      mul\n      dup4\n      mstore\n      swap2\n      0x20\n      add\n      swap2\n      jump(tag_71)\n    tag_72:\n      dup3\n      add\n      swap2\n      swap1\n      0x00\n      mstore\n      keccak256(0x00, 0x20)\n      swap1\n    tag_73:\n      dup2\n      sload\n      dup2\n      mstore\n      swap1\n      0x01\n      add\n      swap1\n      0x20\n      add\n      dup1\n      dup4\n      gt\n      tag_73\n      jumpi\n      dup3\n      swap1\n      sub\n      0x1f\n      and\n      dup3\n      add\n      swap2\n    tag_71:\n      pop\n      pop\n      pop\n      pop\n      pop\n      dup2\n      mstore\n      0x20\n      add\n      0x03\n      dup3\n      add\n      dup1\n      sload\n      tag_74\n      swap1\n      tag_64\n      jump\t// in\n    tag_74:\n      dup1\n      0x1f\n      add\n      0x20\n      dup1\n      swap2\n      div\n      mul\n      0x20\n      add\n      mload(0x40)\n      swap1\n      dup2\n      add\n      0x40\n      mstore\n      dup1\n      swap3\n      swap2\n      swap1\n      dup2\n      dup2\n      mstore\n      0x20\n      add\n      dup3\n      dup1\n      sload\n      tag_75\n      swap1\n      tag_64\n      jump\t// in\n    tag_75:\n      dup1\n      iszero\n      tag_76\n      jumpi\n      dup1\n      0x1f\n      lt\n      tag_77\n      jumpi\n      0x0100\n      dup1\n      dup4\n      sload\n      div\n      mul\n      dup4\n      mstore\n      swap2\n      0x20\n      add\n      swap2\n      jump(tag_76)\n    tag_77:\n      dup3\n      add\n      swap2\n      swap1\n      0x00\n      mstore\n      keccak256(0x00, 0x20)\n      swap1\n    tag_78:\n      dup2\n      sload\n      dup2\n      mstore\n      swap1\n      0x01\n      add\n      swap1\n      0x20\n      add\n      dup1\n      dup4\n      gt\n      tag_78\n      jumpi\n      dup3\n      swap1\n      sub\n      0x1f\n      and\n      dup3\n      add\n      swap2\n    tag_76:\n      pop\n      pop\n      pop\n      pop\n      pop\n      dup2\n      mstore\n      0x20\n      add\n      0x04\n      dup3\n      add\n      sload\n      dup2\n      mstore\n      0x20\n      add\n      0x05\n      dup3\n      add\n      sload\n      dup2\n      mstore\n      0x20\n      add\n      0x06\n      dup3\n      add\n      sload\n      dup2\n      mstore\n      0x20\n      add\n      0x07\n      dup3\n      add\n      sload\n      dup2\n      mstore\n      0x20\n      add\n      0x08\n      dup3\n      add\n      dup1\n      sload\n      tag_79\n      swap1\n      tag_64\n      jump\t// in\n    tag_79:\n      dup1\n      0x1f\n      add\n      0x20\n      dup1\n      swap2\n      div\n      mul\n      0x20\n      add\n      mload(0x40)\n      swap1\n      dup2\n      add\n      0x40\n      mstore\n      dup1\n      swap3\n      swap2\n      swap1\n      dup2\n      dup2\n      mstore\n      0x20\n      add\n      dup3\n      dup1\n      sload\n      tag_80\n      swap1\n      tag_64\n      jump\t// in\n    tag_80:\n      dup1\n      iszero\n      tag_81\n      jumpi\n      dup1\n      0x1f\n      lt\n      tag_82\n      jumpi\n      0x0100\n      dup1\n      dup4\n      sload\n      div\n      mul\n      dup4\n      mstore\n      swap2\n      0x20\n      add\n      swap2\n      jump(tag_81)\n    tag_82:\n      dup3\n      add\n      swap2\n      swap1\n      0x00\n      mstore\n      keccak256(0x00, 0x20)\n      swap1\n    tag_83:\n      dup2\n      sload\n      dup2\n      mstore\n      swap1\n      0x01\n      add\n      swap1\n      0x20\n      add\n      dup1\n      dup4\n      gt\n      tag_83\n      jumpi\n      dup3\n      swap1\n      sub\n      0x1f\n      and\n      dup3\n      add\n      swap2\n    tag_81:\n      pop\n      pop\n      pop\n      pop\n      pop\n      dup2\n      mstore\n      0x20\n      add\n      0x09\n      dup3\n      add\n      dup1\n      sload\n      tag_84\n      swap1\n      tag_64\n      jump\t// in\n    tag_84:\n      dup1\n      0x1f\n      add\n      0x20\n      dup1\n      swap2\n      div\n      mul\n      0x20\n      add\n      mload(0x40)\n      swap1\n      dup2\n      add\n      0x40\n      mstore\n      dup1\n      swap3\n      swap2\n      swap1\n      dup2\n      dup2\n      mstore\n      0x20\n      add\n      dup3\n      dup1\n      sload\n      tag_85\n      swap1\n      tag_64\n      jump\t// in\n    tag_85:\n      dup1\n      iszero\n      tag_86\n      jumpi\n      dup1\n      0x1f\n      lt\n      tag_87\n      jumpi\n      0x0100\n      dup1\n      dup4\n      sload\n      div\n      mul\n      dup4\n      mstore\n      swap2\n      0x20\n      add\n      swap2\n      jump(tag_86)\n    tag_87:\n      dup3\n      add\n      swap2\n      swap1\n      0x00\n      mstore\n      keccak256(0x00, 0x20)\n      swap1\n    tag_88:\n      dup2\n      sload\n      dup2\n      mstore\n      swap1\n      0x01\n      add\n      swap1\n      0x20\n      add\n      dup1\n      dup4\n      gt\n      tag_88\n      jumpi\n      dup3\n      swap1\n      sub\n      0x1f\n      and\n      dup3\n      add\n      swap2\n    tag_86:\n      pop\n      pop\n      pop\n      pop\n      pop\n      dup2\n      mstore\n      0x20\n      add\n      0x0a\n      dup3\n      add\n      0x00\n      swap1\n      sload\n      swap1\n      0x0100\n      exp\n      swap1\n      div\n      0xff\n      and\n      0x04\n      dup2\n      gt\n      iszero\n      tag_89\n      jumpi\n      tag_90\n      tag_91\n      jump\t// in\n    tag_90:\n    tag_89:\n      0x04\n      dup2\n      gt\n      iszero\n      tag_92\n      jumpi\n      tag_93\n      tag_91\n      jump\t// in\n    tag_93:\n    tag_92:\n      dup2\n      mstore\n      0x20\n      add\n      0x0b\n      dup3\n      add\n      dup1\n      sload\n      dup1\n      0x20\n      mul\n      0x20\n      add\n      mload(0x40)\n      swap1\n      dup2\n      add\n      0x40\n      mstore\n      dup1\n      swap3\n      swap2\n      swap1\n      dup2\n      dup2\n      mstore\n      0x20\n      add\n      0x00\n      swap1\n    tag_94:\n      dup3\n      dup3\n      lt\n      iszero\n      tag_95\n      jumpi\n      dup4\n      dup3\n      swap1\n      0x00\n      mstore\n      keccak256(0x00, 0x20)\n      add\n      dup1\n      sload\n      tag_97\n      swap1\n      tag_64\n      jump\t// in\n    tag_97:\n      dup1\n      0x1f\n      add\n      0x20\n      dup1\n      swap2\n      div\n      mul\n      0x20\n      add\n      mload(0x40)\n      swap1\n      dup2\n      add\n      0x40\n      mstore\n      dup1\n      swap3\n      swap2\n      swap1\n      dup2\n      dup2\n      mstore\n      0x20\n      add\n      dup3\n      dup1\n      sload\n      tag_98\n      swap1\n      tag_64\n      jump\t// in\n    tag_98:\n      dup1\n      iszero\n      tag_99\n      jumpi\n      dup1\n      0x1f\n      lt\n      tag_100\n      jumpi\n      0x0100\n      dup1\n      dup4\n      sload\n      div\n      mul\n      dup4\n      mstore\n      swap2\n      0x20\n      add\n      swap2\n      jump(tag_99)\n    tag_100:\n      dup3\n      add\n      swap2\n      swap1\n      0x00\n      mstore\n      keccak256(0x00, 0x20)\n      swap1\n    tag_101:\n      dup2\n      sload\n      dup2\n      mstore\n      swap1\n      0x01\n      add\n      swap1\n      0x20\n      add\n      dup1\n      dup4\n      gt\n      tag_101\n      jumpi\n      dup3\n      swap1\n      sub\n      0x1f\n      and\n      dup3\n      add\n      swap2\n    tag_99:\n      pop\n      pop\n      pop\n      pop\n      pop\n      dup2\n      mstore\n      0x20\n      add\n      swap1\n      0x01\n      add\n      swap1\n      jump(tag_94)\n    tag_95:\n      pop\n      pop\n      pop\n      pop\n      dup2\n      mstore\n      pop\n      pop\n        /* \"project_management/Project.sol\":1836:1847  projectInfo */\n      dup4\n        /* \"project_management/Project.sol\":1848:1849  c */\n      dup4\n        /* \"project_management/Project.sol\":1836:1850  projectInfo[c] */\n      dup2\n      mload\n      dup2\n      lt\n      tag_102\n      jumpi\n      tag_103\n      tag_61\n      jump\t// in\n    tag_103:\n    tag_102:\n      0x20\n      mul\n      0x20\n      add\n      add\n        /* \"project_management/Project.sol\":1836:1901  projectInfo[c] = projects[donorProjectMappings[_username][index]] */\n      dup2\n      swap1\n      mstore\n      pop\n        /* \"project_management/Project.sol\":1915:1918  c++ */\n      dup2\n      dup1\n      tag_104\n      swap1\n      tag_105\n      jump\t// in\n    tag_104:\n      swap3\n      pop\n      pop\n        /* \"project_management/Project.sol\":1813:1820  index++ */\n      dup1\n      dup1\n      tag_106\n      swap1\n      tag_105\n      jump\t// in\n    tag_106:\n      swap2\n      pop\n      pop\n        /* \"project_management/Project.sol\":1773:1929  for (uint256 index = 0; index < length; index++) {... */\n      jump(tag_55)\n    tag_56:\n      pop\n        /* \"project_management/Project.sol\":1945:1956  projectInfo */\n      dup2\n        /* \"project_management/Project.sol\":1938:1956  return projectInfo */\n      swap4\n      pop\n      pop\n      pop\n      pop\n        /* \"project_management/Project.sol\":1471:1963  function getDonatedProjectsByUsername(string memory _username)... */\n      swap2\n      swap1\n      pop\n      jump\t// out\n        /* \"project_management/Project.sol\":3687:3767  function deleteProject(uint256 _id) public {... */\n    tag_21:\n        /* \"project_management/Project.sol\":3747:3755  projects */\n      0x02\n        /* \"project_management/Project.sol\":3747:3760  projects[_id] */\n      0x00\n        /* \"project_management/Project.sol\":3756:3759  _id */\n      dup3\n        /* \"project_management/Project.sol\":3747:3760  projects[_id] */\n      dup2\n      mstore\n      0x20\n      add\n      swap1\n      dup2\n      mstore\n      0x20\n      add\n      0x00\n      keccak256\n      0x00\n        /* \"project_management/Project.sol\":3740:3760  delete projects[_id] */\n      dup1\n      dup3\n      add\n      0x00\n      swap1\n      sstore\n      0x01\n      dup3\n      add\n      0x00\n      tag_108\n      swap2\n      swap1\n      tag_109\n      jump\t// in\n    tag_108:\n      0x02\n      dup3\n      add\n      0x00\n      tag_110\n      swap2\n      swap1\n      tag_109\n      jump\t// in\n    tag_110:\n      0x03\n      dup3\n      add\n      0x00\n      tag_111\n      swap2\n      swap1\n      tag_109\n      jump\t// in\n    tag_111:\n      0x04\n      dup3\n      add\n      0x00\n      swap1\n      sstore\n      0x05\n      dup3\n      add\n      0x00\n      swap1\n      sstore\n      0x06\n      dup3\n      add\n      0x00\n      swap1\n      sstore\n      0x07\n      dup3\n      add\n      0x00\n      swap1\n      sstore\n      0x08\n      dup3\n      add\n      0x00\n      tag_112\n      swap2\n      swap1\n      tag_109\n      jump\t// in\n    tag_112:\n      0x09\n      dup3\n      add\n      0x00\n      tag_113\n      swap2\n      swap1\n      tag_109\n      jump\t// in\n    tag_113:\n      0x0a\n      dup3\n      add\n      exp(0x0100, 0x00)\n      dup2\n      sload\n      swap1\n      0xff\n      mul\n      not\n      and\n      swap1\n      sstore\n      0x0b\n      dup3\n      add\n      0x00\n      tag_114\n      swap2\n      swap1\n      tag_115\n      jump\t// in\n    tag_114:\n      pop\n      pop\n        /* \"project_management/Project.sol\":3687:3767  function deleteProject(uint256 _id) public {... */\n      pop\n      jump\t// out\n        /* \"project_management/Project.sol\":3092:3401  function addPaymentInfo(... */\n    tag_25:\n        /* \"project_management/Project.sol\":3266:3273  _amount */\n      dup2\n        /* \"project_management/Project.sol\":3230:3238  projects */\n      0x02\n        /* \"project_management/Project.sol\":3230:3250  projects[_projectId] */\n      0x00\n        /* \"project_management/Project.sol\":3239:3249  _projectId */\n      dup6\n        /* \"project_management/Project.sol\":3230:3250  projects[_projectId] */\n      dup2\n      mstore\n      0x20\n      add\n      swap1\n      dup2\n      mstore\n      0x20\n      add\n      0x00\n      keccak256\n        /* \"project_management/Project.sol\":3230:3262  projects[_projectId].fundedMoney */\n      0x05\n      add\n      0x00\n        /* \"project_management/Project.sol\":3230:3273  projects[_projectId].fundedMoney += _amount */\n      dup3\n      dup3\n      sload\n      tag_117\n      swap2\n      swap1\n      tag_118\n      jump\t// in\n    tag_117:\n      swap3\n      pop\n      pop\n      dup2\n      swap1\n      sstore\n      pop\n        /* \"project_management/Project.sol\":3283:3291  projects */\n      0x02\n        /* \"project_management/Project.sol\":3283:3303  projects[_projectId] */\n      0x00\n        /* \"project_management/Project.sol\":3292:3302  _projectId */\n      dup5\n        /* \"project_management/Project.sol\":3283:3303  projects[_projectId] */\n      dup2\n      mstore\n      0x20\n      add\n      swap1\n      dup2\n      mstore\n      0x20\n      add\n      0x00\n      keccak256\n        /* \"project_management/Project.sol\":3283:3310  projects[_projectId].donors */\n      0x0b\n      add\n        /* \"project_management/Project.sol\":3316:3330  _donorUsername */\n      dup2\n        /* \"project_management/Project.sol\":3283:3331  projects[_projectId].donors.push(_donorUsername) */\n      swap1\n      dup1\n      0x01\n      dup2\n      sload\n      add\n      dup1\n      dup3\n      sstore\n      dup1\n      swap2\n      pop\n      pop\n      0x01\n      swap1\n      sub\n      swap1\n      0x00\n      mstore\n      keccak256(0x00, 0x20)\n      add\n      0x00\n      swap1\n      swap2\n      swap1\n      swap2\n      swap1\n      swap2\n      pop\n      swap1\n      dup1\n      mload\n      swap1\n      0x20\n      add\n      swap1\n      tag_120\n      swap3\n      swap2\n      swap1\n      tag_121\n      jump\t// in\n    tag_120:\n      pop\n        /* \"project_management/Project.sol\":3341:3361  donorProjectMappings */\n      0x01\n        /* \"project_management/Project.sol\":3362:3376  _donorUsername */\n      dup2\n        /* \"project_management/Project.sol\":3341:3377  donorProjectMappings[_donorUsername] */\n      mload(0x40)\n      tag_122\n      swap2\n      swap1\n      tag_47\n      jump\t// in\n    tag_122:\n      swap1\n      dup2\n      mstore\n      0x20\n      add\n      mload(0x40)\n      dup1\n      swap2\n      sub\n      swap1\n      keccak256\n        /* \"project_management/Project.sol\":3383:3393  _projectId */\n      dup4\n        /* \"project_management/Project.sol\":3341:3394  donorProjectMappings[_donorUsername].push(_projectId) */\n      swap1\n      dup1\n      0x01\n      dup2\n      sload\n      add\n      dup1\n      dup3\n      sstore\n      dup1\n      swap2\n      pop\n      pop\n      0x01\n      swap1\n      sub\n      swap1\n      0x00\n      mstore\n      keccak256(0x00, 0x20)\n      add\n      0x00\n      swap1\n      swap2\n      swap1\n      swap2\n      swap1\n      swap2\n      pop\n      sstore\n        /* \"project_management/Project.sol\":3092:3401  function addPaymentInfo(... */\n      pop\n      pop\n      pop\n      jump\t// out\n        /* \"project_management/Project.sol\":3016:3086  function getPatientByDonorName(string memory _donorUsername) public {} */\n    tag_28:\n      pop\n      jump\t// out\n        /* \"project_management/Project.sol\":2014:3010  function addProject(... */\n    tag_32:\n        /* \"project_management/Project.sol\":2290:2295  count */\n      0x00\n      dup1\n        /* \"project_management/Project.sol\":2290:2297  count++ */\n      dup2\n      sload\n      dup1\n      swap3\n      swap2\n      swap1\n      tag_126\n      swap1\n      tag_105\n      jump\t// in\n    tag_126:\n      swap2\n      swap1\n      pop\n      sstore\n      pop\n        /* \"project_management/Project.sol\":2308:2333  string[] memory emptyList */\n      0x60\n        /* \"project_management/Project.sol\":2362:2686  ProjectInfo(... */\n      mload(0x40)\n      dup1\n      0x0180\n      add\n      0x40\n      mstore\n      dup1\n        /* \"project_management/Project.sol\":2387:2392  count */\n      sload(0x00)\n        /* \"project_management/Project.sol\":2362:2686  ProjectInfo(... */\n      dup2\n      mstore\n      0x20\n      add\n        /* \"project_management/Project.sol\":2406:2410  name */\n      dup10\n        /* \"project_management/Project.sol\":2362:2686  ProjectInfo(... */\n      dup2\n      mstore\n      0x20\n      add\n        /* \"project_management/Project.sol\":2424:2435  description */\n      dup9\n        /* \"project_management/Project.sol\":2362:2686  ProjectInfo(... */\n      dup2\n      mstore\n      0x20\n      add\n        /* \"project_management/Project.sol\":2449:2457  location */\n      dup8\n        /* \"project_management/Project.sol\":2362:2686  ProjectInfo(... */\n      dup2\n      mstore\n      0x20\n      add\n        /* \"project_management/Project.sol\":2471:2486  estimatedBudget */\n      dup7\n        /* \"project_management/Project.sol\":2362:2686  ProjectInfo(... */\n      dup2\n      mstore\n      0x20\n      add\n        /* \"project_management/Project.sol\":2500:2501  0 */\n      0x00\n        /* \"project_management/Project.sol\":2362:2686  ProjectInfo(... */\n      dup2\n      mstore\n      0x20\n      add\n        /* \"project_management/Project.sol\":2515:2532  estimatedDuration */\n      dup6\n        /* \"project_management/Project.sol\":2362:2686  ProjectInfo(... */\n      dup2\n      mstore\n      0x20\n      add\n        /* \"project_management/Project.sol\":2564:2568  1000 */\n      0x03e8\n        /* \"project_management/Project.sol\":2546:2561  block.timestamp */\n      timestamp\n        /* \"project_management/Project.sol\":2546:2568  block.timestamp * 1000 */\n      tag_127\n      swap2\n      swap1\n      tag_128\n      jump\t// in\n    tag_127:\n        /* \"project_management/Project.sol\":2362:2686  ProjectInfo(... */\n      dup2\n      mstore\n      0x20\n      add\n        /* \"project_management/Project.sol\":2582:2591  companyId */\n      dup5\n        /* \"project_management/Project.sol\":2362:2686  ProjectInfo(... */\n      dup2\n      mstore\n      0x20\n      add\n        /* \"project_management/Project.sol\":2605:2618  accountNumber */\n      dup4\n        /* \"project_management/Project.sol\":2362:2686  ProjectInfo(... */\n      dup2\n      mstore\n      0x20\n      add\n        /* \"project_management/Project.sol\":2632:2653  ProjectStatus.PENDING */\n      0x00\n        /* \"project_management/Project.sol\":2362:2686  ProjectInfo(... */\n      0x04\n      dup2\n      gt\n      iszero\n      tag_129\n      jumpi\n      tag_130\n      tag_91\n      jump\t// in\n    tag_130:\n    tag_129:\n      dup2\n      mstore\n      0x20\n      add\n        /* \"project_management/Project.sol\":2667:2676  emptyList */\n      dup3\n        /* \"project_management/Project.sol\":2362:2686  ProjectInfo(... */\n      dup2\n      mstore\n      pop\n        /* \"project_management/Project.sol\":2344:2352  projects */\n      0x02\n        /* \"project_management/Project.sol\":2344:2359  projects[count] */\n      0x00\n        /* \"project_management/Project.sol\":2353:2358  count */\n      dup1\n      sload\n        /* \"project_management/Project.sol\":2344:2359  projects[count] */\n      dup2\n      mstore\n      0x20\n      add\n      swap1\n      dup2\n      mstore\n      0x20\n      add\n      0x00\n      keccak256\n        /* \"project_management/Project.sol\":2344:2686  projects[count] = ProjectInfo(... */\n      0x00\n      dup3\n      add\n      mload\n      dup2\n      0x00\n      add\n      sstore\n      0x20\n      dup3\n      add\n      mload\n      dup2\n      0x01\n      add\n      swap1\n      dup1\n      mload\n      swap1\n      0x20\n      add\n      swap1\n      tag_131\n      swap3\n      swap2\n      swap1\n      tag_121\n      jump\t// in\n    tag_131:\n      pop\n      0x40\n      dup3\n      add\n      mload\n      dup2\n      0x02\n      add\n      swap1\n      dup1\n      mload\n      swap1\n      0x20\n      add\n      swap1\n      tag_132\n      swap3\n      swap2\n      swap1\n      tag_121\n      jump\t// in\n    tag_132:\n      pop\n      0x60\n      dup3\n      add\n      mload\n      dup2\n      0x03\n      add\n      swap1\n      dup1\n      mload\n      swap1\n      0x20\n      add\n      swap1\n      tag_133\n      swap3\n      swap2\n      swap1\n      tag_121\n      jump\t// in\n    tag_133:\n      pop\n      0x80\n      dup3\n      add\n      mload\n      dup2\n      0x04\n      add\n      sstore\n      0xa0\n      dup3\n      add\n      mload\n      dup2\n      0x05\n      add\n      sstore\n      0xc0\n      dup3\n      add\n      mload\n      dup2\n      0x06\n      add\n      sstore\n      0xe0\n      dup3\n      add\n      mload\n      dup2\n      0x07\n      add\n      sstore\n      0x0100\n      dup3\n      add\n      mload\n      dup2\n      0x08\n      add\n      swap1\n      dup1\n      mload\n      swap1\n      0x20\n      add\n      swap1\n      tag_134\n      swap3\n      swap2\n      swap1\n      tag_121\n      jump\t// in\n    tag_134:\n      pop\n      0x0120\n      dup3\n      add\n      mload\n      dup2\n      0x09\n      add\n      swap1\n      dup1\n      mload\n      swap1\n      0x20\n      add\n      swap1\n      tag_135\n      swap3\n      swap2\n      swap1\n      tag_121\n      jump\t// in\n    tag_135:\n      pop\n      0x0140\n      dup3\n      add\n      mload\n      dup2\n      0x0a\n      add\n      exp(0x0100, 0x00)\n      dup2\n      sload\n      dup2\n      0xff\n      mul\n      not\n      and\n      swap1\n      dup4\n      0x04\n      dup2\n      gt\n      iszero\n      tag_136\n      jumpi\n      tag_137\n      tag_91\n      jump\t// in\n    tag_137:\n    tag_136:\n      mul\n      or\n      swap1\n      sstore\n      pop\n      0x0160\n      dup3\n      add\n      mload\n      dup2\n      0x0b\n      add\n      swap1\n      dup1\n      mload\n      swap1\n      0x20\n      add\n      swap1\n      tag_138\n      swap3\n      swap2\n      swap1\n      tag_139\n      jump\t// in\n    tag_138:\n      pop\n      swap1\n      pop\n      pop\n        /* \"project_management/Project.sol\":2922:2931  companyId */\n      dup3\n        /* \"project_management/Project.sol\":2701:3003  AddedProject(... */\n      mload(0x40)\n      tag_140\n      swap2\n      swap1\n      tag_47\n      jump\t// in\n    tag_140:\n      mload(0x40)\n      dup1\n      swap2\n      sub\n      swap1\n      keccak256\n        /* \"project_management/Project.sol\":2746:2750  name */\n      dup9\n        /* \"project_management/Project.sol\":2701:3003  AddedProject(... */\n      mload(0x40)\n      tag_141\n      swap2\n      swap1\n      tag_47\n      jump\t// in\n    tag_141:\n      mload(0x40)\n      dup1\n      swap2\n      sub\n      swap1\n      keccak256\n        /* \"project_management/Project.sol\":2727:2732  count */\n      sload(0x00)\n        /* \"project_management/Project.sol\":2701:3003  AddedProject(... */\n      0x0e9749c08d7a6ba465fd5dcc39278788a16455c3d467d09018c1695c5b39ca9a\n        /* \"project_management/Project.sol\":2764:2775  description */\n      dup11\n        /* \"project_management/Project.sol\":2789:2797  location */\n      dup11\n        /* \"project_management/Project.sol\":2811:2826  estimatedBudget */\n      dup11\n        /* \"project_management/Project.sol\":2840:2857  estimatedDuration */\n      dup11\n        /* \"project_management/Project.sol\":2871:2872  0 */\n      0x00\n        /* \"project_management/Project.sol\":2904:2908  1000 */\n      0x03e8\n        /* \"project_management/Project.sol\":2886:2901  block.timestamp */\n      timestamp\n        /* \"project_management/Project.sol\":2886:2908  block.timestamp * 1000 */\n      tag_142\n      swap2\n      swap1\n      tag_128\n      jump\t// in\n    tag_142:\n        /* \"project_management/Project.sol\":2945:2958  accountNumber */\n      dup12\n        /* \"project_management/Project.sol\":2972:2993  ProjectStatus.PENDING */\n      0x00\n        /* \"project_management/Project.sol\":2701:3003  AddedProject(... */\n      mload(0x40)\n      tag_143\n      swap9\n      swap8\n      swap7\n      swap6\n      swap5\n      swap4\n      swap3\n      swap2\n      swap1\n      tag_144\n      jump\t// in\n    tag_143:\n      mload(0x40)\n      dup1\n      swap2\n      sub\n      swap1\n      log4\n        /* \"project_management/Project.sol\":2280:3010  {... */\n      pop\n        /* \"project_management/Project.sol\":2014:3010  function addProject(... */\n      pop\n      pop\n      pop\n      pop\n      pop\n      pop\n      pop\n      jump\t// out\n        /* \"project_management/Project.sol\":4087:4589  function getAllProjects() public view returns (ProjectInfo[] memory) {... */\n    tag_34:\n        /* \"project_management/Project.sol\":4134:4154  ProjectInfo[] memory */\n      0x60\n        /* \"project_management/Project.sol\":4166:4180  uint256 length */\n      0x00\n        /* \"project_management/Project.sol\":4195:4208  uint256 index */\n      dup1\n        /* \"project_management/Project.sol\":4211:4212  0 */\n      0x00\n        /* \"project_management/Project.sol\":4195:4212  uint256 index = 0 */\n      swap1\n      pop\n        /* \"project_management/Project.sol\":4190:4336  for (uint256 index = 0; index < count + 1; index++) {... */\n    tag_146:\n        /* \"project_management/Project.sol\":4230:4231  1 */\n      0x01\n        /* \"project_management/Project.sol\":4222:4227  count */\n      sload(0x00)\n        /* \"project_management/Project.sol\":4222:4231  count + 1 */\n      tag_149\n      swap2\n      swap1\n      tag_118\n      jump\t// in\n    tag_149:\n        /* \"project_management/Project.sol\":4214:4219  index */\n      dup2\n        /* \"project_management/Project.sol\":4214:4231  index < count + 1 */\n      lt\n        /* \"project_management/Project.sol\":4190:4336  for (uint256 index = 0; index < count + 1; index++) {... */\n      iszero\n      tag_147\n      jumpi\n        /* \"project_management/Project.sol\":4282:4283  0 */\n      0x00\n        /* \"project_management/Project.sol\":4260:4268  projects */\n      0x02\n        /* \"project_management/Project.sol\":4260:4275  projects[index] */\n      0x00\n        /* \"project_management/Project.sol\":4269:4274  index */\n      dup4\n        /* \"project_management/Project.sol\":4260:4275  projects[index] */\n      dup2\n      mstore\n      0x20\n      add\n      swap1\n      dup2\n      mstore\n      0x20\n      add\n      0x00\n      keccak256\n        /* \"project_management/Project.sol\":4260:4278  projects[index].id */\n      0x00\n      add\n      sload\n        /* \"project_management/Project.sol\":4260:4283  projects[index].id != 0 */\n      eq\n        /* \"project_management/Project.sol\":4256:4326  if (projects[index].id != 0) {... */\n      tag_150\n      jumpi\n        /* \"project_management/Project.sol\":4303:4311  length++ */\n      dup2\n      dup1\n      tag_151\n      swap1\n      tag_105\n      jump\t// in\n    tag_151:\n      swap3\n      pop\n      pop\n        /* \"project_management/Project.sol\":4256:4326  if (projects[index].id != 0) {... */\n    tag_150:\n        /* \"project_management/Project.sol\":4233:4240  index++ */\n      dup1\n      dup1\n      tag_152\n      swap1\n      tag_105\n      jump\t// in\n    tag_152:\n      swap2\n      pop\n      pop\n        /* \"project_management/Project.sol\":4190:4336  for (uint256 index = 0; index < count + 1; index++) {... */\n      jump(tag_146)\n    tag_147:\n      pop\n        /* \"project_management/Project.sol\":4345:4368  ProjectInfo[] memory sp */\n      0x00\n        /* \"project_management/Project.sol\":4389:4395  length */\n      dup2\n        /* \"project_management/Project.sol\":4371:4396  new ProjectInfo[](length) */\n      0xffffffffffffffff\n      dup2\n      gt\n      iszero\n      tag_153\n      jumpi\n      tag_154\n      tag_50\n      jump\t// in\n    tag_154:\n    tag_153:\n      mload(0x40)\n      swap1\n      dup1\n      dup3\n      mstore\n      dup1\n      0x20\n      mul\n      0x20\n      add\n      dup3\n      add\n      0x40\n      mstore\n      dup1\n      iszero\n      tag_155\n      jumpi\n      dup2\n      0x20\n      add\n    tag_156:\n      tag_157\n      tag_54\n      jump\t// in\n    tag_157:\n      dup2\n      mstore\n      0x20\n      add\n      swap1\n      0x01\n      swap1\n      sub\n      swap1\n      dup2\n      tag_156\n      jumpi\n      swap1\n      pop\n    tag_155:\n      pop\n        /* \"project_management/Project.sol\":4345:4396  ProjectInfo[] memory sp = new ProjectInfo[](length) */\n      swap1\n      pop\n        /* \"project_management/Project.sol\":4406:4421  uint256 counter */\n      0x00\n        /* \"project_management/Project.sol\":4440:4453  uint256 index */\n      dup1\n        /* \"project_management/Project.sol\":4456:4457  1 */\n      0x01\n        /* \"project_management/Project.sol\":4440:4457  uint256 index = 1 */\n      swap1\n      pop\n        /* \"project_management/Project.sol\":4435:4564  for (uint256 index = 1; index < count + 1; index++) {... */\n    tag_158:\n        /* \"project_management/Project.sol\":4475:4476  1 */\n      0x01\n        /* \"project_management/Project.sol\":4467:4472  count */\n      sload(0x00)\n        /* \"project_management/Project.sol\":4467:4476  count + 1 */\n      tag_161\n      swap2\n      swap1\n      tag_118\n      jump\t// in\n    tag_161:\n        /* \"project_management/Project.sol\":4459:4464  index */\n      dup2\n        /* \"project_management/Project.sol\":4459:4476  index < count + 1 */\n      lt\n        /* \"project_management/Project.sol\":4435:4564  for (uint256 index = 1; index < count + 1; index++) {... */\n      iszero\n      tag_159\n      jumpi\n        /* \"project_management/Project.sol\":4515:4523  projects */\n      0x02\n        /* \"project_management/Project.sol\":4515:4530  projects[index] */\n      0x00\n        /* \"project_management/Project.sol\":4524:4529  index */\n      dup3\n        /* \"project_management/Project.sol\":4515:4530  projects[index] */\n      dup2\n      mstore\n      0x20\n      add\n      swap1\n      dup2\n      mstore\n      0x20\n      add\n      0x00\n      keccak256\n        /* \"project_management/Project.sol\":4501:4530  sp[counter] = projects[index] */\n      mload(0x40)\n      dup1\n      0x0180\n      add\n      0x40\n      mstore\n      swap1\n      dup2\n      0x00\n      dup3\n      add\n      sload\n      dup2\n      mstore\n      0x20\n      add\n      0x01\n      dup3\n      add\n      dup1\n      sload\n      tag_162\n      swap1\n      tag_64\n      jump\t// in\n    tag_162:\n      dup1\n      0x1f\n      add\n      0x20\n      dup1\n      swap2\n      div\n      mul\n      0x20\n      add\n      mload(0x40)\n      swap1\n      dup2\n      add\n      0x40\n      mstore\n      dup1\n      swap3\n      swap2\n      swap1\n      dup2\n      dup2\n      mstore\n      0x20\n      add\n      dup3\n      dup1\n      sload\n      tag_163\n      swap1\n      tag_64\n      jump\t// in\n    tag_163:\n      dup1\n      iszero\n      tag_164\n      jumpi\n      dup1\n      0x1f\n      lt\n      tag_165\n      jumpi\n      0x0100\n      dup1\n      dup4\n      sload\n      div\n      mul\n      dup4\n      mstore\n      swap2\n      0x20\n      add\n      swap2\n      jump(tag_164)\n    tag_165:\n      dup3\n      add\n      swap2\n      swap1\n      0x00\n      mstore\n      keccak256(0x00, 0x20)\n      swap1\n    tag_166:\n      dup2\n      sload\n      dup2\n      mstore\n      swap1\n      0x01\n      add\n      swap1\n      0x20\n      add\n      dup1\n      dup4\n      gt\n      tag_166\n      jumpi\n      dup3\n      swap1\n      sub\n      0x1f\n      and\n      dup3\n      add\n      swap2\n    tag_164:\n      pop\n      pop\n      pop\n      pop\n      pop\n      dup2\n      mstore\n      0x20\n      add\n      0x02\n      dup3\n      add\n      dup1\n      sload\n      tag_167\n      swap1\n      tag_64\n      jump\t// in\n    tag_167:\n      dup1\n      0x1f\n      add\n      0x20\n      dup1\n      swap2\n      div\n      mul\n      0x20\n      add\n      mload(0x40)\n      swap1\n      dup2\n      add\n      0x40\n      mstore\n      dup1\n      swap3\n      swap2\n      swap1\n      dup2\n      dup2\n      mstore\n      0x20\n      add\n      dup3\n      dup1\n      sload\n      tag_168\n      swap1\n      tag_64\n      jump\t// in\n    tag_168:\n      dup1\n      iszero\n      tag_169\n      jumpi\n      dup1\n      0x1f\n      lt\n      tag_170\n      jumpi\n      0x0100\n      dup1\n      dup4\n      sload\n      div\n      mul\n      dup4\n      mstore\n      swap2\n      0x20\n      add\n      swap2\n      jump(tag_169)\n    tag_170:\n      dup3\n      add\n      swap2\n      swap1\n      0x00\n      mstore\n      keccak256(0x00, 0x20)\n      swap1\n    tag_171:\n      dup2\n      sload\n      dup2\n      mstore\n      swap1\n      0x01\n      add\n      swap1\n      0x20\n      add\n      dup1\n      dup4\n      gt\n      tag_171\n      jumpi\n      dup3\n      swap1\n      sub\n      0x1f\n      and\n      dup3\n      add\n      swap2\n    tag_169:\n      pop\n      pop\n      pop\n      pop\n      pop\n      dup2\n      mstore\n      0x20\n      add\n      0x03\n      dup3\n      add\n      dup1\n      sload\n      tag_172\n      swap1\n      tag_64\n      jump\t// in\n    tag_172:\n      dup1\n      0x1f\n      add\n      0x20\n      dup1\n      swap2\n      div\n      mul\n      0x20\n      add\n      mload(0x40)\n      swap1\n      dup2\n      add\n      0x40\n      mstore\n      dup1\n      swap3\n      swap2\n      swap1\n      dup2\n      dup2\n      mstore\n      0x20\n      add\n      dup3\n      dup1\n      sload\n      tag_173\n      swap1\n      tag_64\n      jump\t// in\n    tag_173:\n      dup1\n      iszero\n      tag_174\n      jumpi\n      dup1\n      0x1f\n      lt\n      tag_175\n      jumpi\n      0x0100\n      dup1\n      dup4\n      sload\n      div\n      mul\n      dup4\n      mstore\n      swap2\n      0x20\n      add\n      swap2\n      jump(tag_174)\n    tag_175:\n      dup3\n      add\n      swap2\n      swap1\n      0x00\n      mstore\n      keccak256(0x00, 0x20)\n      swap1\n    tag_176:\n      dup2\n      sload\n      dup2\n      mstore\n      swap1\n      0x01\n      add\n      swap1\n      0x20\n      add\n      dup1\n      dup4\n      gt\n      tag_176\n      jumpi\n      dup3\n      swap1\n      sub\n      0x1f\n      and\n      dup3\n      add\n      swap2\n    tag_174:\n      pop\n      pop\n      pop\n      pop\n      pop\n      dup2\n      mstore\n      0x20\n      add\n      0x04\n      dup3\n      add\n      sload\n      dup2\n      mstore\n      0x20\n      add\n      0x05\n      dup3\n      add\n      sload\n      dup2\n      mstore\n      0x20\n      add\n      0x06\n      dup3\n      add\n      sload\n      dup2\n      mstore\n      0x20\n      add\n      0x07\n      dup3\n      add\n      sload\n      dup2\n      mstore\n      0x20\n      add\n      0x08\n      dup3\n      add\n      dup1\n      sload\n      tag_177\n      swap1\n      tag_64\n      jump\t// in\n    tag_177:\n      dup1\n      0x1f\n      add\n      0x20\n      dup1\n      swap2\n      div\n      mul\n      0x20\n      add\n      mload(0x40)\n      swap1\n      dup2\n      add\n      0x40\n      mstore\n      dup1\n      swap3\n      swap2\n      swap1\n      dup2\n      dup2\n      mstore\n      0x20\n      add\n      dup3\n      dup1\n      sload\n      tag_178\n      swap1\n      tag_64\n      jump\t// in\n    tag_178:\n      dup1\n      iszero\n      tag_179\n      jumpi\n      dup1\n      0x1f\n      lt\n      tag_180\n      jumpi\n      0x0100\n      dup1\n      dup4\n      sload\n      div\n      mul\n      dup4\n      mstore\n      swap2\n      0x20\n      add\n      swap2\n      jump(tag_179)\n    tag_180:\n      dup3\n      add\n      swap2\n      swap1\n      0x00\n      mstore\n      keccak256(0x00, 0x20)\n      swap1\n    tag_181:\n      dup2\n      sload\n      dup2\n      mstore\n      swap1\n      0x01\n      add\n      swap1\n      0x20\n      add\n      dup1\n      dup4\n      gt\n      tag_181\n      jumpi\n      dup3\n      swap1\n      sub\n      0x1f\n      and\n      dup3\n      add\n      swap2\n    tag_179:\n      pop\n      pop\n      pop\n      pop\n      pop\n      dup2\n      mstore\n      0x20\n      add\n      0x09\n      dup3\n      add\n      dup1\n      sload\n      tag_182\n      swap1\n      tag_64\n      jump\t// in\n    tag_182:\n      dup1\n      0x1f\n      add\n      0x20\n      dup1\n      swap2\n      div\n      mul\n      0x20\n      add\n      mload(0x40)\n      swap1\n      dup2\n      add\n      0x40\n      mstore\n      dup1\n      swap3\n      swap2\n      swap1\n      dup2\n      dup2\n      mstore\n      0x20\n      add\n      dup3\n      dup1\n      sload\n      tag_183\n      swap1\n      tag_64\n      jump\t// in\n    tag_183:\n      dup1\n      iszero\n      tag_184\n      jumpi\n      dup1\n      0x1f\n      lt\n      tag_185\n      jumpi\n      0x0100\n      dup1\n      dup4\n      sload\n      div\n      mul\n      dup4\n      mstore\n      swap2\n      0x20\n      add\n      swap2\n      jump(tag_184)\n    tag_185:\n      dup3\n      add\n      swap2\n      swap1\n      0x00\n      mstore\n      keccak256(0x00, 0x20)\n      swap1\n    tag_186:\n      dup2\n      sload\n      dup2\n      mstore\n      swap1\n      0x01\n      add\n      swap1\n      0x20\n      add\n      dup1\n      dup4\n      gt\n      tag_186\n      jumpi\n      dup3\n      swap1\n      sub\n      0x1f\n      and\n      dup3\n      add\n      swap2\n    tag_184:\n      pop\n      pop\n      pop\n      pop\n      pop\n      dup2\n      mstore\n      0x20\n      add\n      0x0a\n      dup3\n      add\n      0x00\n      swap1\n      sload\n      swap1\n      0x0100\n      exp\n      swap1\n      div\n      0xff\n      and\n      0x04\n      dup2\n      gt\n      iszero\n      tag_187\n      jumpi\n      tag_188\n      tag_91\n      jump\t// in\n    tag_188:\n    tag_187:\n      0x04\n      dup2\n      gt\n      iszero\n      tag_189\n      jumpi\n      tag_190\n      tag_91\n      jump\t// in\n    tag_190:\n    tag_189:\n      dup2\n      mstore\n      0x20\n      add\n      0x0b\n      dup3\n      add\n      dup1\n      sload\n      dup1\n      0x20\n      mul\n      0x20\n      add\n      mload(0x40)\n      swap1\n      dup2\n      add\n      0x40\n      mstore\n      dup1\n      swap3\n      swap2\n      swap1\n      dup2\n      dup2\n      mstore\n      0x20\n      add\n      0x00\n      swap1\n    tag_191:\n      dup3\n      dup3\n      lt\n      iszero\n      tag_192\n      jumpi\n      dup4\n      dup3\n      swap1\n      0x00\n      mstore\n      keccak256(0x00, 0x20)\n      add\n      dup1\n      sload\n      tag_194\n      swap1\n      tag_64\n      jump\t// in\n    tag_194:\n      dup1\n      0x1f\n      add\n      0x20\n      dup1\n      swap2\n      div\n      mul\n      0x20\n      add\n      mload(0x40)\n      swap1\n      dup2\n      add\n      0x40\n      mstore\n      dup1\n      swap3\n      swap2\n      swap1\n      dup2\n      dup2\n      mstore\n      0x20\n      add\n      dup3\n      dup1\n      sload\n      tag_195\n      swap1\n      tag_64\n      jump\t// in\n    tag_195:\n      dup1\n      iszero\n      tag_196\n      jumpi\n      dup1\n      0x1f\n      lt\n      tag_197\n      jumpi\n      0x0100\n      dup1\n      dup4\n      sload\n      div\n      mul\n      dup4\n      mstore\n      swap2\n      0x20\n      add\n      swap2\n      jump(tag_196)\n    tag_197:\n      dup3\n      add\n      swap2\n      swap1\n      0x00\n      mstore\n      keccak256(0x00, 0x20)\n      swap1\n    tag_198:\n      dup2\n      sload\n      dup2\n      mstore\n      swap1\n      0x01\n      add\n      swap1\n      0x20\n      add\n      dup1\n      dup4\n      gt\n      tag_198\n      jumpi\n      dup3\n      swap1\n      sub\n      0x1f\n      and\n      dup3\n      add\n      swap2\n    tag_196:\n      pop\n      pop\n      pop\n      pop\n      pop\n      dup2\n      mstore\n      0x20\n      add\n      swap1\n      0x01\n      add\n      swap1\n      jump(tag_191)\n    tag_192:\n      pop\n      pop\n      pop\n      pop\n      dup2\n      mstore\n      pop\n      pop\n        /* \"project_management/Project.sol\":4501:4503  sp */\n      dup4\n        /* \"project_management/Project.sol\":4504:4511  counter */\n      dup4\n        /* \"project_management/Project.sol\":4501:4512  sp[counter] */\n      dup2\n      mload\n      dup2\n      lt\n      tag_199\n      jumpi\n      tag_200\n      tag_61\n      jump\t// in\n    tag_200:\n    tag_199:\n      0x20\n      mul\n      0x20\n      add\n      add\n        /* \"project_management/Project.sol\":4501:4530  sp[counter] = projects[index] */\n      dup2\n      swap1\n      mstore\n      pop\n        /* \"project_management/Project.sol\":4544:4553  counter++ */\n      dup2\n      dup1\n      tag_201\n      swap1\n      tag_105\n      jump\t// in\n    tag_201:\n      swap3\n      pop\n      pop\n        /* \"project_management/Project.sol\":4478:4485  index++ */\n      dup1\n      dup1\n      tag_202\n      swap1\n      tag_105\n      jump\t// in\n    tag_202:\n      swap2\n      pop\n      pop\n        /* \"project_management/Project.sol\":4435:4564  for (uint256 index = 1; index < count + 1; index++) {... */\n      jump(tag_158)\n    tag_159:\n      pop\n        /* \"project_management/Project.sol\":4580:4582  sp */\n      dup2\n        /* \"project_management/Project.sol\":4573:4582  return sp */\n      swap4\n      pop\n      pop\n      pop\n      pop\n        /* \"project_management/Project.sol\":4087:4589  function getAllProjects() public view returns (ProjectInfo[] memory) {... */\n      swap1\n      jump\t// out\n        /* \"project_management/Project.sol\":3849:3992  function getProjectById(uint256 _id)... */\n    tag_38:\n        /* \"project_management/Project.sol\":3931:3949  ProjectInfo memory */\n      tag_203\n      tag_54\n      jump\t// in\n    tag_203:\n        /* \"project_management/Project.sol\":3972:3980  projects */\n      0x02\n        /* \"project_management/Project.sol\":3972:3985  projects[_id] */\n      0x00\n        /* \"project_management/Project.sol\":3981:3984  _id */\n      dup4\n        /* \"project_management/Project.sol\":3972:3985  projects[_id] */\n      dup2\n      mstore\n      0x20\n      add\n      swap1\n      dup2\n      mstore\n      0x20\n      add\n      0x00\n      keccak256\n        /* \"project_management/Project.sol\":3965:3985  return projects[_id] */\n      mload(0x40)\n      dup1\n      0x0180\n      add\n      0x40\n      mstore\n      swap1\n      dup2\n      0x00\n      dup3\n      add\n      sload\n      dup2\n      mstore\n      0x20\n      add\n      0x01\n      dup3\n      add\n      dup1\n      sload\n      tag_205\n      swap1\n      tag_64\n      jump\t// in\n    tag_205:\n      dup1\n      0x1f\n      add\n      0x20\n      dup1\n      swap2\n      div\n      mul\n      0x20\n      add\n      mload(0x40)\n      swap1\n      dup2\n      add\n      0x40\n      mstore\n      dup1\n      swap3\n      swap2\n      swap1\n      dup2\n      dup2\n      mstore\n      0x20\n      add\n      dup3\n      dup1\n      sload\n      tag_206\n      swap1\n      tag_64\n      jump\t// in\n    tag_206:\n      dup1\n      iszero\n      tag_207\n      jumpi\n      dup1\n      0x1f\n      lt\n      tag_208\n      jumpi\n      0x0100\n      dup1\n      dup4\n      sload\n      div\n      mul\n      dup4\n      mstore\n      swap2\n      0x20\n      add\n      swap2\n      jump(tag_207)\n    tag_208:\n      dup3\n      add\n      swap2\n      swap1\n      0x00\n      mstore\n      keccak256(0x00, 0x20)\n      swap1\n    tag_209:\n      dup2\n      sload\n      dup2\n      mstore\n      swap1\n      0x01\n      add\n      swap1\n      0x20\n      add\n      dup1\n      dup4\n      gt\n      tag_209\n      jumpi\n      dup3\n      swap1\n      sub\n      0x1f\n      and\n      dup3\n      add\n      swap2\n    tag_207:\n      pop\n      pop\n      pop\n      pop\n      pop\n      dup2\n      mstore\n      0x20\n      add\n      0x02\n      dup3\n      add\n      dup1\n      sload\n      tag_210\n      swap1\n      tag_64\n      jump\t// in\n    tag_210:\n      dup1\n      0x1f\n      add\n      0x20\n      dup1\n      swap2\n      div\n      mul\n      0x20\n      add\n      mload(0x40)\n      swap1\n      dup2\n      add\n      0x40\n      mstore\n      dup1\n      swap3\n      swap2\n      swap1\n      dup2\n      dup2\n      mstore\n      0x20\n      add\n      dup3\n      dup1\n      sload\n      tag_211\n      swap1\n      tag_64\n      jump\t// in\n    tag_211:\n      dup1\n      iszero\n      tag_212\n      jumpi\n      dup1\n      0x1f\n      lt\n      tag_213\n      jumpi\n      0x0100\n      dup1\n      dup4\n      sload\n      div\n      mul\n      dup4\n      mstore\n      swap2\n      0x20\n      add\n      swap2\n      jump(tag_212)\n    tag_213:\n      dup3\n      add\n      swap2\n      swap1\n      0x00\n      mstore\n      keccak256(0x00, 0x20)\n      swap1\n    tag_214:\n      dup2\n      sload\n      dup2\n      mstore\n      swap1\n      0x01\n      add\n      swap1\n      0x20\n      add\n      dup1\n      dup4\n      gt\n      tag_214\n      jumpi\n      dup3\n      swap1\n      sub\n      0x1f\n      and\n      dup3\n      add\n      swap2\n    tag_212:\n      pop\n      pop\n      pop\n      pop\n      pop\n      dup2\n      mstore\n      0x20\n      add\n      0x03\n      dup3\n      add\n      dup1\n      sload\n      tag_215\n      swap1\n      tag_64\n      jump\t// in\n    tag_215:\n      dup1\n      0x1f\n      add\n      0x20\n      dup1\n      swap2\n      div\n      mul\n      0x20\n      add\n      mload(0x40)\n      swap1\n      dup2\n      add\n      0x40\n      mstore\n      dup1\n      swap3\n      swap2\n      swap1\n      dup2\n      dup2\n      mstore\n      0x20\n      add\n      dup3\n      dup1\n      sload\n      tag_216\n      swap1\n      tag_64\n      jump\t// in\n    tag_216:\n      dup1\n      iszero\n      tag_217\n      jumpi\n      dup1\n      0x1f\n      lt\n      tag_218\n      jumpi\n      0x0100\n      dup1\n      dup4\n      sload\n      div\n      mul\n      dup4\n      mstore\n      swap2\n      0x20\n      add\n      swap2\n      jump(tag_217)\n    tag_218:\n      dup3\n      add\n      swap2\n      swap1\n      0x00\n      mstore\n      keccak256(0x00, 0x20)\n      swap1\n    tag_219:\n      dup2\n      sload\n      dup2\n      mstore\n      swap1\n      0x01\n      add\n      swap1\n      0x20\n      add\n      dup1\n      dup4\n      gt\n      tag_219\n      jumpi\n      dup3\n      swap1\n      sub\n      0x1f\n      and\n      dup3\n      add\n      swap2\n    tag_217:\n      pop\n      pop\n      pop\n      pop\n      pop\n      dup2\n      mstore\n      0x20\n      add\n      0x04\n      dup3\n      add\n      sload\n      dup2\n      mstore\n      0x20\n      add\n      0x05\n      dup3\n      add\n      sload\n      dup2\n      mstore\n      0x20\n      add\n      0x06\n      dup3\n      add\n      sload\n      dup2\n      mstore\n      0x20\n      add\n      0x07\n      dup3\n      add\n      sload\n      dup2\n      mstore\n      0x20\n      add\n      0x08\n      dup3\n      add\n      dup1\n      sload\n      tag_220\n      swap1\n      tag_64\n      jump\t// in\n    tag_220:\n      dup1\n      0x1f\n      add\n      0x20\n      dup1\n      swap2\n      div\n      mul\n      0x20\n      add\n      mload(0x40)\n      swap1\n      dup2\n      add\n      0x40\n      mstore\n      dup1\n      swap3\n      swap2\n      swap1\n      dup2\n      dup2\n      mstore\n      0x20\n      add\n      dup3\n      dup1\n      sload\n      tag_221\n      swap1\n      tag_64\n      jump\t// in\n    tag_221:\n      dup1\n      iszero\n      tag_222\n      jumpi\n      dup1\n      0x1f\n      lt\n      tag_223\n      jumpi\n      0x0100\n      dup1\n      dup4\n      sload\n      div\n      mul\n      dup4\n      mstore\n      swap2\n      0x20\n      add\n      swap2\n      jump(tag_222)\n    tag_223:\n      dup3\n      add\n      swap2\n      swap1\n      0x00\n      mstore\n      keccak256(0x00, 0x20)\n      swap1\n    tag_224:\n      dup2\n      sload\n      dup2\n      mstore\n      swap1\n      0x01\n      add\n      swap1\n      0x20\n      add\n      dup1\n      dup4\n      gt\n      tag_224\n      jumpi\n      dup3\n      swap1\n      sub\n      0x1f\n      and\n      dup3\n      add\n      swap2\n    tag_222:\n      pop\n      pop\n      pop\n      pop\n      pop\n      dup2\n      mstore\n      0x20\n      add\n      0x09\n      dup3\n      add\n      dup1\n      sload\n      tag_225\n      swap1\n      tag_64\n      jump\t// in\n    tag_225:\n      dup1\n      0x1f\n      add\n      0x20\n      dup1\n      swap2\n      div\n      mul\n      0x20\n      add\n      mload(0x40)\n      swap1\n      dup2\n      add\n      0x40\n      mstore\n      dup1\n      swap3\n      swap2\n      swap1\n      dup2\n      dup2\n      mstore\n      0x20\n      add\n      dup3\n      dup1\n      sload\n      tag_226\n      swap1\n      tag_64\n      jump\t// in\n    tag_226:\n      dup1\n      iszero\n      tag_227\n      jumpi\n      dup1\n      0x1f\n      lt\n      tag_228\n      jumpi\n      0x0100\n      dup1\n      dup4\n      sload\n      div\n      mul\n      dup4\n      mstore\n      swap2\n      0x20\n      add\n      swap2\n      jump(tag_227)\n    tag_228:\n      dup3\n      add\n      swap2\n      swap1\n      0x00\n      mstore\n      keccak256(0x00, 0x20)\n      swap1\n    tag_229:\n      dup2\n      sload\n      dup2\n      mstore\n      swap1\n      0x01\n      add\n      swap1\n      0x20\n      add\n      dup1\n      dup4\n      gt\n      tag_229\n      jumpi\n      dup3\n      swap1\n      sub\n      0x1f\n      and\n      dup3\n      add\n      swap2\n    tag_227:\n      pop\n      pop\n      pop\n      pop\n      pop\n      dup2\n      mstore\n      0x20\n      add\n      0x0a\n      dup3\n      add\n      0x00\n      swap1\n      sload\n      swap1\n      0x0100\n      exp\n      swap1\n      div\n      0xff\n      and\n      0x04\n      dup2\n      gt\n      iszero\n      tag_230\n      jumpi\n      tag_231\n      tag_91\n      jump\t// in\n    tag_231:\n    tag_230:\n      0x04\n      dup2\n      gt\n      iszero\n      tag_232\n      jumpi\n      tag_233\n      tag_91\n      jump\t// in\n    tag_233:\n    tag_232:\n      dup2\n      mstore\n      0x20\n      add\n      0x0b\n      dup3\n      add\n      dup1\n      sload\n      dup1\n      0x20\n      mul\n      0x20\n      add\n      mload(0x40)\n      swap1\n      dup2\n      add\n      0x40\n      mstore\n      dup1\n      swap3\n      swap2\n      swap1\n      dup2\n      dup2\n      mstore\n      0x20\n      add\n      0x00\n      swap1\n    tag_234:\n      dup3\n      dup3\n      lt\n      iszero\n      tag_235\n      jumpi\n      dup4\n      dup3\n      swap1\n      0x00\n      mstore\n      keccak256(0x00, 0x20)\n      add\n      dup1\n      sload\n      tag_237\n      swap1\n      tag_64\n      jump\t// in\n    tag_237:\n      dup1\n      0x1f\n      add\n      0x20\n      dup1\n      swap2\n      div\n      mul\n      0x20\n      add\n      mload(0x40)\n      swap1\n      dup2\n      add\n      0x40\n      mstore\n      dup1\n      swap3\n      swap2\n      swap1\n      dup2\n      dup2\n      mstore\n      0x20\n      add\n      dup3\n      dup1\n      sload\n      tag_238\n      swap1\n      tag_64\n      jump\t// in\n    tag_238:\n      dup1\n      iszero\n      tag_239\n      jumpi\n      dup1\n      0x1f\n      lt\n      tag_240\n      jumpi\n      0x0100\n      dup1\n      dup4\n      sload\n      div\n      mul\n      dup4\n      mstore\n      swap2\n      0x20\n      add\n      swap2\n      jump(tag_239)\n    tag_240:\n      dup3\n      add\n      swap2\n      swap1\n      0x00\n      mstore\n      keccak256(0x00, 0x20)\n      swap1\n    tag_241:\n      dup2\n      sload\n      dup2\n      mstore\n      swap1\n      0x01\n      add\n      swap1\n      0x20\n      add\n      dup1\n      dup4\n      gt\n      tag_241\n      jumpi\n      dup3\n      swap1\n      sub\n      0x1f\n      and\n      dup3\n      add\n      swap2\n    tag_239:\n      pop\n      pop\n      pop\n      pop\n      pop\n      dup2\n      mstore\n      0x20\n      add\n      swap1\n      0x01\n      add\n      swap1\n      jump(tag_234)\n    tag_235:\n      pop\n      pop\n      pop\n      pop\n      dup2\n      mstore\n      pop\n      pop\n      swap1\n      pop\n        /* \"project_management/Project.sol\":3849:3992  function getProjectById(uint256 _id)... */\n      swap2\n      swap1\n      pop\n      jump\t// out\n        /* \"project_management/Project.sol\":3407:3681  function refundMoney(... */\n    tag_44:\n        /* \"project_management/Project.sol\":3540:3547  _amount */\n      dup1\n        /* \"project_management/Project.sol\":3504:3512  projects */\n      0x02\n        /* \"project_management/Project.sol\":3504:3524  projects[_projectId] */\n      0x00\n        /* \"project_management/Project.sol\":3513:3523  _projectId */\n      dup5\n        /* \"project_management/Project.sol\":3504:3524  projects[_projectId] */\n      dup2\n      mstore\n      0x20\n      add\n      swap1\n      dup2\n      mstore\n      0x20\n      add\n      0x00\n      keccak256\n        /* \"project_management/Project.sol\":3504:3536  projects[_projectId].fundedMoney */\n      0x05\n      add\n      0x00\n        /* \"project_management/Project.sol\":3504:3547  projects[_projectId].fundedMoney -= _amount */\n      dup3\n      dup3\n      sload\n      tag_243\n      swap2\n      swap1\n      tag_244\n      jump\t// in\n    tag_243:\n      swap3\n      pop\n      pop\n      dup2\n      swap1\n      sstore\n      pop\n        /* \"project_management/Project.sol\":3407:3681  function refundMoney(... */\n      pop\n      pop\n      jump\t// out\n    tag_54:\n      mload(0x40)\n      dup1\n      0x0180\n      add\n      0x40\n      mstore\n      dup1\n      0x00\n      dup2\n      mstore\n      0x20\n      add\n      0x60\n      dup2\n      mstore\n      0x20\n      add\n      0x60\n      dup2\n      mstore\n      0x20\n      add\n      0x60\n      dup2\n      mstore\n      0x20\n      add\n      0x00\n      dup2\n      mstore\n      0x20\n      add\n      0x00\n      dup2\n      mstore\n      0x20\n      add\n      0x00\n      dup2\n      mstore\n      0x20\n      add\n      0x00\n      dup2\n      mstore\n      0x20\n      add\n      0x60\n      dup2\n      mstore\n      0x20\n      add\n      0x60\n      dup2\n      mstore\n      0x20\n      add\n      0x00\n      0x04\n      dup2\n      gt\n      iszero\n      tag_245\n      jumpi\n      tag_246\n      tag_91\n      jump\t// in\n    tag_246:\n    tag_245:\n      dup2\n      mstore\n      0x20\n      add\n      0x60\n      dup2\n      mstore\n      pop\n      swap1\n      jump\t// out\n    tag_109:\n      pop\n      dup1\n      sload\n      tag_247\n      swap1\n      tag_64\n      jump\t// in\n    tag_247:\n      0x00\n      dup3\n      sstore\n      dup1\n      0x1f\n      lt\n      tag_249\n      jumpi\n      pop\n      jump(tag_248)\n    tag_249:\n      0x1f\n      add\n      0x20\n      swap1\n      div\n      swap1\n      0x00\n      mstore\n      keccak256(0x00, 0x20)\n      swap1\n      dup2\n      add\n      swap1\n      tag_250\n      swap2\n      swap1\n      tag_251\n      jump\t// in\n    tag_250:\n    tag_248:\n      pop\n      jump\t// out\n    tag_115:\n      pop\n      dup1\n      sload\n      0x00\n      dup3\n      sstore\n      swap1\n      0x00\n      mstore\n      keccak256(0x00, 0x20)\n      swap1\n      dup2\n      add\n      swap1\n      tag_253\n      swap2\n      swap1\n      tag_254\n      jump\t// in\n    tag_253:\n      pop\n      jump\t// out\n    tag_121:\n      dup3\n      dup1\n      sload\n      tag_255\n      swap1\n      tag_64\n      jump\t// in\n    tag_255:\n      swap1\n      0x00\n      mstore\n      keccak256(0x00, 0x20)\n      swap1\n      0x1f\n      add\n      0x20\n      swap1\n      div\n      dup2\n      add\n      swap3\n      dup3\n      tag_257\n      jumpi\n      0x00\n      dup6\n      sstore\n      jump(tag_256)\n    tag_257:\n      dup3\n      0x1f\n      lt\n      tag_258\n      jumpi\n      dup1\n      mload\n      not(0xff)\n      and\n      dup4\n      dup1\n      add\n      or\n      dup6\n      sstore\n      jump(tag_256)\n    tag_258:\n      dup3\n      dup1\n      add\n      0x01\n      add\n      dup6\n      sstore\n      dup3\n      iszero\n      tag_256\n      jumpi\n      swap2\n      dup3\n      add\n    tag_259:\n      dup3\n      dup2\n      gt\n      iszero\n      tag_260\n      jumpi\n      dup3\n      mload\n      dup3\n      sstore\n      swap2\n      0x20\n      add\n      swap2\n      swap1\n      0x01\n      add\n      swap1\n      jump(tag_259)\n    tag_260:\n    tag_256:\n      pop\n      swap1\n      pop\n      tag_261\n      swap2\n      swap1\n      tag_251\n      jump\t// in\n    tag_261:\n      pop\n      swap1\n      jump\t// out\n    tag_139:\n      dup3\n      dup1\n      sload\n      dup3\n      dup3\n      sstore\n      swap1\n      0x00\n      mstore\n      keccak256(0x00, 0x20)\n      swap1\n      dup2\n      add\n      swap3\n      dup3\n      iszero\n      tag_262\n      jumpi\n      swap2\n      0x20\n      mul\n      dup3\n      add\n    tag_263:\n      dup3\n      dup2\n      gt\n      iszero\n      tag_264\n      jumpi\n      dup3\n      mload\n      dup3\n      swap1\n      dup1\n      mload\n      swap1\n      0x20\n      add\n      swap1\n      tag_265\n      swap3\n      swap2\n      swap1\n      tag_121\n      jump\t// in\n    tag_265:\n      pop\n      swap2\n      0x20\n      add\n      swap2\n      swap1\n      0x01\n      add\n      swap1\n      jump(tag_263)\n    tag_264:\n    tag_262:\n      pop\n      swap1\n      pop\n      tag_266\n      swap2\n      swap1\n      tag_254\n      jump\t// in\n    tag_266:\n      pop\n      swap1\n      jump\t// out\n    tag_251:\n    tag_267:\n      dup1\n      dup3\n      gt\n      iszero\n      tag_268\n      jumpi\n      0x00\n      dup2\n      0x00\n      swap1\n      sstore\n      pop\n      0x01\n      add\n      jump(tag_267)\n    tag_268:\n      pop\n      swap1\n      jump\t// out\n    tag_254:\n    tag_269:\n      dup1\n      dup3\n      gt\n      iszero\n      tag_270\n      jumpi\n      0x00\n      dup2\n      dup2\n      tag_271\n      swap2\n      swap1\n      tag_109\n      jump\t// in\n    tag_271:\n      pop\n      0x01\n      add\n      jump(tag_269)\n    tag_270:\n      pop\n      swap1\n      jump\t// out\n        /* \"#utility.yul\":7:419   */\n    tag_273:\n        /* \"#utility.yul\":85:90   */\n      0x00\n        /* \"#utility.yul\":110:176   */\n      tag_275\n        /* \"#utility.yul\":126:175   */\n      tag_276\n        /* \"#utility.yul\":168:174   */\n      dup5\n        /* \"#utility.yul\":126:175   */\n      tag_277\n      jump\t// in\n    tag_276:\n        /* \"#utility.yul\":110:176   */\n      tag_278\n      jump\t// in\n    tag_275:\n        /* \"#utility.yul\":101:176   */\n      swap1\n      pop\n        /* \"#utility.yul\":199:205   */\n      dup3\n        /* \"#utility.yul\":192:197   */\n      dup2\n        /* \"#utility.yul\":185:206   */\n      mstore\n        /* \"#utility.yul\":237:241   */\n      0x20\n        /* \"#utility.yul\":230:235   */\n      dup2\n        /* \"#utility.yul\":226:242   */\n      add\n        /* \"#utility.yul\":275:278   */\n      dup5\n        /* \"#utility.yul\":266:272   */\n      dup5\n        /* \"#utility.yul\":261:264   */\n      dup5\n        /* \"#utility.yul\":257:273   */\n      add\n        /* \"#utility.yul\":254:279   */\n      gt\n        /* \"#utility.yul\":251:363   */\n      iszero\n      tag_279\n      jumpi\n        /* \"#utility.yul\":282:361   */\n      tag_280\n      tag_281\n      jump\t// in\n    tag_280:\n        /* \"#utility.yul\":251:363   */\n    tag_279:\n        /* \"#utility.yul\":372:413   */\n      tag_282\n        /* \"#utility.yul\":406:412   */\n      dup5\n        /* \"#utility.yul\":401:404   */\n      dup3\n        /* \"#utility.yul\":396:399   */\n      dup6\n        /* \"#utility.yul\":372:413   */\n      tag_283\n      jump\t// in\n    tag_282:\n        /* \"#utility.yul\":91:419   */\n      pop\n        /* \"#utility.yul\":7:419   */\n      swap4\n      swap3\n      pop\n      pop\n      pop\n      jump\t// out\n        /* \"#utility.yul\":439:779   */\n    tag_284:\n        /* \"#utility.yul\":495:500   */\n      0x00\n        /* \"#utility.yul\":544:547   */\n      dup3\n        /* \"#utility.yul\":537:541   */\n      0x1f\n        /* \"#utility.yul\":529:535   */\n      dup4\n        /* \"#utility.yul\":525:542   */\n      add\n        /* \"#utility.yul\":521:548   */\n      slt\n        /* \"#utility.yul\":511:633   */\n      tag_286\n      jumpi\n        /* \"#utility.yul\":552:631   */\n      tag_287\n      tag_288\n      jump\t// in\n    tag_287:\n        /* \"#utility.yul\":511:633   */\n    tag_286:\n        /* \"#utility.yul\":669:675   */\n      dup2\n        /* \"#utility.yul\":656:676   */\n      calldataload\n        /* \"#utility.yul\":694:773   */\n      tag_289\n        /* \"#utility.yul\":769:772   */\n      dup5\n        /* \"#utility.yul\":761:767   */\n      dup3\n        /* \"#utility.yul\":754:758   */\n      0x20\n        /* \"#utility.yul\":746:752   */\n      dup7\n        /* \"#utility.yul\":742:759   */\n      add\n        /* \"#utility.yul\":694:773   */\n      tag_273\n      jump\t// in\n    tag_289:\n        /* \"#utility.yul\":685:773   */\n      swap2\n      pop\n        /* \"#utility.yul\":501:779   */\n      pop\n        /* \"#utility.yul\":439:779   */\n      swap3\n      swap2\n      pop\n      pop\n      jump\t// out\n        /* \"#utility.yul\":785:924   */\n    tag_290:\n        /* \"#utility.yul\":831:836   */\n      0x00\n        /* \"#utility.yul\":869:875   */\n      dup2\n        /* \"#utility.yul\":856:876   */\n      calldataload\n        /* \"#utility.yul\":847:876   */\n      swap1\n      pop\n        /* \"#utility.yul\":885:918   */\n      tag_292\n        /* \"#utility.yul\":912:917   */\n      dup2\n        /* \"#utility.yul\":885:918   */\n      tag_293\n      jump\t// in\n    tag_292:\n        /* \"#utility.yul\":785:924   */\n      swap3\n      swap2\n      pop\n      pop\n      jump\t// out\n        /* \"#utility.yul\":930:1439   */\n    tag_14:\n        /* \"#utility.yul\":999:1005   */\n      0x00\n        /* \"#utility.yul\":1048:1050   */\n      0x20\n        /* \"#utility.yul\":1036:1045   */\n      dup3\n        /* \"#utility.yul\":1027:1034   */\n      dup5\n        /* \"#utility.yul\":1023:1046   */\n      sub\n        /* \"#utility.yul\":1019:1051   */\n      slt\n        /* \"#utility.yul\":1016:1135   */\n      iszero\n      tag_295\n      jumpi\n        /* \"#utility.yul\":1054:1133   */\n      tag_296\n      tag_297\n      jump\t// in\n    tag_296:\n        /* \"#utility.yul\":1016:1135   */\n    tag_295:\n        /* \"#utility.yul\":1202:1203   */\n      0x00\n        /* \"#utility.yul\":1191:1200   */\n      dup3\n        /* \"#utility.yul\":1187:1204   */\n      add\n        /* \"#utility.yul\":1174:1205   */\n      calldataload\n        /* \"#utility.yul\":1232:1250   */\n      0xffffffffffffffff\n        /* \"#utility.yul\":1224:1230   */\n      dup2\n        /* \"#utility.yul\":1221:1251   */\n      gt\n        /* \"#utility.yul\":1218:1335   */\n      iszero\n      tag_298\n      jumpi\n        /* \"#utility.yul\":1254:1333   */\n      tag_299\n      tag_300\n      jump\t// in\n    tag_299:\n        /* \"#utility.yul\":1218:1335   */\n    tag_298:\n        /* \"#utility.yul\":1359:1422   */\n      tag_301\n        /* \"#utility.yul\":1414:1421   */\n      dup5\n        /* \"#utility.yul\":1405:1411   */\n      dup3\n        /* \"#utility.yul\":1394:1403   */\n      dup6\n        /* \"#utility.yul\":1390:1412   */\n      add\n        /* \"#utility.yul\":1359:1422   */\n      tag_284\n      jump\t// in\n    tag_301:\n        /* \"#utility.yul\":1349:1422   */\n      swap2\n      pop\n        /* \"#utility.yul\":1145:1432   */\n      pop\n        /* \"#utility.yul\":930:1439   */\n      swap3\n      swap2\n      pop\n      pop\n      jump\t// out\n        /* \"#utility.yul\":1445:3548   */\n    tag_31:\n        /* \"#utility.yul\":1608:1614   */\n      0x00\n        /* \"#utility.yul\":1616:1622   */\n      dup1\n        /* \"#utility.yul\":1624:1630   */\n      0x00\n        /* \"#utility.yul\":1632:1638   */\n      dup1\n        /* \"#utility.yul\":1640:1646   */\n      0x00\n        /* \"#utility.yul\":1648:1654   */\n      dup1\n        /* \"#utility.yul\":1656:1662   */\n      0x00\n        /* \"#utility.yul\":1705:1708   */\n      0xe0\n        /* \"#utility.yul\":1693:1702   */\n      dup9\n        /* \"#utility.yul\":1684:1691   */\n      dup11\n        /* \"#utility.yul\":1680:1703   */\n      sub\n        /* \"#utility.yul\":1676:1709   */\n      slt\n        /* \"#utility.yul\":1673:1793   */\n      iszero\n      tag_303\n      jumpi\n        /* \"#utility.yul\":1712:1791   */\n      tag_304\n      tag_297\n      jump\t// in\n    tag_304:\n        /* \"#utility.yul\":1673:1793   */\n    tag_303:\n        /* \"#utility.yul\":1860:1861   */\n      0x00\n        /* \"#utility.yul\":1849:1858   */\n      dup9\n        /* \"#utility.yul\":1845:1862   */\n      add\n        /* \"#utility.yul\":1832:1863   */\n      calldataload\n        /* \"#utility.yul\":1890:1908   */\n      0xffffffffffffffff\n        /* \"#utility.yul\":1882:1888   */\n      dup2\n        /* \"#utility.yul\":1879:1909   */\n      gt\n        /* \"#utility.yul\":1876:1993   */\n      iszero\n      tag_305\n      jumpi\n        /* \"#utility.yul\":1912:1991   */\n      tag_306\n      tag_300\n      jump\t// in\n    tag_306:\n        /* \"#utility.yul\":1876:1993   */\n    tag_305:\n        /* \"#utility.yul\":2017:2080   */\n      tag_307\n        /* \"#utility.yul\":2072:2079   */\n      dup11\n        /* \"#utility.yul\":2063:2069   */\n      dup3\n        /* \"#utility.yul\":2052:2061   */\n      dup12\n        /* \"#utility.yul\":2048:2070   */\n      add\n        /* \"#utility.yul\":2017:2080   */\n      tag_284\n      jump\t// in\n    tag_307:\n        /* \"#utility.yul\":2007:2080   */\n      swap8\n      pop\n        /* \"#utility.yul\":1803:2090   */\n      pop\n        /* \"#utility.yul\":2157:2159   */\n      0x20\n        /* \"#utility.yul\":2146:2155   */\n      dup9\n        /* \"#utility.yul\":2142:2160   */\n      add\n        /* \"#utility.yul\":2129:2161   */\n      calldataload\n        /* \"#utility.yul\":2188:2206   */\n      0xffffffffffffffff\n        /* \"#utility.yul\":2180:2186   */\n      dup2\n        /* \"#utility.yul\":2177:2207   */\n      gt\n        /* \"#utility.yul\":2174:2291   */\n      iszero\n      tag_308\n      jumpi\n        /* \"#utility.yul\":2210:2289   */\n      tag_309\n      tag_300\n      jump\t// in\n    tag_309:\n        /* \"#utility.yul\":2174:2291   */\n    tag_308:\n        /* \"#utility.yul\":2315:2378   */\n      tag_310\n        /* \"#utility.yul\":2370:2377   */\n      dup11\n        /* \"#utility.yul\":2361:2367   */\n      dup3\n        /* \"#utility.yul\":2350:2359   */\n      dup12\n        /* \"#utility.yul\":2346:2368   */\n      add\n        /* \"#utility.yul\":2315:2378   */\n      tag_284\n      jump\t// in\n    tag_310:\n        /* \"#utility.yul\":2305:2378   */\n      swap7\n      pop\n        /* \"#utility.yul\":2100:2388   */\n      pop\n        /* \"#utility.yul\":2455:2457   */\n      0x40\n        /* \"#utility.yul\":2444:2453   */\n      dup9\n        /* \"#utility.yul\":2440:2458   */\n      add\n        /* \"#utility.yul\":2427:2459   */\n      calldataload\n        /* \"#utility.yul\":2486:2504   */\n      0xffffffffffffffff\n        /* \"#utility.yul\":2478:2484   */\n      dup2\n        /* \"#utility.yul\":2475:2505   */\n      gt\n        /* \"#utility.yul\":2472:2589   */\n      iszero\n      tag_311\n      jumpi\n        /* \"#utility.yul\":2508:2587   */\n      tag_312\n      tag_300\n      jump\t// in\n    tag_312:\n        /* \"#utility.yul\":2472:2589   */\n    tag_311:\n        /* \"#utility.yul\":2613:2676   */\n      tag_313\n        /* \"#utility.yul\":2668:2675   */\n      dup11\n        /* \"#utility.yul\":2659:2665   */\n      dup3\n        /* \"#utility.yul\":2648:2657   */\n      dup12\n        /* \"#utility.yul\":2644:2666   */\n      add\n        /* \"#utility.yul\":2613:2676   */\n      tag_284\n      jump\t// in\n    tag_313:\n        /* \"#utility.yul\":2603:2676   */\n      swap6\n      pop\n        /* \"#utility.yul\":2398:2686   */\n      pop\n        /* \"#utility.yul\":2725:2727   */\n      0x60\n        /* \"#utility.yul\":2751:2804   */\n      tag_314\n        /* \"#utility.yul\":2796:2803   */\n      dup11\n        /* \"#utility.yul\":2787:2793   */\n      dup3\n        /* \"#utility.yul\":2776:2785   */\n      dup12\n        /* \"#utility.yul\":2772:2794   */\n      add\n        /* \"#utility.yul\":2751:2804   */\n      tag_290\n      jump\t// in\n    tag_314:\n        /* \"#utility.yul\":2741:2804   */\n      swap5\n      pop\n        /* \"#utility.yul\":2696:2814   */\n      pop\n        /* \"#utility.yul\":2853:2856   */\n      0x80\n        /* \"#utility.yul\":2880:2933   */\n      tag_315\n        /* \"#utility.yul\":2925:2932   */\n      dup11\n        /* \"#utility.yul\":2916:2922   */\n      dup3\n        /* \"#utility.yul\":2905:2914   */\n      dup12\n        /* \"#utility.yul\":2901:2923   */\n      add\n        /* \"#utility.yul\":2880:2933   */\n      tag_290\n      jump\t// in\n    tag_315:\n        /* \"#utility.yul\":2870:2933   */\n      swap4\n      pop\n        /* \"#utility.yul\":2824:2943   */\n      pop\n        /* \"#utility.yul\":3010:3013   */\n      0xa0\n        /* \"#utility.yul\":2999:3008   */\n      dup9\n        /* \"#utility.yul\":2995:3014   */\n      add\n        /* \"#utility.yul\":2982:3015   */\n      calldataload\n        /* \"#utility.yul\":3042:3060   */\n      0xffffffffffffffff\n        /* \"#utility.yul\":3034:3040   */\n      dup2\n        /* \"#utility.yul\":3031:3061   */\n      gt\n        /* \"#utility.yul\":3028:3145   */\n      iszero\n      tag_316\n      jumpi\n        /* \"#utility.yul\":3064:3143   */\n      tag_317\n      tag_300\n      jump\t// in\n    tag_317:\n        /* \"#utility.yul\":3028:3145   */\n    tag_316:\n        /* \"#utility.yul\":3169:3232   */\n      tag_318\n        /* \"#utility.yul\":3224:3231   */\n      dup11\n        /* \"#utility.yul\":3215:3221   */\n      dup3\n        /* \"#utility.yul\":3204:3213   */\n      dup12\n        /* \"#utility.yul\":3200:3222   */\n      add\n        /* \"#utility.yul\":3169:3232   */\n      tag_284\n      jump\t// in\n    tag_318:\n        /* \"#utility.yul\":3159:3232   */\n      swap3\n      pop\n        /* \"#utility.yul\":2953:3242   */\n      pop\n        /* \"#utility.yul\":3309:3312   */\n      0xc0\n        /* \"#utility.yul\":3298:3307   */\n      dup9\n        /* \"#utility.yul\":3294:3313   */\n      add\n        /* \"#utility.yul\":3281:3314   */\n      calldataload\n        /* \"#utility.yul\":3341:3359   */\n      0xffffffffffffffff\n        /* \"#utility.yul\":3333:3339   */\n      dup2\n        /* \"#utility.yul\":3330:3360   */\n      gt\n        /* \"#utility.yul\":3327:3444   */\n      iszero\n      tag_319\n      jumpi\n        /* \"#utility.yul\":3363:3442   */\n      tag_320\n      tag_300\n      jump\t// in\n    tag_320:\n        /* \"#utility.yul\":3327:3444   */\n    tag_319:\n        /* \"#utility.yul\":3468:3531   */\n      tag_321\n        /* \"#utility.yul\":3523:3530   */\n      dup11\n        /* \"#utility.yul\":3514:3520   */\n      dup3\n        /* \"#utility.yul\":3503:3512   */\n      dup12\n        /* \"#utility.yul\":3499:3521   */\n      add\n        /* \"#utility.yul\":3468:3531   */\n      tag_284\n      jump\t// in\n    tag_321:\n        /* \"#utility.yul\":3458:3531   */\n      swap2\n      pop\n        /* \"#utility.yul\":3252:3541   */\n      pop\n        /* \"#utility.yul\":1445:3548   */\n      swap3\n      swap6\n      swap9\n      swap2\n      swap5\n      swap8\n      pop\n      swap3\n      swap6\n      pop\n      jump\t// out\n        /* \"#utility.yul\":3554:3883   */\n    tag_20:\n        /* \"#utility.yul\":3613:3619   */\n      0x00\n        /* \"#utility.yul\":3662:3664   */\n      0x20\n        /* \"#utility.yul\":3650:3659   */\n      dup3\n        /* \"#utility.yul\":3641:3648   */\n      dup5\n        /* \"#utility.yul\":3637:3660   */\n      sub\n        /* \"#utility.yul\":3633:3665   */\n      slt\n        /* \"#utility.yul\":3630:3749   */\n      iszero\n      tag_323\n      jumpi\n        /* \"#utility.yul\":3668:3747   */\n      tag_324\n      tag_297\n      jump\t// in\n    tag_324:\n        /* \"#utility.yul\":3630:3749   */\n    tag_323:\n        /* \"#utility.yul\":3788:3789   */\n      0x00\n        /* \"#utility.yul\":3813:3866   */\n      tag_325\n        /* \"#utility.yul\":3858:3865   */\n      dup5\n        /* \"#utility.yul\":3849:3855   */\n      dup3\n        /* \"#utility.yul\":3838:3847   */\n      dup6\n        /* \"#utility.yul\":3834:3856   */\n      add\n        /* \"#utility.yul\":3813:3866   */\n      tag_290\n      jump\t// in\n    tag_325:\n        /* \"#utility.yul\":3803:3866   */\n      swap2\n      pop\n        /* \"#utility.yul\":3759:3876   */\n      pop\n        /* \"#utility.yul\":3554:3883   */\n      swap3\n      swap2\n      pop\n      pop\n      jump\t// out\n        /* \"#utility.yul\":3889:4363   */\n    tag_43:\n        /* \"#utility.yul\":3957:3963   */\n      0x00\n        /* \"#utility.yul\":3965:3971   */\n      dup1\n        /* \"#utility.yul\":4014:4016   */\n      0x40\n        /* \"#utility.yul\":4002:4011   */\n      dup4\n        /* \"#utility.yul\":3993:4000   */\n      dup6\n        /* \"#utility.yul\":3989:4012   */\n      sub\n        /* \"#utility.yul\":3985:4017   */\n      slt\n        /* \"#utility.yul\":3982:4101   */\n      iszero\n      tag_327\n      jumpi\n        /* \"#utility.yul\":4020:4099   */\n      tag_328\n      tag_297\n      jump\t// in\n    tag_328:\n        /* \"#utility.yul\":3982:4101   */\n    tag_327:\n        /* \"#utility.yul\":4140:4141   */\n      0x00\n        /* \"#utility.yul\":4165:4218   */\n      tag_329\n        /* \"#utility.yul\":4210:4217   */\n      dup6\n        /* \"#utility.yul\":4201:4207   */\n      dup3\n        /* \"#utility.yul\":4190:4199   */\n      dup7\n        /* \"#utility.yul\":4186:4208   */\n      add\n        /* \"#utility.yul\":4165:4218   */\n      tag_290\n      jump\t// in\n    tag_329:\n        /* \"#utility.yul\":4155:4218   */\n      swap3\n      pop\n        /* \"#utility.yul\":4111:4228   */\n      pop\n        /* \"#utility.yul\":4267:4269   */\n      0x20\n        /* \"#utility.yul\":4293:4346   */\n      tag_330\n        /* \"#utility.yul\":4338:4345   */\n      dup6\n        /* \"#utility.yul\":4329:4335   */\n      dup3\n        /* \"#utility.yul\":4318:4327   */\n      dup7\n        /* \"#utility.yul\":4314:4336   */\n      add\n        /* \"#utility.yul\":4293:4346   */\n      tag_290\n      jump\t// in\n    tag_330:\n        /* \"#utility.yul\":4283:4346   */\n      swap2\n      pop\n        /* \"#utility.yul\":4238:4356   */\n      pop\n        /* \"#utility.yul\":3889:4363   */\n      swap3\n      pop\n      swap3\n      swap1\n      pop\n      jump\t// out\n        /* \"#utility.yul\":4369:5168   */\n    tag_24:\n        /* \"#utility.yul\":4456:4462   */\n      0x00\n        /* \"#utility.yul\":4464:4470   */\n      dup1\n        /* \"#utility.yul\":4472:4478   */\n      0x00\n        /* \"#utility.yul\":4521:4523   */\n      0x60\n        /* \"#utility.yul\":4509:4518   */\n      dup5\n        /* \"#utility.yul\":4500:4507   */\n      dup7\n        /* \"#utility.yul\":4496:4519   */\n      sub\n        /* \"#utility.yul\":4492:4524   */\n      slt\n        /* \"#utility.yul\":4489:4608   */\n      iszero\n      tag_332\n      jumpi\n        /* \"#utility.yul\":4527:4606   */\n      tag_333\n      tag_297\n      jump\t// in\n    tag_333:\n        /* \"#utility.yul\":4489:4608   */\n    tag_332:\n        /* \"#utility.yul\":4647:4648   */\n      0x00\n        /* \"#utility.yul\":4672:4725   */\n      tag_334\n        /* \"#utility.yul\":4717:4724   */\n      dup7\n        /* \"#utility.yul\":4708:4714   */\n      dup3\n        /* \"#utility.yul\":4697:4706   */\n      dup8\n        /* \"#utility.yul\":4693:4715   */\n      add\n        /* \"#utility.yul\":4672:4725   */\n      tag_290\n      jump\t// in\n    tag_334:\n        /* \"#utility.yul\":4662:4725   */\n      swap4\n      pop\n        /* \"#utility.yul\":4618:4735   */\n      pop\n        /* \"#utility.yul\":4774:4776   */\n      0x20\n        /* \"#utility.yul\":4800:4853   */\n      tag_335\n        /* \"#utility.yul\":4845:4852   */\n      dup7\n        /* \"#utility.yul\":4836:4842   */\n      dup3\n        /* \"#utility.yul\":4825:4834   */\n      dup8\n        /* \"#utility.yul\":4821:4843   */\n      add\n        /* \"#utility.yul\":4800:4853   */\n      tag_290\n      jump\t// in\n    tag_335:\n        /* \"#utility.yul\":4790:4853   */\n      swap3\n      pop\n        /* \"#utility.yul\":4745:4863   */\n      pop\n        /* \"#utility.yul\":4930:4932   */\n      0x40\n        /* \"#utility.yul\":4919:4928   */\n      dup5\n        /* \"#utility.yul\":4915:4933   */\n      add\n        /* \"#utility.yul\":4902:4934   */\n      calldataload\n        /* \"#utility.yul\":4961:4979   */\n      0xffffffffffffffff\n        /* \"#utility.yul\":4953:4959   */\n      dup2\n        /* \"#utility.yul\":4950:4980   */\n      gt\n        /* \"#utility.yul\":4947:5064   */\n      iszero\n      tag_336\n      jumpi\n        /* \"#utility.yul\":4983:5062   */\n      tag_337\n      tag_300\n      jump\t// in\n    tag_337:\n        /* \"#utility.yul\":4947:5064   */\n    tag_336:\n        /* \"#utility.yul\":5088:5151   */\n      tag_338\n        /* \"#utility.yul\":5143:5150   */\n      dup7\n        /* \"#utility.yul\":5134:5140   */\n      dup3\n        /* \"#utility.yul\":5123:5132   */\n      dup8\n        /* \"#utility.yul\":5119:5141   */\n      add\n        /* \"#utility.yul\":5088:5151   */\n      tag_284\n      jump\t// in\n    tag_338:\n        /* \"#utility.yul\":5078:5151   */\n      swap2\n      pop\n        /* \"#utility.yul\":4873:5161   */\n      pop\n        /* \"#utility.yul\":4369:5168   */\n      swap3\n      pop\n      swap3\n      pop\n      swap3\n      jump\t// out\n        /* \"#utility.yul\":5174:5370   */\n    tag_339:\n        /* \"#utility.yul\":5263:5273   */\n      0x00\n        /* \"#utility.yul\":5298:5364   */\n      tag_341\n        /* \"#utility.yul\":5360:5363   */\n      dup4\n        /* \"#utility.yul\":5352:5358   */\n      dup4\n        /* \"#utility.yul\":5298:5364   */\n      tag_342\n      jump\t// in\n    tag_341:\n        /* \"#utility.yul\":5284:5364   */\n      swap1\n      pop\n        /* \"#utility.yul\":5174:5370   */\n      swap3\n      swap2\n      pop\n      pop\n      jump\t// out\n        /* \"#utility.yul\":5376:5640   */\n    tag_343:\n        /* \"#utility.yul\":5499:5509   */\n      0x00\n        /* \"#utility.yul\":5534:5634   */\n      tag_345\n        /* \"#utility.yul\":5630:5633   */\n      dup4\n        /* \"#utility.yul\":5622:5628   */\n      dup4\n        /* \"#utility.yul\":5534:5634   */\n      tag_346\n      jump\t// in\n    tag_345:\n        /* \"#utility.yul\":5520:5634   */\n      swap1\n      pop\n        /* \"#utility.yul\":5376:5640   */\n      swap3\n      swap2\n      pop\n      pop\n      jump\t// out\n        /* \"#utility.yul\":5674:6645   */\n    tag_347:\n        /* \"#utility.yul\":5803:5806   */\n      0x00\n        /* \"#utility.yul\":5832:5896   */\n      tag_349\n        /* \"#utility.yul\":5890:5895   */\n      dup3\n        /* \"#utility.yul\":5832:5896   */\n      tag_350\n      jump\t// in\n    tag_349:\n        /* \"#utility.yul\":5912:5998   */\n      tag_351\n        /* \"#utility.yul\":5991:5997   */\n      dup2\n        /* \"#utility.yul\":5986:5989   */\n      dup6\n        /* \"#utility.yul\":5912:5998   */\n      tag_352\n      jump\t// in\n    tag_351:\n        /* \"#utility.yul\":5905:5998   */\n      swap4\n      pop\n        /* \"#utility.yul\":6024:6027   */\n      dup4\n        /* \"#utility.yul\":6069:6073   */\n      0x20\n        /* \"#utility.yul\":6061:6067   */\n      dup3\n        /* \"#utility.yul\":6057:6074   */\n      mul\n        /* \"#utility.yul\":6052:6055   */\n      dup6\n        /* \"#utility.yul\":6048:6075   */\n      add\n        /* \"#utility.yul\":6099:6165   */\n      tag_353\n        /* \"#utility.yul\":6159:6164   */\n      dup6\n        /* \"#utility.yul\":6099:6165   */\n      tag_354\n      jump\t// in\n    tag_353:\n        /* \"#utility.yul\":6188:6195   */\n      dup1\n        /* \"#utility.yul\":6219:6220   */\n      0x00\n        /* \"#utility.yul\":6204:6600   */\n    tag_355:\n        /* \"#utility.yul\":6229:6235   */\n      dup6\n        /* \"#utility.yul\":6226:6227   */\n      dup2\n        /* \"#utility.yul\":6223:6236   */\n      lt\n        /* \"#utility.yul\":6204:6600   */\n      iszero\n      tag_357\n      jumpi\n        /* \"#utility.yul\":6300:6309   */\n      dup5\n        /* \"#utility.yul\":6294:6298   */\n      dup5\n        /* \"#utility.yul\":6290:6310   */\n      sub\n        /* \"#utility.yul\":6285:6288   */\n      dup10\n        /* \"#utility.yul\":6278:6311   */\n      mstore\n        /* \"#utility.yul\":6351:6357   */\n      dup2\n        /* \"#utility.yul\":6345:6358   */\n      mload\n        /* \"#utility.yul\":6379:6463   */\n      tag_358\n        /* \"#utility.yul\":6458:6462   */\n      dup6\n        /* \"#utility.yul\":6443:6456   */\n      dup3\n        /* \"#utility.yul\":6379:6463   */\n      tag_339\n      jump\t// in\n    tag_358:\n        /* \"#utility.yul\":6371:6463   */\n      swap5\n      pop\n        /* \"#utility.yul\":6486:6556   */\n      tag_359\n        /* \"#utility.yul\":6549:6555   */\n      dup4\n        /* \"#utility.yul\":6486:6556   */\n      tag_360\n      jump\t// in\n    tag_359:\n        /* \"#utility.yul\":6476:6556   */\n      swap3\n      pop\n        /* \"#utility.yul\":6585:6589   */\n      0x20\n        /* \"#utility.yul\":6580:6583   */\n      dup11\n        /* \"#utility.yul\":6576:6590   */\n      add\n        /* \"#utility.yul\":6569:6590   */\n      swap10\n      pop\n        /* \"#utility.yul\":6264:6600   */\n      pop\n        /* \"#utility.yul\":6251:6252   */\n      0x01\n        /* \"#utility.yul\":6248:6249   */\n      dup2\n        /* \"#utility.yul\":6244:6253   */\n      add\n        /* \"#utility.yul\":6239:6253   */\n      swap1\n      pop\n        /* \"#utility.yul\":6204:6600   */\n      jump(tag_355)\n    tag_357:\n        /* \"#utility.yul\":6208:6222   */\n      pop\n        /* \"#utility.yul\":6616:6620   */\n      dup3\n        /* \"#utility.yul\":6609:6620   */\n      swap8\n      pop\n        /* \"#utility.yul\":6636:6639   */\n      dup8\n        /* \"#utility.yul\":6629:6639   */\n      swap6\n      pop\n        /* \"#utility.yul\":5808:6645   */\n      pop\n      pop\n      pop\n      pop\n      pop\n        /* \"#utility.yul\":5674:6645   */\n      swap3\n      swap2\n      pop\n      pop\n      jump\t// out\n        /* \"#utility.yul\":6719:7846   */\n    tag_361:\n        /* \"#utility.yul\":6892:6895   */\n      0x00\n        /* \"#utility.yul\":6921:7002   */\n      tag_363\n        /* \"#utility.yul\":6996:7001   */\n      dup3\n        /* \"#utility.yul\":6921:7002   */\n      tag_364\n      jump\t// in\n    tag_363:\n        /* \"#utility.yul\":7018:7131   */\n      tag_365\n        /* \"#utility.yul\":7124:7130   */\n      dup2\n        /* \"#utility.yul\":7119:7122   */\n      dup6\n        /* \"#utility.yul\":7018:7131   */\n      tag_366\n      jump\t// in\n    tag_365:\n        /* \"#utility.yul\":7011:7131   */\n      swap4\n      pop\n        /* \"#utility.yul\":7157:7160   */\n      dup4\n        /* \"#utility.yul\":7202:7206   */\n      0x20\n        /* \"#utility.yul\":7194:7200   */\n      dup3\n        /* \"#utility.yul\":7190:7207   */\n      mul\n        /* \"#utility.yul\":7185:7188   */\n      dup6\n        /* \"#utility.yul\":7181:7208   */\n      add\n        /* \"#utility.yul\":7232:7315   */\n      tag_367\n        /* \"#utility.yul\":7309:7314   */\n      dup6\n        /* \"#utility.yul\":7232:7315   */\n      tag_368\n      jump\t// in\n    tag_367:\n        /* \"#utility.yul\":7338:7345   */\n      dup1\n        /* \"#utility.yul\":7369:7370   */\n      0x00\n        /* \"#utility.yul\":7354:7801   */\n    tag_369:\n        /* \"#utility.yul\":7379:7385   */\n      dup6\n        /* \"#utility.yul\":7376:7377   */\n      dup2\n        /* \"#utility.yul\":7373:7386   */\n      lt\n        /* \"#utility.yul\":7354:7801   */\n      iszero\n      tag_371\n      jumpi\n        /* \"#utility.yul\":7450:7459   */\n      dup5\n        /* \"#utility.yul\":7444:7448   */\n      dup5\n        /* \"#utility.yul\":7440:7460   */\n      sub\n        /* \"#utility.yul\":7435:7438   */\n      dup10\n        /* \"#utility.yul\":7428:7461   */\n      mstore\n        /* \"#utility.yul\":7501:7507   */\n      dup2\n        /* \"#utility.yul\":7495:7508   */\n      mload\n        /* \"#utility.yul\":7529:7647   */\n      tag_372\n        /* \"#utility.yul\":7642:7646   */\n      dup6\n        /* \"#utility.yul\":7627:7640   */\n      dup3\n        /* \"#utility.yul\":7529:7647   */\n      tag_343\n      jump\t// in\n    tag_372:\n        /* \"#utility.yul\":7521:7647   */\n      swap5\n      pop\n        /* \"#utility.yul\":7670:7757   */\n      tag_373\n        /* \"#utility.yul\":7750:7756   */\n      dup4\n        /* \"#utility.yul\":7670:7757   */\n      tag_374\n      jump\t// in\n    tag_373:\n        /* \"#utility.yul\":7660:7757   */\n      swap3\n      pop\n        /* \"#utility.yul\":7786:7790   */\n      0x20\n        /* \"#utility.yul\":7781:7784   */\n      dup11\n        /* \"#utility.yul\":7777:7791   */\n      add\n        /* \"#utility.yul\":7770:7791   */\n      swap10\n      pop\n        /* \"#utility.yul\":7414:7801   */\n      pop\n        /* \"#utility.yul\":7401:7402   */\n      0x01\n        /* \"#utility.yul\":7398:7399   */\n      dup2\n        /* \"#utility.yul\":7394:7403   */\n      add\n        /* \"#utility.yul\":7389:7403   */\n      swap1\n      pop\n        /* \"#utility.yul\":7354:7801   */\n      jump(tag_369)\n    tag_371:\n        /* \"#utility.yul\":7358:7372   */\n      pop\n        /* \"#utility.yul\":7817:7821   */\n      dup3\n        /* \"#utility.yul\":7810:7821   */\n      swap8\n      pop\n        /* \"#utility.yul\":7837:7840   */\n      dup8\n        /* \"#utility.yul\":7830:7840   */\n      swap6\n      pop\n        /* \"#utility.yul\":6897:7846   */\n      pop\n      pop\n      pop\n      pop\n      pop\n        /* \"#utility.yul\":6719:7846   */\n      swap3\n      swap2\n      pop\n      pop\n      jump\t// out\n        /* \"#utility.yul\":7852:8001   */\n    tag_375:\n        /* \"#utility.yul\":7943:7994   */\n      tag_377\n        /* \"#utility.yul\":7988:7993   */\n      dup2\n        /* \"#utility.yul\":7943:7994   */\n      tag_378\n      jump\t// in\n    tag_377:\n        /* \"#utility.yul\":7938:7941   */\n      dup3\n        /* \"#utility.yul\":7931:7995   */\n      mstore\n        /* \"#utility.yul\":7852:8001   */\n      pop\n      pop\n      jump\t// out\n        /* \"#utility.yul\":8007:8166   */\n    tag_379:\n        /* \"#utility.yul\":8108:8159   */\n      tag_381\n        /* \"#utility.yul\":8153:8158   */\n      dup2\n        /* \"#utility.yul\":8108:8159   */\n      tag_378\n      jump\t// in\n    tag_381:\n        /* \"#utility.yul\":8103:8106   */\n      dup3\n        /* \"#utility.yul\":8096:8160   */\n      mstore\n        /* \"#utility.yul\":8007:8166   */\n      pop\n      pop\n      jump\t// out\n        /* \"#utility.yul\":8172:8319   */\n    tag_382:\n        /* \"#utility.yul\":8267:8312   */\n      tag_384\n        /* \"#utility.yul\":8306:8311   */\n      dup2\n        /* \"#utility.yul\":8267:8312   */\n      tag_385\n      jump\t// in\n    tag_384:\n        /* \"#utility.yul\":8262:8265   */\n      dup3\n        /* \"#utility.yul\":8255:8313   */\n      mstore\n        /* \"#utility.yul\":8172:8319   */\n      pop\n      pop\n      jump\t// out\n        /* \"#utility.yul\":8325:8669   */\n    tag_342:\n        /* \"#utility.yul\":8403:8406   */\n      0x00\n        /* \"#utility.yul\":8431:8470   */\n      tag_387\n        /* \"#utility.yul\":8464:8469   */\n      dup3\n        /* \"#utility.yul\":8431:8470   */\n      tag_388\n      jump\t// in\n    tag_387:\n        /* \"#utility.yul\":8486:8547   */\n      tag_389\n        /* \"#utility.yul\":8540:8546   */\n      dup2\n        /* \"#utility.yul\":8535:8538   */\n      dup6\n        /* \"#utility.yul\":8486:8547   */\n      tag_390\n      jump\t// in\n    tag_389:\n        /* \"#utility.yul\":8479:8547   */\n      swap4\n      pop\n        /* \"#utility.yul\":8556:8608   */\n      tag_391\n        /* \"#utility.yul\":8601:8607   */\n      dup2\n        /* \"#utility.yul\":8596:8599   */\n      dup6\n        /* \"#utility.yul\":8589:8593   */\n      0x20\n        /* \"#utility.yul\":8582:8587   */\n      dup7\n        /* \"#utility.yul\":8578:8594   */\n      add\n        /* \"#utility.yul\":8556:8608   */\n      tag_392\n      jump\t// in\n    tag_391:\n        /* \"#utility.yul\":8633:8662   */\n      tag_393\n        /* \"#utility.yul\":8655:8661   */\n      dup2\n        /* \"#utility.yul\":8633:8662   */\n      tag_394\n      jump\t// in\n    tag_393:\n        /* \"#utility.yul\":8628:8631   */\n      dup5\n        /* \"#utility.yul\":8624:8663   */\n      add\n        /* \"#utility.yul\":8617:8663   */\n      swap2\n      pop\n        /* \"#utility.yul\":8407:8669   */\n      pop\n        /* \"#utility.yul\":8325:8669   */\n      swap3\n      swap2\n      pop\n      pop\n      jump\t// out\n        /* \"#utility.yul\":8675:9039   */\n    tag_395:\n        /* \"#utility.yul\":8763:8766   */\n      0x00\n        /* \"#utility.yul\":8791:8830   */\n      tag_397\n        /* \"#utility.yul\":8824:8829   */\n      dup3\n        /* \"#utility.yul\":8791:8830   */\n      tag_388\n      jump\t// in\n    tag_397:\n        /* \"#utility.yul\":8846:8917   */\n      tag_398\n        /* \"#utility.yul\":8910:8916   */\n      dup2\n        /* \"#utility.yul\":8905:8908   */\n      dup6\n        /* \"#utility.yul\":8846:8917   */\n      tag_399\n      jump\t// in\n    tag_398:\n        /* \"#utility.yul\":8839:8917   */\n      swap4\n      pop\n        /* \"#utility.yul\":8926:8978   */\n      tag_400\n        /* \"#utility.yul\":8971:8977   */\n      dup2\n        /* \"#utility.yul\":8966:8969   */\n      dup6\n        /* \"#utility.yul\":8959:8963   */\n      0x20\n        /* \"#utility.yul\":8952:8957   */\n      dup7\n        /* \"#utility.yul\":8948:8964   */\n      add\n        /* \"#utility.yul\":8926:8978   */\n      tag_392\n      jump\t// in\n    tag_400:\n        /* \"#utility.yul\":9003:9032   */\n      tag_401\n        /* \"#utility.yul\":9025:9031   */\n      dup2\n        /* \"#utility.yul\":9003:9032   */\n      tag_394\n      jump\t// in\n    tag_401:\n        /* \"#utility.yul\":8998:9001   */\n      dup5\n        /* \"#utility.yul\":8994:9033   */\n      add\n        /* \"#utility.yul\":8987:9033   */\n      swap2\n      pop\n        /* \"#utility.yul\":8767:9039   */\n      pop\n        /* \"#utility.yul\":8675:9039   */\n      swap3\n      swap2\n      pop\n      pop\n      jump\t// out\n        /* \"#utility.yul\":9045:9422   */\n    tag_402:\n        /* \"#utility.yul\":9151:9154   */\n      0x00\n        /* \"#utility.yul\":9179:9218   */\n      tag_404\n        /* \"#utility.yul\":9212:9217   */\n      dup3\n        /* \"#utility.yul\":9179:9218   */\n      tag_388\n      jump\t// in\n    tag_404:\n        /* \"#utility.yul\":9234:9323   */\n      tag_405\n        /* \"#utility.yul\":9316:9322   */\n      dup2\n        /* \"#utility.yul\":9311:9314   */\n      dup6\n        /* \"#utility.yul\":9234:9323   */\n      tag_406\n      jump\t// in\n    tag_405:\n        /* \"#utility.yul\":9227:9323   */\n      swap4\n      pop\n        /* \"#utility.yul\":9332:9384   */\n      tag_407\n        /* \"#utility.yul\":9377:9383   */\n      dup2\n        /* \"#utility.yul\":9372:9375   */\n      dup6\n        /* \"#utility.yul\":9365:9369   */\n      0x20\n        /* \"#utility.yul\":9358:9363   */\n      dup7\n        /* \"#utility.yul\":9354:9370   */\n      add\n        /* \"#utility.yul\":9332:9384   */\n      tag_392\n      jump\t// in\n    tag_407:\n        /* \"#utility.yul\":9409:9415   */\n      dup1\n        /* \"#utility.yul\":9404:9407   */\n      dup5\n        /* \"#utility.yul\":9400:9416   */\n      add\n        /* \"#utility.yul\":9393:9416   */\n      swap2\n      pop\n        /* \"#utility.yul\":9155:9422   */\n      pop\n        /* \"#utility.yul\":9045:9422   */\n      swap3\n      swap2\n      pop\n      pop\n      jump\t// out\n        /* \"#utility.yul\":9492:12332   */\n    tag_346:\n        /* \"#utility.yul\":9605:9608   */\n      0x00\n        /* \"#utility.yul\":9641:9647   */\n      0x0180\n        /* \"#utility.yul\":9636:9639   */\n      dup4\n        /* \"#utility.yul\":9632:9648   */\n      add\n        /* \"#utility.yul\":9728:9732   */\n      0x00\n        /* \"#utility.yul\":9721:9726   */\n      dup4\n        /* \"#utility.yul\":9717:9733   */\n      add\n        /* \"#utility.yul\":9711:9734   */\n      mload\n        /* \"#utility.yul\":9747:9810   */\n      tag_409\n        /* \"#utility.yul\":9804:9808   */\n      0x00\n        /* \"#utility.yul\":9799:9802   */\n      dup7\n        /* \"#utility.yul\":9795:9809   */\n      add\n        /* \"#utility.yul\":9781:9793   */\n      dup3\n        /* \"#utility.yul\":9747:9810   */\n      tag_410\n      jump\t// in\n    tag_409:\n        /* \"#utility.yul\":9658:9820   */\n      pop\n        /* \"#utility.yul\":9902:9906   */\n      0x20\n        /* \"#utility.yul\":9895:9900   */\n      dup4\n        /* \"#utility.yul\":9891:9907   */\n      add\n        /* \"#utility.yul\":9885:9908   */\n      mload\n        /* \"#utility.yul\":9955:9958   */\n      dup5\n        /* \"#utility.yul\":9949:9953   */\n      dup3\n        /* \"#utility.yul\":9945:9959   */\n      sub\n        /* \"#utility.yul\":9938:9942   */\n      0x20\n        /* \"#utility.yul\":9933:9936   */\n      dup7\n        /* \"#utility.yul\":9929:9943   */\n      add\n        /* \"#utility.yul\":9922:9960   */\n      mstore\n        /* \"#utility.yul\":9981:10054   */\n      tag_411\n        /* \"#utility.yul\":10049:10053   */\n      dup3\n        /* \"#utility.yul\":10035:10047   */\n      dup3\n        /* \"#utility.yul\":9981:10054   */\n      tag_342\n      jump\t// in\n    tag_411:\n        /* \"#utility.yul\":9973:10054   */\n      swap2\n      pop\n        /* \"#utility.yul\":9830:10065   */\n      pop\n        /* \"#utility.yul\":10154:10158   */\n      0x40\n        /* \"#utility.yul\":10147:10152   */\n      dup4\n        /* \"#utility.yul\":10143:10159   */\n      add\n        /* \"#utility.yul\":10137:10160   */\n      mload\n        /* \"#utility.yul\":10207:10210   */\n      dup5\n        /* \"#utility.yul\":10201:10205   */\n      dup3\n        /* \"#utility.yul\":10197:10211   */\n      sub\n        /* \"#utility.yul\":10190:10194   */\n      0x40\n        /* \"#utility.yul\":10185:10188   */\n      dup7\n        /* \"#utility.yul\":10181:10195   */\n      add\n        /* \"#utility.yul\":10174:10212   */\n      mstore\n        /* \"#utility.yul\":10233:10306   */\n      tag_412\n        /* \"#utility.yul\":10301:10305   */\n      dup3\n        /* \"#utility.yul\":10287:10299   */\n      dup3\n        /* \"#utility.yul\":10233:10306   */\n      tag_342\n      jump\t// in\n    tag_412:\n        /* \"#utility.yul\":10225:10306   */\n      swap2\n      pop\n        /* \"#utility.yul\":10075:10317   */\n      pop\n        /* \"#utility.yul\":10403:10407   */\n      0x60\n        /* \"#utility.yul\":10396:10401   */\n      dup4\n        /* \"#utility.yul\":10392:10408   */\n      add\n        /* \"#utility.yul\":10386:10409   */\n      mload\n        /* \"#utility.yul\":10456:10459   */\n      dup5\n        /* \"#utility.yul\":10450:10454   */\n      dup3\n        /* \"#utility.yul\":10446:10460   */\n      sub\n        /* \"#utility.yul\":10439:10443   */\n      0x60\n        /* \"#utility.yul\":10434:10437   */\n      dup7\n        /* \"#utility.yul\":10430:10444   */\n      add\n        /* \"#utility.yul\":10423:10461   */\n      mstore\n        /* \"#utility.yul\":10482:10555   */\n      tag_413\n        /* \"#utility.yul\":10550:10554   */\n      dup3\n        /* \"#utility.yul\":10536:10548   */\n      dup3\n        /* \"#utility.yul\":10482:10555   */\n      tag_342\n      jump\t// in\n    tag_413:\n        /* \"#utility.yul\":10474:10555   */\n      swap2\n      pop\n        /* \"#utility.yul\":10327:10566   */\n      pop\n        /* \"#utility.yul\":10659:10663   */\n      0x80\n        /* \"#utility.yul\":10652:10657   */\n      dup4\n        /* \"#utility.yul\":10648:10664   */\n      add\n        /* \"#utility.yul\":10642:10665   */\n      mload\n        /* \"#utility.yul\":10678:10741   */\n      tag_414\n        /* \"#utility.yul\":10735:10739   */\n      0x80\n        /* \"#utility.yul\":10730:10733   */\n      dup7\n        /* \"#utility.yul\":10726:10740   */\n      add\n        /* \"#utility.yul\":10712:10724   */\n      dup3\n        /* \"#utility.yul\":10678:10741   */\n      tag_410\n      jump\t// in\n    tag_414:\n        /* \"#utility.yul\":10576:10751   */\n      pop\n        /* \"#utility.yul\":10840:10844   */\n      0xa0\n        /* \"#utility.yul\":10833:10838   */\n      dup4\n        /* \"#utility.yul\":10829:10845   */\n      add\n        /* \"#utility.yul\":10823:10846   */\n      mload\n        /* \"#utility.yul\":10859:10922   */\n      tag_415\n        /* \"#utility.yul\":10916:10920   */\n      0xa0\n        /* \"#utility.yul\":10911:10914   */\n      dup7\n        /* \"#utility.yul\":10907:10921   */\n      add\n        /* \"#utility.yul\":10893:10905   */\n      dup3\n        /* \"#utility.yul\":10859:10922   */\n      tag_410\n      jump\t// in\n    tag_415:\n        /* \"#utility.yul\":10761:10932   */\n      pop\n        /* \"#utility.yul\":11027:11031   */\n      0xc0\n        /* \"#utility.yul\":11020:11025   */\n      dup4\n        /* \"#utility.yul\":11016:11032   */\n      add\n        /* \"#utility.yul\":11010:11033   */\n      mload\n        /* \"#utility.yul\":11046:11109   */\n      tag_416\n        /* \"#utility.yul\":11103:11107   */\n      0xc0\n        /* \"#utility.yul\":11098:11101   */\n      dup7\n        /* \"#utility.yul\":11094:11108   */\n      add\n        /* \"#utility.yul\":11080:11092   */\n      dup3\n        /* \"#utility.yul\":11046:11109   */\n      tag_410\n      jump\t// in\n    tag_416:\n        /* \"#utility.yul\":10942:11119   */\n      pop\n        /* \"#utility.yul\":11206:11210   */\n      0xe0\n        /* \"#utility.yul\":11199:11204   */\n      dup4\n        /* \"#utility.yul\":11195:11211   */\n      add\n        /* \"#utility.yul\":11189:11212   */\n      mload\n        /* \"#utility.yul\":11225:11288   */\n      tag_417\n        /* \"#utility.yul\":11282:11286   */\n      0xe0\n        /* \"#utility.yul\":11277:11280   */\n      dup7\n        /* \"#utility.yul\":11273:11287   */\n      add\n        /* \"#utility.yul\":11259:11271   */\n      dup3\n        /* \"#utility.yul\":11225:11288   */\n      tag_410\n      jump\t// in\n    tag_417:\n        /* \"#utility.yul\":11129:11298   */\n      pop\n        /* \"#utility.yul\":11385:11391   */\n      0x0100\n        /* \"#utility.yul\":11378:11383   */\n      dup4\n        /* \"#utility.yul\":11374:11392   */\n      add\n        /* \"#utility.yul\":11368:11393   */\n      mload\n        /* \"#utility.yul\":11442:11445   */\n      dup5\n        /* \"#utility.yul\":11436:11440   */\n      dup3\n        /* \"#utility.yul\":11432:11446   */\n      sub\n        /* \"#utility.yul\":11423:11429   */\n      0x0100\n        /* \"#utility.yul\":11418:11421   */\n      dup7\n        /* \"#utility.yul\":11414:11430   */\n      add\n        /* \"#utility.yul\":11407:11447   */\n      mstore\n        /* \"#utility.yul\":11468:11541   */\n      tag_418\n        /* \"#utility.yul\":11536:11540   */\n      dup3\n        /* \"#utility.yul\":11522:11534   */\n      dup3\n        /* \"#utility.yul\":11468:11541   */\n      tag_342\n      jump\t// in\n    tag_418:\n        /* \"#utility.yul\":11460:11541   */\n      swap2\n      pop\n        /* \"#utility.yul\":11308:11552   */\n      pop\n        /* \"#utility.yul\":11643:11649   */\n      0x0120\n        /* \"#utility.yul\":11636:11641   */\n      dup4\n        /* \"#utility.yul\":11632:11650   */\n      add\n        /* \"#utility.yul\":11626:11651   */\n      mload\n        /* \"#utility.yul\":11700:11703   */\n      dup5\n        /* \"#utility.yul\":11694:11698   */\n      dup3\n        /* \"#utility.yul\":11690:11704   */\n      sub\n        /* \"#utility.yul\":11681:11687   */\n      0x0120\n        /* \"#utility.yul\":11676:11679   */\n      dup7\n        /* \"#utility.yul\":11672:11688   */\n      add\n        /* \"#utility.yul\":11665:11705   */\n      mstore\n        /* \"#utility.yul\":11726:11799   */\n      tag_419\n        /* \"#utility.yul\":11794:11798   */\n      dup3\n        /* \"#utility.yul\":11780:11792   */\n      dup3\n        /* \"#utility.yul\":11726:11799   */\n      tag_342\n      jump\t// in\n    tag_419:\n        /* \"#utility.yul\":11718:11799   */\n      swap2\n      pop\n        /* \"#utility.yul\":11562:11810   */\n      pop\n        /* \"#utility.yul\":11894:11900   */\n      0x0140\n        /* \"#utility.yul\":11887:11892   */\n      dup4\n        /* \"#utility.yul\":11883:11901   */\n      add\n        /* \"#utility.yul\":11877:11902   */\n      mload\n        /* \"#utility.yul\":11915:11994   */\n      tag_420\n        /* \"#utility.yul\":11986:11992   */\n      0x0140\n        /* \"#utility.yul\":11981:11984   */\n      dup7\n        /* \"#utility.yul\":11977:11993   */\n      add\n        /* \"#utility.yul\":11963:11975   */\n      dup3\n        /* \"#utility.yul\":11915:11994   */\n      tag_375\n      jump\t// in\n    tag_420:\n        /* \"#utility.yul\":11820:12004   */\n      pop\n        /* \"#utility.yul\":12088:12094   */\n      0x0160\n        /* \"#utility.yul\":12081:12086   */\n      dup4\n        /* \"#utility.yul\":12077:12095   */\n      add\n        /* \"#utility.yul\":12071:12096   */\n      mload\n        /* \"#utility.yul\":12145:12148   */\n      dup5\n        /* \"#utility.yul\":12139:12143   */\n      dup3\n        /* \"#utility.yul\":12135:12149   */\n      sub\n        /* \"#utility.yul\":12126:12132   */\n      0x0160\n        /* \"#utility.yul\":12121:12124   */\n      dup7\n        /* \"#utility.yul\":12117:12133   */\n      add\n        /* \"#utility.yul\":12110:12150   */\n      mstore\n        /* \"#utility.yul\":12171:12294   */\n      tag_421\n        /* \"#utility.yul\":12289:12293   */\n      dup3\n        /* \"#utility.yul\":12275:12287   */\n      dup3\n        /* \"#utility.yul\":12171:12294   */\n      tag_347\n      jump\t// in\n    tag_421:\n        /* \"#utility.yul\":12163:12294   */\n      swap2\n      pop\n        /* \"#utility.yul\":12014:12305   */\n      pop\n        /* \"#utility.yul\":12322:12326   */\n      dup1\n        /* \"#utility.yul\":12315:12326   */\n      swap2\n      pop\n        /* \"#utility.yul\":9610:12332   */\n      pop\n        /* \"#utility.yul\":9492:12332   */\n      swap3\n      swap2\n      pop\n      pop\n      jump\t// out\n        /* \"#utility.yul\":12402:15252   */\n    tag_422:\n        /* \"#utility.yul\":12525:12528   */\n      0x00\n        /* \"#utility.yul\":12561:12567   */\n      0x0180\n        /* \"#utility.yul\":12556:12559   */\n      dup4\n        /* \"#utility.yul\":12552:12568   */\n      add\n        /* \"#utility.yul\":12648:12652   */\n      0x00\n        /* \"#utility.yul\":12641:12646   */\n      dup4\n        /* \"#utility.yul\":12637:12653   */\n      add\n        /* \"#utility.yul\":12631:12654   */\n      mload\n        /* \"#utility.yul\":12667:12730   */\n      tag_424\n        /* \"#utility.yul\":12724:12728   */\n      0x00\n        /* \"#utility.yul\":12719:12722   */\n      dup7\n        /* \"#utility.yul\":12715:12729   */\n      add\n        /* \"#utility.yul\":12701:12713   */\n      dup3\n        /* \"#utility.yul\":12667:12730   */\n      tag_410\n      jump\t// in\n    tag_424:\n        /* \"#utility.yul\":12578:12740   */\n      pop\n        /* \"#utility.yul\":12822:12826   */\n      0x20\n        /* \"#utility.yul\":12815:12820   */\n      dup4\n        /* \"#utility.yul\":12811:12827   */\n      add\n        /* \"#utility.yul\":12805:12828   */\n      mload\n        /* \"#utility.yul\":12875:12878   */\n      dup5\n        /* \"#utility.yul\":12869:12873   */\n      dup3\n        /* \"#utility.yul\":12865:12879   */\n      sub\n        /* \"#utility.yul\":12858:12862   */\n      0x20\n        /* \"#utility.yul\":12853:12856   */\n      dup7\n        /* \"#utility.yul\":12849:12863   */\n      add\n        /* \"#utility.yul\":12842:12880   */\n      mstore\n        /* \"#utility.yul\":12901:12974   */\n      tag_425\n        /* \"#utility.yul\":12969:12973   */\n      dup3\n        /* \"#utility.yul\":12955:12967   */\n      dup3\n        /* \"#utility.yul\":12901:12974   */\n      tag_342\n      jump\t// in\n    tag_425:\n        /* \"#utility.yul\":12893:12974   */\n      swap2\n      pop\n        /* \"#utility.yul\":12750:12985   */\n      pop\n        /* \"#utility.yul\":13074:13078   */\n      0x40\n        /* \"#utility.yul\":13067:13072   */\n      dup4\n        /* \"#utility.yul\":13063:13079   */\n      add\n        /* \"#utility.yul\":13057:13080   */\n      mload\n        /* \"#utility.yul\":13127:13130   */\n      dup5\n        /* \"#utility.yul\":13121:13125   */\n      dup3\n        /* \"#utility.yul\":13117:13131   */\n      sub\n        /* \"#utility.yul\":13110:13114   */\n      0x40\n        /* \"#utility.yul\":13105:13108   */\n      dup7\n        /* \"#utility.yul\":13101:13115   */\n      add\n        /* \"#utility.yul\":13094:13132   */\n      mstore\n        /* \"#utility.yul\":13153:13226   */\n      tag_426\n        /* \"#utility.yul\":13221:13225   */\n      dup3\n        /* \"#utility.yul\":13207:13219   */\n      dup3\n        /* \"#utility.yul\":13153:13226   */\n      tag_342\n      jump\t// in\n    tag_426:\n        /* \"#utility.yul\":13145:13226   */\n      swap2\n      pop\n        /* \"#utility.yul\":12995:13237   */\n      pop\n        /* \"#utility.yul\":13323:13327   */\n      0x60\n        /* \"#utility.yul\":13316:13321   */\n      dup4\n        /* \"#utility.yul\":13312:13328   */\n      add\n        /* \"#utility.yul\":13306:13329   */\n      mload\n        /* \"#utility.yul\":13376:13379   */\n      dup5\n        /* \"#utility.yul\":13370:13374   */\n      dup3\n        /* \"#utility.yul\":13366:13380   */\n      sub\n        /* \"#utility.yul\":13359:13363   */\n      0x60\n        /* \"#utility.yul\":13354:13357   */\n      dup7\n        /* \"#utility.yul\":13350:13364   */\n      add\n        /* \"#utility.yul\":13343:13381   */\n      mstore\n        /* \"#utility.yul\":13402:13475   */\n      tag_427\n        /* \"#utility.yul\":13470:13474   */\n      dup3\n        /* \"#utility.yul\":13456:13468   */\n      dup3\n        /* \"#utility.yul\":13402:13475   */\n      tag_342\n      jump\t// in\n    tag_427:\n        /* \"#utility.yul\":13394:13475   */\n      swap2\n      pop\n        /* \"#utility.yul\":13247:13486   */\n      pop\n        /* \"#utility.yul\":13579:13583   */\n      0x80\n        /* \"#utility.yul\":13572:13577   */\n      dup4\n        /* \"#utility.yul\":13568:13584   */\n      add\n        /* \"#utility.yul\":13562:13585   */\n      mload\n        /* \"#utility.yul\":13598:13661   */\n      tag_428\n        /* \"#utility.yul\":13655:13659   */\n      0x80\n        /* \"#utility.yul\":13650:13653   */\n      dup7\n        /* \"#utility.yul\":13646:13660   */\n      add\n        /* \"#utility.yul\":13632:13644   */\n      dup3\n        /* \"#utility.yul\":13598:13661   */\n      tag_410\n      jump\t// in\n    tag_428:\n        /* \"#utility.yul\":13496:13671   */\n      pop\n        /* \"#utility.yul\":13760:13764   */\n      0xa0\n        /* \"#utility.yul\":13753:13758   */\n      dup4\n        /* \"#utility.yul\":13749:13765   */\n      add\n        /* \"#utility.yul\":13743:13766   */\n      mload\n        /* \"#utility.yul\":13779:13842   */\n      tag_429\n        /* \"#utility.yul\":13836:13840   */\n      0xa0\n        /* \"#utility.yul\":13831:13834   */\n      dup7\n        /* \"#utility.yul\":13827:13841   */\n      add\n        /* \"#utility.yul\":13813:13825   */\n      dup3\n        /* \"#utility.yul\":13779:13842   */\n      tag_410\n      jump\t// in\n    tag_429:\n        /* \"#utility.yul\":13681:13852   */\n      pop\n        /* \"#utility.yul\":13947:13951   */\n      0xc0\n        /* \"#utility.yul\":13940:13945   */\n      dup4\n        /* \"#utility.yul\":13936:13952   */\n      add\n        /* \"#utility.yul\":13930:13953   */\n      mload\n        /* \"#utility.yul\":13966:14029   */\n      tag_430\n        /* \"#utility.yul\":14023:14027   */\n      0xc0\n        /* \"#utility.yul\":14018:14021   */\n      dup7\n        /* \"#utility.yul\":14014:14028   */\n      add\n        /* \"#utility.yul\":14000:14012   */\n      dup3\n        /* \"#utility.yul\":13966:14029   */\n      tag_410\n      jump\t// in\n    tag_430:\n        /* \"#utility.yul\":13862:14039   */\n      pop\n        /* \"#utility.yul\":14126:14130   */\n      0xe0\n        /* \"#utility.yul\":14119:14124   */\n      dup4\n        /* \"#utility.yul\":14115:14131   */\n      add\n        /* \"#utility.yul\":14109:14132   */\n      mload\n        /* \"#utility.yul\":14145:14208   */\n      tag_431\n        /* \"#utility.yul\":14202:14206   */\n      0xe0\n        /* \"#utility.yul\":14197:14200   */\n      dup7\n        /* \"#utility.yul\":14193:14207   */\n      add\n        /* \"#utility.yul\":14179:14191   */\n      dup3\n        /* \"#utility.yul\":14145:14208   */\n      tag_410\n      jump\t// in\n    tag_431:\n        /* \"#utility.yul\":14049:14218   */\n      pop\n        /* \"#utility.yul\":14305:14311   */\n      0x0100\n        /* \"#utility.yul\":14298:14303   */\n      dup4\n        /* \"#utility.yul\":14294:14312   */\n      add\n        /* \"#utility.yul\":14288:14313   */\n      mload\n        /* \"#utility.yul\":14362:14365   */\n      dup5\n        /* \"#utility.yul\":14356:14360   */\n      dup3\n        /* \"#utility.yul\":14352:14366   */\n      sub\n        /* \"#utility.yul\":14343:14349   */\n      0x0100\n        /* \"#utility.yul\":14338:14341   */\n      dup7\n        /* \"#utility.yul\":14334:14350   */\n      add\n        /* \"#utility.yul\":14327:14367   */\n      mstore\n        /* \"#utility.yul\":14388:14461   */\n      tag_432\n        /* \"#utility.yul\":14456:14460   */\n      dup3\n        /* \"#utility.yul\":14442:14454   */\n      dup3\n        /* \"#utility.yul\":14388:14461   */\n      tag_342\n      jump\t// in\n    tag_432:\n        /* \"#utility.yul\":14380:14461   */\n      swap2\n      pop\n        /* \"#utility.yul\":14228:14472   */\n      pop\n        /* \"#utility.yul\":14563:14569   */\n      0x0120\n        /* \"#utility.yul\":14556:14561   */\n      dup4\n        /* \"#utility.yul\":14552:14570   */\n      add\n        /* \"#utility.yul\":14546:14571   */\n      mload\n        /* \"#utility.yul\":14620:14623   */\n      dup5\n        /* \"#utility.yul\":14614:14618   */\n      dup3\n        /* \"#utility.yul\":14610:14624   */\n      sub\n        /* \"#utility.yul\":14601:14607   */\n      0x0120\n        /* \"#utility.yul\":14596:14599   */\n      dup7\n        /* \"#utility.yul\":14592:14608   */\n      add\n        /* \"#utility.yul\":14585:14625   */\n      mstore\n        /* \"#utility.yul\":14646:14719   */\n      tag_433\n        /* \"#utility.yul\":14714:14718   */\n      dup3\n        /* \"#utility.yul\":14700:14712   */\n      dup3\n        /* \"#utility.yul\":14646:14719   */\n      tag_342\n      jump\t// in\n    tag_433:\n        /* \"#utility.yul\":14638:14719   */\n      swap2\n      pop\n        /* \"#utility.yul\":14482:14730   */\n      pop\n        /* \"#utility.yul\":14814:14820   */\n      0x0140\n        /* \"#utility.yul\":14807:14812   */\n      dup4\n        /* \"#utility.yul\":14803:14821   */\n      add\n        /* \"#utility.yul\":14797:14822   */\n      mload\n        /* \"#utility.yul\":14835:14914   */\n      tag_434\n        /* \"#utility.yul\":14906:14912   */\n      0x0140\n        /* \"#utility.yul\":14901:14904   */\n      dup7\n        /* \"#utility.yul\":14897:14913   */\n      add\n        /* \"#utility.yul\":14883:14895   */\n      dup3\n        /* \"#utility.yul\":14835:14914   */\n      tag_375\n      jump\t// in\n    tag_434:\n        /* \"#utility.yul\":14740:14924   */\n      pop\n        /* \"#utility.yul\":15008:15014   */\n      0x0160\n        /* \"#utility.yul\":15001:15006   */\n      dup4\n        /* \"#utility.yul\":14997:15015   */\n      add\n        /* \"#utility.yul\":14991:15016   */\n      mload\n        /* \"#utility.yul\":15065:15068   */\n      dup5\n        /* \"#utility.yul\":15059:15063   */\n      dup3\n        /* \"#utility.yul\":15055:15069   */\n      sub\n        /* \"#utility.yul\":15046:15052   */\n      0x0160\n        /* \"#utility.yul\":15041:15044   */\n      dup7\n        /* \"#utility.yul\":15037:15053   */\n      add\n        /* \"#utility.yul\":15030:15070   */\n      mstore\n        /* \"#utility.yul\":15091:15214   */\n      tag_435\n        /* \"#utility.yul\":15209:15213   */\n      dup3\n        /* \"#utility.yul\":15195:15207   */\n      dup3\n        /* \"#utility.yul\":15091:15214   */\n      tag_347\n      jump\t// in\n    tag_435:\n        /* \"#utility.yul\":15083:15214   */\n      swap2\n      pop\n        /* \"#utility.yul\":14934:15225   */\n      pop\n        /* \"#utility.yul\":15242:15246   */\n      dup1\n        /* \"#utility.yul\":15235:15246   */\n      swap2\n      pop\n        /* \"#utility.yul\":12530:15252   */\n      pop\n        /* \"#utility.yul\":12402:15252   */\n      swap3\n      swap2\n      pop\n      pop\n      jump\t// out\n        /* \"#utility.yul\":15258:15366   */\n    tag_410:\n        /* \"#utility.yul\":15335:15359   */\n      tag_437\n        /* \"#utility.yul\":15353:15358   */\n      dup2\n        /* \"#utility.yul\":15335:15359   */\n      tag_438\n      jump\t// in\n    tag_437:\n        /* \"#utility.yul\":15330:15333   */\n      dup3\n        /* \"#utility.yul\":15323:15360   */\n      mstore\n        /* \"#utility.yul\":15258:15366   */\n      pop\n      pop\n      jump\t// out\n        /* \"#utility.yul\":15372:15490   */\n    tag_439:\n        /* \"#utility.yul\":15459:15483   */\n      tag_441\n        /* \"#utility.yul\":15477:15482   */\n      dup2\n        /* \"#utility.yul\":15459:15483   */\n      tag_438\n      jump\t// in\n    tag_441:\n        /* \"#utility.yul\":15454:15457   */\n      dup3\n        /* \"#utility.yul\":15447:15484   */\n      mstore\n        /* \"#utility.yul\":15372:15490   */\n      pop\n      pop\n      jump\t// out\n        /* \"#utility.yul\":15496:15771   */\n    tag_47:\n        /* \"#utility.yul\":15628:15631   */\n      0x00\n        /* \"#utility.yul\":15650:15745   */\n      tag_443\n        /* \"#utility.yul\":15741:15744   */\n      dup3\n        /* \"#utility.yul\":15732:15738   */\n      dup5\n        /* \"#utility.yul\":15650:15745   */\n      tag_402\n      jump\t// in\n    tag_443:\n        /* \"#utility.yul\":15643:15745   */\n      swap2\n      pop\n        /* \"#utility.yul\":15762:15765   */\n      dup2\n        /* \"#utility.yul\":15755:15765   */\n      swap1\n      pop\n        /* \"#utility.yul\":15496:15771   */\n      swap3\n      swap2\n      pop\n      pop\n      jump\t// out\n        /* \"#utility.yul\":15777:16258   */\n    tag_17:\n        /* \"#utility.yul\":15974:15978   */\n      0x00\n        /* \"#utility.yul\":16012:16014   */\n      0x20\n        /* \"#utility.yul\":16001:16010   */\n      dup3\n        /* \"#utility.yul\":15997:16015   */\n      add\n        /* \"#utility.yul\":15989:16015   */\n      swap1\n      pop\n        /* \"#utility.yul\":16061:16070   */\n      dup2\n        /* \"#utility.yul\":16055:16059   */\n      dup2\n        /* \"#utility.yul\":16051:16071   */\n      sub\n        /* \"#utility.yul\":16047:16048   */\n      0x00\n        /* \"#utility.yul\":16036:16045   */\n      dup4\n        /* \"#utility.yul\":16032:16049   */\n      add\n        /* \"#utility.yul\":16025:16072   */\n      mstore\n        /* \"#utility.yul\":16089:16251   */\n      tag_445\n        /* \"#utility.yul\":16246:16250   */\n      dup2\n        /* \"#utility.yul\":16237:16243   */\n      dup5\n        /* \"#utility.yul\":16089:16251   */\n      tag_361\n      jump\t// in\n    tag_445:\n        /* \"#utility.yul\":16081:16251   */\n      swap1\n      pop\n        /* \"#utility.yul\":15777:16258   */\n      swap3\n      swap2\n      pop\n      pop\n      jump\t// out\n        /* \"#utility.yul\":16264:17578   */\n    tag_144:\n        /* \"#utility.yul\":16635:16639   */\n      0x00\n        /* \"#utility.yul\":16673:16676   */\n      0x0100\n        /* \"#utility.yul\":16662:16671   */\n      dup3\n        /* \"#utility.yul\":16658:16677   */\n      add\n        /* \"#utility.yul\":16650:16677   */\n      swap1\n      pop\n        /* \"#utility.yul\":16723:16732   */\n      dup2\n        /* \"#utility.yul\":16717:16721   */\n      dup2\n        /* \"#utility.yul\":16713:16733   */\n      sub\n        /* \"#utility.yul\":16709:16710   */\n      0x00\n        /* \"#utility.yul\":16698:16707   */\n      dup4\n        /* \"#utility.yul\":16694:16711   */\n      add\n        /* \"#utility.yul\":16687:16734   */\n      mstore\n        /* \"#utility.yul\":16751:16829   */\n      tag_447\n        /* \"#utility.yul\":16824:16828   */\n      dup2\n        /* \"#utility.yul\":16815:16821   */\n      dup12\n        /* \"#utility.yul\":16751:16829   */\n      tag_395\n      jump\t// in\n    tag_447:\n        /* \"#utility.yul\":16743:16829   */\n      swap1\n      pop\n        /* \"#utility.yul\":16876:16885   */\n      dup2\n        /* \"#utility.yul\":16870:16874   */\n      dup2\n        /* \"#utility.yul\":16866:16886   */\n      sub\n        /* \"#utility.yul\":16861:16863   */\n      0x20\n        /* \"#utility.yul\":16850:16859   */\n      dup4\n        /* \"#utility.yul\":16846:16864   */\n      add\n        /* \"#utility.yul\":16839:16887   */\n      mstore\n        /* \"#utility.yul\":16904:16982   */\n      tag_448\n        /* \"#utility.yul\":16977:16981   */\n      dup2\n        /* \"#utility.yul\":16968:16974   */\n      dup11\n        /* \"#utility.yul\":16904:16982   */\n      tag_395\n      jump\t// in\n    tag_448:\n        /* \"#utility.yul\":16896:16982   */\n      swap1\n      pop\n        /* \"#utility.yul\":16992:17064   */\n      tag_449\n        /* \"#utility.yul\":17060:17062   */\n      0x40\n        /* \"#utility.yul\":17049:17058   */\n      dup4\n        /* \"#utility.yul\":17045:17063   */\n      add\n        /* \"#utility.yul\":17036:17042   */\n      dup10\n        /* \"#utility.yul\":16992:17064   */\n      tag_439\n      jump\t// in\n    tag_449:\n        /* \"#utility.yul\":17074:17146   */\n      tag_450\n        /* \"#utility.yul\":17142:17144   */\n      0x60\n        /* \"#utility.yul\":17131:17140   */\n      dup4\n        /* \"#utility.yul\":17127:17145   */\n      add\n        /* \"#utility.yul\":17118:17124   */\n      dup9\n        /* \"#utility.yul\":17074:17146   */\n      tag_439\n      jump\t// in\n    tag_450:\n        /* \"#utility.yul\":17156:17237   */\n      tag_451\n        /* \"#utility.yul\":17232:17235   */\n      0x80\n        /* \"#utility.yul\":17221:17230   */\n      dup4\n        /* \"#utility.yul\":17217:17236   */\n      add\n        /* \"#utility.yul\":17208:17214   */\n      dup8\n        /* \"#utility.yul\":17156:17237   */\n      tag_382\n      jump\t// in\n    tag_451:\n        /* \"#utility.yul\":17247:17320   */\n      tag_452\n        /* \"#utility.yul\":17315:17318   */\n      0xa0\n        /* \"#utility.yul\":17304:17313   */\n      dup4\n        /* \"#utility.yul\":17300:17319   */\n      add\n        /* \"#utility.yul\":17291:17297   */\n      dup7\n        /* \"#utility.yul\":17247:17320   */\n      tag_439\n      jump\t// in\n    tag_452:\n        /* \"#utility.yul\":17368:17377   */\n      dup2\n        /* \"#utility.yul\":17362:17366   */\n      dup2\n        /* \"#utility.yul\":17358:17378   */\n      sub\n        /* \"#utility.yul\":17352:17355   */\n      0xc0\n        /* \"#utility.yul\":17341:17350   */\n      dup4\n        /* \"#utility.yul\":17337:17356   */\n      add\n        /* \"#utility.yul\":17330:17379   */\n      mstore\n        /* \"#utility.yul\":17396:17474   */\n      tag_453\n        /* \"#utility.yul\":17469:17473   */\n      dup2\n        /* \"#utility.yul\":17460:17466   */\n      dup6\n        /* \"#utility.yul\":17396:17474   */\n      tag_395\n      jump\t// in\n    tag_453:\n        /* \"#utility.yul\":17388:17474   */\n      swap1\n      pop\n        /* \"#utility.yul\":17484:17571   */\n      tag_454\n        /* \"#utility.yul\":17566:17569   */\n      0xe0\n        /* \"#utility.yul\":17555:17564   */\n      dup4\n        /* \"#utility.yul\":17551:17570   */\n      add\n        /* \"#utility.yul\":17542:17548   */\n      dup5\n        /* \"#utility.yul\":17484:17571   */\n      tag_379\n      jump\t// in\n    tag_454:\n        /* \"#utility.yul\":16264:17578   */\n      swap10\n      swap9\n      pop\n      pop\n      pop\n      pop\n      pop\n      pop\n      pop\n      pop\n      pop\n      jump\t// out\n        /* \"#utility.yul\":17584:17965   */\n    tag_40:\n        /* \"#utility.yul\":17731:17735   */\n      0x00\n        /* \"#utility.yul\":17769:17771   */\n      0x20\n        /* \"#utility.yul\":17758:17767   */\n      dup3\n        /* \"#utility.yul\":17754:17772   */\n      add\n        /* \"#utility.yul\":17746:17772   */\n      swap1\n      pop\n        /* \"#utility.yul\":17818:17827   */\n      dup2\n        /* \"#utility.yul\":17812:17816   */\n      dup2\n        /* \"#utility.yul\":17808:17828   */\n      sub\n        /* \"#utility.yul\":17804:17805   */\n      0x00\n        /* \"#utility.yul\":17793:17802   */\n      dup4\n        /* \"#utility.yul\":17789:17806   */\n      add\n        /* \"#utility.yul\":17782:17829   */\n      mstore\n        /* \"#utility.yul\":17846:17958   */\n      tag_456\n        /* \"#utility.yul\":17953:17957   */\n      dup2\n        /* \"#utility.yul\":17944:17950   */\n      dup5\n        /* \"#utility.yul\":17846:17958   */\n      tag_422\n      jump\t// in\n    tag_456:\n        /* \"#utility.yul\":17838:17958   */\n      swap1\n      pop\n        /* \"#utility.yul\":17584:17965   */\n      swap3\n      swap2\n      pop\n      pop\n      jump\t// out\n        /* \"#utility.yul\":17971:18100   */\n    tag_278:\n        /* \"#utility.yul\":18005:18011   */\n      0x00\n        /* \"#utility.yul\":18032:18052   */\n      tag_458\n      tag_459\n      jump\t// in\n    tag_458:\n        /* \"#utility.yul\":18022:18052   */\n      swap1\n      pop\n        /* \"#utility.yul\":18061:18094   */\n      tag_460\n        /* \"#utility.yul\":18089:18093   */\n      dup3\n        /* \"#utility.yul\":18081:18087   */\n      dup3\n        /* \"#utility.yul\":18061:18094   */\n      tag_461\n      jump\t// in\n    tag_460:\n        /* \"#utility.yul\":17971:18100   */\n      swap2\n      swap1\n      pop\n      jump\t// out\n        /* \"#utility.yul\":18106:18181   */\n    tag_459:\n        /* \"#utility.yul\":18139:18145   */\n      0x00\n        /* \"#utility.yul\":18172:18174   */\n      0x40\n        /* \"#utility.yul\":18166:18175   */\n      mload\n        /* \"#utility.yul\":18156:18175   */\n      swap1\n      pop\n        /* \"#utility.yul\":18106:18181   */\n      swap1\n      jump\t// out\n        /* \"#utility.yul\":18187:18495   */\n    tag_277:\n        /* \"#utility.yul\":18249:18253   */\n      0x00\n        /* \"#utility.yul\":18339:18357   */\n      0xffffffffffffffff\n        /* \"#utility.yul\":18331:18337   */\n      dup3\n        /* \"#utility.yul\":18328:18358   */\n      gt\n        /* \"#utility.yul\":18325:18381   */\n      iszero\n      tag_464\n      jumpi\n        /* \"#utility.yul\":18361:18379   */\n      tag_465\n      tag_50\n      jump\t// in\n    tag_465:\n        /* \"#utility.yul\":18325:18381   */\n    tag_464:\n        /* \"#utility.yul\":18399:18428   */\n      tag_466\n        /* \"#utility.yul\":18421:18427   */\n      dup3\n        /* \"#utility.yul\":18399:18428   */\n      tag_394\n      jump\t// in\n    tag_466:\n        /* \"#utility.yul\":18391:18428   */\n      swap1\n      pop\n        /* \"#utility.yul\":18483:18487   */\n      0x20\n        /* \"#utility.yul\":18477:18481   */\n      dup2\n        /* \"#utility.yul\":18473:18488   */\n      add\n        /* \"#utility.yul\":18465:18488   */\n      swap1\n      pop\n        /* \"#utility.yul\":18187:18495   */\n      swap2\n      swap1\n      pop\n      jump\t// out\n        /* \"#utility.yul\":18501:18643   */\n    tag_354:\n        /* \"#utility.yul\":18578:18582   */\n      0x00\n        /* \"#utility.yul\":18601:18604   */\n      dup2\n        /* \"#utility.yul\":18593:18604   */\n      swap1\n      pop\n        /* \"#utility.yul\":18631:18635   */\n      0x20\n        /* \"#utility.yul\":18626:18629   */\n      dup3\n        /* \"#utility.yul\":18622:18636   */\n      add\n        /* \"#utility.yul\":18614:18636   */\n      swap1\n      pop\n        /* \"#utility.yul\":18501:18643   */\n      swap2\n      swap1\n      pop\n      jump\t// out\n        /* \"#utility.yul\":18649:18808   */\n    tag_368:\n        /* \"#utility.yul\":18743:18747   */\n      0x00\n        /* \"#utility.yul\":18766:18769   */\n      dup2\n        /* \"#utility.yul\":18758:18769   */\n      swap1\n      pop\n        /* \"#utility.yul\":18796:18800   */\n      0x20\n        /* \"#utility.yul\":18791:18794   */\n      dup3\n        /* \"#utility.yul\":18787:18801   */\n      add\n        /* \"#utility.yul\":18779:18801   */\n      swap1\n      pop\n        /* \"#utility.yul\":18649:18808   */\n      swap2\n      swap1\n      pop\n      jump\t// out\n        /* \"#utility.yul\":18814:18938   */\n    tag_350:\n        /* \"#utility.yul\":18891:18897   */\n      0x00\n        /* \"#utility.yul\":18925:18930   */\n      dup2\n        /* \"#utility.yul\":18919:18931   */\n      mload\n        /* \"#utility.yul\":18909:18931   */\n      swap1\n      pop\n        /* \"#utility.yul\":18814:18938   */\n      swap2\n      swap1\n      pop\n      jump\t// out\n        /* \"#utility.yul\":18944:19085   */\n    tag_364:\n        /* \"#utility.yul\":19038:19044   */\n      0x00\n        /* \"#utility.yul\":19072:19077   */\n      dup2\n        /* \"#utility.yul\":19066:19078   */\n      mload\n        /* \"#utility.yul\":19056:19078   */\n      swap1\n      pop\n        /* \"#utility.yul\":18944:19085   */\n      swap2\n      swap1\n      pop\n      jump\t// out\n        /* \"#utility.yul\":19091:19190   */\n    tag_388:\n        /* \"#utility.yul\":19143:19149   */\n      0x00\n        /* \"#utility.yul\":19177:19182   */\n      dup2\n        /* \"#utility.yul\":19171:19183   */\n      mload\n        /* \"#utility.yul\":19161:19183   */\n      swap1\n      pop\n        /* \"#utility.yul\":19091:19190   */\n      swap2\n      swap1\n      pop\n      jump\t// out\n        /* \"#utility.yul\":19196:19319   */\n    tag_360:\n        /* \"#utility.yul\":19276:19280   */\n      0x00\n        /* \"#utility.yul\":19308:19312   */\n      0x20\n        /* \"#utility.yul\":19303:19306   */\n      dup3\n        /* \"#utility.yul\":19299:19313   */\n      add\n        /* \"#utility.yul\":19291:19313   */\n      swap1\n      pop\n        /* \"#utility.yul\":19196:19319   */\n      swap2\n      swap1\n      pop\n      jump\t// out\n        /* \"#utility.yul\":19325:19465   */\n    tag_374:\n        /* \"#utility.yul\":19422:19426   */\n      0x00\n        /* \"#utility.yul\":19454:19458   */\n      0x20\n        /* \"#utility.yul\":19449:19452   */\n      dup3\n        /* \"#utility.yul\":19445:19459   */\n      add\n        /* \"#utility.yul\":19437:19459   */\n      swap1\n      pop\n        /* \"#utility.yul\":19325:19465   */\n      swap2\n      swap1\n      pop\n      jump\t// out\n        /* \"#utility.yul\":19471:19655   */\n    tag_352:\n        /* \"#utility.yul\":19570:19581   */\n      0x00\n        /* \"#utility.yul\":19604:19610   */\n      dup3\n        /* \"#utility.yul\":19599:19602   */\n      dup3\n        /* \"#utility.yul\":19592:19611   */\n      mstore\n        /* \"#utility.yul\":19644:19648   */\n      0x20\n        /* \"#utility.yul\":19639:19642   */\n      dup3\n        /* \"#utility.yul\":19635:19649   */\n      add\n        /* \"#utility.yul\":19620:19649   */\n      swap1\n      pop\n        /* \"#utility.yul\":19471:19655   */\n      swap3\n      swap2\n      pop\n      pop\n      jump\t// out\n        /* \"#utility.yul\":19661:19872   */\n    tag_366:\n        /* \"#utility.yul\":19787:19798   */\n      0x00\n        /* \"#utility.yul\":19821:19827   */\n      dup3\n        /* \"#utility.yul\":19816:19819   */\n      dup3\n        /* \"#utility.yul\":19809:19828   */\n      mstore\n        /* \"#utility.yul\":19861:19865   */\n      0x20\n        /* \"#utility.yul\":19856:19859   */\n      dup3\n        /* \"#utility.yul\":19852:19866   */\n      add\n        /* \"#utility.yul\":19837:19866   */\n      swap1\n      pop\n        /* \"#utility.yul\":19661:19872   */\n      swap3\n      swap2\n      pop\n      pop\n      jump\t// out\n        /* \"#utility.yul\":19878:20037   */\n    tag_390:\n        /* \"#utility.yul\":19952:19963   */\n      0x00\n        /* \"#utility.yul\":19986:19992   */\n      dup3\n        /* \"#utility.yul\":19981:19984   */\n      dup3\n        /* \"#utility.yul\":19974:19993   */\n      mstore\n        /* \"#utility.yul\":20026:20030   */\n      0x20\n        /* \"#utility.yul\":20021:20024   */\n      dup3\n        /* \"#utility.yul\":20017:20031   */\n      add\n        /* \"#utility.yul\":20002:20031   */\n      swap1\n      pop\n        /* \"#utility.yul\":19878:20037   */\n      swap3\n      swap2\n      pop\n      pop\n      jump\t// out\n        /* \"#utility.yul\":20043:20212   */\n    tag_399:\n        /* \"#utility.yul\":20127:20138   */\n      0x00\n        /* \"#utility.yul\":20161:20167   */\n      dup3\n        /* \"#utility.yul\":20156:20159   */\n      dup3\n        /* \"#utility.yul\":20149:20168   */\n      mstore\n        /* \"#utility.yul\":20201:20205   */\n      0x20\n        /* \"#utility.yul\":20196:20199   */\n      dup3\n        /* \"#utility.yul\":20192:20206   */\n      add\n        /* \"#utility.yul\":20177:20206   */\n      swap1\n      pop\n        /* \"#utility.yul\":20043:20212   */\n      swap3\n      swap2\n      pop\n      pop\n      jump\t// out\n        /* \"#utility.yul\":20218:20366   */\n    tag_406:\n        /* \"#utility.yul\":20320:20331   */\n      0x00\n        /* \"#utility.yul\":20357:20360   */\n      dup2\n        /* \"#utility.yul\":20342:20360   */\n      swap1\n      pop\n        /* \"#utility.yul\":20218:20366   */\n      swap3\n      swap2\n      pop\n      pop\n      jump\t// out\n        /* \"#utility.yul\":20372:20677   */\n    tag_118:\n        /* \"#utility.yul\":20412:20415   */\n      0x00\n        /* \"#utility.yul\":20431:20451   */\n      tag_480\n        /* \"#utility.yul\":20449:20450   */\n      dup3\n        /* \"#utility.yul\":20431:20451   */\n      tag_438\n      jump\t// in\n    tag_480:\n        /* \"#utility.yul\":20426:20451   */\n      swap2\n      pop\n        /* \"#utility.yul\":20465:20485   */\n      tag_481\n        /* \"#utility.yul\":20483:20484   */\n      dup4\n        /* \"#utility.yul\":20465:20485   */\n      tag_438\n      jump\t// in\n    tag_481:\n        /* \"#utility.yul\":20460:20485   */\n      swap3\n      pop\n        /* \"#utility.yul\":20619:20620   */\n      dup3\n        /* \"#utility.yul\":20551:20617   */\n      0xffffffffffffffffffffffffffffffffffffffffffffffffffffffffffffffff\n        /* \"#utility.yul\":20547:20621   */\n      sub\n        /* \"#utility.yul\":20544:20545   */\n      dup3\n        /* \"#utility.yul\":20541:20622   */\n      gt\n        /* \"#utility.yul\":20538:20645   */\n      iszero\n      tag_482\n      jumpi\n        /* \"#utility.yul\":20625:20643   */\n      tag_483\n      tag_484\n      jump\t// in\n    tag_483:\n        /* \"#utility.yul\":20538:20645   */\n    tag_482:\n        /* \"#utility.yul\":20669:20670   */\n      dup3\n        /* \"#utility.yul\":20666:20667   */\n      dup3\n        /* \"#utility.yul\":20662:20671   */\n      add\n        /* \"#utility.yul\":20655:20671   */\n      swap1\n      pop\n        /* \"#utility.yul\":20372:20677   */\n      swap3\n      swap2\n      pop\n      pop\n      jump\t// out\n        /* \"#utility.yul\":20683:21031   */\n    tag_128:\n        /* \"#utility.yul\":20723:20730   */\n      0x00\n        /* \"#utility.yul\":20746:20766   */\n      tag_486\n        /* \"#utility.yul\":20764:20765   */\n      dup3\n        /* \"#utility.yul\":20746:20766   */\n      tag_438\n      jump\t// in\n    tag_486:\n        /* \"#utility.yul\":20741:20766   */\n      swap2\n      pop\n        /* \"#utility.yul\":20780:20800   */\n      tag_487\n        /* \"#utility.yul\":20798:20799   */\n      dup4\n        /* \"#utility.yul\":20780:20800   */\n      tag_438\n      jump\t// in\n    tag_487:\n        /* \"#utility.yul\":20775:20800   */\n      swap3\n      pop\n        /* \"#utility.yul\":20968:20969   */\n      dup2\n        /* \"#utility.yul\":20900:20966   */\n      0xffffffffffffffffffffffffffffffffffffffffffffffffffffffffffffffff\n        /* \"#utility.yul\":20896:20970   */\n      div\n        /* \"#utility.yul\":20893:20894   */\n      dup4\n        /* \"#utility.yul\":20890:20971   */\n      gt\n        /* \"#utility.yul\":20885:20886   */\n      dup3\n        /* \"#utility.yul\":20878:20887   */\n      iszero\n        /* \"#utility.yul\":20871:20888   */\n      iszero\n        /* \"#utility.yul\":20867:20972   */\n      and\n        /* \"#utility.yul\":20864:20995   */\n      iszero\n      tag_488\n      jumpi\n        /* \"#utility.yul\":20975:20993   */\n      tag_489\n      tag_484\n      jump\t// in\n    tag_489:\n        /* \"#utility.yul\":20864:20995   */\n    tag_488:\n        /* \"#utility.yul\":21023:21024   */\n      dup3\n        /* \"#utility.yul\":21020:21021   */\n      dup3\n        /* \"#utility.yul\":21016:21025   */\n      mul\n        /* \"#utility.yul\":21005:21025   */\n      swap1\n      pop\n        /* \"#utility.yul\":20683:21031   */\n      swap3\n      swap2\n      pop\n      pop\n      jump\t// out\n        /* \"#utility.yul\":21037:21228   */\n    tag_244:\n        /* \"#utility.yul\":21077:21081   */\n      0x00\n        /* \"#utility.yul\":21097:21117   */\n      tag_491\n        /* \"#utility.yul\":21115:21116   */\n      dup3\n        /* \"#utility.yul\":21097:21117   */\n      tag_438\n      jump\t// in\n    tag_491:\n        /* \"#utility.yul\":21092:21117   */\n      swap2\n      pop\n        /* \"#utility.yul\":21131:21151   */\n      tag_492\n        /* \"#utility.yul\":21149:21150   */\n      dup4\n        /* \"#utility.yul\":21131:21151   */\n      tag_438\n      jump\t// in\n    tag_492:\n        /* \"#utility.yul\":21126:21151   */\n      swap3\n      pop\n        /* \"#utility.yul\":21170:21171   */\n      dup3\n        /* \"#utility.yul\":21167:21168   */\n      dup3\n        /* \"#utility.yul\":21164:21172   */\n      lt\n        /* \"#utility.yul\":21161:21195   */\n      iszero\n      tag_493\n      jumpi\n        /* \"#utility.yul\":21175:21193   */\n      tag_494\n      tag_484\n      jump\t// in\n    tag_494:\n        /* \"#utility.yul\":21161:21195   */\n    tag_493:\n        /* \"#utility.yul\":21220:21221   */\n      dup3\n        /* \"#utility.yul\":21217:21218   */\n      dup3\n        /* \"#utility.yul\":21213:21222   */\n      sub\n        /* \"#utility.yul\":21205:21222   */\n      swap1\n      pop\n        /* \"#utility.yul\":21037:21228   */\n      swap3\n      swap2\n      pop\n      pop\n      jump\t// out\n        /* \"#utility.yul\":21234:21377   */\n    tag_495:\n        /* \"#utility.yul\":21287:21294   */\n      0x00\n        /* \"#utility.yul\":21316:21321   */\n      dup2\n        /* \"#utility.yul\":21305:21321   */\n      swap1\n      pop\n        /* \"#utility.yul\":21322:21371   */\n      tag_497\n        /* \"#utility.yul\":21365:21370   */\n      dup3\n        /* \"#utility.yul\":21322:21371   */\n      tag_498\n      jump\t// in\n    tag_497:\n        /* \"#utility.yul\":21234:21377   */\n      swap2\n      swap1\n      pop\n      jump\t// out\n        /* \"#utility.yul\":21383:21460   */\n    tag_438:\n        /* \"#utility.yul\":21420:21427   */\n      0x00\n        /* \"#utility.yul\":21449:21454   */\n      dup2\n        /* \"#utility.yul\":21438:21454   */\n      swap1\n      pop\n        /* \"#utility.yul\":21383:21460   */\n      swap2\n      swap1\n      pop\n      jump\t// out\n        /* \"#utility.yul\":21466:21609   */\n    tag_378:\n        /* \"#utility.yul\":21530:21539   */\n      0x00\n        /* \"#utility.yul\":21563:21603   */\n      tag_501\n        /* \"#utility.yul\":21597:21602   */\n      dup3\n        /* \"#utility.yul\":21563:21603   */\n      tag_495\n      jump\t// in\n    tag_501:\n        /* \"#utility.yul\":21550:21603   */\n      swap1\n      pop\n        /* \"#utility.yul\":21466:21609   */\n      swap2\n      swap1\n      pop\n      jump\t// out\n        /* \"#utility.yul\":21615:21736   */\n    tag_385:\n        /* \"#utility.yul\":21673:21682   */\n      0x00\n        /* \"#utility.yul\":21706:21730   */\n      tag_503\n        /* \"#utility.yul\":21724:21729   */\n      dup3\n        /* \"#utility.yul\":21706:21730   */\n      tag_438\n      jump\t// in\n    tag_503:\n        /* \"#utility.yul\":21693:21730   */\n      swap1\n      pop\n        /* \"#utility.yul\":21615:21736   */\n      swap2\n      swap1\n      pop\n      jump\t// out\n        /* \"#utility.yul\":21742:21896   */\n    tag_283:\n        /* \"#utility.yul\":21826:21832   */\n      dup3\n        /* \"#utility.yul\":21821:21824   */\n      dup2\n        /* \"#utility.yul\":21816:21819   */\n      dup4\n        /* \"#utility.yul\":21803:21833   */\n      calldatacopy\n        /* \"#utility.yul\":21888:21889   */\n      0x00\n        /* \"#utility.yul\":21879:21885   */\n      dup4\n        /* \"#utility.yul\":21874:21877   */\n      dup4\n        /* \"#utility.yul\":21870:21886   */\n      add\n        /* \"#utility.yul\":21863:21890   */\n      mstore\n        /* \"#utility.yul\":21742:21896   */\n      pop\n      pop\n      pop\n      jump\t// out\n        /* \"#utility.yul\":21902:22209   */\n    tag_392:\n        /* \"#utility.yul\":21970:21971   */\n      0x00\n        /* \"#utility.yul\":21980:22093   */\n    tag_506:\n        /* \"#utility.yul\":21994:22000   */\n      dup4\n        /* \"#utility.yul\":21991:21992   */\n      dup2\n        /* \"#utility.yul\":21988:22001   */\n      lt\n        /* \"#utility.yul\":21980:22093   */\n      iszero\n      tag_508\n      jumpi\n        /* \"#utility.yul\":22079:22080   */\n      dup1\n        /* \"#utility.yul\":22074:22077   */\n      dup3\n        /* \"#utility.yul\":22070:22081   */\n      add\n        /* \"#utility.yul\":22064:22082   */\n      mload\n        /* \"#utility.yul\":22060:22061   */\n      dup2\n        /* \"#utility.yul\":22055:22058   */\n      dup5\n        /* \"#utility.yul\":22051:22062   */\n      add\n        /* \"#utility.yul\":22044:22083   */\n      mstore\n        /* \"#utility.yul\":22016:22018   */\n      0x20\n        /* \"#utility.yul\":22013:22014   */\n      dup2\n        /* \"#utility.yul\":22009:22019   */\n      add\n        /* \"#utility.yul\":22004:22019   */\n      swap1\n      pop\n        /* \"#utility.yul\":21980:22093   */\n      jump(tag_506)\n    tag_508:\n        /* \"#utility.yul\":22111:22117   */\n      dup4\n        /* \"#utility.yul\":22108:22109   */\n      dup2\n        /* \"#utility.yul\":22105:22118   */\n      gt\n        /* \"#utility.yul\":22102:22203   */\n      iszero\n      tag_509\n      jumpi\n        /* \"#utility.yul\":22191:22192   */\n      0x00\n        /* \"#utility.yul\":22182:22188   */\n      dup5\n        /* \"#utility.yul\":22177:22180   */\n      dup5\n        /* \"#utility.yul\":22173:22189   */\n      add\n        /* \"#utility.yul\":22166:22193   */\n      mstore\n        /* \"#utility.yul\":22102:22203   */\n    tag_509:\n        /* \"#utility.yul\":21951:22209   */\n      pop\n        /* \"#utility.yul\":21902:22209   */\n      pop\n      pop\n      pop\n      jump\t// out\n        /* \"#utility.yul\":22215:22535   */\n    tag_64:\n        /* \"#utility.yul\":22259:22265   */\n      0x00\n        /* \"#utility.yul\":22296:22297   */\n      0x02\n        /* \"#utility.yul\":22290:22294   */\n      dup3\n        /* \"#utility.yul\":22286:22298   */\n      div\n        /* \"#utility.yul\":22276:22298   */\n      swap1\n      pop\n        /* \"#utility.yul\":22343:22344   */\n      0x01\n        /* \"#utility.yul\":22337:22341   */\n      dup3\n        /* \"#utility.yul\":22333:22345   */\n      and\n        /* \"#utility.yul\":22364:22382   */\n      dup1\n        /* \"#utility.yul\":22354:22435   */\n      tag_511\n      jumpi\n        /* \"#utility.yul\":22420:22424   */\n      0x7f\n        /* \"#utility.yul\":22412:22418   */\n      dup3\n        /* \"#utility.yul\":22408:22425   */\n      and\n        /* \"#utility.yul\":22398:22425   */\n      swap2\n      pop\n        /* \"#utility.yul\":22354:22435   */\n    tag_511:\n        /* \"#utility.yul\":22482:22484   */\n      0x20\n        /* \"#utility.yul\":22474:22480   */\n      dup3\n        /* \"#utility.yul\":22471:22485   */\n      lt\n        /* \"#utility.yul\":22451:22469   */\n      dup2\n        /* \"#utility.yul\":22448:22486   */\n      eq\n        /* \"#utility.yul\":22445:22529   */\n      iszero\n      tag_512\n      jumpi\n        /* \"#utility.yul\":22501:22519   */\n      tag_513\n      tag_514\n      jump\t// in\n    tag_513:\n        /* \"#utility.yul\":22445:22529   */\n    tag_512:\n        /* \"#utility.yul\":22266:22535   */\n      pop\n        /* \"#utility.yul\":22215:22535   */\n      swap2\n      swap1\n      pop\n      jump\t// out\n        /* \"#utility.yul\":22541:22822   */\n    tag_461:\n        /* \"#utility.yul\":22624:22651   */\n      tag_516\n        /* \"#utility.yul\":22646:22650   */\n      dup3\n        /* \"#utility.yul\":22624:22651   */\n      tag_394\n      jump\t// in\n    tag_516:\n        /* \"#utility.yul\":22616:22622   */\n      dup2\n        /* \"#utility.yul\":22612:22652   */\n      add\n        /* \"#utility.yul\":22754:22760   */\n      dup2\n        /* \"#utility.yul\":22742:22752   */\n      dup2\n        /* \"#utility.yul\":22739:22761   */\n      lt\n        /* \"#utility.yul\":22718:22736   */\n      0xffffffffffffffff\n        /* \"#utility.yul\":22706:22716   */\n      dup3\n        /* \"#utility.yul\":22703:22737   */\n      gt\n        /* \"#utility.yul\":22700:22762   */\n      or\n        /* \"#utility.yul\":22697:22785   */\n      iszero\n      tag_517\n      jumpi\n        /* \"#utility.yul\":22765:22783   */\n      tag_518\n      tag_50\n      jump\t// in\n    tag_518:\n        /* \"#utility.yul\":22697:22785   */\n    tag_517:\n        /* \"#utility.yul\":22805:22815   */\n      dup1\n        /* \"#utility.yul\":22801:22803   */\n      0x40\n        /* \"#utility.yul\":22794:22816   */\n      mstore\n        /* \"#utility.yul\":22584:22822   */\n      pop\n        /* \"#utility.yul\":22541:22822   */\n      pop\n      pop\n      jump\t// out\n        /* \"#utility.yul\":22828:23061   */\n    tag_105:\n        /* \"#utility.yul\":22867:22870   */\n      0x00\n        /* \"#utility.yul\":22890:22914   */\n      tag_520\n        /* \"#utility.yul\":22908:22913   */\n      dup3\n        /* \"#utility.yul\":22890:22914   */\n      tag_438\n      jump\t// in\n    tag_520:\n        /* \"#utility.yul\":22881:22914   */\n      swap2\n      pop\n        /* \"#utility.yul\":22936:23002   */\n      0xffffffffffffffffffffffffffffffffffffffffffffffffffffffffffffffff\n        /* \"#utility.yul\":22929:22934   */\n      dup3\n        /* \"#utility.yul\":22926:23003   */\n      eq\n        /* \"#utility.yul\":22923:23026   */\n      iszero\n      tag_521\n      jumpi\n        /* \"#utility.yul\":23006:23024   */\n      tag_522\n      tag_484\n      jump\t// in\n    tag_522:\n        /* \"#utility.yul\":22923:23026   */\n    tag_521:\n        /* \"#utility.yul\":23053:23054   */\n      0x01\n        /* \"#utility.yul\":23046:23051   */\n      dup3\n        /* \"#utility.yul\":23042:23055   */\n      add\n        /* \"#utility.yul\":23035:23055   */\n      swap1\n      pop\n        /* \"#utility.yul\":22828:23061   */\n      swap2\n      swap1\n      pop\n      jump\t// out\n        /* \"#utility.yul\":23067:23247   */\n    tag_484:\n        /* \"#utility.yul\":23115:23192   */\n      0x4e487b7100000000000000000000000000000000000000000000000000000000\n        /* \"#utility.yul\":23112:23113   */\n      0x00\n        /* \"#utility.yul\":23105:23193   */\n      mstore\n        /* \"#utility.yul\":23212:23216   */\n      0x11\n        /* \"#utility.yul\":23209:23210   */\n      0x04\n        /* \"#utility.yul\":23202:23217   */\n      mstore\n        /* \"#utility.yul\":23236:23240   */\n      0x24\n        /* \"#utility.yul\":23233:23234   */\n      0x00\n        /* \"#utility.yul\":23226:23241   */\n      revert\n        /* \"#utility.yul\":23253:23433   */\n    tag_91:\n        /* \"#utility.yul\":23301:23378   */\n      0x4e487b7100000000000000000000000000000000000000000000000000000000\n        /* \"#utility.yul\":23298:23299   */\n      0x00\n        /* \"#utility.yul\":23291:23379   */\n      mstore\n        /* \"#utility.yul\":23398:23402   */\n      0x21\n        /* \"#utility.yul\":23395:23396   */\n      0x04\n        /* \"#utility.yul\":23388:23403   */\n      mstore\n        /* \"#utility.yul\":23422:23426   */\n      0x24\n        /* \"#utility.yul\":23419:23420   */\n      0x00\n        /* \"#utility.yul\":23412:23427   */\n      revert\n        /* \"#utility.yul\":23439:23619   */\n    tag_514:\n        /* \"#utility.yul\":23487:23564   */\n      0x4e487b7100000000000000000000000000000000000000000000000000000000\n        /* \"#utility.yul\":23484:23485   */\n      0x00\n        /* \"#utility.yul\":23477:23565   */\n      mstore\n        /* \"#utility.yul\":23584:23588   */\n      0x22\n        /* \"#utility.yul\":23581:23582   */\n      0x04\n        /* \"#utility.yul\":23574:23589   */\n      mstore\n        /* \"#utility.yul\":23608:23612   */\n      0x24\n        /* \"#utility.yul\":23605:23606   */\n      0x00\n        /* \"#utility.yul\":23598:23613   */\n      revert\n        /* \"#utility.yul\":23625:23805   */\n    tag_61:\n        /* \"#utility.yul\":23673:23750   */\n      0x4e487b7100000000000000000000000000000000000000000000000000000000\n        /* \"#utility.yul\":23670:23671   */\n      0x00\n        /* \"#utility.yul\":23663:23751   */\n      mstore\n        /* \"#utility.yul\":23770:23774   */\n      0x32\n        /* \"#utility.yul\":23767:23768   */\n      0x04\n        /* \"#utility.yul\":23760:23775   */\n      mstore\n        /* \"#utility.yul\":23794:23798   */\n      0x24\n        /* \"#utility.yul\":23791:23792   */\n      0x00\n        /* \"#utility.yul\":23784:23799   */\n      revert\n        /* \"#utility.yul\":23811:23991   */\n    tag_50:\n        /* \"#utility.yul\":23859:23936   */\n      0x4e487b7100000000000000000000000000000000000000000000000000000000\n        /* \"#utility.yul\":23856:23857   */\n      0x00\n        /* \"#utility.yul\":23849:23937   */\n      mstore\n        /* \"#utility.yul\":23956:23960   */\n      0x41\n        /* \"#utility.yul\":23953:23954   */\n      0x04\n        /* \"#utility.yul\":23946:23961   */\n      mstore\n        /* \"#utility.yul\":23980:23984   */\n      0x24\n        /* \"#utility.yul\":23977:23978   */\n      0x00\n        /* \"#utility.yul\":23970:23985   */\n      revert\n        /* \"#utility.yul\":23997:24114   */\n    tag_288:\n        /* \"#utility.yul\":24106:24107   */\n      0x00\n        /* \"#utility.yul\":24103:24104   */\n      dup1\n        /* \"#utility.yul\":24096:24108   */\n      revert\n        /* \"#utility.yul\":24120:24237   */\n    tag_281:\n        /* \"#utility.yul\":24229:24230   */\n      0x00\n        /* \"#utility.yul\":24226:24227   */\n      dup1\n        /* \"#utility.yul\":24219:24231   */\n      revert\n        /* \"#utility.yul\":24243:24360   */\n    tag_300:\n        /* \"#utility.yul\":24352:24353   */\n      0x00\n        /* \"#utility.yul\":24349:24350   */\n      dup1\n        /* \"#utility.yul\":24342:24354   */\n      revert\n        /* \"#utility.yul\":24366:24483   */\n    tag_297:\n        /* \"#utility.yul\":24475:24476   */\n      0x00\n        /* \"#utility.yul\":24472:24473   */\n      dup1\n        /* \"#utility.yul\":24465:24477   */\n      revert\n        /* \"#utility.yul\":24489:24591   */\n    tag_394:\n        /* \"#utility.yul\":24530:24536   */\n      0x00\n        /* \"#utility.yul\":24581:24583   */\n      0x1f\n        /* \"#utility.yul\":24577:24584   */\n      not\n        /* \"#utility.yul\":24572:24574   */\n      0x1f\n        /* \"#utility.yul\":24565:24570   */\n      dup4\n        /* \"#utility.yul\":24561:24575   */\n      add\n        /* \"#utility.yul\":24557:24585   */\n      and\n        /* \"#utility.yul\":24547:24585   */\n      swap1\n      pop\n        /* \"#utility.yul\":24489:24591   */\n      swap2\n      swap1\n      pop\n      jump\t// out\n        /* \"#utility.yul\":24597:24718   */\n    tag_498:\n        /* \"#utility.yul\":24686:24687   */\n      0x05\n        /* \"#utility.yul\":24679:24684   */\n      dup2\n        /* \"#utility.yul\":24676:24688   */\n      lt\n        /* \"#utility.yul\":24666:24712   */\n      tag_534\n      jumpi\n        /* \"#utility.yul\":24692:24710   */\n      tag_535\n      tag_91\n      jump\t// in\n    tag_535:\n        /* \"#utility.yul\":24666:24712   */\n    tag_534:\n        /* \"#utility.yul\":24597:24718   */\n      pop\n      jump\t// out\n        /* \"#utility.yul\":24724:24846   */\n    tag_293:\n        /* \"#utility.yul\":24797:24821   */\n      tag_537\n        /* \"#utility.yul\":24815:24820   */\n      dup2\n        /* \"#utility.yul\":24797:24821   */\n      tag_438\n      jump\t// in\n    tag_537:\n        /* \"#utility.yul\":24790:24795   */\n      dup2\n        /* \"#utility.yul\":24787:24822   */\n      eq\n        /* \"#utility.yul\":24777:24840   */\n      tag_538\n      jumpi\n        /* \"#utility.yul\":24836:24837   */\n      0x00\n        /* \"#utility.yul\":24833:24834   */\n      dup1\n        /* \"#utility.yul\":24826:24838   */\n      revert\n        /* \"#utility.yul\":24777:24840   */\n    tag_538:\n        /* \"#utility.yul\":24724:24846   */\n      pop\n      jump\t// out\n\n    auxdata: 0xa264697066735822122043d3cdbdd5059f5f93af1c1685b0fe7dbb49b6cde7a6e3bf672112612e4072d564736f6c63430008070033\n}\n",
				"bytecode": {
					"linkReferences": {},
					"object": "608060405234801561001057600080fd5b506000808190555061231e806100276000396000f3fe608060405234801561001057600080fd5b50600436106100885760003560e01c80637fdd45dc1161005b5780637fdd45dc1461011157806380d038291461012d578063bee5cdca1461014b578063e6279b4f1461017b57610088565b806320e8be431461008d5780634cd0cb28146100bd57806354138541146100d95780636fe1ac91146100f5575b600080fd5b6100a760048036038101906100a2919061170b565b610197565b6040516100b49190611dc3565b60405180910390f35b6100d760048036038101906100d29190611882565b6106e8565b005b6100f360048036038101906100ee91906118ef565b61079d565b005b61010f600480360381019061010a919061170b565b610864565b005b61012b60048036038101906101269190611754565b610867565b005b610135610aad565b6040516101429190611dc3565b60405180910390f35b61016560048036038101906101609190611882565b61100c565b6040516101729190611e78565b60405180910390f35b610195600480360381019061019091906118af565b61145a565b005b606060006001836040516101ab9190611dac565b90815260200160405180910390208054905090506000805467ffffffffffffffff8111156101dc576101db612269565b5b60405190808252806020026020018201604052801561021557816020015b61020261148b565b8152602001906001900390816101fa5790505b5090506000805b838110156106dc57600260006001886040516102389190611dac565b908152602001604051809103902083815481106102585761025761223a565b5b90600052602060002001548152602001908152602001600020604051806101800160405290816000820154815260200160018201805461029790612101565b80601f01602080910402602001604051908101604052809291908181526020018280546102c390612101565b80156103105780601f106102e557610100808354040283529160200191610310565b820191906000526020600020905b8154815290600101906020018083116102f357829003601f168201915b5050505050815260200160028201805461032990612101565b80601f016020809104026020016040519081016040528092919081815260200182805461035590612101565b80156103a25780601f10610377576101008083540402835291602001916103a2565b820191906000526020600020905b81548152906001019060200180831161038557829003601f168201915b505050505081526020016003820180546103bb90612101565b80601f01602080910402602001604051908101604052809291908181526020018280546103e790612101565b80156104345780601f1061040957610100808354040283529160200191610434565b820191906000526020600020905b81548152906001019060200180831161041757829003601f168201915b505050505081526020016004820154815260200160058201548152602001600682015481526020016007820154815260200160088201805461047590612101565b80601f01602080910402602001604051908101604052809291908181526020018280546104a190612101565b80156104ee5780601f106104c3576101008083540402835291602001916104ee565b820191906000526020600020905b8154815290600101906020018083116104d157829003601f168201915b5050505050815260200160098201805461050790612101565b80601f016020809104026020016040519081016040528092919081815260200182805461053390612101565b80156105805780601f1061055557610100808354040283529160200191610580565b820191906000526020600020905b81548152906001019060200180831161056357829003601f168201915b50505050508152602001600a820160009054906101000a900460ff1660048111156105ae576105ad6121dc565b5b60048111156105c0576105bf6121dc565b5b8152602001600b8201805480602002602001604051908101604052809291908181526020016000905b8282101561069557838290600052602060002001805461060890612101565b80601f016020809104026020016040519081016040528092919081815260200182805461063490612101565b80156106815780601f1061065657610100808354040283529160200191610681565b820191906000526020600020905b81548152906001019060200180831161066457829003601f168201915b5050505050815260200190600101906105e9565b50505050815250508383815181106106b0576106af61223a565b5b602002602001018190525081806106c690612164565b92505080806106d490612164565b91505061021c565b50819350505050919050565b6002600082815260200190815260200160002060008082016000905560018201600061071491906114fe565b60028201600061072491906114fe565b60038201600061073491906114fe565b600482016000905560058201600090556006820160009055600782016000905560088201600061076491906114fe565b60098201600061077491906114fe565b600a820160006101000a81549060ff0219169055600b82016000610798919061153e565b505050565b816002600085815260200190815260200160002060050160008282546107c39190611f9a565b9250508190555060026000848152602001908152602001600020600b018190806001815401808255809150506001900390600052602060002001600090919091909150908051906020019061081992919061155f565b5060018160405161082a9190611dac565b9081526020016040518091039020839080600181540180825580915050600190039060005260206000200160009091909190915055505050565b50565b60008081548092919061087990612164565b919050555060606040518061018001604052806000548152602001898152602001888152602001878152602001868152602001600081526020018581526020016103e8426108c79190611ff0565b8152602001848152602001838152602001600060048111156108ec576108eb6121dc565b5b815260200182815250600260008054815260200190815260200160002060008201518160000155602082015181600101908051906020019061092f92919061155f565b50604082015181600201908051906020019061094c92919061155f565b50606082015181600301908051906020019061096992919061155f565b506080820151816004015560a0820151816005015560c0820151816006015560e082015181600701556101008201518160080190805190602001906109af92919061155f565b506101208201518160090190805190602001906109cd92919061155f565b5061014082015181600a0160006101000a81548160ff021916908360048111156109fa576109f96121dc565b5b021790555061016082015181600b019080519060200190610a1c9291906115e5565b5090505082604051610a2e9190611dac565b604051809103902088604051610a449190611dac565b60405180910390206000547f0e9749c08d7a6ba465fd5dcc39278788a16455c3d467d09018c1695c5b39ca9a8a8a8a8a60006103e842610a849190611ff0565b8b6000604051610a9b989796959493929190611de5565b60405180910390a45050505050505050565b6060600080600090505b6001600054610ac69190611f9a565b811015610b0d576000600260008381526020019081526020016000206000015414610afa578180610af690612164565b9250505b8080610b0590612164565b915050610ab7565b5060008167ffffffffffffffff811115610b2a57610b29612269565b5b604051908082528060200260200182016040528015610b6357816020015b610b5061148b565b815260200190600190039081610b485790505b509050600080600190505b6001600054610b7d9190611f9a565b81101561100257600260008281526020019081526020016000206040518061018001604052908160008201548152602001600182018054610bbd90612101565b80601f0160208091040260200160405190810160405280929190818152602001828054610be990612101565b8015610c365780601f10610c0b57610100808354040283529160200191610c36565b820191906000526020600020905b815481529060010190602001808311610c1957829003601f168201915b50505050508152602001600282018054610c4f90612101565b80601f0160208091040260200160405190810160405280929190818152602001828054610c7b90612101565b8015610cc85780601f10610c9d57610100808354040283529160200191610cc8565b820191906000526020600020905b815481529060010190602001808311610cab57829003601f168201915b50505050508152602001600382018054610ce190612101565b80601f0160208091040260200160405190810160405280929190818152602001828054610d0d90612101565b8015610d5a5780601f10610d2f57610100808354040283529160200191610d5a565b820191906000526020600020905b815481529060010190602001808311610d3d57829003601f168201915b5050505050815260200160048201548152602001600582015481526020016006820154815260200160078201548152602001600882018054610d9b90612101565b80601f0160208091040260200160405190810160405280929190818152602001828054610dc790612101565b8015610e145780601f10610de957610100808354040283529160200191610e14565b820191906000526020600020905b815481529060010190602001808311610df757829003601f168201915b50505050508152602001600982018054610e2d90612101565b80601f0160208091040260200160405190810160405280929190818152602001828054610e5990612101565b8015610ea65780601f10610e7b57610100808354040283529160200191610ea6565b820191906000526020600020905b815481529060010190602001808311610e8957829003601f168201915b50505050508152602001600a820160009054906101000a900460ff166004811115610ed457610ed36121dc565b5b6004811115610ee657610ee56121dc565b5b8152602001600b8201805480602002602001604051908101604052809291908181526020016000905b82821015610fbb578382906000526020600020018054610f2e90612101565b80601f0160208091040260200160405190810160405280929190818152602001828054610f5a90612101565b8015610fa75780601f10610f7c57610100808354040283529160200191610fa7565b820191906000526020600020905b815481529060010190602001808311610f8a57829003601f168201915b505050505081526020019060010190610f0f565b5050505081525050838381518110610fd657610fd561223a565b5b60200260200101819052508180610fec90612164565b9250508080610ffa90612164565b915050610b6e565b5081935050505090565b61101461148b565b60026000838152602001908152602001600020604051806101800160405290816000820154815260200160018201805461104d90612101565b80601f016020809104026020016040519081016040528092919081815260200182805461107990612101565b80156110c65780601f1061109b576101008083540402835291602001916110c6565b820191906000526020600020905b8154815290600101906020018083116110a957829003601f168201915b505050505081526020016002820180546110df90612101565b80601f016020809104026020016040519081016040528092919081815260200182805461110b90612101565b80156111585780601f1061112d57610100808354040283529160200191611158565b820191906000526020600020905b81548152906001019060200180831161113b57829003601f168201915b5050505050815260200160038201805461117190612101565b80601f016020809104026020016040519081016040528092919081815260200182805461119d90612101565b80156111ea5780601f106111bf576101008083540402835291602001916111ea565b820191906000526020600020905b8154815290600101906020018083116111cd57829003601f168201915b505050505081526020016004820154815260200160058201548152602001600682015481526020016007820154815260200160088201805461122b90612101565b80601f016020809104026020016040519081016040528092919081815260200182805461125790612101565b80156112a45780601f10611279576101008083540402835291602001916112a4565b820191906000526020600020905b81548152906001019060200180831161128757829003601f168201915b505050505081526020016009820180546112bd90612101565b80601f01602080910402602001604051908101604052809291908181526020018280546112e990612101565b80156113365780601f1061130b57610100808354040283529160200191611336565b820191906000526020600020905b81548152906001019060200180831161131957829003601f168201915b50505050508152602001600a820160009054906101000a900460ff166004811115611364576113636121dc565b5b6004811115611376576113756121dc565b5b8152602001600b8201805480602002602001604051908101604052809291908181526020016000905b8282101561144b5783829060005260206000200180546113be90612101565b80601f01602080910402602001604051908101604052809291908181526020018280546113ea90612101565b80156114375780601f1061140c57610100808354040283529160200191611437565b820191906000526020600020905b81548152906001019060200180831161141a57829003601f168201915b50505050508152602001906001019061139f565b50505050815250509050919050565b80600260008481526020019081526020016000206005016000828254611480919061204a565b925050819055505050565b60405180610180016040528060008152602001606081526020016060815260200160608152602001600081526020016000815260200160008152602001600081526020016060815260200160608152602001600060048111156114f1576114f06121dc565b5b8152602001606081525090565b50805461150a90612101565b6000825580601f1061151c575061153b565b601f01602090049060005260206000209081019061153a9190611645565b5b50565b508054600082559060005260206000209081019061155c9190611662565b50565b82805461156b90612101565b90600052602060002090601f01602090048101928261158d57600085556115d4565b82601f106115a657805160ff19168380011785556115d4565b828001600101855582156115d4579182015b828111156115d35782518255916020019190600101906115b8565b5b5090506115e19190611645565b5090565b828054828255906000526020600020908101928215611634579160200282015b8281111561163357825182908051906020019061162392919061155f565b5091602001919060010190611605565b5b5090506116419190611662565b5090565b5b8082111561165e576000816000905550600101611646565b5090565b5b80821115611682576000818161167991906114fe565b50600101611663565b5090565b600061169961169484611ebf565b611e9a565b9050828152602081018484840111156116b5576116b461229d565b5b6116c08482856120bf565b509392505050565b600082601f8301126116dd576116dc612298565b5b81356116ed848260208601611686565b91505092915050565b600081359050611705816122d1565b92915050565b600060208284031215611721576117206122a7565b5b600082013567ffffffffffffffff81111561173f5761173e6122a2565b5b61174b848285016116c8565b91505092915050565b600080600080600080600060e0888a031215611773576117726122a7565b5b600088013567ffffffffffffffff811115611791576117906122a2565b5b61179d8a828b016116c8565b975050602088013567ffffffffffffffff8111156117be576117bd6122a2565b5b6117ca8a828b016116c8565b965050604088013567ffffffffffffffff8111156117eb576117ea6122a2565b5b6117f78a828b016116c8565b95505060606118088a828b016116f6565b94505060806118198a828b016116f6565b93505060a088013567ffffffffffffffff81111561183a576118396122a2565b5b6118468a828b016116c8565b92505060c088013567ffffffffffffffff811115611867576118666122a2565b5b6118738a828b016116c8565b91505092959891949750929550565b600060208284031215611898576118976122a7565b5b60006118a6848285016116f6565b91505092915050565b600080604083850312156118c6576118c56122a7565b5b60006118d4858286016116f6565b92505060206118e5858286016116f6565b9150509250929050565b600080600060608486031215611908576119076122a7565b5b6000611916868287016116f6565b9350506020611927868287016116f6565b925050604084013567ffffffffffffffff811115611948576119476122a2565b5b611954868287016116c8565b9150509250925092565b600061196a8383611a9d565b905092915050565b600061197e8383611b40565b905092915050565b600061199182611f10565b61199b8185611f4b565b9350836020820285016119ad85611ef0565b8060005b858110156119e957848403895281516119ca858261195e565b94506119d583611f31565b925060208a019950506001810190506119b1565b50829750879550505050505092915050565b6000611a0682611f1b565b611a108185611f5c565b935083602082028501611a2285611f00565b8060005b85811015611a5e5784840389528151611a3f8582611972565b9450611a4a83611f3e565b925060208a01995050600181019050611a26565b50829750879550505050505092915050565b611a798161209b565b82525050565b611a888161209b565b82525050565b611a97816120ad565b82525050565b6000611aa882611f26565b611ab28185611f6d565b9350611ac28185602086016120ce565b611acb816122ac565b840191505092915050565b6000611ae182611f26565b611aeb8185611f7e565b9350611afb8185602086016120ce565b611b04816122ac565b840191505092915050565b6000611b1a82611f26565b611b248185611f8f565b9350611b348185602086016120ce565b80840191505092915050565b600061018083016000830151611b596000860182611d8e565b5060208301518482036020860152611b718282611a9d565b91505060408301518482036040860152611b8b8282611a9d565b91505060608301518482036060860152611ba58282611a9d565b9150506080830151611bba6080860182611d8e565b5060a0830151611bcd60a0860182611d8e565b5060c0830151611be060c0860182611d8e565b5060e0830151611bf360e0860182611d8e565b50610100830151848203610100860152611c0d8282611a9d565b915050610120830151848203610120860152611c298282611a9d565b915050610140830151611c40610140860182611a70565b50610160830151848203610160860152611c5a8282611986565b9150508091505092915050565b600061018083016000830151611c806000860182611d8e565b5060208301518482036020860152611c988282611a9d565b91505060408301518482036040860152611cb28282611a9d565b91505060608301518482036060860152611ccc8282611a9d565b9150506080830151611ce16080860182611d8e565b5060a0830151611cf460a0860182611d8e565b5060c0830151611d0760c0860182611d8e565b5060e0830151611d1a60e0860182611d8e565b50610100830151848203610100860152611d348282611a9d565b915050610120830151848203610120860152611d508282611a9d565b915050610140830151611d67610140860182611a70565b50610160830151848203610160860152611d818282611986565b9150508091505092915050565b611d9781612091565b82525050565b611da681612091565b82525050565b6000611db88284611b0f565b915081905092915050565b60006020820190508181036000830152611ddd81846119fb565b905092915050565b6000610100820190508181036000830152611e00818b611ad6565b90508181036020830152611e14818a611ad6565b9050611e236040830189611d9d565b611e306060830188611d9d565b611e3d6080830187611a8e565b611e4a60a0830186611d9d565b81810360c0830152611e5c8185611ad6565b9050611e6b60e0830184611a7f565b9998505050505050505050565b60006020820190508181036000830152611e928184611c67565b905092915050565b6000611ea4611eb5565b9050611eb08282612133565b919050565b6000604051905090565b600067ffffffffffffffff821115611eda57611ed9612269565b5b611ee3826122ac565b9050602081019050919050565b6000819050602082019050919050565b6000819050602082019050919050565b600081519050919050565b600081519050919050565b600081519050919050565b6000602082019050919050565b6000602082019050919050565b600082825260208201905092915050565b600082825260208201905092915050565b600082825260208201905092915050565b600082825260208201905092915050565b600081905092915050565b6000611fa582612091565b9150611fb083612091565b9250827fffffffffffffffffffffffffffffffffffffffffffffffffffffffffffffffff03821115611fe557611fe46121ad565b5b828201905092915050565b6000611ffb82612091565b915061200683612091565b9250817fffffffffffffffffffffffffffffffffffffffffffffffffffffffffffffffff048311821515161561203f5761203e6121ad565b5b828202905092915050565b600061205582612091565b915061206083612091565b925082821015612073576120726121ad565b5b828203905092915050565b600081905061208c826122bd565b919050565b6000819050919050565b60006120a68261207e565b9050919050565b60006120b882612091565b9050919050565b82818337600083830152505050565b60005b838110156120ec5780820151818401526020810190506120d1565b838111156120fb576000848401525b50505050565b6000600282049050600182168061211957607f821691505b6020821081141561212d5761212c61220b565b5b50919050565b61213c826122ac565b810181811067ffffffffffffffff8211171561215b5761215a612269565b5b80604052505050565b600061216f82612091565b91507fffffffffffffffffffffffffffffffffffffffffffffffffffffffffffffffff8214156121a2576121a16121ad565b5b600182019050919050565b7f4e487b7100000000000000000000000000000000000000000000000000000000600052601160045260246000fd5b7f4e487b7100000000000000000000000000000000000000000000000000000000600052602160045260246000fd5b7f4e487b7100000000000000000000000000000000000000000000000000000000600052602260045260246000fd5b7f4e487b7100000000000000000000000000000000000000000000000000000000600052603260045260246000fd5b7f4e487b7100000000000000000000000000000000000000000000000000000000600052604160045260246000fd5b600080fd5b600080fd5b600080fd5b600080fd5b6000601f19601f8301169050919050565b600581106122ce576122cd6121dc565b5b50565b6122da81612091565b81146122e557600080fd5b5056fea264697066735822122043d3cdbdd5059f5f93af1c1685b0fe7dbb49b6cde7a6e3bf672112612e4072d564736f6c63430008070033",
					"opcodes": "PUSH1 0x80 PUSH1 0x40 MSTORE CALLVALUE DUP1 ISZERO PUSH2 0x10 JUMPI PUSH1 0x0 DUP1 REVERT JUMPDEST POP PUSH1 0x0 DUP1 DUP2 SWAP1 SSTORE POP PUSH2 0x231E DUP1 PUSH2 0x27 PUSH1 0x0 CODECOPY PUSH1 0x0 RETURN INVALID PUSH1 0x80 PUSH1 0x40 MSTORE CALLVALUE DUP1 ISZERO PUSH2 0x10 JUMPI PUSH1 0x0 DUP1 REVERT JUMPDEST POP PUSH1 0x4 CALLDATASIZE LT PUSH2 0x88 JUMPI PUSH1 0x0 CALLDATALOAD PUSH1 0xE0 SHR DUP1 PUSH4 0x7FDD45DC GT PUSH2 0x5B JUMPI DUP1 PUSH4 0x7FDD45DC EQ PUSH2 0x111 JUMPI DUP1 PUSH4 0x80D03829 EQ PUSH2 0x12D JUMPI DUP1 PUSH4 0xBEE5CDCA EQ PUSH2 0x14B JUMPI DUP1 PUSH4 0xE6279B4F EQ PUSH2 0x17B JUMPI PUSH2 0x88 JUMP JUMPDEST DUP1 PUSH4 0x20E8BE43 EQ PUSH2 0x8D JUMPI DUP1 PUSH4 0x4CD0CB28 EQ PUSH2 0xBD JUMPI DUP1 PUSH4 0x54138541 EQ PUSH2 0xD9 JUMPI DUP1 PUSH4 0x6FE1AC91 EQ PUSH2 0xF5 JUMPI JUMPDEST PUSH1 0x0 DUP1 REVERT JUMPDEST PUSH2 0xA7 PUSH1 0x4 DUP1 CALLDATASIZE SUB DUP2 ADD SWAP1 PUSH2 0xA2 SWAP2 SWAP1 PUSH2 0x170B JUMP JUMPDEST PUSH2 0x197 JUMP JUMPDEST PUSH1 0x40 MLOAD PUSH2 0xB4 SWAP2 SWAP1 PUSH2 0x1DC3 JUMP JUMPDEST PUSH1 0x40 MLOAD DUP1 SWAP2 SUB SWAP1 RETURN JUMPDEST PUSH2 0xD7 PUSH1 0x4 DUP1 CALLDATASIZE SUB DUP2 ADD SWAP1 PUSH2 0xD2 SWAP2 SWAP1 PUSH2 0x1882 JUMP JUMPDEST PUSH2 0x6E8 JUMP JUMPDEST STOP JUMPDEST PUSH2 0xF3 PUSH1 0x4 DUP1 CALLDATASIZE SUB DUP2 ADD SWAP1 PUSH2 0xEE SWAP2 SWAP1 PUSH2 0x18EF JUMP JUMPDEST PUSH2 0x79D JUMP JUMPDEST STOP JUMPDEST PUSH2 0x10F PUSH1 0x4 DUP1 CALLDATASIZE SUB DUP2 ADD SWAP1 PUSH2 0x10A SWAP2 SWAP1 PUSH2 0x170B JUMP JUMPDEST PUSH2 0x864 JUMP JUMPDEST STOP JUMPDEST PUSH2 0x12B PUSH1 0x4 DUP1 CALLDATASIZE SUB DUP2 ADD SWAP1 PUSH2 0x126 SWAP2 SWAP1 PUSH2 0x1754 JUMP JUMPDEST PUSH2 0x867 JUMP JUMPDEST STOP JUMPDEST PUSH2 0x135 PUSH2 0xAAD JUMP JUMPDEST PUSH1 0x40 MLOAD PUSH2 0x142 SWAP2 SWAP1 PUSH2 0x1DC3 JUMP JUMPDEST PUSH1 0x40 MLOAD DUP1 SWAP2 SUB SWAP1 RETURN JUMPDEST PUSH2 0x165 PUSH1 0x4 DUP1 CALLDATASIZE SUB DUP2 ADD SWAP1 PUSH2 0x160 SWAP2 SWAP1 PUSH2 0x1882 JUMP JUMPDEST PUSH2 0x100C JUMP JUMPDEST PUSH1 0x40 MLOAD PUSH2 0x172 SWAP2 SWAP1 PUSH2 0x1E78 JUMP JUMPDEST PUSH1 0x40 MLOAD DUP1 SWAP2 SUB SWAP1 RETURN JUMPDEST PUSH2 0x195 PUSH1 0x4 DUP1 CALLDATASIZE SUB DUP2 ADD SWAP1 PUSH2 0x190 SWAP2 SWAP1 PUSH2 0x18AF JUMP JUMPDEST PUSH2 0x145A JUMP JUMPDEST STOP JUMPDEST PUSH1 0x60 PUSH1 0x0 PUSH1 0x1 DUP4 PUSH1 0x40 MLOAD PUSH2 0x1AB SWAP2 SWAP1 PUSH2 0x1DAC JUMP JUMPDEST SWAP1 DUP2 MSTORE PUSH1 0x20 ADD PUSH1 0x40 MLOAD DUP1 SWAP2 SUB SWAP1 KECCAK256 DUP1 SLOAD SWAP1 POP SWAP1 POP PUSH1 0x0 DUP1 SLOAD PUSH8 0xFFFFFFFFFFFFFFFF DUP2 GT ISZERO PUSH2 0x1DC JUMPI PUSH2 0x1DB PUSH2 0x2269 JUMP JUMPDEST JUMPDEST PUSH1 0x40 MLOAD SWAP1 DUP1 DUP3 MSTORE DUP1 PUSH1 0x20 MUL PUSH1 0x20 ADD DUP3 ADD PUSH1 0x40 MSTORE DUP1 ISZERO PUSH2 0x215 JUMPI DUP2 PUSH1 0x20 ADD JUMPDEST PUSH2 0x202 PUSH2 0x148B JUMP JUMPDEST DUP2 MSTORE PUSH1 0x20 ADD SWAP1 PUSH1 0x1 SWAP1 SUB SWAP1 DUP2 PUSH2 0x1FA JUMPI SWAP1 POP JUMPDEST POP SWAP1 POP PUSH1 0x0 DUP1 JUMPDEST DUP4 DUP2 LT ISZERO PUSH2 0x6DC JUMPI PUSH1 0x2 PUSH1 0x0 PUSH1 0x1 DUP9 PUSH1 0x40 MLOAD PUSH2 0x238 SWAP2 SWAP1 PUSH2 0x1DAC JUMP JUMPDEST SWAP1 DUP2 MSTORE PUSH1 0x20 ADD PUSH1 0x40 MLOAD DUP1 SWAP2 SUB SWAP1 KECCAK256 DUP4 DUP2 SLOAD DUP2 LT PUSH2 0x258 JUMPI PUSH2 0x257 PUSH2 0x223A JUMP JUMPDEST JUMPDEST SWAP1 PUSH1 0x0 MSTORE PUSH1 0x20 PUSH1 0x0 KECCAK256 ADD SLOAD DUP2 MSTORE PUSH1 0x20 ADD SWAP1 DUP2 MSTORE PUSH1 0x20 ADD PUSH1 0x0 KECCAK256 PUSH1 0x40 MLOAD DUP1 PUSH2 0x180 ADD PUSH1 0x40 MSTORE SWAP1 DUP2 PUSH1 0x0 DUP3 ADD SLOAD DUP2 MSTORE PUSH1 0x20 ADD PUSH1 0x1 DUP3 ADD DUP1 SLOAD PUSH2 0x297 SWAP1 PUSH2 0x2101 JUMP JUMPDEST DUP1 PUSH1 0x1F ADD PUSH1 0x20 DUP1 SWAP2 DIV MUL PUSH1 0x20 ADD PUSH1 0x40 MLOAD SWAP1 DUP2 ADD PUSH1 0x40 MSTORE DUP1 SWAP3 SWAP2 SWAP1 DUP2 DUP2 MSTORE PUSH1 0x20 ADD DUP3 DUP1 SLOAD PUSH2 0x2C3 SWAP1 PUSH2 0x2101 JUMP JUMPDEST DUP1 ISZERO PUSH2 0x310 JUMPI DUP1 PUSH1 0x1F LT PUSH2 0x2E5 JUMPI PUSH2 0x100 DUP1 DUP4 SLOAD DIV MUL DUP4 MSTORE SWAP2 PUSH1 0x20 ADD SWAP2 PUSH2 0x310 JUMP JUMPDEST DUP3 ADD SWAP2 SWAP1 PUSH1 0x0 MSTORE PUSH1 0x20 PUSH1 0x0 KECCAK256 SWAP1 JUMPDEST DUP2 SLOAD DUP2 MSTORE SWAP1 PUSH1 0x1 ADD SWAP1 PUSH1 0x20 ADD DUP1 DUP4 GT PUSH2 0x2F3 JUMPI DUP3 SWAP1 SUB PUSH1 0x1F AND DUP3 ADD SWAP2 JUMPDEST POP POP POP POP POP DUP2 MSTORE PUSH1 0x20 ADD PUSH1 0x2 DUP3 ADD DUP1 SLOAD PUSH2 0x329 SWAP1 PUSH2 0x2101 JUMP JUMPDEST DUP1 PUSH1 0x1F ADD PUSH1 0x20 DUP1 SWAP2 DIV MUL PUSH1 0x20 ADD PUSH1 0x40 MLOAD SWAP1 DUP2 ADD PUSH1 0x40 MSTORE DUP1 SWAP3 SWAP2 SWAP1 DUP2 DUP2 MSTORE PUSH1 0x20 ADD DUP3 DUP1 SLOAD PUSH2 0x355 SWAP1 PUSH2 0x2101 JUMP JUMPDEST DUP1 ISZERO PUSH2 0x3A2 JUMPI DUP1 PUSH1 0x1F LT PUSH2 0x377 JUMPI PUSH2 0x100 DUP1 DUP4 SLOAD DIV MUL DUP4 MSTORE SWAP2 PUSH1 0x20 ADD SWAP2 PUSH2 0x3A2 JUMP JUMPDEST DUP3 ADD SWAP2 SWAP1 PUSH1 0x0 MSTORE PUSH1 0x20 PUSH1 0x0 KECCAK256 SWAP1 JUMPDEST DUP2 SLOAD DUP2 MSTORE SWAP1 PUSH1 0x1 ADD SWAP1 PUSH1 0x20 ADD DUP1 DUP4 GT PUSH2 0x385 JUMPI DUP3 SWAP1 SUB PUSH1 0x1F AND DUP3 ADD SWAP2 JUMPDEST POP POP POP POP POP DUP2 MSTORE PUSH1 0x20 ADD PUSH1 0x3 DUP3 ADD DUP1 SLOAD PUSH2 0x3BB SWAP1 PUSH2 0x2101 JUMP JUMPDEST DUP1 PUSH1 0x1F ADD PUSH1 0x20 DUP1 SWAP2 DIV MUL PUSH1 0x20 ADD PUSH1 0x40 MLOAD SWAP1 DUP2 ADD PUSH1 0x40 MSTORE DUP1 SWAP3 SWAP2 SWAP1 DUP2 DUP2 MSTORE PUSH1 0x20 ADD DUP3 DUP1 SLOAD PUSH2 0x3E7 SWAP1 PUSH2 0x2101 JUMP JUMPDEST DUP1 ISZERO PUSH2 0x434 JUMPI DUP1 PUSH1 0x1F LT PUSH2 0x409 JUMPI PUSH2 0x100 DUP1 DUP4 SLOAD DIV MUL DUP4 MSTORE SWAP2 PUSH1 0x20 ADD SWAP2 PUSH2 0x434 JUMP JUMPDEST DUP3 ADD SWAP2 SWAP1 PUSH1 0x0 MSTORE PUSH1 0x20 PUSH1 0x0 KECCAK256 SWAP1 JUMPDEST DUP2 SLOAD DUP2 MSTORE SWAP1 PUSH1 0x1 ADD SWAP1 PUSH1 0x20 ADD DUP1 DUP4 GT PUSH2 0x417 JUMPI DUP3 SWAP1 SUB PUSH1 0x1F AND DUP3 ADD SWAP2 JUMPDEST POP POP POP POP POP DUP2 MSTORE PUSH1 0x20 ADD PUSH1 0x4 DUP3 ADD SLOAD DUP2 MSTORE PUSH1 0x20 ADD PUSH1 0x5 DUP3 ADD SLOAD DUP2 MSTORE PUSH1 0x20 ADD PUSH1 0x6 DUP3 ADD SLOAD DUP2 MSTORE PUSH1 0x20 ADD PUSH1 0x7 DUP3 ADD SLOAD DUP2 MSTORE PUSH1 0x20 ADD PUSH1 0x8 DUP3 ADD DUP1 SLOAD PUSH2 0x475 SWAP1 PUSH2 0x2101 JUMP JUMPDEST DUP1 PUSH1 0x1F ADD PUSH1 0x20 DUP1 SWAP2 DIV MUL PUSH1 0x20 ADD PUSH1 0x40 MLOAD SWAP1 DUP2 ADD PUSH1 0x40 MSTORE DUP1 SWAP3 SWAP2 SWAP1 DUP2 DUP2 MSTORE PUSH1 0x20 ADD DUP3 DUP1 SLOAD PUSH2 0x4A1 SWAP1 PUSH2 0x2101 JUMP JUMPDEST DUP1 ISZERO PUSH2 0x4EE JUMPI DUP1 PUSH1 0x1F LT PUSH2 0x4C3 JUMPI PUSH2 0x100 DUP1 DUP4 SLOAD DIV MUL DUP4 MSTORE SWAP2 PUSH1 0x20 ADD SWAP2 PUSH2 0x4EE JUMP JUMPDEST DUP3 ADD SWAP2 SWAP1 PUSH1 0x0 MSTORE PUSH1 0x20 PUSH1 0x0 KECCAK256 SWAP1 JUMPDEST DUP2 SLOAD DUP2 MSTORE SWAP1 PUSH1 0x1 ADD SWAP1 PUSH1 0x20 ADD DUP1 DUP4 GT PUSH2 0x4D1 JUMPI DUP3 SWAP1 SUB PUSH1 0x1F AND DUP3 ADD SWAP2 JUMPDEST POP POP POP POP POP DUP2 MSTORE PUSH1 0x20 ADD PUSH1 0x9 DUP3 ADD DUP1 SLOAD PUSH2 0x507 SWAP1 PUSH2 0x2101 JUMP JUMPDEST DUP1 PUSH1 0x1F ADD PUSH1 0x20 DUP1 SWAP2 DIV MUL PUSH1 0x20 ADD PUSH1 0x40 MLOAD SWAP1 DUP2 ADD PUSH1 0x40 MSTORE DUP1 SWAP3 SWAP2 SWAP1 DUP2 DUP2 MSTORE PUSH1 0x20 ADD DUP3 DUP1 SLOAD PUSH2 0x533 SWAP1 PUSH2 0x2101 JUMP JUMPDEST DUP1 ISZERO PUSH2 0x580 JUMPI DUP1 PUSH1 0x1F LT PUSH2 0x555 JUMPI PUSH2 0x100 DUP1 DUP4 SLOAD DIV MUL DUP4 MSTORE SWAP2 PUSH1 0x20 ADD SWAP2 PUSH2 0x580 JUMP JUMPDEST DUP3 ADD SWAP2 SWAP1 PUSH1 0x0 MSTORE PUSH1 0x20 PUSH1 0x0 KECCAK256 SWAP1 JUMPDEST DUP2 SLOAD DUP2 MSTORE SWAP1 PUSH1 0x1 ADD SWAP1 PUSH1 0x20 ADD DUP1 DUP4 GT PUSH2 0x563 JUMPI DUP3 SWAP1 SUB PUSH1 0x1F AND DUP3 ADD SWAP2 JUMPDEST POP POP POP POP POP DUP2 MSTORE PUSH1 0x20 ADD PUSH1 0xA DUP3 ADD PUSH1 0x0 SWAP1 SLOAD SWAP1 PUSH2 0x100 EXP SWAP1 DIV PUSH1 0xFF AND PUSH1 0x4 DUP2 GT ISZERO PUSH2 0x5AE JUMPI PUSH2 0x5AD PUSH2 0x21DC JUMP JUMPDEST JUMPDEST PUSH1 0x4 DUP2 GT ISZERO PUSH2 0x5C0 JUMPI PUSH2 0x5BF PUSH2 0x21DC JUMP JUMPDEST JUMPDEST DUP2 MSTORE PUSH1 0x20 ADD PUSH1 0xB DUP3 ADD DUP1 SLOAD DUP1 PUSH1 0x20 MUL PUSH1 0x20 ADD PUSH1 0x40 MLOAD SWAP1 DUP2 ADD PUSH1 0x40 MSTORE DUP1 SWAP3 SWAP2 SWAP1 DUP2 DUP2 MSTORE PUSH1 0x20 ADD PUSH1 0x0 SWAP1 JUMPDEST DUP3 DUP3 LT ISZERO PUSH2 0x695 JUMPI DUP4 DUP3 SWAP1 PUSH1 0x0 MSTORE PUSH1 0x20 PUSH1 0x0 KECCAK256 ADD DUP1 SLOAD PUSH2 0x608 SWAP1 PUSH2 0x2101 JUMP JUMPDEST DUP1 PUSH1 0x1F ADD PUSH1 0x20 DUP1 SWAP2 DIV MUL PUSH1 0x20 ADD PUSH1 0x40 MLOAD SWAP1 DUP2 ADD PUSH1 0x40 MSTORE DUP1 SWAP3 SWAP2 SWAP1 DUP2 DUP2 MSTORE PUSH1 0x20 ADD DUP3 DUP1 SLOAD PUSH2 0x634 SWAP1 PUSH2 0x2101 JUMP JUMPDEST DUP1 ISZERO PUSH2 0x681 JUMPI DUP1 PUSH1 0x1F LT PUSH2 0x656 JUMPI PUSH2 0x100 DUP1 DUP4 SLOAD DIV MUL DUP4 MSTORE SWAP2 PUSH1 0x20 ADD SWAP2 PUSH2 0x681 JUMP JUMPDEST DUP3 ADD SWAP2 SWAP1 PUSH1 0x0 MSTORE PUSH1 0x20 PUSH1 0x0 KECCAK256 SWAP1 JUMPDEST DUP2 SLOAD DUP2 MSTORE SWAP1 PUSH1 0x1 ADD SWAP1 PUSH1 0x20 ADD DUP1 DUP4 GT PUSH2 0x664 JUMPI DUP3 SWAP1 SUB PUSH1 0x1F AND DUP3 ADD SWAP2 JUMPDEST POP POP POP POP POP DUP2 MSTORE PUSH1 0x20 ADD SWAP1 PUSH1 0x1 ADD SWAP1 PUSH2 0x5E9 JUMP JUMPDEST POP POP POP POP DUP2 MSTORE POP POP DUP4 DUP4 DUP2 MLOAD DUP2 LT PUSH2 0x6B0 JUMPI PUSH2 0x6AF PUSH2 0x223A JUMP JUMPDEST JUMPDEST PUSH1 0x20 MUL PUSH1 0x20 ADD ADD DUP2 SWAP1 MSTORE POP DUP2 DUP1 PUSH2 0x6C6 SWAP1 PUSH2 0x2164 JUMP JUMPDEST SWAP3 POP POP DUP1 DUP1 PUSH2 0x6D4 SWAP1 PUSH2 0x2164 JUMP JUMPDEST SWAP2 POP POP PUSH2 0x21C JUMP JUMPDEST POP DUP2 SWAP4 POP POP POP POP SWAP2 SWAP1 POP JUMP JUMPDEST PUSH1 0x2 PUSH1 0x0 DUP3 DUP2 MSTORE PUSH1 0x20 ADD SWAP1 DUP2 MSTORE PUSH1 0x20 ADD PUSH1 0x0 KECCAK256 PUSH1 0x0 DUP1 DUP3 ADD PUSH1 0x0 SWAP1 SSTORE PUSH1 0x1 DUP3 ADD PUSH1 0x0 PUSH2 0x714 SWAP2 SWAP1 PUSH2 0x14FE JUMP JUMPDEST PUSH1 0x2 DUP3 ADD PUSH1 0x0 PUSH2 0x724 SWAP2 SWAP1 PUSH2 0x14FE JUMP JUMPDEST PUSH1 0x3 DUP3 ADD PUSH1 0x0 PUSH2 0x734 SWAP2 SWAP1 PUSH2 0x14FE JUMP JUMPDEST PUSH1 0x4 DUP3 ADD PUSH1 0x0 SWAP1 SSTORE PUSH1 0x5 DUP3 ADD PUSH1 0x0 SWAP1 SSTORE PUSH1 0x6 DUP3 ADD PUSH1 0x0 SWAP1 SSTORE PUSH1 0x7 DUP3 ADD PUSH1 0x0 SWAP1 SSTORE PUSH1 0x8 DUP3 ADD PUSH1 0x0 PUSH2 0x764 SWAP2 SWAP1 PUSH2 0x14FE JUMP JUMPDEST PUSH1 0x9 DUP3 ADD PUSH1 0x0 PUSH2 0x774 SWAP2 SWAP1 PUSH2 0x14FE JUMP JUMPDEST PUSH1 0xA DUP3 ADD PUSH1 0x0 PUSH2 0x100 EXP DUP2 SLOAD SWAP1 PUSH1 0xFF MUL NOT AND SWAP1 SSTORE PUSH1 0xB DUP3 ADD PUSH1 0x0 PUSH2 0x798 SWAP2 SWAP1 PUSH2 0x153E JUMP JUMPDEST POP POP POP JUMP JUMPDEST DUP2 PUSH1 0x2 PUSH1 0x0 DUP6 DUP2 MSTORE PUSH1 0x20 ADD SWAP1 DUP2 MSTORE PUSH1 0x20 ADD PUSH1 0x0 KECCAK256 PUSH1 0x5 ADD PUSH1 0x0 DUP3 DUP3 SLOAD PUSH2 0x7C3 SWAP2 SWAP1 PUSH2 0x1F9A JUMP JUMPDEST SWAP3 POP POP DUP2 SWAP1 SSTORE POP PUSH1 0x2 PUSH1 0x0 DUP5 DUP2 MSTORE PUSH1 0x20 ADD SWAP1 DUP2 MSTORE PUSH1 0x20 ADD PUSH1 0x0 KECCAK256 PUSH1 0xB ADD DUP2 SWAP1 DUP1 PUSH1 0x1 DUP2 SLOAD ADD DUP1 DUP3 SSTORE DUP1 SWAP2 POP POP PUSH1 0x1 SWAP1 SUB SWAP1 PUSH1 0x0 MSTORE PUSH1 0x20 PUSH1 0x0 KECCAK256 ADD PUSH1 0x0 SWAP1 SWAP2 SWAP1 SWAP2 SWAP1 SWAP2 POP SWAP1 DUP1 MLOAD SWAP1 PUSH1 0x20 ADD SWAP1 PUSH2 0x819 SWAP3 SWAP2 SWAP1 PUSH2 0x155F JUMP JUMPDEST POP PUSH1 0x1 DUP2 PUSH1 0x40 MLOAD PUSH2 0x82A SWAP2 SWAP1 PUSH2 0x1DAC JUMP JUMPDEST SWAP1 DUP2 MSTORE PUSH1 0x20 ADD PUSH1 0x40 MLOAD DUP1 SWAP2 SUB SWAP1 KECCAK256 DUP4 SWAP1 DUP1 PUSH1 0x1 DUP2 SLOAD ADD DUP1 DUP3 SSTORE DUP1 SWAP2 POP POP PUSH1 0x1 SWAP1 SUB SWAP1 PUSH1 0x0 MSTORE PUSH1 0x20 PUSH1 0x0 KECCAK256 ADD PUSH1 0x0 SWAP1 SWAP2 SWAP1 SWAP2 SWAP1 SWAP2 POP SSTORE POP POP POP JUMP JUMPDEST POP JUMP JUMPDEST PUSH1 0x0 DUP1 DUP2 SLOAD DUP1 SWAP3 SWAP2 SWAP1 PUSH2 0x879 SWAP1 PUSH2 0x2164 JUMP JUMPDEST SWAP2 SWAP1 POP SSTORE POP PUSH1 0x60 PUSH1 0x40 MLOAD DUP1 PUSH2 0x180 ADD PUSH1 0x40 MSTORE DUP1 PUSH1 0x0 SLOAD DUP2 MSTORE PUSH1 0x20 ADD DUP10 DUP2 MSTORE PUSH1 0x20 ADD DUP9 DUP2 MSTORE PUSH1 0x20 ADD DUP8 DUP2 MSTORE PUSH1 0x20 ADD DUP7 DUP2 MSTORE PUSH1 0x20 ADD PUSH1 0x0 DUP2 MSTORE PUSH1 0x20 ADD DUP6 DUP2 MSTORE PUSH1 0x20 ADD PUSH2 0x3E8 TIMESTAMP PUSH2 0x8C7 SWAP2 SWAP1 PUSH2 0x1FF0 JUMP JUMPDEST DUP2 MSTORE PUSH1 0x20 ADD DUP5 DUP2 MSTORE PUSH1 0x20 ADD DUP4 DUP2 MSTORE PUSH1 0x20 ADD PUSH1 0x0 PUSH1 0x4 DUP2 GT ISZERO PUSH2 0x8EC JUMPI PUSH2 0x8EB PUSH2 0x21DC JUMP JUMPDEST JUMPDEST DUP2 MSTORE PUSH1 0x20 ADD DUP3 DUP2 MSTORE POP PUSH1 0x2 PUSH1 0x0 DUP1 SLOAD DUP2 MSTORE PUSH1 0x20 ADD SWAP1 DUP2 MSTORE PUSH1 0x20 ADD PUSH1 0x0 KECCAK256 PUSH1 0x0 DUP3 ADD MLOAD DUP2 PUSH1 0x0 ADD SSTORE PUSH1 0x20 DUP3 ADD MLOAD DUP2 PUSH1 0x1 ADD SWAP1 DUP1 MLOAD SWAP1 PUSH1 0x20 ADD SWAP1 PUSH2 0x92F SWAP3 SWAP2 SWAP1 PUSH2 0x155F JUMP JUMPDEST POP PUSH1 0x40 DUP3 ADD MLOAD DUP2 PUSH1 0x2 ADD SWAP1 DUP1 MLOAD SWAP1 PUSH1 0x20 ADD SWAP1 PUSH2 0x94C SWAP3 SWAP2 SWAP1 PUSH2 0x155F JUMP JUMPDEST POP PUSH1 0x60 DUP3 ADD MLOAD DUP2 PUSH1 0x3 ADD SWAP1 DUP1 MLOAD SWAP1 PUSH1 0x20 ADD SWAP1 PUSH2 0x969 SWAP3 SWAP2 SWAP1 PUSH2 0x155F JUMP JUMPDEST POP PUSH1 0x80 DUP3 ADD MLOAD DUP2 PUSH1 0x4 ADD SSTORE PUSH1 0xA0 DUP3 ADD MLOAD DUP2 PUSH1 0x5 ADD SSTORE PUSH1 0xC0 DUP3 ADD MLOAD DUP2 PUSH1 0x6 ADD SSTORE PUSH1 0xE0 DUP3 ADD MLOAD DUP2 PUSH1 0x7 ADD SSTORE PUSH2 0x100 DUP3 ADD MLOAD DUP2 PUSH1 0x8 ADD SWAP1 DUP1 MLOAD SWAP1 PUSH1 0x20 ADD SWAP1 PUSH2 0x9AF SWAP3 SWAP2 SWAP1 PUSH2 0x155F JUMP JUMPDEST POP PUSH2 0x120 DUP3 ADD MLOAD DUP2 PUSH1 0x9 ADD SWAP1 DUP1 MLOAD SWAP1 PUSH1 0x20 ADD SWAP1 PUSH2 0x9CD SWAP3 SWAP2 SWAP1 PUSH2 0x155F JUMP JUMPDEST POP PUSH2 0x140 DUP3 ADD MLOAD DUP2 PUSH1 0xA ADD PUSH1 0x0 PUSH2 0x100 EXP DUP2 SLOAD DUP2 PUSH1 0xFF MUL NOT AND SWAP1 DUP4 PUSH1 0x4 DUP2 GT ISZERO PUSH2 0x9FA JUMPI PUSH2 0x9F9 PUSH2 0x21DC JUMP JUMPDEST JUMPDEST MUL OR SWAP1 SSTORE POP PUSH2 0x160 DUP3 ADD MLOAD DUP2 PUSH1 0xB ADD SWAP1 DUP1 MLOAD SWAP1 PUSH1 0x20 ADD SWAP1 PUSH2 0xA1C SWAP3 SWAP2 SWAP1 PUSH2 0x15E5 JUMP JUMPDEST POP SWAP1 POP POP DUP3 PUSH1 0x40 MLOAD PUSH2 0xA2E SWAP2 SWAP1 PUSH2 0x1DAC JUMP JUMPDEST PUSH1 0x40 MLOAD DUP1 SWAP2 SUB SWAP1 KECCAK256 DUP9 PUSH1 0x40 MLOAD PUSH2 0xA44 SWAP2 SWAP1 PUSH2 0x1DAC JUMP JUMPDEST PUSH1 0x40 MLOAD DUP1 SWAP2 SUB SWAP1 KECCAK256 PUSH1 0x0 SLOAD PUSH32 0xE9749C08D7A6BA465FD5DCC39278788A16455C3D467D09018C1695C5B39CA9A DUP11 DUP11 DUP11 DUP11 PUSH1 0x0 PUSH2 0x3E8 TIMESTAMP PUSH2 0xA84 SWAP2 SWAP1 PUSH2 0x1FF0 JUMP JUMPDEST DUP12 PUSH1 0x0 PUSH1 0x40 MLOAD PUSH2 0xA9B SWAP9 SWAP8 SWAP7 SWAP6 SWAP5 SWAP4 SWAP3 SWAP2 SWAP1 PUSH2 0x1DE5 JUMP JUMPDEST PUSH1 0x40 MLOAD DUP1 SWAP2 SUB SWAP1 LOG4 POP POP POP POP POP POP POP POP JUMP JUMPDEST PUSH1 0x60 PUSH1 0x0 DUP1 PUSH1 0x0 SWAP1 POP JUMPDEST PUSH1 0x1 PUSH1 0x0 SLOAD PUSH2 0xAC6 SWAP2 SWAP1 PUSH2 0x1F9A JUMP JUMPDEST DUP2 LT ISZERO PUSH2 0xB0D JUMPI PUSH1 0x0 PUSH1 0x2 PUSH1 0x0 DUP4 DUP2 MSTORE PUSH1 0x20 ADD SWAP1 DUP2 MSTORE PUSH1 0x20 ADD PUSH1 0x0 KECCAK256 PUSH1 0x0 ADD SLOAD EQ PUSH2 0xAFA JUMPI DUP2 DUP1 PUSH2 0xAF6 SWAP1 PUSH2 0x2164 JUMP JUMPDEST SWAP3 POP POP JUMPDEST DUP1 DUP1 PUSH2 0xB05 SWAP1 PUSH2 0x2164 JUMP JUMPDEST SWAP2 POP POP PUSH2 0xAB7 JUMP JUMPDEST POP PUSH1 0x0 DUP2 PUSH8 0xFFFFFFFFFFFFFFFF DUP2 GT ISZERO PUSH2 0xB2A JUMPI PUSH2 0xB29 PUSH2 0x2269 JUMP JUMPDEST JUMPDEST PUSH1 0x40 MLOAD SWAP1 DUP1 DUP3 MSTORE DUP1 PUSH1 0x20 MUL PUSH1 0x20 ADD DUP3 ADD PUSH1 0x40 MSTORE DUP1 ISZERO PUSH2 0xB63 JUMPI DUP2 PUSH1 0x20 ADD JUMPDEST PUSH2 0xB50 PUSH2 0x148B JUMP JUMPDEST DUP2 MSTORE PUSH1 0x20 ADD SWAP1 PUSH1 0x1 SWAP1 SUB SWAP1 DUP2 PUSH2 0xB48 JUMPI SWAP1 POP JUMPDEST POP SWAP1 POP PUSH1 0x0 DUP1 PUSH1 0x1 SWAP1 POP JUMPDEST PUSH1 0x1 PUSH1 0x0 SLOAD PUSH2 0xB7D SWAP2 SWAP1 PUSH2 0x1F9A JUMP JUMPDEST DUP2 LT ISZERO PUSH2 0x1002 JUMPI PUSH1 0x2 PUSH1 0x0 DUP3 DUP2 MSTORE PUSH1 0x20 ADD SWAP1 DUP2 MSTORE PUSH1 0x20 ADD PUSH1 0x0 KECCAK256 PUSH1 0x40 MLOAD DUP1 PUSH2 0x180 ADD PUSH1 0x40 MSTORE SWAP1 DUP2 PUSH1 0x0 DUP3 ADD SLOAD DUP2 MSTORE PUSH1 0x20 ADD PUSH1 0x1 DUP3 ADD DUP1 SLOAD PUSH2 0xBBD SWAP1 PUSH2 0x2101 JUMP JUMPDEST DUP1 PUSH1 0x1F ADD PUSH1 0x20 DUP1 SWAP2 DIV MUL PUSH1 0x20 ADD PUSH1 0x40 MLOAD SWAP1 DUP2 ADD PUSH1 0x40 MSTORE DUP1 SWAP3 SWAP2 SWAP1 DUP2 DUP2 MSTORE PUSH1 0x20 ADD DUP3 DUP1 SLOAD PUSH2 0xBE9 SWAP1 PUSH2 0x2101 JUMP JUMPDEST DUP1 ISZERO PUSH2 0xC36 JUMPI DUP1 PUSH1 0x1F LT PUSH2 0xC0B JUMPI PUSH2 0x100 DUP1 DUP4 SLOAD DIV MUL DUP4 MSTORE SWAP2 PUSH1 0x20 ADD SWAP2 PUSH2 0xC36 JUMP JUMPDEST DUP3 ADD SWAP2 SWAP1 PUSH1 0x0 MSTORE PUSH1 0x20 PUSH1 0x0 KECCAK256 SWAP1 JUMPDEST DUP2 SLOAD DUP2 MSTORE SWAP1 PUSH1 0x1 ADD SWAP1 PUSH1 0x20 ADD DUP1 DUP4 GT PUSH2 0xC19 JUMPI DUP3 SWAP1 SUB PUSH1 0x1F AND DUP3 ADD SWAP2 JUMPDEST POP POP POP POP POP DUP2 MSTORE PUSH1 0x20 ADD PUSH1 0x2 DUP3 ADD DUP1 SLOAD PUSH2 0xC4F SWAP1 PUSH2 0x2101 JUMP JUMPDEST DUP1 PUSH1 0x1F ADD PUSH1 0x20 DUP1 SWAP2 DIV MUL PUSH1 0x20 ADD PUSH1 0x40 MLOAD SWAP1 DUP2 ADD PUSH1 0x40 MSTORE DUP1 SWAP3 SWAP2 SWAP1 DUP2 DUP2 MSTORE PUSH1 0x20 ADD DUP3 DUP1 SLOAD PUSH2 0xC7B SWAP1 PUSH2 0x2101 JUMP JUMPDEST DUP1 ISZERO PUSH2 0xCC8 JUMPI DUP1 PUSH1 0x1F LT PUSH2 0xC9D JUMPI PUSH2 0x100 DUP1 DUP4 SLOAD DIV MUL DUP4 MSTORE SWAP2 PUSH1 0x20 ADD SWAP2 PUSH2 0xCC8 JUMP JUMPDEST DUP3 ADD SWAP2 SWAP1 PUSH1 0x0 MSTORE PUSH1 0x20 PUSH1 0x0 KECCAK256 SWAP1 JUMPDEST DUP2 SLOAD DUP2 MSTORE SWAP1 PUSH1 0x1 ADD SWAP1 PUSH1 0x20 ADD DUP1 DUP4 GT PUSH2 0xCAB JUMPI DUP3 SWAP1 SUB PUSH1 0x1F AND DUP3 ADD SWAP2 JUMPDEST POP POP POP POP POP DUP2 MSTORE PUSH1 0x20 ADD PUSH1 0x3 DUP3 ADD DUP1 SLOAD PUSH2 0xCE1 SWAP1 PUSH2 0x2101 JUMP JUMPDEST DUP1 PUSH1 0x1F ADD PUSH1 0x20 DUP1 SWAP2 DIV MUL PUSH1 0x20 ADD PUSH1 0x40 MLOAD SWAP1 DUP2 ADD PUSH1 0x40 MSTORE DUP1 SWAP3 SWAP2 SWAP1 DUP2 DUP2 MSTORE PUSH1 0x20 ADD DUP3 DUP1 SLOAD PUSH2 0xD0D SWAP1 PUSH2 0x2101 JUMP JUMPDEST DUP1 ISZERO PUSH2 0xD5A JUMPI DUP1 PUSH1 0x1F LT PUSH2 0xD2F JUMPI PUSH2 0x100 DUP1 DUP4 SLOAD DIV MUL DUP4 MSTORE SWAP2 PUSH1 0x20 ADD SWAP2 PUSH2 0xD5A JUMP JUMPDEST DUP3 ADD SWAP2 SWAP1 PUSH1 0x0 MSTORE PUSH1 0x20 PUSH1 0x0 KECCAK256 SWAP1 JUMPDEST DUP2 SLOAD DUP2 MSTORE SWAP1 PUSH1 0x1 ADD SWAP1 PUSH1 0x20 ADD DUP1 DUP4 GT PUSH2 0xD3D JUMPI DUP3 SWAP1 SUB PUSH1 0x1F AND DUP3 ADD SWAP2 JUMPDEST POP POP POP POP POP DUP2 MSTORE PUSH1 0x20 ADD PUSH1 0x4 DUP3 ADD SLOAD DUP2 MSTORE PUSH1 0x20 ADD PUSH1 0x5 DUP3 ADD SLOAD DUP2 MSTORE PUSH1 0x20 ADD PUSH1 0x6 DUP3 ADD SLOAD DUP2 MSTORE PUSH1 0x20 ADD PUSH1 0x7 DUP3 ADD SLOAD DUP2 MSTORE PUSH1 0x20 ADD PUSH1 0x8 DUP3 ADD DUP1 SLOAD PUSH2 0xD9B SWAP1 PUSH2 0x2101 JUMP JUMPDEST DUP1 PUSH1 0x1F ADD PUSH1 0x20 DUP1 SWAP2 DIV MUL PUSH1 0x20 ADD PUSH1 0x40 MLOAD SWAP1 DUP2 ADD PUSH1 0x40 MSTORE DUP1 SWAP3 SWAP2 SWAP1 DUP2 DUP2 MSTORE PUSH1 0x20 ADD DUP3 DUP1 SLOAD PUSH2 0xDC7 SWAP1 PUSH2 0x2101 JUMP JUMPDEST DUP1 ISZERO PUSH2 0xE14 JUMPI DUP1 PUSH1 0x1F LT PUSH2 0xDE9 JUMPI PUSH2 0x100 DUP1 DUP4 SLOAD DIV MUL DUP4 MSTORE SWAP2 PUSH1 0x20 ADD SWAP2 PUSH2 0xE14 JUMP JUMPDEST DUP3 ADD SWAP2 SWAP1 PUSH1 0x0 MSTORE PUSH1 0x20 PUSH1 0x0 KECCAK256 SWAP1 JUMPDEST DUP2 SLOAD DUP2 MSTORE SWAP1 PUSH1 0x1 ADD SWAP1 PUSH1 0x20 ADD DUP1 DUP4 GT PUSH2 0xDF7 JUMPI DUP3 SWAP1 SUB PUSH1 0x1F AND DUP3 ADD SWAP2 JUMPDEST POP POP POP POP POP DUP2 MSTORE PUSH1 0x20 ADD PUSH1 0x9 DUP3 ADD DUP1 SLOAD PUSH2 0xE2D SWAP1 PUSH2 0x2101 JUMP JUMPDEST DUP1 PUSH1 0x1F ADD PUSH1 0x20 DUP1 SWAP2 DIV MUL PUSH1 0x20 ADD PUSH1 0x40 MLOAD SWAP1 DUP2 ADD PUSH1 0x40 MSTORE DUP1 SWAP3 SWAP2 SWAP1 DUP2 DUP2 MSTORE PUSH1 0x20 ADD DUP3 DUP1 SLOAD PUSH2 0xE59 SWAP1 PUSH2 0x2101 JUMP JUMPDEST DUP1 ISZERO PUSH2 0xEA6 JUMPI DUP1 PUSH1 0x1F LT PUSH2 0xE7B JUMPI PUSH2 0x100 DUP1 DUP4 SLOAD DIV MUL DUP4 MSTORE SWAP2 PUSH1 0x20 ADD SWAP2 PUSH2 0xEA6 JUMP JUMPDEST DUP3 ADD SWAP2 SWAP1 PUSH1 0x0 MSTORE PUSH1 0x20 PUSH1 0x0 KECCAK256 SWAP1 JUMPDEST DUP2 SLOAD DUP2 MSTORE SWAP1 PUSH1 0x1 ADD SWAP1 PUSH1 0x20 ADD DUP1 DUP4 GT PUSH2 0xE89 JUMPI DUP3 SWAP1 SUB PUSH1 0x1F AND DUP3 ADD SWAP2 JUMPDEST POP POP POP POP POP DUP2 MSTORE PUSH1 0x20 ADD PUSH1 0xA DUP3 ADD PUSH1 0x0 SWAP1 SLOAD SWAP1 PUSH2 0x100 EXP SWAP1 DIV PUSH1 0xFF AND PUSH1 0x4 DUP2 GT ISZERO PUSH2 0xED4 JUMPI PUSH2 0xED3 PUSH2 0x21DC JUMP JUMPDEST JUMPDEST PUSH1 0x4 DUP2 GT ISZERO PUSH2 0xEE6 JUMPI PUSH2 0xEE5 PUSH2 0x21DC JUMP JUMPDEST JUMPDEST DUP2 MSTORE PUSH1 0x20 ADD PUSH1 0xB DUP3 ADD DUP1 SLOAD DUP1 PUSH1 0x20 MUL PUSH1 0x20 ADD PUSH1 0x40 MLOAD SWAP1 DUP2 ADD PUSH1 0x40 MSTORE DUP1 SWAP3 SWAP2 SWAP1 DUP2 DUP2 MSTORE PUSH1 0x20 ADD PUSH1 0x0 SWAP1 JUMPDEST DUP3 DUP3 LT ISZERO PUSH2 0xFBB JUMPI DUP4 DUP3 SWAP1 PUSH1 0x0 MSTORE PUSH1 0x20 PUSH1 0x0 KECCAK256 ADD DUP1 SLOAD PUSH2 0xF2E SWAP1 PUSH2 0x2101 JUMP JUMPDEST DUP1 PUSH1 0x1F ADD PUSH1 0x20 DUP1 SWAP2 DIV MUL PUSH1 0x20 ADD PUSH1 0x40 MLOAD SWAP1 DUP2 ADD PUSH1 0x40 MSTORE DUP1 SWAP3 SWAP2 SWAP1 DUP2 DUP2 MSTORE PUSH1 0x20 ADD DUP3 DUP1 SLOAD PUSH2 0xF5A SWAP1 PUSH2 0x2101 JUMP JUMPDEST DUP1 ISZERO PUSH2 0xFA7 JUMPI DUP1 PUSH1 0x1F LT PUSH2 0xF7C JUMPI PUSH2 0x100 DUP1 DUP4 SLOAD DIV MUL DUP4 MSTORE SWAP2 PUSH1 0x20 ADD SWAP2 PUSH2 0xFA7 JUMP JUMPDEST DUP3 ADD SWAP2 SWAP1 PUSH1 0x0 MSTORE PUSH1 0x20 PUSH1 0x0 KECCAK256 SWAP1 JUMPDEST DUP2 SLOAD DUP2 MSTORE SWAP1 PUSH1 0x1 ADD SWAP1 PUSH1 0x20 ADD DUP1 DUP4 GT PUSH2 0xF8A JUMPI DUP3 SWAP1 SUB PUSH1 0x1F AND DUP3 ADD SWAP2 JUMPDEST POP POP POP POP POP DUP2 MSTORE PUSH1 0x20 ADD SWAP1 PUSH1 0x1 ADD SWAP1 PUSH2 0xF0F JUMP JUMPDEST POP POP POP POP DUP2 MSTORE POP POP DUP4 DUP4 DUP2 MLOAD DUP2 LT PUSH2 0xFD6 JUMPI PUSH2 0xFD5 PUSH2 0x223A JUMP JUMPDEST JUMPDEST PUSH1 0x20 MUL PUSH1 0x20 ADD ADD DUP2 SWAP1 MSTORE POP DUP2 DUP1 PUSH2 0xFEC SWAP1 PUSH2 0x2164 JUMP JUMPDEST SWAP3 POP POP DUP1 DUP1 PUSH2 0xFFA SWAP1 PUSH2 0x2164 JUMP JUMPDEST SWAP2 POP POP PUSH2 0xB6E JUMP JUMPDEST POP DUP2 SWAP4 POP POP POP POP SWAP1 JUMP JUMPDEST PUSH2 0x1014 PUSH2 0x148B JUMP JUMPDEST PUSH1 0x2 PUSH1 0x0 DUP4 DUP2 MSTORE PUSH1 0x20 ADD SWAP1 DUP2 MSTORE PUSH1 0x20 ADD PUSH1 0x0 KECCAK256 PUSH1 0x40 MLOAD DUP1 PUSH2 0x180 ADD PUSH1 0x40 MSTORE SWAP1 DUP2 PUSH1 0x0 DUP3 ADD SLOAD DUP2 MSTORE PUSH1 0x20 ADD PUSH1 0x1 DUP3 ADD DUP1 SLOAD PUSH2 0x104D SWAP1 PUSH2 0x2101 JUMP JUMPDEST DUP1 PUSH1 0x1F ADD PUSH1 0x20 DUP1 SWAP2 DIV MUL PUSH1 0x20 ADD PUSH1 0x40 MLOAD SWAP1 DUP2 ADD PUSH1 0x40 MSTORE DUP1 SWAP3 SWAP2 SWAP1 DUP2 DUP2 MSTORE PUSH1 0x20 ADD DUP3 DUP1 SLOAD PUSH2 0x1079 SWAP1 PUSH2 0x2101 JUMP JUMPDEST DUP1 ISZERO PUSH2 0x10C6 JUMPI DUP1 PUSH1 0x1F LT PUSH2 0x109B JUMPI PUSH2 0x100 DUP1 DUP4 SLOAD DIV MUL DUP4 MSTORE SWAP2 PUSH1 0x20 ADD SWAP2 PUSH2 0x10C6 JUMP JUMPDEST DUP3 ADD SWAP2 SWAP1 PUSH1 0x0 MSTORE PUSH1 0x20 PUSH1 0x0 KECCAK256 SWAP1 JUMPDEST DUP2 SLOAD DUP2 MSTORE SWAP1 PUSH1 0x1 ADD SWAP1 PUSH1 0x20 ADD DUP1 DUP4 GT PUSH2 0x10A9 JUMPI DUP3 SWAP1 SUB PUSH1 0x1F AND DUP3 ADD SWAP2 JUMPDEST POP POP POP POP POP DUP2 MSTORE PUSH1 0x20 ADD PUSH1 0x2 DUP3 ADD DUP1 SLOAD PUSH2 0x10DF SWAP1 PUSH2 0x2101 JUMP JUMPDEST DUP1 PUSH1 0x1F ADD PUSH1 0x20 DUP1 SWAP2 DIV MUL PUSH1 0x20 ADD PUSH1 0x40 MLOAD SWAP1 DUP2 ADD PUSH1 0x40 MSTORE DUP1 SWAP3 SWAP2 SWAP1 DUP2 DUP2 MSTORE PUSH1 0x20 ADD DUP3 DUP1 SLOAD PUSH2 0x110B SWAP1 PUSH2 0x2101 JUMP JUMPDEST DUP1 ISZERO PUSH2 0x1158 JUMPI DUP1 PUSH1 0x1F LT PUSH2 0x112D JUMPI PUSH2 0x100 DUP1 DUP4 SLOAD DIV MUL DUP4 MSTORE SWAP2 PUSH1 0x20 ADD SWAP2 PUSH2 0x1158 JUMP JUMPDEST DUP3 ADD SWAP2 SWAP1 PUSH1 0x0 MSTORE PUSH1 0x20 PUSH1 0x0 KECCAK256 SWAP1 JUMPDEST DUP2 SLOAD DUP2 MSTORE SWAP1 PUSH1 0x1 ADD SWAP1 PUSH1 0x20 ADD DUP1 DUP4 GT PUSH2 0x113B JUMPI DUP3 SWAP1 SUB PUSH1 0x1F AND DUP3 ADD SWAP2 JUMPDEST POP POP POP POP POP DUP2 MSTORE PUSH1 0x20 ADD PUSH1 0x3 DUP3 ADD DUP1 SLOAD PUSH2 0x1171 SWAP1 PUSH2 0x2101 JUMP JUMPDEST DUP1 PUSH1 0x1F ADD PUSH1 0x20 DUP1 SWAP2 DIV MUL PUSH1 0x20 ADD PUSH1 0x40 MLOAD SWAP1 DUP2 ADD PUSH1 0x40 MSTORE DUP1 SWAP3 SWAP2 SWAP1 DUP2 DUP2 MSTORE PUSH1 0x20 ADD DUP3 DUP1 SLOAD PUSH2 0x119D SWAP1 PUSH2 0x2101 JUMP JUMPDEST DUP1 ISZERO PUSH2 0x11EA JUMPI DUP1 PUSH1 0x1F LT PUSH2 0x11BF JUMPI PUSH2 0x100 DUP1 DUP4 SLOAD DIV MUL DUP4 MSTORE SWAP2 PUSH1 0x20 ADD SWAP2 PUSH2 0x11EA JUMP JUMPDEST DUP3 ADD SWAP2 SWAP1 PUSH1 0x0 MSTORE PUSH1 0x20 PUSH1 0x0 KECCAK256 SWAP1 JUMPDEST DUP2 SLOAD DUP2 MSTORE SWAP1 PUSH1 0x1 ADD SWAP1 PUSH1 0x20 ADD DUP1 DUP4 GT PUSH2 0x11CD JUMPI DUP3 SWAP1 SUB PUSH1 0x1F AND DUP3 ADD SWAP2 JUMPDEST POP POP POP POP POP DUP2 MSTORE PUSH1 0x20 ADD PUSH1 0x4 DUP3 ADD SLOAD DUP2 MSTORE PUSH1 0x20 ADD PUSH1 0x5 DUP3 ADD SLOAD DUP2 MSTORE PUSH1 0x20 ADD PUSH1 0x6 DUP3 ADD SLOAD DUP2 MSTORE PUSH1 0x20 ADD PUSH1 0x7 DUP3 ADD SLOAD DUP2 MSTORE PUSH1 0x20 ADD PUSH1 0x8 DUP3 ADD DUP1 SLOAD PUSH2 0x122B SWAP1 PUSH2 0x2101 JUMP JUMPDEST DUP1 PUSH1 0x1F ADD PUSH1 0x20 DUP1 SWAP2 DIV MUL PUSH1 0x20 ADD PUSH1 0x40 MLOAD SWAP1 DUP2 ADD PUSH1 0x40 MSTORE DUP1 SWAP3 SWAP2 SWAP1 DUP2 DUP2 MSTORE PUSH1 0x20 ADD DUP3 DUP1 SLOAD PUSH2 0x1257 SWAP1 PUSH2 0x2101 JUMP JUMPDEST DUP1 ISZERO PUSH2 0x12A4 JUMPI DUP1 PUSH1 0x1F LT PUSH2 0x1279 JUMPI PUSH2 0x100 DUP1 DUP4 SLOAD DIV MUL DUP4 MSTORE SWAP2 PUSH1 0x20 ADD SWAP2 PUSH2 0x12A4 JUMP JUMPDEST DUP3 ADD SWAP2 SWAP1 PUSH1 0x0 MSTORE PUSH1 0x20 PUSH1 0x0 KECCAK256 SWAP1 JUMPDEST DUP2 SLOAD DUP2 MSTORE SWAP1 PUSH1 0x1 ADD SWAP1 PUSH1 0x20 ADD DUP1 DUP4 GT PUSH2 0x1287 JUMPI DUP3 SWAP1 SUB PUSH1 0x1F AND DUP3 ADD SWAP2 JUMPDEST POP POP POP POP POP DUP2 MSTORE PUSH1 0x20 ADD PUSH1 0x9 DUP3 ADD DUP1 SLOAD PUSH2 0x12BD SWAP1 PUSH2 0x2101 JUMP JUMPDEST DUP1 PUSH1 0x1F ADD PUSH1 0x20 DUP1 SWAP2 DIV MUL PUSH1 0x20 ADD PUSH1 0x40 MLOAD SWAP1 DUP2 ADD PUSH1 0x40 MSTORE DUP1 SWAP3 SWAP2 SWAP1 DUP2 DUP2 MSTORE PUSH1 0x20 ADD DUP3 DUP1 SLOAD PUSH2 0x12E9 SWAP1 PUSH2 0x2101 JUMP JUMPDEST DUP1 ISZERO PUSH2 0x1336 JUMPI DUP1 PUSH1 0x1F LT PUSH2 0x130B JUMPI PUSH2 0x100 DUP1 DUP4 SLOAD DIV MUL DUP4 MSTORE SWAP2 PUSH1 0x20 ADD SWAP2 PUSH2 0x1336 JUMP JUMPDEST DUP3 ADD SWAP2 SWAP1 PUSH1 0x0 MSTORE PUSH1 0x20 PUSH1 0x0 KECCAK256 SWAP1 JUMPDEST DUP2 SLOAD DUP2 MSTORE SWAP1 PUSH1 0x1 ADD SWAP1 PUSH1 0x20 ADD DUP1 DUP4 GT PUSH2 0x1319 JUMPI DUP3 SWAP1 SUB PUSH1 0x1F AND DUP3 ADD SWAP2 JUMPDEST POP POP POP POP POP DUP2 MSTORE PUSH1 0x20 ADD PUSH1 0xA DUP3 ADD PUSH1 0x0 SWAP1 SLOAD SWAP1 PUSH2 0x100 EXP SWAP1 DIV PUSH1 0xFF AND PUSH1 0x4 DUP2 GT ISZERO PUSH2 0x1364 JUMPI PUSH2 0x1363 PUSH2 0x21DC JUMP JUMPDEST JUMPDEST PUSH1 0x4 DUP2 GT ISZERO PUSH2 0x1376 JUMPI PUSH2 0x1375 PUSH2 0x21DC JUMP JUMPDEST JUMPDEST DUP2 MSTORE PUSH1 0x20 ADD PUSH1 0xB DUP3 ADD DUP1 SLOAD DUP1 PUSH1 0x20 MUL PUSH1 0x20 ADD PUSH1 0x40 MLOAD SWAP1 DUP2 ADD PUSH1 0x40 MSTORE DUP1 SWAP3 SWAP2 SWAP1 DUP2 DUP2 MSTORE PUSH1 0x20 ADD PUSH1 0x0 SWAP1 JUMPDEST DUP3 DUP3 LT ISZERO PUSH2 0x144B JUMPI DUP4 DUP3 SWAP1 PUSH1 0x0 MSTORE PUSH1 0x20 PUSH1 0x0 KECCAK256 ADD DUP1 SLOAD PUSH2 0x13BE SWAP1 PUSH2 0x2101 JUMP JUMPDEST DUP1 PUSH1 0x1F ADD PUSH1 0x20 DUP1 SWAP2 DIV MUL PUSH1 0x20 ADD PUSH1 0x40 MLOAD SWAP1 DUP2 ADD PUSH1 0x40 MSTORE DUP1 SWAP3 SWAP2 SWAP1 DUP2 DUP2 MSTORE PUSH1 0x20 ADD DUP3 DUP1 SLOAD PUSH2 0x13EA SWAP1 PUSH2 0x2101 JUMP JUMPDEST DUP1 ISZERO PUSH2 0x1437 JUMPI DUP1 PUSH1 0x1F LT PUSH2 0x140C JUMPI PUSH2 0x100 DUP1 DUP4 SLOAD DIV MUL DUP4 MSTORE SWAP2 PUSH1 0x20 ADD SWAP2 PUSH2 0x1437 JUMP JUMPDEST DUP3 ADD SWAP2 SWAP1 PUSH1 0x0 MSTORE PUSH1 0x20 PUSH1 0x0 KECCAK256 SWAP1 JUMPDEST DUP2 SLOAD DUP2 MSTORE SWAP1 PUSH1 0x1 ADD SWAP1 PUSH1 0x20 ADD DUP1 DUP4 GT PUSH2 0x141A JUMPI DUP3 SWAP1 SUB PUSH1 0x1F AND DUP3 ADD SWAP2 JUMPDEST POP POP POP POP POP DUP2 MSTORE PUSH1 0x20 ADD SWAP1 PUSH1 0x1 ADD SWAP1 PUSH2 0x139F JUMP JUMPDEST POP POP POP POP DUP2 MSTORE POP POP SWAP1 POP SWAP2 SWAP1 POP JUMP JUMPDEST DUP1 PUSH1 0x2 PUSH1 0x0 DUP5 DUP2 MSTORE PUSH1 0x20 ADD SWAP1 DUP2 MSTORE PUSH1 0x20 ADD PUSH1 0x0 KECCAK256 PUSH1 0x5 ADD PUSH1 0x0 DUP3 DUP3 SLOAD PUSH2 0x1480 SWAP2 SWAP1 PUSH2 0x204A JUMP JUMPDEST SWAP3 POP POP DUP2 SWAP1 SSTORE POP POP POP JUMP JUMPDEST PUSH1 0x40 MLOAD DUP1 PUSH2 0x180 ADD PUSH1 0x40 MSTORE DUP1 PUSH1 0x0 DUP2 MSTORE PUSH1 0x20 ADD PUSH1 0x60 DUP2 MSTORE PUSH1 0x20 ADD PUSH1 0x60 DUP2 MSTORE PUSH1 0x20 ADD PUSH1 0x60 DUP2 MSTORE PUSH1 0x20 ADD PUSH1 0x0 DUP2 MSTORE PUSH1 0x20 ADD PUSH1 0x0 DUP2 MSTORE PUSH1 0x20 ADD PUSH1 0x0 DUP2 MSTORE PUSH1 0x20 ADD PUSH1 0x0 DUP2 MSTORE PUSH1 0x20 ADD PUSH1 0x60 DUP2 MSTORE PUSH1 0x20 ADD PUSH1 0x60 DUP2 MSTORE PUSH1 0x20 ADD PUSH1 0x0 PUSH1 0x4 DUP2 GT ISZERO PUSH2 0x14F1 JUMPI PUSH2 0x14F0 PUSH2 0x21DC JUMP JUMPDEST JUMPDEST DUP2 MSTORE PUSH1 0x20 ADD PUSH1 0x60 DUP2 MSTORE POP SWAP1 JUMP JUMPDEST POP DUP1 SLOAD PUSH2 0x150A SWAP1 PUSH2 0x2101 JUMP JUMPDEST PUSH1 0x0 DUP3 SSTORE DUP1 PUSH1 0x1F LT PUSH2 0x151C JUMPI POP PUSH2 0x153B JUMP JUMPDEST PUSH1 0x1F ADD PUSH1 0x20 SWAP1 DIV SWAP1 PUSH1 0x0 MSTORE PUSH1 0x20 PUSH1 0x0 KECCAK256 SWAP1 DUP2 ADD SWAP1 PUSH2 0x153A SWAP2 SWAP1 PUSH2 0x1645 JUMP JUMPDEST JUMPDEST POP JUMP JUMPDEST POP DUP1 SLOAD PUSH1 0x0 DUP3 SSTORE SWAP1 PUSH1 0x0 MSTORE PUSH1 0x20 PUSH1 0x0 KECCAK256 SWAP1 DUP2 ADD SWAP1 PUSH2 0x155C SWAP2 SWAP1 PUSH2 0x1662 JUMP JUMPDEST POP JUMP JUMPDEST DUP3 DUP1 SLOAD PUSH2 0x156B SWAP1 PUSH2 0x2101 JUMP JUMPDEST SWAP1 PUSH1 0x0 MSTORE PUSH1 0x20 PUSH1 0x0 KECCAK256 SWAP1 PUSH1 0x1F ADD PUSH1 0x20 SWAP1 DIV DUP2 ADD SWAP3 DUP3 PUSH2 0x158D JUMPI PUSH1 0x0 DUP6 SSTORE PUSH2 0x15D4 JUMP JUMPDEST DUP3 PUSH1 0x1F LT PUSH2 0x15A6 JUMPI DUP1 MLOAD PUSH1 0xFF NOT AND DUP4 DUP1 ADD OR DUP6 SSTORE PUSH2 0x15D4 JUMP JUMPDEST DUP3 DUP1 ADD PUSH1 0x1 ADD DUP6 SSTORE DUP3 ISZERO PUSH2 0x15D4 JUMPI SWAP2 DUP3 ADD JUMPDEST DUP3 DUP2 GT ISZERO PUSH2 0x15D3 JUMPI DUP3 MLOAD DUP3 SSTORE SWAP2 PUSH1 0x20 ADD SWAP2 SWAP1 PUSH1 0x1 ADD SWAP1 PUSH2 0x15B8 JUMP JUMPDEST JUMPDEST POP SWAP1 POP PUSH2 0x15E1 SWAP2 SWAP1 PUSH2 0x1645 JUMP JUMPDEST POP SWAP1 JUMP JUMPDEST DUP3 DUP1 SLOAD DUP3 DUP3 SSTORE SWAP1 PUSH1 0x0 MSTORE PUSH1 0x20 PUSH1 0x0 KECCAK256 SWAP1 DUP2 ADD SWAP3 DUP3 ISZERO PUSH2 0x1634 JUMPI SWAP2 PUSH1 0x20 MUL DUP3 ADD JUMPDEST DUP3 DUP2 GT ISZERO PUSH2 0x1633 JUMPI DUP3 MLOAD DUP3 SWAP1 DUP1 MLOAD SWAP1 PUSH1 0x20 ADD SWAP1 PUSH2 0x1623 SWAP3 SWAP2 SWAP1 PUSH2 0x155F JUMP JUMPDEST POP SWAP2 PUSH1 0x20 ADD SWAP2 SWAP1 PUSH1 0x1 ADD SWAP1 PUSH2 0x1605 JUMP JUMPDEST JUMPDEST POP SWAP1 POP PUSH2 0x1641 SWAP2 SWAP1 PUSH2 0x1662 JUMP JUMPDEST POP SWAP1 JUMP JUMPDEST JUMPDEST DUP1 DUP3 GT ISZERO PUSH2 0x165E JUMPI PUSH1 0x0 DUP2 PUSH1 0x0 SWAP1 SSTORE POP PUSH1 0x1 ADD PUSH2 0x1646 JUMP JUMPDEST POP SWAP1 JUMP JUMPDEST JUMPDEST DUP1 DUP3 GT ISZERO PUSH2 0x1682 JUMPI PUSH1 0x0 DUP2 DUP2 PUSH2 0x1679 SWAP2 SWAP1 PUSH2 0x14FE JUMP JUMPDEST POP PUSH1 0x1 ADD PUSH2 0x1663 JUMP JUMPDEST POP SWAP1 JUMP JUMPDEST PUSH1 0x0 PUSH2 0x1699 PUSH2 0x1694 DUP5 PUSH2 0x1EBF JUMP JUMPDEST PUSH2 0x1E9A JUMP JUMPDEST SWAP1 POP DUP3 DUP2 MSTORE PUSH1 0x20 DUP2 ADD DUP5 DUP5 DUP5 ADD GT ISZERO PUSH2 0x16B5 JUMPI PUSH2 0x16B4 PUSH2 0x229D JUMP JUMPDEST JUMPDEST PUSH2 0x16C0 DUP5 DUP3 DUP6 PUSH2 0x20BF JUMP JUMPDEST POP SWAP4 SWAP3 POP POP POP JUMP JUMPDEST PUSH1 0x0 DUP3 PUSH1 0x1F DUP4 ADD SLT PUSH2 0x16DD JUMPI PUSH2 0x16DC PUSH2 0x2298 JUMP JUMPDEST JUMPDEST DUP2 CALLDATALOAD PUSH2 0x16ED DUP5 DUP3 PUSH1 0x20 DUP7 ADD PUSH2 0x1686 JUMP JUMPDEST SWAP2 POP POP SWAP3 SWAP2 POP POP JUMP JUMPDEST PUSH1 0x0 DUP2 CALLDATALOAD SWAP1 POP PUSH2 0x1705 DUP2 PUSH2 0x22D1 JUMP JUMPDEST SWAP3 SWAP2 POP POP JUMP JUMPDEST PUSH1 0x0 PUSH1 0x20 DUP3 DUP5 SUB SLT ISZERO PUSH2 0x1721 JUMPI PUSH2 0x1720 PUSH2 0x22A7 JUMP JUMPDEST JUMPDEST PUSH1 0x0 DUP3 ADD CALLDATALOAD PUSH8 0xFFFFFFFFFFFFFFFF DUP2 GT ISZERO PUSH2 0x173F JUMPI PUSH2 0x173E PUSH2 0x22A2 JUMP JUMPDEST JUMPDEST PUSH2 0x174B DUP5 DUP3 DUP6 ADD PUSH2 0x16C8 JUMP JUMPDEST SWAP2 POP POP SWAP3 SWAP2 POP POP JUMP JUMPDEST PUSH1 0x0 DUP1 PUSH1 0x0 DUP1 PUSH1 0x0 DUP1 PUSH1 0x0 PUSH1 0xE0 DUP9 DUP11 SUB SLT ISZERO PUSH2 0x1773 JUMPI PUSH2 0x1772 PUSH2 0x22A7 JUMP JUMPDEST JUMPDEST PUSH1 0x0 DUP9 ADD CALLDATALOAD PUSH8 0xFFFFFFFFFFFFFFFF DUP2 GT ISZERO PUSH2 0x1791 JUMPI PUSH2 0x1790 PUSH2 0x22A2 JUMP JUMPDEST JUMPDEST PUSH2 0x179D DUP11 DUP3 DUP12 ADD PUSH2 0x16C8 JUMP JUMPDEST SWAP8 POP POP PUSH1 0x20 DUP9 ADD CALLDATALOAD PUSH8 0xFFFFFFFFFFFFFFFF DUP2 GT ISZERO PUSH2 0x17BE JUMPI PUSH2 0x17BD PUSH2 0x22A2 JUMP JUMPDEST JUMPDEST PUSH2 0x17CA DUP11 DUP3 DUP12 ADD PUSH2 0x16C8 JUMP JUMPDEST SWAP7 POP POP PUSH1 0x40 DUP9 ADD CALLDATALOAD PUSH8 0xFFFFFFFFFFFFFFFF DUP2 GT ISZERO PUSH2 0x17EB JUMPI PUSH2 0x17EA PUSH2 0x22A2 JUMP JUMPDEST JUMPDEST PUSH2 0x17F7 DUP11 DUP3 DUP12 ADD PUSH2 0x16C8 JUMP JUMPDEST SWAP6 POP POP PUSH1 0x60 PUSH2 0x1808 DUP11 DUP3 DUP12 ADD PUSH2 0x16F6 JUMP JUMPDEST SWAP5 POP POP PUSH1 0x80 PUSH2 0x1819 DUP11 DUP3 DUP12 ADD PUSH2 0x16F6 JUMP JUMPDEST SWAP4 POP POP PUSH1 0xA0 DUP9 ADD CALLDATALOAD PUSH8 0xFFFFFFFFFFFFFFFF DUP2 GT ISZERO PUSH2 0x183A JUMPI PUSH2 0x1839 PUSH2 0x22A2 JUMP JUMPDEST JUMPDEST PUSH2 0x1846 DUP11 DUP3 DUP12 ADD PUSH2 0x16C8 JUMP JUMPDEST SWAP3 POP POP PUSH1 0xC0 DUP9 ADD CALLDATALOAD PUSH8 0xFFFFFFFFFFFFFFFF DUP2 GT ISZERO PUSH2 0x1867 JUMPI PUSH2 0x1866 PUSH2 0x22A2 JUMP JUMPDEST JUMPDEST PUSH2 0x1873 DUP11 DUP3 DUP12 ADD PUSH2 0x16C8 JUMP JUMPDEST SWAP2 POP POP SWAP3 SWAP6 SWAP9 SWAP2 SWAP5 SWAP8 POP SWAP3 SWAP6 POP JUMP JUMPDEST PUSH1 0x0 PUSH1 0x20 DUP3 DUP5 SUB SLT ISZERO PUSH2 0x1898 JUMPI PUSH2 0x1897 PUSH2 0x22A7 JUMP JUMPDEST JUMPDEST PUSH1 0x0 PUSH2 0x18A6 DUP5 DUP3 DUP6 ADD PUSH2 0x16F6 JUMP JUMPDEST SWAP2 POP POP SWAP3 SWAP2 POP POP JUMP JUMPDEST PUSH1 0x0 DUP1 PUSH1 0x40 DUP4 DUP6 SUB SLT ISZERO PUSH2 0x18C6 JUMPI PUSH2 0x18C5 PUSH2 0x22A7 JUMP JUMPDEST JUMPDEST PUSH1 0x0 PUSH2 0x18D4 DUP6 DUP3 DUP7 ADD PUSH2 0x16F6 JUMP JUMPDEST SWAP3 POP POP PUSH1 0x20 PUSH2 0x18E5 DUP6 DUP3 DUP7 ADD PUSH2 0x16F6 JUMP JUMPDEST SWAP2 POP POP SWAP3 POP SWAP3 SWAP1 POP JUMP JUMPDEST PUSH1 0x0 DUP1 PUSH1 0x0 PUSH1 0x60 DUP5 DUP7 SUB SLT ISZERO PUSH2 0x1908 JUMPI PUSH2 0x1907 PUSH2 0x22A7 JUMP JUMPDEST JUMPDEST PUSH1 0x0 PUSH2 0x1916 DUP7 DUP3 DUP8 ADD PUSH2 0x16F6 JUMP JUMPDEST SWAP4 POP POP PUSH1 0x20 PUSH2 0x1927 DUP7 DUP3 DUP8 ADD PUSH2 0x16F6 JUMP JUMPDEST SWAP3 POP POP PUSH1 0x40 DUP5 ADD CALLDATALOAD PUSH8 0xFFFFFFFFFFFFFFFF DUP2 GT ISZERO PUSH2 0x1948 JUMPI PUSH2 0x1947 PUSH2 0x22A2 JUMP JUMPDEST JUMPDEST PUSH2 0x1954 DUP7 DUP3 DUP8 ADD PUSH2 0x16C8 JUMP JUMPDEST SWAP2 POP POP SWAP3 POP SWAP3 POP SWAP3 JUMP JUMPDEST PUSH1 0x0 PUSH2 0x196A DUP4 DUP4 PUSH2 0x1A9D JUMP JUMPDEST SWAP1 POP SWAP3 SWAP2 POP POP JUMP JUMPDEST PUSH1 0x0 PUSH2 0x197E DUP4 DUP4 PUSH2 0x1B40 JUMP JUMPDEST SWAP1 POP SWAP3 SWAP2 POP POP JUMP JUMPDEST PUSH1 0x0 PUSH2 0x1991 DUP3 PUSH2 0x1F10 JUMP JUMPDEST PUSH2 0x199B DUP2 DUP6 PUSH2 0x1F4B JUMP JUMPDEST SWAP4 POP DUP4 PUSH1 0x20 DUP3 MUL DUP6 ADD PUSH2 0x19AD DUP6 PUSH2 0x1EF0 JUMP JUMPDEST DUP1 PUSH1 0x0 JUMPDEST DUP6 DUP2 LT ISZERO PUSH2 0x19E9 JUMPI DUP5 DUP5 SUB DUP10 MSTORE DUP2 MLOAD PUSH2 0x19CA DUP6 DUP3 PUSH2 0x195E JUMP JUMPDEST SWAP5 POP PUSH2 0x19D5 DUP4 PUSH2 0x1F31 JUMP JUMPDEST SWAP3 POP PUSH1 0x20 DUP11 ADD SWAP10 POP POP PUSH1 0x1 DUP2 ADD SWAP1 POP PUSH2 0x19B1 JUMP JUMPDEST POP DUP3 SWAP8 POP DUP8 SWAP6 POP POP POP POP POP POP SWAP3 SWAP2 POP POP JUMP JUMPDEST PUSH1 0x0 PUSH2 0x1A06 DUP3 PUSH2 0x1F1B JUMP JUMPDEST PUSH2 0x1A10 DUP2 DUP6 PUSH2 0x1F5C JUMP JUMPDEST SWAP4 POP DUP4 PUSH1 0x20 DUP3 MUL DUP6 ADD PUSH2 0x1A22 DUP6 PUSH2 0x1F00 JUMP JUMPDEST DUP1 PUSH1 0x0 JUMPDEST DUP6 DUP2 LT ISZERO PUSH2 0x1A5E JUMPI DUP5 DUP5 SUB DUP10 MSTORE DUP2 MLOAD PUSH2 0x1A3F DUP6 DUP3 PUSH2 0x1972 JUMP JUMPDEST SWAP5 POP PUSH2 0x1A4A DUP4 PUSH2 0x1F3E JUMP JUMPDEST SWAP3 POP PUSH1 0x20 DUP11 ADD SWAP10 POP POP PUSH1 0x1 DUP2 ADD SWAP1 POP PUSH2 0x1A26 JUMP JUMPDEST POP DUP3 SWAP8 POP DUP8 SWAP6 POP POP POP POP POP POP SWAP3 SWAP2 POP POP JUMP JUMPDEST PUSH2 0x1A79 DUP2 PUSH2 0x209B JUMP JUMPDEST DUP3 MSTORE POP POP JUMP JUMPDEST PUSH2 0x1A88 DUP2 PUSH2 0x209B JUMP JUMPDEST DUP3 MSTORE POP POP JUMP JUMPDEST PUSH2 0x1A97 DUP2 PUSH2 0x20AD JUMP JUMPDEST DUP3 MSTORE POP POP JUMP JUMPDEST PUSH1 0x0 PUSH2 0x1AA8 DUP3 PUSH2 0x1F26 JUMP JUMPDEST PUSH2 0x1AB2 DUP2 DUP6 PUSH2 0x1F6D JUMP JUMPDEST SWAP4 POP PUSH2 0x1AC2 DUP2 DUP6 PUSH1 0x20 DUP7 ADD PUSH2 0x20CE JUMP JUMPDEST PUSH2 0x1ACB DUP2 PUSH2 0x22AC JUMP JUMPDEST DUP5 ADD SWAP2 POP POP SWAP3 SWAP2 POP POP JUMP JUMPDEST PUSH1 0x0 PUSH2 0x1AE1 DUP3 PUSH2 0x1F26 JUMP JUMPDEST PUSH2 0x1AEB DUP2 DUP6 PUSH2 0x1F7E JUMP JUMPDEST SWAP4 POP PUSH2 0x1AFB DUP2 DUP6 PUSH1 0x20 DUP7 ADD PUSH2 0x20CE JUMP JUMPDEST PUSH2 0x1B04 DUP2 PUSH2 0x22AC JUMP JUMPDEST DUP5 ADD SWAP2 POP POP SWAP3 SWAP2 POP POP JUMP JUMPDEST PUSH1 0x0 PUSH2 0x1B1A DUP3 PUSH2 0x1F26 JUMP JUMPDEST PUSH2 0x1B24 DUP2 DUP6 PUSH2 0x1F8F JUMP JUMPDEST SWAP4 POP PUSH2 0x1B34 DUP2 DUP6 PUSH1 0x20 DUP7 ADD PUSH2 0x20CE JUMP JUMPDEST DUP1 DUP5 ADD SWAP2 POP POP SWAP3 SWAP2 POP POP JUMP JUMPDEST PUSH1 0x0 PUSH2 0x180 DUP4 ADD PUSH1 0x0 DUP4 ADD MLOAD PUSH2 0x1B59 PUSH1 0x0 DUP7 ADD DUP3 PUSH2 0x1D8E JUMP JUMPDEST POP PUSH1 0x20 DUP4 ADD MLOAD DUP5 DUP3 SUB PUSH1 0x20 DUP7 ADD MSTORE PUSH2 0x1B71 DUP3 DUP3 PUSH2 0x1A9D JUMP JUMPDEST SWAP2 POP POP PUSH1 0x40 DUP4 ADD MLOAD DUP5 DUP3 SUB PUSH1 0x40 DUP7 ADD MSTORE PUSH2 0x1B8B DUP3 DUP3 PUSH2 0x1A9D JUMP JUMPDEST SWAP2 POP POP PUSH1 0x60 DUP4 ADD MLOAD DUP5 DUP3 SUB PUSH1 0x60 DUP7 ADD MSTORE PUSH2 0x1BA5 DUP3 DUP3 PUSH2 0x1A9D JUMP JUMPDEST SWAP2 POP POP PUSH1 0x80 DUP4 ADD MLOAD PUSH2 0x1BBA PUSH1 0x80 DUP7 ADD DUP3 PUSH2 0x1D8E JUMP JUMPDEST POP PUSH1 0xA0 DUP4 ADD MLOAD PUSH2 0x1BCD PUSH1 0xA0 DUP7 ADD DUP3 PUSH2 0x1D8E JUMP JUMPDEST POP PUSH1 0xC0 DUP4 ADD MLOAD PUSH2 0x1BE0 PUSH1 0xC0 DUP7 ADD DUP3 PUSH2 0x1D8E JUMP JUMPDEST POP PUSH1 0xE0 DUP4 ADD MLOAD PUSH2 0x1BF3 PUSH1 0xE0 DUP7 ADD DUP3 PUSH2 0x1D8E JUMP JUMPDEST POP PUSH2 0x100 DUP4 ADD MLOAD DUP5 DUP3 SUB PUSH2 0x100 DUP7 ADD MSTORE PUSH2 0x1C0D DUP3 DUP3 PUSH2 0x1A9D JUMP JUMPDEST SWAP2 POP POP PUSH2 0x120 DUP4 ADD MLOAD DUP5 DUP3 SUB PUSH2 0x120 DUP7 ADD MSTORE PUSH2 0x1C29 DUP3 DUP3 PUSH2 0x1A9D JUMP JUMPDEST SWAP2 POP POP PUSH2 0x140 DUP4 ADD MLOAD PUSH2 0x1C40 PUSH2 0x140 DUP7 ADD DUP3 PUSH2 0x1A70 JUMP JUMPDEST POP PUSH2 0x160 DUP4 ADD MLOAD DUP5 DUP3 SUB PUSH2 0x160 DUP7 ADD MSTORE PUSH2 0x1C5A DUP3 DUP3 PUSH2 0x1986 JUMP JUMPDEST SWAP2 POP POP DUP1 SWAP2 POP POP SWAP3 SWAP2 POP POP JUMP JUMPDEST PUSH1 0x0 PUSH2 0x180 DUP4 ADD PUSH1 0x0 DUP4 ADD MLOAD PUSH2 0x1C80 PUSH1 0x0 DUP7 ADD DUP3 PUSH2 0x1D8E JUMP JUMPDEST POP PUSH1 0x20 DUP4 ADD MLOAD DUP5 DUP3 SUB PUSH1 0x20 DUP7 ADD MSTORE PUSH2 0x1C98 DUP3 DUP3 PUSH2 0x1A9D JUMP JUMPDEST SWAP2 POP POP PUSH1 0x40 DUP4 ADD MLOAD DUP5 DUP3 SUB PUSH1 0x40 DUP7 ADD MSTORE PUSH2 0x1CB2 DUP3 DUP3 PUSH2 0x1A9D JUMP JUMPDEST SWAP2 POP POP PUSH1 0x60 DUP4 ADD MLOAD DUP5 DUP3 SUB PUSH1 0x60 DUP7 ADD MSTORE PUSH2 0x1CCC DUP3 DUP3 PUSH2 0x1A9D JUMP JUMPDEST SWAP2 POP POP PUSH1 0x80 DUP4 ADD MLOAD PUSH2 0x1CE1 PUSH1 0x80 DUP7 ADD DUP3 PUSH2 0x1D8E JUMP JUMPDEST POP PUSH1 0xA0 DUP4 ADD MLOAD PUSH2 0x1CF4 PUSH1 0xA0 DUP7 ADD DUP3 PUSH2 0x1D8E JUMP JUMPDEST POP PUSH1 0xC0 DUP4 ADD MLOAD PUSH2 0x1D07 PUSH1 0xC0 DUP7 ADD DUP3 PUSH2 0x1D8E JUMP JUMPDEST POP PUSH1 0xE0 DUP4 ADD MLOAD PUSH2 0x1D1A PUSH1 0xE0 DUP7 ADD DUP3 PUSH2 0x1D8E JUMP JUMPDEST POP PUSH2 0x100 DUP4 ADD MLOAD DUP5 DUP3 SUB PUSH2 0x100 DUP7 ADD MSTORE PUSH2 0x1D34 DUP3 DUP3 PUSH2 0x1A9D JUMP JUMPDEST SWAP2 POP POP PUSH2 0x120 DUP4 ADD MLOAD DUP5 DUP3 SUB PUSH2 0x120 DUP7 ADD MSTORE PUSH2 0x1D50 DUP3 DUP3 PUSH2 0x1A9D JUMP JUMPDEST SWAP2 POP POP PUSH2 0x140 DUP4 ADD MLOAD PUSH2 0x1D67 PUSH2 0x140 DUP7 ADD DUP3 PUSH2 0x1A70 JUMP JUMPDEST POP PUSH2 0x160 DUP4 ADD MLOAD DUP5 DUP3 SUB PUSH2 0x160 DUP7 ADD MSTORE PUSH2 0x1D81 DUP3 DUP3 PUSH2 0x1986 JUMP JUMPDEST SWAP2 POP POP DUP1 SWAP2 POP POP SWAP3 SWAP2 POP POP JUMP JUMPDEST PUSH2 0x1D97 DUP2 PUSH2 0x2091 JUMP JUMPDEST DUP3 MSTORE POP POP JUMP JUMPDEST PUSH2 0x1DA6 DUP2 PUSH2 0x2091 JUMP JUMPDEST DUP3 MSTORE POP POP JUMP JUMPDEST PUSH1 0x0 PUSH2 0x1DB8 DUP3 DUP5 PUSH2 0x1B0F JUMP JUMPDEST SWAP2 POP DUP2 SWAP1 POP SWAP3 SWAP2 POP POP JUMP JUMPDEST PUSH1 0x0 PUSH1 0x20 DUP3 ADD SWAP1 POP DUP2 DUP2 SUB PUSH1 0x0 DUP4 ADD MSTORE PUSH2 0x1DDD DUP2 DUP5 PUSH2 0x19FB JUMP JUMPDEST SWAP1 POP SWAP3 SWAP2 POP POP JUMP JUMPDEST PUSH1 0x0 PUSH2 0x100 DUP3 ADD SWAP1 POP DUP2 DUP2 SUB PUSH1 0x0 DUP4 ADD MSTORE PUSH2 0x1E00 DUP2 DUP12 PUSH2 0x1AD6 JUMP JUMPDEST SWAP1 POP DUP2 DUP2 SUB PUSH1 0x20 DUP4 ADD MSTORE PUSH2 0x1E14 DUP2 DUP11 PUSH2 0x1AD6 JUMP JUMPDEST SWAP1 POP PUSH2 0x1E23 PUSH1 0x40 DUP4 ADD DUP10 PUSH2 0x1D9D JUMP JUMPDEST PUSH2 0x1E30 PUSH1 0x60 DUP4 ADD DUP9 PUSH2 0x1D9D JUMP JUMPDEST PUSH2 0x1E3D PUSH1 0x80 DUP4 ADD DUP8 PUSH2 0x1A8E JUMP JUMPDEST PUSH2 0x1E4A PUSH1 0xA0 DUP4 ADD DUP7 PUSH2 0x1D9D JUMP JUMPDEST DUP2 DUP2 SUB PUSH1 0xC0 DUP4 ADD MSTORE PUSH2 0x1E5C DUP2 DUP6 PUSH2 0x1AD6 JUMP JUMPDEST SWAP1 POP PUSH2 0x1E6B PUSH1 0xE0 DUP4 ADD DUP5 PUSH2 0x1A7F JUMP JUMPDEST SWAP10 SWAP9 POP POP POP POP POP POP POP POP POP JUMP JUMPDEST PUSH1 0x0 PUSH1 0x20 DUP3 ADD SWAP1 POP DUP2 DUP2 SUB PUSH1 0x0 DUP4 ADD MSTORE PUSH2 0x1E92 DUP2 DUP5 PUSH2 0x1C67 JUMP JUMPDEST SWAP1 POP SWAP3 SWAP2 POP POP JUMP JUMPDEST PUSH1 0x0 PUSH2 0x1EA4 PUSH2 0x1EB5 JUMP JUMPDEST SWAP1 POP PUSH2 0x1EB0 DUP3 DUP3 PUSH2 0x2133 JUMP JUMPDEST SWAP2 SWAP1 POP JUMP JUMPDEST PUSH1 0x0 PUSH1 0x40 MLOAD SWAP1 POP SWAP1 JUMP JUMPDEST PUSH1 0x0 PUSH8 0xFFFFFFFFFFFFFFFF DUP3 GT ISZERO PUSH2 0x1EDA JUMPI PUSH2 0x1ED9 PUSH2 0x2269 JUMP JUMPDEST JUMPDEST PUSH2 0x1EE3 DUP3 PUSH2 0x22AC JUMP JUMPDEST SWAP1 POP PUSH1 0x20 DUP2 ADD SWAP1 POP SWAP2 SWAP1 POP JUMP JUMPDEST PUSH1 0x0 DUP2 SWAP1 POP PUSH1 0x20 DUP3 ADD SWAP1 POP SWAP2 SWAP1 POP JUMP JUMPDEST PUSH1 0x0 DUP2 SWAP1 POP PUSH1 0x20 DUP3 ADD SWAP1 POP SWAP2 SWAP1 POP JUMP JUMPDEST PUSH1 0x0 DUP2 MLOAD SWAP1 POP SWAP2 SWAP1 POP JUMP JUMPDEST PUSH1 0x0 DUP2 MLOAD SWAP1 POP SWAP2 SWAP1 POP JUMP JUMPDEST PUSH1 0x0 DUP2 MLOAD SWAP1 POP SWAP2 SWAP1 POP JUMP JUMPDEST PUSH1 0x0 PUSH1 0x20 DUP3 ADD SWAP1 POP SWAP2 SWAP1 POP JUMP JUMPDEST PUSH1 0x0 PUSH1 0x20 DUP3 ADD SWAP1 POP SWAP2 SWAP1 POP JUMP JUMPDEST PUSH1 0x0 DUP3 DUP3 MSTORE PUSH1 0x20 DUP3 ADD SWAP1 POP SWAP3 SWAP2 POP POP JUMP JUMPDEST PUSH1 0x0 DUP3 DUP3 MSTORE PUSH1 0x20 DUP3 ADD SWAP1 POP SWAP3 SWAP2 POP POP JUMP JUMPDEST PUSH1 0x0 DUP3 DUP3 MSTORE PUSH1 0x20 DUP3 ADD SWAP1 POP SWAP3 SWAP2 POP POP JUMP JUMPDEST PUSH1 0x0 DUP3 DUP3 MSTORE PUSH1 0x20 DUP3 ADD SWAP1 POP SWAP3 SWAP2 POP POP JUMP JUMPDEST PUSH1 0x0 DUP2 SWAP1 POP SWAP3 SWAP2 POP POP JUMP JUMPDEST PUSH1 0x0 PUSH2 0x1FA5 DUP3 PUSH2 0x2091 JUMP JUMPDEST SWAP2 POP PUSH2 0x1FB0 DUP4 PUSH2 0x2091 JUMP JUMPDEST SWAP3 POP DUP3 PUSH32 0xFFFFFFFFFFFFFFFFFFFFFFFFFFFFFFFFFFFFFFFFFFFFFFFFFFFFFFFFFFFFFFFF SUB DUP3 GT ISZERO PUSH2 0x1FE5 JUMPI PUSH2 0x1FE4 PUSH2 0x21AD JUMP JUMPDEST JUMPDEST DUP3 DUP3 ADD SWAP1 POP SWAP3 SWAP2 POP POP JUMP JUMPDEST PUSH1 0x0 PUSH2 0x1FFB DUP3 PUSH2 0x2091 JUMP JUMPDEST SWAP2 POP PUSH2 0x2006 DUP4 PUSH2 0x2091 JUMP JUMPDEST SWAP3 POP DUP2 PUSH32 0xFFFFFFFFFFFFFFFFFFFFFFFFFFFFFFFFFFFFFFFFFFFFFFFFFFFFFFFFFFFFFFFF DIV DUP4 GT DUP3 ISZERO ISZERO AND ISZERO PUSH2 0x203F JUMPI PUSH2 0x203E PUSH2 0x21AD JUMP JUMPDEST JUMPDEST DUP3 DUP3 MUL SWAP1 POP SWAP3 SWAP2 POP POP JUMP JUMPDEST PUSH1 0x0 PUSH2 0x2055 DUP3 PUSH2 0x2091 JUMP JUMPDEST SWAP2 POP PUSH2 0x2060 DUP4 PUSH2 0x2091 JUMP JUMPDEST SWAP3 POP DUP3 DUP3 LT ISZERO PUSH2 0x2073 JUMPI PUSH2 0x2072 PUSH2 0x21AD JUMP JUMPDEST JUMPDEST DUP3 DUP3 SUB SWAP1 POP SWAP3 SWAP2 POP POP JUMP JUMPDEST PUSH1 0x0 DUP2 SWAP1 POP PUSH2 0x208C DUP3 PUSH2 0x22BD JUMP JUMPDEST SWAP2 SWAP1 POP JUMP JUMPDEST PUSH1 0x0 DUP2 SWAP1 POP SWAP2 SWAP1 POP JUMP JUMPDEST PUSH1 0x0 PUSH2 0x20A6 DUP3 PUSH2 0x207E JUMP JUMPDEST SWAP1 POP SWAP2 SWAP1 POP JUMP JUMPDEST PUSH1 0x0 PUSH2 0x20B8 DUP3 PUSH2 0x2091 JUMP JUMPDEST SWAP1 POP SWAP2 SWAP1 POP JUMP JUMPDEST DUP3 DUP2 DUP4 CALLDATACOPY PUSH1 0x0 DUP4 DUP4 ADD MSTORE POP POP POP JUMP JUMPDEST PUSH1 0x0 JUMPDEST DUP4 DUP2 LT ISZERO PUSH2 0x20EC JUMPI DUP1 DUP3 ADD MLOAD DUP2 DUP5 ADD MSTORE PUSH1 0x20 DUP2 ADD SWAP1 POP PUSH2 0x20D1 JUMP JUMPDEST DUP4 DUP2 GT ISZERO PUSH2 0x20FB JUMPI PUSH1 0x0 DUP5 DUP5 ADD MSTORE JUMPDEST POP POP POP POP JUMP JUMPDEST PUSH1 0x0 PUSH1 0x2 DUP3 DIV SWAP1 POP PUSH1 0x1 DUP3 AND DUP1 PUSH2 0x2119 JUMPI PUSH1 0x7F DUP3 AND SWAP2 POP JUMPDEST PUSH1 0x20 DUP3 LT DUP2 EQ ISZERO PUSH2 0x212D JUMPI PUSH2 0x212C PUSH2 0x220B JUMP JUMPDEST JUMPDEST POP SWAP2 SWAP1 POP JUMP JUMPDEST PUSH2 0x213C DUP3 PUSH2 0x22AC JUMP JUMPDEST DUP2 ADD DUP2 DUP2 LT PUSH8 0xFFFFFFFFFFFFFFFF DUP3 GT OR ISZERO PUSH2 0x215B JUMPI PUSH2 0x215A PUSH2 0x2269 JUMP JUMPDEST JUMPDEST DUP1 PUSH1 0x40 MSTORE POP POP POP JUMP JUMPDEST PUSH1 0x0 PUSH2 0x216F DUP3 PUSH2 0x2091 JUMP JUMPDEST SWAP2 POP PUSH32 0xFFFFFFFFFFFFFFFFFFFFFFFFFFFFFFFFFFFFFFFFFFFFFFFFFFFFFFFFFFFFFFFF DUP3 EQ ISZERO PUSH2 0x21A2 JUMPI PUSH2 0x21A1 PUSH2 0x21AD JUMP JUMPDEST JUMPDEST PUSH1 0x1 DUP3 ADD SWAP1 POP SWAP2 SWAP1 POP JUMP JUMPDEST PUSH32 0x4E487B7100000000000000000000000000000000000000000000000000000000 PUSH1 0x0 MSTORE PUSH1 0x11 PUSH1 0x4 MSTORE PUSH1 0x24 PUSH1 0x0 REVERT JUMPDEST PUSH32 0x4E487B7100000000000000000000000000000000000000000000000000000000 PUSH1 0x0 MSTORE PUSH1 0x21 PUSH1 0x4 MSTORE PUSH1 0x24 PUSH1 0x0 REVERT JUMPDEST PUSH32 0x4E487B7100000000000000000000000000000000000000000000000000000000 PUSH1 0x0 MSTORE PUSH1 0x22 PUSH1 0x4 MSTORE PUSH1 0x24 PUSH1 0x0 REVERT JUMPDEST PUSH32 0x4E487B7100000000000000000000000000000000000000000000000000000000 PUSH1 0x0 MSTORE PUSH1 0x32 PUSH1 0x4 MSTORE PUSH1 0x24 PUSH1 0x0 REVERT JUMPDEST PUSH32 0x4E487B7100000000000000000000000000000000000000000000000000000000 PUSH1 0x0 MSTORE PUSH1 0x41 PUSH1 0x4 MSTORE PUSH1 0x24 PUSH1 0x0 REVERT JUMPDEST PUSH1 0x0 DUP1 REVERT JUMPDEST PUSH1 0x0 DUP1 REVERT JUMPDEST PUSH1 0x0 DUP1 REVERT JUMPDEST PUSH1 0x0 DUP1 REVERT JUMPDEST PUSH1 0x0 PUSH1 0x1F NOT PUSH1 0x1F DUP4 ADD AND SWAP1 POP SWAP2 SWAP1 POP JUMP JUMPDEST PUSH1 0x5 DUP2 LT PUSH2 0x22CE JUMPI PUSH2 0x22CD PUSH2 0x21DC JUMP JUMPDEST JUMPDEST POP JUMP JUMPDEST PUSH2 0x22DA DUP2 PUSH2 0x2091 JUMP JUMPDEST DUP2 EQ PUSH2 0x22E5 JUMPI PUSH1 0x0 DUP1 REVERT JUMPDEST POP JUMP INVALID LOG2 PUSH5 0x6970667358 0x22 SLT KECCAK256 NUMBER 0xD3 0xCD 0xBD 0xD5 SDIV SWAP16 0x5F SWAP4 0xAF SHR AND DUP6 0xB0 INVALID PUSH30 0xBB49B6CDE7A6E3BF672112612E4072D564736F6C63430008070033000000 "
				},
				"gasEstimates": {
					"creation": {
						"codeDepositCost": "1798000",
						"executionCost": "6905",
						"totalCost": "1804905"
					},
					"external": {
						"addPaymentInfo(uint256,uint256,string)": "infinite",
						"addProject(string,string,string,uint256,uint256,string,string)": "infinite",
						"deleteProject(uint256)": "infinite",
						"getAllProjects()": "infinite",
						"getDonatedProjectsByUsername(string)": "infinite",
						"getPatientByDonorName(string)": "infinite",
						"getProjectById(uint256)": "infinite",
						"refundMoney(uint256,uint256)": "infinite"
					}
				},
				"methodIdentifiers": {
					"addPaymentInfo(uint256,uint256,string)": "54138541",
					"addProject(string,string,string,uint256,uint256,string,string)": "7fdd45dc",
					"deleteProject(uint256)": "4cd0cb28",
					"getAllProjects()": "80d03829",
					"getDonatedProjectsByUsername(string)": "20e8be43",
					"getPatientByDonorName(string)": "6fe1ac91",
					"getProjectById(uint256)": "bee5cdca",
					"refundMoney(uint256,uint256)": "e6279b4f"
				}
			},
			"storageLayout": {
				"storage": [
					{
						"astId": 3,
						"contract": "project_management/Project.sol:Project",
						"label": "count",
						"offset": 0,
						"slot": "0",
						"type": "t_uint256"
					},
					{
						"astId": 8,
						"contract": "project_management/Project.sol:Project",
						"label": "donorProjectMappings",
						"offset": 0,
						"slot": "1",
						"type": "t_mapping(t_string_memory_ptr,t_array(t_uint256)dyn_storage)"
					},
					{
						"astId": 104,
						"contract": "project_management/Project.sol:Project",
						"label": "projects",
						"offset": 0,
						"slot": "2",
						"type": "t_mapping(t_uint256,t_struct(ProjectInfo)49_storage)"
					}
				],
				"types": {
					"t_array(t_string_storage)dyn_storage": {
						"base": "t_string_storage",
						"encoding": "dynamic_array",
						"label": "string[]",
						"numberOfBytes": "32"
					},
					"t_array(t_uint256)dyn_storage": {
						"base": "t_uint256",
						"encoding": "dynamic_array",
						"label": "uint256[]",
						"numberOfBytes": "32"
					},
					"t_enum(ProjectStatus)22": {
						"encoding": "inplace",
						"label": "enum Project.ProjectStatus",
						"numberOfBytes": "1"
					},
					"t_mapping(t_string_memory_ptr,t_array(t_uint256)dyn_storage)": {
						"encoding": "mapping",
						"key": "t_string_memory_ptr",
						"label": "mapping(string => uint256[])",
						"numberOfBytes": "32",
						"value": "t_array(t_uint256)dyn_storage"
					},
					"t_mapping(t_uint256,t_struct(ProjectInfo)49_storage)": {
						"encoding": "mapping",
						"key": "t_uint256",
						"label": "mapping(uint256 => struct Project.ProjectInfo)",
						"numberOfBytes": "32",
						"value": "t_struct(ProjectInfo)49_storage"
					},
					"t_string_memory_ptr": {
						"encoding": "bytes",
						"label": "string",
						"numberOfBytes": "32"
					},
					"t_string_storage": {
						"encoding": "bytes",
						"label": "string",
						"numberOfBytes": "32"
					},
					"t_struct(ProjectInfo)49_storage": {
						"encoding": "inplace",
						"label": "struct Project.ProjectInfo",
						"members": [
							{
								"astId": 24,
								"contract": "project_management/Project.sol:Project",
								"label": "id",
								"offset": 0,
								"slot": "0",
								"type": "t_uint256"
							},
							{
								"astId": 26,
								"contract": "project_management/Project.sol:Project",
								"label": "name",
								"offset": 0,
								"slot": "1",
								"type": "t_string_storage"
							},
							{
								"astId": 28,
								"contract": "project_management/Project.sol:Project",
								"label": "description",
								"offset": 0,
								"slot": "2",
								"type": "t_string_storage"
							},
							{
								"astId": 30,
								"contract": "project_management/Project.sol:Project",
								"label": "location",
								"offset": 0,
								"slot": "3",
								"type": "t_string_storage"
							},
							{
								"astId": 32,
								"contract": "project_management/Project.sol:Project",
								"label": "estimatedBudget",
								"offset": 0,
								"slot": "4",
								"type": "t_uint256"
							},
							{
								"astId": 34,
								"contract": "project_management/Project.sol:Project",
								"label": "fundedMoney",
								"offset": 0,
								"slot": "5",
								"type": "t_uint256"
							},
							{
								"astId": 36,
								"contract": "project_management/Project.sol:Project",
								"label": "estimatedDuration",
								"offset": 0,
								"slot": "6",
								"type": "t_uint256"
							},
							{
								"astId": 38,
								"contract": "project_management/Project.sol:Project",
								"label": "createdAt",
								"offset": 0,
								"slot": "7",
								"type": "t_uint256"
							},
							{
								"astId": 40,
								"contract": "project_management/Project.sol:Project",
								"label": "companyId",
								"offset": 0,
								"slot": "8",
								"type": "t_string_storage"
							},
							{
								"astId": 42,
								"contract": "project_management/Project.sol:Project",
								"label": "accountNumber",
								"offset": 0,
								"slot": "9",
								"type": "t_string_storage"
							},
							{
								"astId": 45,
								"contract": "project_management/Project.sol:Project",
								"label": "status",
								"offset": 0,
								"slot": "10",
								"type": "t_enum(ProjectStatus)22"
							},
							{
								"astId": 48,
								"contract": "project_management/Project.sol:Project",
								"label": "donors",
								"offset": 0,
								"slot": "11",
								"type": "t_array(t_string_storage)dyn_storage"
							}
						],
						"numberOfBytes": "384"
					},
					"t_uint256": {
						"encoding": "inplace",
						"label": "uint256",
						"numberOfBytes": "32"
					}
				}
			},
			"userdoc": {
				"kind": "user",
				"methods": {},
				"version": 1
			}
		}
	}
}